{"abi":[{"type":"constructor","inputs":[],"stateMutability":"nonpayable"},{"type":"receive","stateMutability":"payable"},{"type":"function","name":"TREASURY","inputs":[],"outputs":[{"name":"","type":"address","internalType":"address"}],"stateMutability":"view"},{"type":"function","name":"WEEK","inputs":[],"outputs":[{"name":"","type":"uint256","internalType":"uint256"}],"stateMutability":"view"},{"type":"function","name":"adCount","inputs":[],"outputs":[{"name":"","type":"uint256","internalType":"uint256"}],"stateMutability":"view"},{"type":"function","name":"adSpaceCount","inputs":[],"outputs":[{"name":"","type":"uint256","internalType":"uint256"}],"stateMutability":"view"},{"type":"function","name":"adSpaces","inputs":[{"name":"","type":"uint256","internalType":"uint256"}],"outputs":[{"name":"id","type":"uint256","internalType":"uint256"},{"name":"location","type":"uint8","internalType":"enum PumpFudAdManager.AdLocation"},{"name":"name","type":"string","internalType":"string"},{"name":"weeklyRate","type":"uint256","internalType":"uint256"},{"name":"isActive","type":"bool","internalType":"bool"},{"name":"isPremium","type":"bool","internalType":"bool"},{"name":"premiumMultiplier","type":"uint256","internalType":"uint256"}],"stateMutability":"view"},{"type":"function","name":"adStats","inputs":[{"name":"","type":"uint256","internalType":"uint256"}],"outputs":[{"name":"impressions","type":"uint256","internalType":"uint256"},{"name":"clicks","type":"uint256","internalType":"uint256"},{"name":"lastUpdated","type":"uint256","internalType":"uint256"}],"stateMutability":"view"},{"type":"function","name":"ads","inputs":[{"name":"","type":"uint256","internalType":"uint256"}],"outputs":[{"name":"id","type":"uint256","internalType":"uint256"},{"name":"spaceId","type":"uint256","internalType":"uint256"},{"name":"advertiser","type":"address","internalType":"address"},{"name":"imageUri","type":"string","internalType":"string"},{"name":"linkUrl","type":"string","internalType":"string"},{"name":"altText","type":"string","internalType":"string"},{"name":"startTime","type":"uint256","internalType":"uint256"},{"name":"endTime","type":"uint256","internalType":"uint256"},{"name":"paidAmount","type":"uint256","internalType":"uint256"},{"name":"isOwnerAd","type":"bool","internalType":"bool"},{"name":"isActive","type":"bool","internalType":"bool"}],"stateMutability":"view"},{"type":"function","name":"calculateRentalCost","inputs":[{"name":"spaceId","type":"uint256","internalType":"uint256"},{"name":"weeks_","type":"uint256","internalType":"uint256"}],"outputs":[{"name":"","type":"uint256","internalType":"uint256"}],"stateMutability":"view"},{"type":"function","name":"carouselAds","inputs":[{"name":"","type":"uint8","internalType":"enum PumpFudAdManager.AdLocation"},{"name":"","type":"uint256","internalType":"uint256"}],"outputs":[{"name":"","type":"uint256","internalType":"uint256"}],"stateMutability":"view"},{"type":"function","name":"carouselIndex","inputs":[{"name":"","type":"uint8","internalType":"enum PumpFudAdManager.AdLocation"}],"outputs":[{"name":"","type":"uint256","internalType":"uint256"}],"stateMutability":"view"},{"type":"function","name":"createAdSpace","inputs":[{"name":"location","type":"uint8","internalType":"enum PumpFudAdManager.AdLocation"},{"name":"name","type":"string","internalType":"string"},{"name":"customRate","type":"uint256","internalType":"uint256"},{"name":"isPremium","type":"bool","internalType":"bool"},{"name":"premiumMultiplier","type":"uint256","internalType":"uint256"}],"outputs":[{"name":"","type":"uint256","internalType":"uint256"}],"stateMutability":"nonpayable"},{"type":"function","name":"currentAd","inputs":[{"name":"","type":"uint256","internalType":"uint256"}],"outputs":[{"name":"","type":"uint256","internalType":"uint256"}],"stateMutability":"view"},{"type":"function","name":"emergencyWithdraw","inputs":[],"outputs":[],"stateMutability":"nonpayable"},{"type":"function","name":"extendAdRental","inputs":[{"name":"adId","type":"uint256","internalType":"uint256"},{"name":"additionalWeeks","type":"uint256","internalType":"uint256"}],"outputs":[],"stateMutability":"payable"},{"type":"function","name":"getActiveAdsForLocation","inputs":[{"name":"location","type":"uint8","internalType":"enum PumpFudAdManager.AdLocation"}],"outputs":[{"name":"","type":"tuple[]","internalType":"struct PumpFudAdManager.Ad[]","components":[{"name":"id","type":"uint256","internalType":"uint256"},{"name":"spaceId","type":"uint256","internalType":"uint256"},{"name":"advertiser","type":"address","internalType":"address"},{"name":"imageUri","type":"string","internalType":"string"},{"name":"linkUrl","type":"string","internalType":"string"},{"name":"altText","type":"string","internalType":"string"},{"name":"startTime","type":"uint256","internalType":"uint256"},{"name":"endTime","type":"uint256","internalType":"uint256"},{"name":"paidAmount","type":"uint256","internalType":"uint256"},{"name":"isOwnerAd","type":"bool","internalType":"bool"},{"name":"isActive","type":"bool","internalType":"bool"}]}],"stateMutability":"view"},{"type":"function","name":"getAdStats","inputs":[{"name":"adId","type":"uint256","internalType":"uint256"}],"outputs":[{"name":"impressions","type":"uint256","internalType":"uint256"},{"name":"clicks","type":"uint256","internalType":"uint256"},{"name":"ctr","type":"uint256","internalType":"uint256"}],"stateMutability":"view"},{"type":"function","name":"getAvailableSpaces","inputs":[],"outputs":[{"name":"","type":"tuple[]","internalType":"struct PumpFudAdManager.AdSpace[]","components":[{"name":"id","type":"uint256","internalType":"uint256"},{"name":"location","type":"uint8","internalType":"enum PumpFudAdManager.AdLocation"},{"name":"name","type":"string","internalType":"string"},{"name":"weeklyRate","type":"uint256","internalType":"uint256"},{"name":"isActive","type":"bool","internalType":"bool"},{"name":"isPremium","type":"bool","internalType":"bool"},{"name":"premiumMultiplier","type":"uint256","internalType":"uint256"}]}],"stateMutability":"view"},{"type":"function","name":"getCurrentAdForSpace","inputs":[{"name":"spaceId","type":"uint256","internalType":"uint256"}],"outputs":[{"name":"","type":"tuple","internalType":"struct PumpFudAdManager.Ad","components":[{"name":"id","type":"uint256","internalType":"uint256"},{"name":"spaceId","type":"uint256","internalType":"uint256"},{"name":"advertiser","type":"address","internalType":"address"},{"name":"imageUri","type":"string","internalType":"string"},{"name":"linkUrl","type":"string","internalType":"string"},{"name":"altText","type":"string","internalType":"string"},{"name":"startTime","type":"uint256","internalType":"uint256"},{"name":"endTime","type":"uint256","internalType":"uint256"},{"name":"paidAmount","type":"uint256","internalType":"uint256"},{"name":"isOwnerAd","type":"bool","internalType":"bool"},{"name":"isActive","type":"bool","internalType":"bool"}]}],"stateMutability":"view"},{"type":"function","name":"getNextCarouselAd","inputs":[{"name":"location","type":"uint8","internalType":"enum PumpFudAdManager.AdLocation"}],"outputs":[{"name":"adId","type":"uint256","internalType":"uint256"}],"stateMutability":"nonpayable"},{"type":"function","name":"getSpacesForLocation","inputs":[{"name":"location","type":"uint8","internalType":"enum PumpFudAdManager.AdLocation"}],"outputs":[{"name":"","type":"tuple[]","internalType":"struct PumpFudAdManager.AdSpace[]","components":[{"name":"id","type":"uint256","internalType":"uint256"},{"name":"location","type":"uint8","internalType":"enum PumpFudAdManager.AdLocation"},{"name":"name","type":"string","internalType":"string"},{"name":"weeklyRate","type":"uint256","internalType":"uint256"},{"name":"isActive","type":"bool","internalType":"bool"},{"name":"isPremium","type":"bool","internalType":"bool"},{"name":"premiumMultiplier","type":"uint256","internalType":"uint256"}]}],"stateMutability":"view"},{"type":"function","name":"locationSpaces","inputs":[{"name":"","type":"uint8","internalType":"enum PumpFudAdManager.AdLocation"},{"name":"","type":"uint256","internalType":"uint256"}],"outputs":[{"name":"","type":"uint256","internalType":"uint256"}],"stateMutability":"view"},{"type":"function","name":"owner","inputs":[],"outputs":[{"name":"","type":"address","internalType":"address"}],"stateMutability":"view"},{"type":"function","name":"placeOwnerAd","inputs":[{"name":"spaceId","type":"uint256","internalType":"uint256"},{"name":"imageUri","type":"string","internalType":"string"},{"name":"linkUrl","type":"string","internalType":"string"},{"name":"altText","type":"string","internalType":"string"},{"name":"durationWeeks","type":"uint256","internalType":"uint256"}],"outputs":[{"name":"adId","type":"uint256","internalType":"uint256"}],"stateMutability":"nonpayable"},{"type":"function","name":"recordClick","inputs":[{"name":"adId","type":"uint256","internalType":"uint256"}],"outputs":[],"stateMutability":"nonpayable"},{"type":"function","name":"removeAd","inputs":[{"name":"adId","type":"uint256","internalType":"uint256"}],"outputs":[],"stateMutability":"nonpayable"},{"type":"function","name":"renounceOwnership","inputs":[],"outputs":[],"stateMutability":"nonpayable"},{"type":"function","name":"rentAdSpace","inputs":[{"name":"spaceId","type":"uint256","internalType":"uint256"},{"name":"imageUri","type":"string","internalType":"string"},{"name":"linkUrl","type":"string","internalType":"string"},{"name":"altText","type":"string","internalType":"string"},{"name":"durationWeeks","type":"uint256","internalType":"uint256"}],"outputs":[{"name":"adId","type":"uint256","internalType":"uint256"}],"stateMutability":"payable"},{"type":"function","name":"setWeeklyRate","inputs":[{"name":"_ratePLS","type":"uint256","internalType":"uint256"}],"outputs":[],"stateMutability":"nonpayable"},{"type":"function","name":"spaceAdHistory","inputs":[{"name":"","type":"uint256","internalType":"uint256"},{"name":"","type":"uint256","internalType":"uint256"}],"outputs":[{"name":"","type":"uint256","internalType":"uint256"}],"stateMutability":"view"},{"type":"function","name":"transferOwnership","inputs":[{"name":"newOwner","type":"address","internalType":"address"}],"outputs":[],"stateMutability":"nonpayable"},{"type":"function","name":"updateAdSpace","inputs":[{"name":"spaceId","type":"uint256","internalType":"uint256"},{"name":"weeklyRate","type":"uint256","internalType":"uint256"},{"name":"isActive","type":"bool","internalType":"bool"},{"name":"isPremium","type":"bool","internalType":"bool"},{"name":"premiumMultiplier","type":"uint256","internalType":"uint256"}],"outputs":[],"stateMutability":"nonpayable"},{"type":"function","name":"weeklyRatePLS","inputs":[],"outputs":[{"name":"","type":"uint256","internalType":"uint256"}],"stateMutability":"view"},{"type":"event","name":"AdClicked","inputs":[{"name":"adId","type":"uint256","indexed":true,"internalType":"uint256"},{"name":"timestamp","type":"uint256","indexed":false,"internalType":"uint256"}],"anonymous":false},{"type":"event","name":"AdImpression","inputs":[{"name":"adId","type":"uint256","indexed":true,"internalType":"uint256"},{"name":"count","type":"uint256","indexed":false,"internalType":"uint256"},{"name":"timestamp","type":"uint256","indexed":false,"internalType":"uint256"}],"anonymous":false},{"type":"event","name":"AdPlaced","inputs":[{"name":"adId","type":"uint256","indexed":true,"internalType":"uint256"},{"name":"spaceId","type":"uint256","indexed":true,"internalType":"uint256"},{"name":"advertiser","type":"address","indexed":true,"internalType":"address"},{"name":"duration","type":"uint256","indexed":false,"internalType":"uint256"},{"name":"paid","type":"uint256","indexed":false,"internalType":"uint256"}],"anonymous":false},{"type":"event","name":"AdRemoved","inputs":[{"name":"adId","type":"uint256","indexed":true,"internalType":"uint256"},{"name":"spaceId","type":"uint256","indexed":true,"internalType":"uint256"}],"anonymous":false},{"type":"event","name":"AdSpaceCreated","inputs":[{"name":"spaceId","type":"uint256","indexed":true,"internalType":"uint256"},{"name":"location","type":"uint8","indexed":false,"internalType":"enum PumpFudAdManager.AdLocation"},{"name":"name","type":"string","indexed":false,"internalType":"string"},{"name":"weeklyRate","type":"uint256","indexed":false,"internalType":"uint256"}],"anonymous":false},{"type":"event","name":"AdSpaceUpdated","inputs":[{"name":"spaceId","type":"uint256","indexed":true,"internalType":"uint256"},{"name":"weeklyRate","type":"uint256","indexed":false,"internalType":"uint256"},{"name":"isActive","type":"bool","indexed":false,"internalType":"bool"}],"anonymous":false},{"type":"event","name":"OwnerAdPlaced","inputs":[{"name":"adId","type":"uint256","indexed":true,"internalType":"uint256"},{"name":"spaceId","type":"uint256","indexed":true,"internalType":"uint256"},{"name":"imageUri","type":"string","indexed":false,"internalType":"string"}],"anonymous":false},{"type":"event","name":"OwnershipTransferred","inputs":[{"name":"previousOwner","type":"address","indexed":true,"internalType":"address"},{"name":"newOwner","type":"address","indexed":true,"internalType":"address"}],"anonymous":false},{"type":"event","name":"WeeklyRateUpdated","inputs":[{"name":"oldRate","type":"uint256","indexed":false,"internalType":"uint256"},{"name":"newRate","type":"uint256","indexed":false,"internalType":"uint256"}],"anonymous":false},{"type":"error","name":"AdExpired","inputs":[]},{"type":"error","name":"AdNotFound","inputs":[]},{"type":"error","name":"AdSpaceNotActive","inputs":[]},{"type":"error","name":"AdSpaceNotFound","inputs":[]},{"type":"error","name":"AdSpaceOccupied","inputs":[]},{"type":"error","name":"InsufficientPayment","inputs":[]},{"type":"error","name":"InvalidDuration","inputs":[]},{"type":"error","name":"NotAdvertiser","inputs":[]},{"type":"error","name":"OwnableInvalidOwner","inputs":[{"name":"owner","type":"address","internalType":"address"}]},{"type":"error","name":"OwnableUnauthorizedAccount","inputs":[{"name":"account","type":"address","internalType":"address"}]},{"type":"error","name":"ReentrancyGuardReentrantCall","inputs":[]}],"bytecode":{"object":"0x60808060405234620015195760017f9b779b17422d0df92223018b32b4d1fa46e071723d6817e2486d003becc55f0055331562001504575f8054336001600160a01b0319821681178355916001600160a01b03909116907f8be0079c531659141344cd1fd0a4f28419497f9722a3daafe3b4186f6b6457e09080a369054b40b1f852bda0000060015560015b60058111620003d9576200009f81620015db565b90620000f8604051927f4c616e64696e67204361726f7573656c20536c6f742000000000000000000000602085015283603691620000e781518092602086860191016200159c565b810103601681018552018362001578565b60026200010681546200151d565b90818155604051620001188162001540565b82815260208101915f8352604082018681525f606084015260016080840152600160a0840152609660c0840152845f52600460205260405f2093835185556001850190516008811015620003c55760ff801983541691161790555180519060018060401b038211620002c95782850154600181811c91168015620003ba575b6020821014620003a657601f81116200035e575b50602090601f8311600114620002e957918060c09492600596945f92620002dd575b50508160011b915f199060031b1c191617908501555b606081015160038501556004840160808201511515815460ff61ff0060a0860151151560081b1692169061ffff19161717905501519101555f8052600960205260405f209283549068010000000000000000821015620002c95760018201808655821015620002b557825f80516020620040bb83398151915292620002af965f5260205f200155608060405180925f8252606060208301526200029681518092816060860152602086860191016200159c565b5f6040830152601f01601f19168101030190a26200151d565b6200008b565b634e487b7160e01b5f52603260045260245ffd5b634e487b7160e01b5f52604160045260245ffd5b015190508a80620001cd565b908386015f5260205f20915f5b601f19851681106200034557509260c094926001926005979583601f198116106200032c575b505050811b0190850155620001e3565b01515f1960f88460031b161c191690558a80806200031c565b91926020600181928685015181550194019201620002f6565b8386015f5260205f20601f840160051c8101602085106200039e575b601f830160051c8201811062000392575050620001ab565b5f81556001016200037a565b50806200037a565b634e487b7160e01b5f52602260045260245ffd5b90607f169062000197565b634e487b7160e01b5f52602160045260245ffd5b604051620003e7816200155c565b601781527f4c616e64696e67205061676520546f702042616e6e657200000000000000000060208201526200041e6002546200151d565b9081600255604051620004318162001540565b828152600160208201528160408201525f606082015260016080820152600160a082015260c860c0820152825f52600460205260405f20908051825560208101516008811015620003c55760ff80196001850154169116176001830155604081015180519060018060401b038211620002c9576002840154600181811c91168015620014f9575b6020821014620003a657601f8111620014b0575b50602090601f83116001146200143a5791806005949260c0945f926200142e575b50508160011b915f199060031b1c19161760028501555b606081015160038501556004840160808201511515815460ff61ff0060a0860151151560081b1692169061ffff191617179055015191015560015f52600960205260405f209081549168010000000000000000831015620002c95760018301808255831015620002b5575f80516020620040bb8339815191529284915f5260205f200155608060405180926001825260606020830152620005b581518092816060860152602086860191016200159c565b5f6040830152601f01601f19168101030190a260015b600a8111156200115657604051620005e3816200155c565b60118152702a37b5b2b7102634b9ba102130b73732b960791b60208201526200060e6002546200151d565b9081600255604051620006218162001540565b8281526020810190600482528260408201525f606082015260016080820152600160a0820152609660c0820152835f52600460205260405f209181518355516008811015620003c55760ff80196001850154169116176001830155604081015180519060018060401b038211620002c9576002840154600181811c911680156200114b575b6020821014620003a657601f811162001102575b50602090601f83116001146200108c5791806005949260c0945f9262001080575b50508160011b915f199060031b1c19161760028501555b606081015160038501556004840160808201511515815460ff61ff0060a0860151151560081b1692169061ffff191617179055015191015560045f52600960205260405f209081549168010000000000000000831015620002c95760018301808255831015620002b5575f80516020620040bb8339815191529284915f5260205f200155608060405180926004825260606020830152620007a381518092816060860152602086860191016200159c565b5f6040830152601f01601f19168101030190a260015b600381111562000da75760015b600381111562000ad25760015b6005811115620007ed576040516129f39081620016c88239f35b620007f881620015db565b9062000851604051927f476c6f62616c204361726f7573656c20536c6f742000000000000000000000006020850152836035916200084081518092602086860191016200159c565b810103601581018552018362001578565b6200085e6002546200151d565b80600255604051620008708162001540565b8181526020810190600782528460408201525f606082015260016080820152600160a082015260fa60c0820152825f52600460205260405f209181518355516008811015620003c55760ff80196001850154169116176001830155604081015180519060018060401b038211620002c9576002840154600181811c9116801562000ac7575b6020821014620003a657601f811162000a7e575b50602090601f831160011462000a085791806005949260c0945f92620009fc575b50508160011b915f199060031b1c19161760028501555b606081015160038501556004840160808201511515815460ff61ff0060a0860151151560081b1692169061ffff191617179055015191015560075f52600960205260405f209283549068010000000000000000821015620002c95760018201808655821015620002b557825f80516020620040bb83398151915292620009f6965f5260205f2001556080604051809260078252606060208301526200029681518092816060860152602086860191016200159c565b620007d3565b0151905089806200092a565b90600285015f5260205f20915f5b601f198516811062000a655750926005949260019260c09583601f1981161062000a4c575b505050811b01600285015562000941565b01515f1960f88460031b161c1916905589808062000a3b565b9192602060018192868501518155019401920162000a16565b600285015f5260205f20601f840160051c81016020851062000abf575b601f830160051c8201811062000ab357505062000909565b5f815560010162000a9b565b508062000a9b565b90607f1690620008f5565b62000add81620015db565b9062000b27604051926d02337b7ba32b9102130b73732b9160951b602085015283602e9162000b1681518092602086860191016200159c565b810103600e81018552018362001578565b62000b346002546200151d565b8060025560405162000b468162001540565b8181526020810190600682528460408201525f6060820152600160808201525f60a0820152606460c0820152825f52600460205260405f209181518355516008811015620003c55760ff80196001850154169116176001830155604081015180519060018060401b038211620002c9576002840154600181811c9116801562000d9c575b6020821014620003a657601f811162000d53575b50602090601f831160011462000cdd5791806005949260c0945f9262000cd1575b50508160011b915f199060031b1c19161760028501555b606081015160038501556004840160808201511515815460ff61ff0060a0860151151560081b1692169061ffff191617179055015191015560065f52600960205260405f209283549068010000000000000000821015620002c95760018201808655821015620002b557825f80516020620040bb8339815191529262000ccb965f5260205f2001556080604051809260068252606060208301526200029681518092816060860152602086860191016200159c565b620007c6565b01519050898062000bff565b90600285015f5260205f20915f5b601f198516811062000d3a5750926005949260019260c09583601f1981161062000d21575b505050811b01600285015562000c16565b01515f1960f88460031b161c1916905589808062000d10565b9192602060018192868501518155019401920162000ceb565b600285015f5260205f20601f840160051c81016020851062000d94575b601f830160051c8201811062000d8857505062000bde565b5f815560010162000d70565b508062000d70565b90607f169062000bca565b62000db281620015db565b9062000dff604051927002630bab731b4102830b3b29029b837ba1607d1b60208501528360319162000dee81518092602086860191016200159c565b810103601181018552018362001578565b62000e0c6002546200151d565b8060025560405162000e1e8162001540565b8181526020810190600582528460408201525f606082015260016080820152600160a082015260af60c0820152825f52600460205260405f209181518355516008811015620003c55760ff80196001850154169116176001830155604081015180519060018060401b038211620002c9576002840154600181811c9116801562001075575b6020821014620003a657601f81116200102c575b50602090601f831160011462000fb65791806005949260c0945f9262000faa575b50508160011b915f199060031b1c19161760028501555b606081015160038501556004840160808201511515815460ff61ff0060a0860151151560081b1692169061ffff191617179055015191015560055f52600960205260405f209283549068010000000000000000821015620002c95760018201808655821015620002b557825f80516020620040bb8339815191529262000fa4965f5260205f2001556080604051809260058252606060208301526200029681518092816060860152602086860191016200159c565b620007b9565b01519050898062000ed8565b90600285015f5260205f20915f5b601f1985168110620010135750926005949260019260c09583601f1981161062000ffa575b505050811b01600285015562000eef565b01515f1960f88460031b161c1916905589808062000fe9565b9192602060018192868501518155019401920162000fc4565b600285015f5260205f20601f840160051c8101602085106200106d575b601f830160051c820181106200106157505062000eb7565b5f815560010162001049565b508062001049565b90607f169062000ea3565b015190508880620006db565b90600285015f5260205f20915f5b601f1985168110620010e95750926005949260019260c09583601f19811610620010d0575b505050811b016002850155620006f2565b01515f1960f88460031b161c19169055888080620010bf565b919260206001819286850151815501940192016200109a565b600285015f5260205f20601f840160051c81016020851062001143575b601f830160051c8201811062001137575050620006ba565b5f81556001016200111f565b50806200111f565b90607f1690620006a6565b6200116181620015db565b90620011ae603260405180947102230b9b43137b0b9321029b4b232b130b9160751b60208301526200119d81518092602086860191016200159c565b810103601281018552018362001578565b620011bb6002546200151d565b80600255604051620011cd8162001540565b8181526020810190600282528460408201525f6060820152600160808201525f60a0820152606460c0820152825f52600460205260405f209181518355516008811015620003c55760ff80196001850154169116176001830155604081015180519060018060401b038211620002c9576002840154600181811c9116801562001423575b6020821014620003a657601f8111620013da575b50602090601f8311600114620013645791806005949260c0945f9262001358575b50508160011b915f199060031b1c19161760028501555b606081015160038501556004840160808201511515815460ff61ff0060a0860151151560081b1692169061ffff191617179055015191015560025f52600960205260405f209283549068010000000000000000821015620002c95760018201808655821015620002b557825f80516020620040bb8339815191529262001352965f5260205f2001556080604051809260028252606060208301526200029681518092816060860152602086860191016200159c565b620005cb565b01519050898062001286565b90600285015f5260205f20915f5b601f1985168110620013c15750926005949260019260c09583601f19811610620013a8575b505050811b0160028501556200129d565b01515f1960f88460031b161c1916905589808062001397565b9192602060018192868501518155019401920162001372565b600285015f5260205f20601f840160051c8101602085106200141b575b601f830160051c820181106200140f57505062001265565b5f8155600101620013f7565b5080620013f7565b90607f169062001251565b015190508880620004ed565b90600285015f5260205f20915f5b601f1985168110620014975750926005949260019260c09583601f198116106200147e575b505050811b01600285015562000504565b01515f1960f88460031b161c191690558880806200146d565b9192602060018192868501518155019401920162001448565b600285015f5260205f20601f840160051c810160208510620014f1575b601f830160051c82018110620014e5575050620004cc565b5f8155600101620014cd565b5080620014cd565b90607f1690620004b8565b631e4fbdf760e01b81525f6004820152602490fd5b5f80fd5b5f1981146200152c5760010190565b634e487b7160e01b5f52601160045260245ffd5b60e081019081106001600160401b03821117620002c957604052565b604081019081106001600160401b03821117620002c957604052565b601f909101601f19168101906001600160401b03821190821017620002c957604052565b5f5b838110620015ae5750505f910152565b81810151838201526020016200159e565b6001600160401b038111620002c957601f01601f191660200190565b8015620016a7575f81805b620016905750620015f781620015bf565b9062001607604051928362001578565b808252601f196200161882620015bf565b013660208401375b8092801562001689575f1982019182116200152c578193600a9260309084840682018092116200152c5785511115620002b55760f81b7fff00000000000000000000000000000000000000000000000000000000000000165f1a908401601f0153049162001620565b5050905090565b906200169e600a916200151d565b910480620015e6565b50604051620016b6816200155c565b60018152600360fc1b60208201529056fe6080604052600436101561001a575b3615610018575f80fd5b005b5f3560e01c806311a7a4c014611e165780631464df4a14611de3578063283b86a714611db25780632d2c556514611d8457806336f60eff14611cc75780633f6a260814611b8957806354bf87c114611b615780635a9c04b3146118755780635d56e25b146118585780636851d39d146117cd5780636d6563a8146117b0578063715018a614611759578063760aea3a146117415780637f587eb4146110e057806383d465d21461109557806386611a7914611007578063893e554414610fe65780638da5cb5b14610fbf578063969479eb14610f905780639c89dcf314610f73578063a31f0a6614610ef5578063be12cc8814610da8578063ca8a0de914610bc7578063cbb5973814610b74578063cc72ae7114610b4a578063db2e21bc14610ac7578063e7c67fe714610a31578063ebe10cbf14610448578063f2fde38b146103c1578063f3888801146101da578063f4359ce5146101bd5763fc51de200361000e57346101b95761019661018f366121c4565b9190612144565b80548210156101b9576020916101ab916121e3565b90546040519160031b1c8152f35b5f80fd5b346101b9575f3660031901126101b957602060405162093a808152f35b346101b9576020806003193601126101b9576008600435818110156101b9576102029061215b565b5f915f918054925b838110610351575061023461021e85612797565b9461022c6040519687611f8b565b808652612797565b601f1901855f5b82811061033b575050505f905f5b8481106102ad57604080518881528751818a018190525f92600582901b83018101918a8c01918c9085015b8287106102815785850386f35b90919293828061029d600193603f198a8203018652885161208c565b9601920196019592919092610274565b6102b781836121e3565b90549060031b1c5f526005875260405f2060ff6009820154861c1680610318575b6102e6575b50600101610249565b600191936102f6610311926123a9565b610300828a612829565b5261030b8189612829565b506125b8565b92906102dd565b50600781015442811090811591610330575b506102d8565b5f191490508961032a565b61034361233b565b82828901015201869061023b565b61035b81836121e3565b90549060031b1c5f526005865260405f2060ff6009820154851c16908161039f575b5061038b575b60010161020a565b936103976001916125b8565b949050610383565b60070154428110801592506103b6575b508761037d565b5f19149050876103af565b346101b95760203660031901126101b9576004356001600160a01b03818116918290036101b9576103f0612913565b8115610430575f54826001600160601b0360a01b8216175f55167f8be0079c531659141344cd1fd0a4f28419497f9722a3daafe3b4186f6b6457e05f80a3005b604051631e4fbdf760e01b81525f6004820152602490fd5b346101b9576104563661220c565b61046897959796949196939293612913565b855f52600460205260405f2093845415610a1f576104876003546125b8565b978860035582155f146109e6576104e092506104d45f19945b604051966104ad88611f54565b8b88528a60208901523360408901526104c88d36908c612739565b60608901523691612739565b60808601523691612739565b60a08301524260c083015260e08201525f61010082015260016101208201526001610140820152845f52600560205260405f2081518155602082015160018201556002810160018060a01b036040840151166001600160601b0360a01b82541617905560608201518051906001600160401b0382116108405781906105686003850154611f01565b601f8111610996575b50602090601f8311600114610928575f9261091d575b50508160011b915f199060031b1c19161760038201555b60808201518051906001600160401b0382116108405781906105c36004850154611f01565b601f81116108cd575b50602090601f831160011461085f575f92610854575b50508160011b915f199060031b1c19161760048201555b60a08201518051906001600160401b0382116108405761061c6005840154611f01565b601f81116107fc575b50918795939160209995938a90601f83116001146107515760016040966106ef7fcab7e11c2e8a53598f553cef387e72fc408e4aebf8371e5a3cb7c9f3040bd51f9a99976101406009610718998f99806107139a60ff9a5f92610746575b50505f19600383901b1c191690881b1760058201555b60c0840151600682015560e08401516007820155610100840151600882015501916106d76101208201511515849060ff801983541691151516179055565b0151815461ff00191690151560081b61ff0016179055565b8b5f5260078e5284885f205560088e5261070b85895f2061276f565b01541661215b565b61276f565b8282519384928a8452818b850152848401375f828201840152601f01601f19168101030190a3604051908152f35b015190505f80610683565b90600584999899015f528b5f20915f5b601f19851681106107e257506040966106ef8a9b999761014060096107189960017fcab7e11c2e8a53598f553cef387e72fc408e4aebf8371e5a3cb7c9f3040bd51f9f9a6107139a60ff9a839a83601f198116106107ca575b505050811b016005820155610699565b01515f1960f88460031b161c191690555f80806107ba565b8183015184558c9950600190930192918d01918d01610761565b600584015f5260205f20601f840160051c810160208510610839575b601f830160051c8201811061082e575050610625565b5f8155600101610818565b5080610818565b634e487b7160e01b5f52604160045260245ffd5b0151905089806105e2565b9250600484015f5260205f20905f935b601f19841685106108b2576001945083601f1981161061089a575b505050811b0160048201556105f9565b01515f1960f88460031b161c1916905589808061088a565b8181015183556020948501946001909301929091019061086f565b909150600484015f5260205f20601f840160051c810160208510610916575b90849392915b601f830160051c820181106109085750506105cc565b5f81558594506001016108f2565b50806108ec565b015190508980610587565b9250600384015f5260205f20905f935b601f198416851061097b576001945083601f19811610610963575b505050811b01600382015561059e565b01515f1960f88460031b161c19169055898080610953565b81810151835560209485019460019093019290910190610938565b909150600384015f5260205f20601f840160051c8101602085106109df575b90849392915b601f830160051c820181106109d1575050610571565b5f81558594506001016109bb565b50806109b5565b62093a8080840293840403610a0b576104d4610a056104e0944261253f565b946104a0565b634e487b7160e01b5f52601160045260245ffd5b604051631cc200e960e11b8152600490fd5b346101b95760203660031901126101b9576004355f52600460205260405f20805460ff60018301541691610a6760028201611fac565b60ff600383015492610aa36005600483015492015493610a9260405198899889526020890190612278565b60e0604088015260e087019061204e565b9360608601528181161515608086015260081c16151560a084015260c08301520390f35b346101b9575f3660031901126101b957610adf612913565b4780610ae757005b5f808080937349bbefa1d94702c0e9a5eaddec7c3c5d3eb9086b5af1610b0b61254c565b5015610b1357005b60405162461bcd60e51b815260206004820152600f60248201526e15da5d1a191c985dc819985a5b1959608a1b6044820152606490fd5b346101b95760203660031901126101b9576004355f526007602052602060405f2054604051908152f35b346101b95760203660031901126101b957600435610b90612913565b7fac20930ab5dccf183813b40521eb412af0f69262f3ae373068c55fc8d3a6c47960406001548151908152836020820152a1600155005b346101b9575f3660031901126101b9576002545f60015b82811115610cec5750610bf0906127ae565b905f60015b82811115610c0f5760405180610c0b8682612285565b0390f35b805f5260206004815260405f209060ff9081600484015416610c3d575b505050610c38906125b8565b610bf5565b60079081815260405f205480155f14610c845750505050610c389192610c65610c7a92612849565b610c6f8288612829565b5261030b8187612829565b915b908580610c2c565b906005915f525260405f2091600983015460081c1615918215610ccb575b5050610cb3575b50610c3890610c7c565b610c389192610c65610cc492612849565b9190610ca9565b0154428110915081610ce0575b508680610ca2565b5f191415905086610cd8565b805f5260206004815260ff9081600460405f20015416610d17575b5050610d12906125b8565b610bde565b60079081815260405f205480155f14610d44575050505090610d3b610d12916125b8565b915b9084610d07565b906005915f525260405f2091600983015460081c1615918215610d87575b5050610d72575b610d1290610d3d565b90610d7f610d12916125b8565b919050610d69565b0154428110915081610d9c575b508480610d62565b5f191415905084610d94565b346101b95760203660031901126101b957600435610dc4612913565b805f52600560205260405f20805415610ee3576009810161ff0019815416905560018091019081545f52600760205260405f2083815414610eda575b5081545f52600460205280610e1e60ff600160405f2001541661215b565b5f925b610e51575b50505054907f05bcea8d921c499b8fb5a3ec327df4a95fec8110a7eeccaf7706d21aff2ffc485f80a3005b805480841015610ed45785610e6685846121e3565b919054600392831b1c14610e805750508180930192610e21565b919250925f198401938411610a0b57610eaf610ec792610ea3610ecc96866121e3565b9054911b1c91846121e3565b90919082549060031b91821b915f19901b1916179055565b612980565b828080610e26565b50610e26565b5f905583610e00565b60405163199a2c4960e01b8152600490fd5b346101b95760203660031901126101b957600435805f52600560205260405f205415610ee357805f526006602052600160405f2001610f3481546125b8565b9055805f52600660205242600260405f2001557f2b90e29cc52a0a8a2e95d66cbcdeee6853c4e66fd84540e897a39fa80b43a62e6020604051428152a2005b346101b9575f3660031901126101b9576020600354604051908152f35b346101b957610f9e36612181565b905f52600860205260405f2080548210156101b9576020916101ab916121e3565b346101b9575f3660031901126101b9575f546040516001600160a01b039091168152602090f35b346101b9576020610fff610ff936612181565b906128b2565b604051908152f35b346101b9576020806003193601126101b95760043560088110156101b95761102e90612144565b9081549061103b826127ae565b925f5b8381106110535760405180610c0b8782612285565b80611060600192846121e3565b90549060031b1c5f526004845261107960405f20612849565b6110838288612829565b5261108e8187612829565b500161103e565b346101b95760203660031901126101b9576004355f52600660205260405f208054610c0b60026001840154930154604051938493846040919493926060820195825260208201520152565b6110e93661220c565b949096936110f893929361293e565b851561172f57845f52600460205260405f2093845415610a1f5760ff6004860154161561171d57855f52600760205260405f2054806116d5575b5061113d87876128b2565b988934106116c3576111506003546125b8565b988960035562093a809389858102048503610a0b578a966104c86104d49361117d6111a0988e024261253f565b986040519a61118b8c611f54565b8b528c60208c01523360408c01523691612739565b60a08301524260c083015260e0820152346101008201525f6101208201526001610140820152845f52600560205260405f209080518255602081015160018301556002820160018060a01b036040830151166001600160601b0360a01b82541617905560608101518051906001600160401b0382116108405781906112286003860154611f01565b601f8111611673575b50602090601f8311600114611605575f926115fa575b50508160011b915f199060031b1c19161760038301555b60808101518051906001600160401b0382116108405781906112836004860154611f01565b601f81116115aa575b50602090601f831160011461153c575f92611531575b50508160011b915f199060031b1c19161760048301555b60a08101519182516001600160401b0381116108405787936112de6005840154611f01565b601f81116114db575b50602090601f83116001146114715761071394610140600960ff96866001976113889c97611368975f926107465750505f19600383901b1c191690881b17600582015560c0840151600682015560e08401516007820155610100840151600882015501916106d76101208201511515849060ff801983541691151516179055565b865f5260076020528460405f2055600860205261070b8560405f2061276f565b6113b55f808080887349bbefa1d94702c0e9a5eaddec7c3c5d3eb9086b5af16113af61254c565b5061257b565b83341161141d575b60209360405192835284830152827f56f7cb2977fed1022d791f7d57dcaac7ba790595242307a2bb55944f059984fe60403394a460017f9b779b17422d0df92223018b32b4d1fa46e071723d6817e2486d003becc55f0055604051908152f35b833403348111610a0b575f80808093335af161143761254c565b506113bd5760405162461bcd60e51b815260206004820152600d60248201526c1499599d5b990819985a5b1959609a1b6044820152606490fd5b90600584015f5260205f20915f5b601f19851681106114c0575094610140600960ff966001876113889c97611368976107139c849b601f198116106107ca57505050811b016005820155610699565b8183015184558b97506001909301926020928301920161147f565b909192939450600584015f5260205f20601f840160051c81016020851061152a575b908a9695949392915b601f830160051c8201811061151c5750506112e7565b5f81558b9750600101611506565b50806114fd565b0151905089806112a2565b9250600485015f5260205f20905f935b601f198416851061158f576001945083601f19811610611577575b505050811b0160048301556112b9565b01515f1960f88460031b161c19169055898080611567565b8181015183556020948501946001909301929091019061154c565b909150600485015f5260205f20601f840160051c8101602085106115f3575b90849392915b601f830160051c820181106115e557505061128c565b5f81558594506001016115cf565b50806115c9565b015190508980611247565b9250600385015f5260205f20905f935b601f1984168510611658576001945083601f19811610611640575b505050811b01600383015561125e565b01515f1960f88460031b161c19169055898080611630565b81810151835560209485019460019093019290910190611615565b909150600385015f5260205f20601f840160051c8101602085106116bc575b90849392915b601f830160051c820181106116ae575050611231565b5f8155859450600101611698565b5080611692565b60405163cd1c886760e01b8152600490fd5b5f52600560205260405f2060ff600982015460081c16908161170f575b506116fd5789611132565b6040516309b9f37960e21b8152600490fd5b60079150015442108a6116f2565b6040516329414cd760e11b8152600490fd5b604051637616640160e01b8152600490fd5b346101b957610196611752366121c4565b919061215b565b346101b9575f3660031901126101b957611771612913565b5f80546001600160a01b0319811682556001600160a01b03167f8be0079c531659141344cd1fd0a4f28419497f9722a3daafe3b4186f6b6457e08280a3005b346101b9575f3660031901126101b9576020600254604051908152f35b346101b95760203660031901126101b9576004355f52600660205260405f206001815491015490801580155f1461184e5761271090818402918483041484151715610a0b5761183a5781610c0b91045b604051938493846040919493926060820195825260208201520152565b634e487b7160e01b5f52601260045260245ffd5b50610c0b5f61181d565b346101b9575f3660031901126101b9576020600154604051908152f35b346101b95760a03660031901126101b957600860043510156101b9576024356001600160401b038082116101b9576118b46118ce923690600401612197565b92906118be612172565b936118c7612913565b3691612739565b916118da6002546125b8565b9182600255604051906118ec82611f39565b83825260208201926119006004358561283d565b6040830190868252604435606085015260016080850152151560a084015260843560c0840152845f52600460205260405f2093835185556001850190516008811015611b4d5760ff80198354169116179055518051918211610840576119696002850154611f01565b601f8111611b09575b5091849391602096938790601f8311600114611a71577f5338f1436664f28722a4f8c7059c6aca0bbb990fbd10345af08a0ec5cf200b9a959383611a53969460059460c0945f92611a66575b50508160011b915f199060031b1c19161760028501555b60608101516003850155611a1d60048501611a0260808401511515829060ff801983541691151516179055565b60a0830151815461ff00191690151560081b61ff0016179055565b0151910155611a3184610713600435612144565b604051918291611a4383600435612278565b606088840152606083019061204e565b60443560408301520390a2604051908152f35b015190508c806119be565b90600285015f52885f20915f5b601f1985168110611aef57509360018460059460c0947f5338f1436664f28722a4f8c7059c6aca0bbb990fbd10345af08a0ec5cf200b9a9a98611a539a98601f19811610611ad7575b505050811b0160028501556119d5565b01515f1960f88460031b161c191690558c8080611ac7565b818301518455899850600190930192918a01918a01611a7e565b600285015f5260205f20601f840160051c810160208510611b46575b601f830160051c82018110611b3b575050611972565b5f8155600101611b25565b5080611b25565b634e487b7160e01b5f52602160045260245ffd5b346101b95760203660031901126101b95760043560088110156101b957610fff6020916125c6565b611b9236612181565b90611b9b61293e565b811561172f57805f52600560205260405f20805415610ee35760028101546001600160a01b03163303611cb55760ff600982015416611cb5576001810190611be48483546128b2565b34106116c357600781019081544281115f14611cad57915b62093a8086029262093a7f1987850401610a0b57600893611c1c9161253f565b905501611c2a34825461253f565b9055611c535f808080347349bbefa1d94702c0e9a5eaddec7c3c5d3eb9086b5af16113af61254c565b54906040519283523460208401527f56f7cb2977fed1022d791f7d57dcaac7ba790595242307a2bb55944f059984fe60403394a460017f9b779b17422d0df92223018b32b4d1fa46e071723d6817e2486d003becc55f0055005b504291611bfc565b604051632211114160e11b8152600490fd5b346101b95760a03660031901126101b9576004356044358015156024358183036101b957611cf3612172565b91611cfc612913565b845f52600460205260405f20805415610a1f57611d6f6040947fe12f4b1870a087fa4407b193364f110c63af068f26494ac4b904c147f4997fc396856003850155611d576004850191829060ff801983541691151516179055565b9061ff00825491151560081b169061ff001916179055565b600560843591015582519182526020820152a2005b346101b9575f3660031901126101b95760206040517349bbefa1d94702c0e9a5eaddec7c3c5d3eb9086b8152f35b346101b95760203660031901126101b95760043560088110156101b957611dda60209161212d565b54604051908152f35b346101b95760203660031901126101b957610c0b611e02600435612449565b60405191829160208352602083019061208c565b346101b95760203660031901126101b9576004355f526005602052606060405f20805460ff60018301549160018060a01b0360028501541693611e5b60038201611fac565b93611ed5611e6b60048401611fac565b611ec7611e7a60058601611fac565b91611eb9600687015499600788015496600960088a0154990154996040519e8f9e8f9061016094859483526020830152604082015201528c019061204e565b908a820360808c015261204e565b9088820360a08a015261204e565b9460c087015260e0860152610100850152818116151561012085015260081c1615156101408301520390f35b90600182811c92168015611f2f575b6020831014611f1b57565b634e487b7160e01b5f52602260045260245ffd5b91607f1691611f10565b60e081019081106001600160401b0382111761084057604052565b61016081019081106001600160401b0382111761084057604052565b602081019081106001600160401b0382111761084057604052565b90601f801991011681019081106001600160401b0382111761084057604052565b9060405191825f8254611fbe81611f01565b908184526020946001916001811690815f1461202c5750600114611fee575b505050611fec92500383611f8b565b565b5f90815285812095935091905b818310612014575050611fec93508201015f8080611fdd565b85548884018501529485019487945091830191611ffb565b92505050611fec94925060ff191682840152151560051b8201015f8080611fdd565b91908251928382525f5b848110612078575050825f602080949584010152601f8019910116010190565b602081830181015184830182015201612058565b906120f16120df6120cd610160855185526020860151602086015260018060a01b03604087015116604086015260608601519080606087015285019061204e565b6080850151848203608086015261204e565b60a084015183820360a085015261204e565b9160c081015160c083015260e081015160e083015261010080820151908301526101208082015115159083015261014080910151151591015290565b6008811015611b4d575f52600b60205260405f2090565b6008811015611b4d575f52600960205260405f2090565b6008811015611b4d575f52600a60205260405f2090565b6064359081151582036101b957565b60409060031901126101b9576004359060243590565b9181601f840112156101b9578235916001600160401b0383116101b957602083818601950101116101b957565b60409060031901126101b95760043560088110156101b9579060243590565b80548210156121f8575f5260205f2001905f90565b634e487b7160e01b5f52603260045260245ffd5b60a06003198201126101b957600435916001600160401b036024358181116101b9578361223b91600401612197565b939093926044358381116101b9578261225691600401612197565b939093926064359182116101b95761227091600401612197565b909160843590565b906008821015611b4d5752565b6020808201908083528351809252604092604081018260408560051b8401019601945f925b8584106122bb575050505050505090565b909192939495968580600192603f198582030187528a51906122fe60e0835183526122ec8585015186850190612278565b8884015190808a85015283019061204e565b916060808201519083015260808082015115159083015260a08082015115159083015260c0809101519101529901940194019295949391906122aa565b6040519061234882611f54565b5f6101408382815282602082015282604082015260608082015260606080820152606060a08201528260c08201528260e082015282610100820152826101208201520152565b6001600160401b03811161084057601f01601f191660200190565b906040516123b681611f54565b61014060ff60098395805485526001810154602086015260018060a01b0360028201541660408601526123eb60038201611fac565b60608601526123fc60048201611fac565b608086015261240d60058201611fac565b60a0860152600681015460c0860152600781015460e086015260088101546101008601520154818116151561012085015260081c161515910152565b61245161233b565b505f5260076020526040805f20548015612493575f526005602052805f2060ff600982015460081c1615801561250a575b6124935761249091506123a9565b90565b508051906124a082611f54565b5f82525f60208301525f8183015280516124b981611f70565b5f8152606083015280516124cc81611f70565b5f81526080830152516124de81611f70565b5f815260a08201525f60c08201525f60e08201525f6101008201525f6101208201525f61014082015290565b5060078101544281109081612520575b50612482565b5f19141590505f61251a565b81810292918115918404141715610a0b57565b91908201809211610a0b57565b3d15612576573d9061255d8261238e565b9161256b6040519384611f8b565b82523d5f602084013e565b606090565b1561258257565b60405162461bcd60e51b815260206004820152600e60248201526d14185e5b595b9d0819985a5b195960921b6044820152606490fd5b5f198114610a0b5760010190565b6125cf8161215b565b91825415612732576125e08261215b565b915f915b83548084101561268e576125f884866121e3565b9054600391821b1c5f52600560205260405f2060ff600982015460081c161590811561266c575b501561265a575f198201918211610a0b5761263d61264c92876121e3565b9054911b1c610eaf85876121e3565b61265584612980565b6125e4565b505091612666906125b8565b916125e4565b60070154428110915081612682575b505f61261f565b5f19141590505f61267b565b5092509290508054801561272b576126b2906126a98561212d565b540680926121e3565b90549060031b1c9260018201809211610a0b576126ce9061212d565b55815f52600660205260405f206126e581546125b8565b9055815f526006602052817f5e290ab1c9e6b50a19e021fa8950ab76c3dc8055e0edd1192ff5cc6bcc09713d6040805f20426002820155548151908152426020820152a2565b505f925050565b9150505f90565b9291926127458261238e565b916127536040519384611f8b565b8294818452818301116101b9578281602093845f960137010152565b90815491680100000000000000008310156108405782610eaf916001611fec950181556121e3565b6001600160401b0381116108405760051b60200190565b906127b882612797565b6040906127c86040519182611f8b565b83815280936127d9601f1991612797565b01915f5b8381106127ea5750505050565b60209082516127f881611f39565b5f8152825f818301525f606080878501528301525f60808301525f60a08301525f60c08301528286010152016127dd565b80518210156121f85760209160051b010190565b6008821015611b4d5752565b9060405161285681611f39565b60c0600582948054845261287460ff6001830154166020860161283d565b61288060028201611fac565b60408501526003810154606085015260ff60048201548181161515608087015260081c16151560a08501520154910152565b5f52600460205260405f20805415610a1f576064916128f88260036128fd9401548015155f1461290957905b600481015460081c60ff161561290157600501549061252c565b61252c565b0490565b50849061252c565b50600154906128de565b5f546001600160a01b0316330361292657565b60405163118cdaa760e01b8152336004820152602490fd5b7f9b779b17422d0df92223018b32b4d1fa46e071723d6817e2486d003becc55f00600281541461296e5760029055565b604051633ee5aeb560e01b8152600490fd5b80549081156129a9575f199182019161299983836121e3565b909182549160031b1b1916905555565b634e487b7160e01b5f52603160045260245ffdfea26469706673582212200c2cd536fef374d5a2787757330e3e3bd9ecee66de0ababad62b441bb109260e64736f6c634300081800335338f1436664f28722a4f8c7059c6aca0bbb990fbd10345af08a0ec5cf200b9a","linkReferences":{}},"methodIdentifiers":{"TREASURY()":"2d2c5565","WEEK()":"f4359ce5","adCount()":"9c89dcf3","adSpaceCount()":"6d6563a8","adSpaces(uint256)":"e7c67fe7","adStats(uint256)":"83d465d2","ads(uint256)":"11a7a4c0","calculateRentalCost(uint256,uint256)":"893e5544","carouselAds(uint8,uint256)":"760aea3a","carouselIndex(uint8)":"283b86a7","createAdSpace(uint8,string,uint256,bool,uint256)":"5a9c04b3","currentAd(uint256)":"cc72ae71","emergencyWithdraw()":"db2e21bc","extendAdRental(uint256,uint256)":"3f6a2608","getActiveAdsForLocation(uint8)":"f3888801","getAdStats(uint256)":"6851d39d","getAvailableSpaces()":"ca8a0de9","getCurrentAdForSpace(uint256)":"1464df4a","getNextCarouselAd(uint8)":"54bf87c1","getSpacesForLocation(uint8)":"86611a79","locationSpaces(uint8,uint256)":"fc51de20","owner()":"8da5cb5b","placeOwnerAd(uint256,string,string,string,uint256)":"ebe10cbf","recordClick(uint256)":"a31f0a66","removeAd(uint256)":"be12cc88","renounceOwnership()":"715018a6","rentAdSpace(uint256,string,string,string,uint256)":"7f587eb4","setWeeklyRate(uint256)":"cbb59738","spaceAdHistory(uint256,uint256)":"969479eb","transferOwnership(address)":"f2fde38b","updateAdSpace(uint256,uint256,bool,bool,uint256)":"36f60eff","weeklyRatePLS()":"5d56e25b"},"id":39}