{"abi":[{"type":"constructor","inputs":[{"name":"_pumpFud","type":"address","internalType":"address"}],"stateMutability":"nonpayable"},{"type":"receive","stateMutability":"payable"},{"type":"function","name":"NINEINCH_ROUTER","inputs":[],"outputs":[{"name":"","type":"address","internalType":"address"}],"stateMutability":"view"},{"type":"function","name":"PULSEX_V1_ROUTER","inputs":[],"outputs":[{"name":"","type":"address","internalType":"address"}],"stateMutability":"view"},{"type":"function","name":"PULSEX_V2_FACTORY","inputs":[],"outputs":[{"name":"","type":"address","internalType":"address"}],"stateMutability":"view"},{"type":"function","name":"PULSEX_V2_ROUTER","inputs":[],"outputs":[{"name":"","type":"address","internalType":"address"}],"stateMutability":"view"},{"type":"function","name":"TREASURY","inputs":[],"outputs":[{"name":"","type":"address","internalType":"address"}],"stateMutability":"view"},{"type":"function","name":"WPLS","inputs":[],"outputs":[{"name":"","type":"address","internalType":"address"}],"stateMutability":"view"},{"type":"function","name":"addToWatchlist","inputs":[{"name":"tokenId","type":"uint256","internalType":"uint256"}],"outputs":[],"stateMutability":"nonpayable"},{"type":"function","name":"authorizedBots","inputs":[{"name":"","type":"address","internalType":"address"}],"outputs":[{"name":"","type":"bool","internalType":"bool"}],"stateMutability":"view"},{"type":"function","name":"checkBondingCurveArb","inputs":[{"name":"tokenId","type":"uint256","internalType":"uint256"},{"name":"plsAmount","type":"uint256","internalType":"uint256"}],"outputs":[{"name":"profit","type":"uint256","internalType":"uint256"},{"name":"buyOnCurve","type":"bool","internalType":"bool"}],"stateMutability":"view"},{"type":"function","name":"checkCrossDexArb","inputs":[{"name":"token","type":"address","internalType":"address"},{"name":"plsAmount","type":"uint256","internalType":"uint256"},{"name":"routerBuy","type":"address","internalType":"address"},{"name":"routerSell","type":"address","internalType":"address"}],"outputs":[{"name":"profit","type":"uint256","internalType":"uint256"},{"name":"profitable","type":"bool","internalType":"bool"}],"stateMutability":"view"},{"type":"function","name":"emergencyWithdraw","inputs":[{"name":"token","type":"address","internalType":"address"},{"name":"amount","type":"uint256","internalType":"uint256"}],"outputs":[],"stateMutability":"nonpayable"},{"type":"function","name":"executeBondingCurveArb","inputs":[{"name":"tokenId","type":"uint256","internalType":"uint256"},{"name":"plsAmount","type":"uint256","internalType":"uint256"},{"name":"buyOnCurve","type":"bool","internalType":"bool"},{"name":"minProfit","type":"uint256","internalType":"uint256"}],"outputs":[{"name":"profit","type":"uint256","internalType":"uint256"}],"stateMutability":"payable"},{"type":"function","name":"executeCrossDexArb","inputs":[{"name":"token","type":"address","internalType":"address"},{"name":"plsAmount","type":"uint256","internalType":"uint256"},{"name":"routerBuy","type":"address","internalType":"address"},{"name":"routerSell","type":"address","internalType":"address"},{"name":"minProfit","type":"uint256","internalType":"uint256"}],"outputs":[{"name":"profit","type":"uint256","internalType":"uint256"}],"stateMutability":"payable"},{"type":"function","name":"getWatchList","inputs":[],"outputs":[{"name":"","type":"address[]","internalType":"address[]"}],"stateMutability":"view"},{"type":"function","name":"maxGasPrice","inputs":[],"outputs":[{"name":"","type":"uint256","internalType":"uint256"}],"stateMutability":"view"},{"type":"function","name":"maxPositionPls","inputs":[],"outputs":[{"name":"","type":"uint256","internalType":"uint256"}],"stateMutability":"view"},{"type":"function","name":"minProfitBps","inputs":[],"outputs":[{"name":"","type":"uint256","internalType":"uint256"}],"stateMutability":"view"},{"type":"function","name":"owner","inputs":[],"outputs":[{"name":"","type":"address","internalType":"address"}],"stateMutability":"view"},{"type":"function","name":"pumpFud","inputs":[],"outputs":[{"name":"","type":"address","internalType":"contract IPumpFud"}],"stateMutability":"view"},{"type":"function","name":"renounceOwnership","inputs":[],"outputs":[],"stateMutability":"nonpayable"},{"type":"function","name":"scanNearGraduation","inputs":[{"name":"tokenIds","type":"uint256[]","internalType":"uint256[]"},{"name":"thresholdPct","type":"uint256","internalType":"uint256"}],"outputs":[{"name":"nearGradTokenIds","type":"uint256[]","internalType":"uint256[]"},{"name":"reserveBalances","type":"uint256[]","internalType":"uint256[]"},{"name":"percentToGrad","type":"uint256[]","internalType":"uint256[]"}],"stateMutability":"view"},{"type":"function","name":"scanWatchedTokens","inputs":[{"name":"plsAmount","type":"uint256","internalType":"uint256"}],"outputs":[{"name":"profitableTokens","type":"address[]","internalType":"address[]"},{"name":"profits","type":"uint256[]","internalType":"uint256[]"},{"name":"buyRouters","type":"address[]","internalType":"address[]"},{"name":"sellRouters","type":"address[]","internalType":"address[]"}],"stateMutability":"view"},{"type":"function","name":"setBot","inputs":[{"name":"bot","type":"address","internalType":"address"},{"name":"authorized","type":"bool","internalType":"bool"}],"outputs":[],"stateMutability":"nonpayable"},{"type":"function","name":"setMaxGasPrice","inputs":[{"name":"_maxGas","type":"uint256","internalType":"uint256"}],"outputs":[],"stateMutability":"nonpayable"},{"type":"function","name":"setMaxPositionPls","inputs":[{"name":"_maxPls","type":"uint256","internalType":"uint256"}],"outputs":[],"stateMutability":"nonpayable"},{"type":"function","name":"setMinProfitBps","inputs":[{"name":"_bps","type":"uint256","internalType":"uint256"}],"outputs":[],"stateMutability":"nonpayable"},{"type":"function","name":"setPumpFud","inputs":[{"name":"_pumpFud","type":"address","internalType":"address"}],"outputs":[],"stateMutability":"nonpayable"},{"type":"function","name":"transferOwnership","inputs":[{"name":"newOwner","type":"address","internalType":"address"}],"outputs":[],"stateMutability":"nonpayable"},{"type":"function","name":"watchList","inputs":[{"name":"","type":"uint256","internalType":"uint256"}],"outputs":[{"name":"","type":"address","internalType":"address"}],"stateMutability":"view"},{"type":"function","name":"watchedTokens","inputs":[{"name":"","type":"address","internalType":"address"}],"outputs":[{"name":"","type":"bool","internalType":"bool"}],"stateMutability":"view"},{"type":"function","name":"withdrawProfits","inputs":[{"name":"token","type":"address","internalType":"address"}],"outputs":[],"stateMutability":"nonpayable"},{"type":"event","name":"BondingCurveArbExecuted","inputs":[{"name":"tokenId","type":"uint256","indexed":true,"internalType":"uint256"},{"name":"token","type":"address","indexed":true,"internalType":"address"},{"name":"plsIn","type":"uint256","indexed":false,"internalType":"uint256"},{"name":"profit","type":"uint256","indexed":false,"internalType":"uint256"},{"name":"buyOnCurve","type":"bool","indexed":false,"internalType":"bool"}],"anonymous":false},{"type":"event","name":"CrossDexArbExecuted","inputs":[{"name":"token","type":"address","indexed":true,"internalType":"address"},{"name":"buyRouter","type":"address","indexed":false,"internalType":"address"},{"name":"sellRouter","type":"address","indexed":false,"internalType":"address"},{"name":"amountIn","type":"uint256","indexed":false,"internalType":"uint256"},{"name":"profit","type":"uint256","indexed":false,"internalType":"uint256"}],"anonymous":false},{"type":"event","name":"GraduationArbExecuted","inputs":[{"name":"tokenId","type":"uint256","indexed":true,"internalType":"uint256"},{"name":"token","type":"address","indexed":true,"internalType":"address"},{"name":"profit","type":"uint256","indexed":false,"internalType":"uint256"}],"anonymous":false},{"type":"event","name":"OwnershipTransferred","inputs":[{"name":"previousOwner","type":"address","indexed":true,"internalType":"address"},{"name":"newOwner","type":"address","indexed":true,"internalType":"address"}],"anonymous":false},{"type":"event","name":"ProfitWithdrawn","inputs":[{"name":"token","type":"address","indexed":true,"internalType":"address"},{"name":"amount","type":"uint256","indexed":false,"internalType":"uint256"}],"anonymous":false},{"type":"event","name":"TokenAddedToWatchlist","inputs":[{"name":"token","type":"address","indexed":true,"internalType":"address"},{"name":"tokenId","type":"uint256","indexed":true,"internalType":"uint256"}],"anonymous":false},{"type":"error","name":"GasTooHigh","inputs":[]},{"type":"error","name":"NoLPExists","inputs":[]},{"type":"error","name":"NoProfitableArb","inputs":[]},{"type":"error","name":"NotAuthorized","inputs":[]},{"type":"error","name":"OwnableInvalidOwner","inputs":[{"name":"owner","type":"address","internalType":"address"}]},{"type":"error","name":"OwnableUnauthorizedAccount","inputs":[{"name":"account","type":"address","internalType":"address"}]},{"type":"error","name":"PositionTooLarge","inputs":[]},{"type":"error","name":"ReentrancyGuardReentrantCall","inputs":[]},{"type":"error","name":"TokenNotGraduated","inputs":[]},{"type":"error","name":"TokenNotLive","inputs":[]},{"type":"error","name":"TransferFailed","inputs":[]}],"bytecode":{"object":"0x60803461011957601f6123fa38819003918201601f19168301916001600160401b0383118484101761011d5780849260209460405283398101031261011957516001600160a01b039081811690819003610119573315610101575f5460018060a01b03199033828216175f55604051933391167f8be0079c531659141344cd1fd0a4f28419497f9722a3daafe3b4186f6b6457e05f80a360017f9b779b17422d0df92223018b32b4d1fa46e071723d6817e2486d003becc55f0055601960025564174876e80060035569021e19e0c9bab24000006004556001541617600155335f52600560205260405f20600160ff198254161790556122c890816101328239f35b604051631e4fbdf760e01b81525f6004820152602490fd5b5f80fd5b634e487b7160e01b5f52604160045260245ffdfe6080604052600436101561001a575b3615610018575f80fd5b005b5f3560e01c8062362a77146115ef5780630afdb28b146115ac5780632d2c55651461157e578063342aa8b51461152b578063383aeeae1461150e5780633ba8396e146114d15780633d0c93a3146114a95780633de39c111461148c5780633e0ef92e1461144f5780633f6784d014611321578063415504781461130257806344938107146112c057806351ef467014610f9f57806364134afb14610f71578063715018a614610f1a578063728584b714610e855780637a87fccd14610e575780638da5cb5b14610e305780638f92a1c014610e1357806395ccea6714610d525780639a6cd38614610d0a578063b0457c70146108ed578063bccd86c0146105e9578063c2ae6770146102ed578063d2fa635e146102cc578063d8004a931461029e578063e243f05f14610270578063eca9ad711461024f578063ef8ef56f14610221578063f2fde38b146101975763fcff2c280361000e57346101935760203660031901126101935761018b612225565b600435600255005b5f80fd5b34610193576020366003190112610193576101b061175b565b6101b8612225565b6001600160a01b03908116908115610209575f54826bffffffffffffffffffffffff60a01b8216175f55167f8be0079c531659141344cd1fd0a4f28419497f9722a3daafe3b4186f6b6457e05f80a3005b604051631e4fbdf760e01b81525f6004820152602490fd5b34610193575f36600319011261019357602060405173a1077a294dde1b09bb078844df40758a5d0f9a278152f35b3461019357602036600319011261019357610268612225565b600480359055005b34610193575f36600319011261019357602060405173165c3410fc91ef562c50559f7d2289febed552d98152f35b34610193575f3660031901126101935760206040517398bf93ebf5c380c0e6ae8e192a7e2ae08edacc028152f35b34610193576020366003190112610193576102e5612225565b600435600355005b60a03660031901126101935761030161175b565b6024359061030d611771565b90610316611787565b92335f526020936005855260ff60405f20541615806105d5575b6105c35761033c612250565b6003543a116105b157600454821161059f576103583447611baf565b6040519461036586611855565b600286526040368888013773a1077a294dde1b09bb078844df40758a5d0f9a27928361039088611b04565b526103d45f61039e89611b11565b6001600160a01b0398891690819052604051637ff36ab560e01b81529489169990989492839182919042903090600485016121a9565b0381898c5af1801561054d576103f1915f91610585575b50611b11565b5160405163095ea7b360e01b81526001600160a01b0383166004820152602481018290529094909289846044815f8c5af192831561054d57610483945f94610558575b506040519261044284611855565b600284526040368d8601378961045785611b04565b5261046184611b11565b52169460405193849283926318cbafe560e01b845242913091600486016121db565b038183875af1801561054d5761052b575b50479080821115610519576104a891611baf565b936084358510610519577f2008a74cc7ff6d670aa1fe34d43c265eb635d0f380d9c721beb10d8b1d63e0a892608092604051928352878301526040820152846060820152a260017f9b779b17422d0df92223018b32b4d1fa46e071723d6817e2486d003becc55f0055604051908152f35b6040516365b8501f60e11b8152600490fd5b610546903d805f833e61053e8183611871565b810190611b35565b5086610494565b6040513d5f823e3d90fd5b610577908c8d3d1061057e575b61056f8183611871565b810190611893565b508b610434565b503d610565565b61059991503d805f833e61053e8183611871565b8a6103eb565b604051630543a6e160e41b8152600490fd5b604051630b25774360e41b8152600490fd5b60405163ea8e4eb560e01b8152600490fd5b505f546001600160a01b0316331415610330565b34610193576020366003190112610193576040516004356060820167ffffffffffffffff8111838210176108d9576040527398bf93ebf5c380c0e6ae8e192a7e2ae08edacc02825273165c3410fc91ef562c50559f7d2289febed552d96020830152735bca5697f3a82f0360544a6e8b3e1f8a98c567d160408301525f905f600754905b818110610844575061067e83611ad2565b9161068884611ad2565b9261069285611ad2565b61069b86611ad2565b925f945f925b8184108061083b575b156107e9575f935b600392838610806107e0575b156107cd575f5b848110806107c4575b156107b1578087036106e9575b6106e490612007565b6106c5565b6107298d8c6106f78661179d565b90546001600160a01b0394918a1b1c8416846107138d86612214565b51168b866107218988612214565b511692612015565b91909161073a575b505050506106db565b848e936106e4969f956107838f8f909661077c8f9a610795988f9a610776836107a79f8a9e9061076a8c9261179d565b9054911b1c1692611b21565b52611b21565b5283612214565b511661078f868c611b21565b52612214565b51166107a1828d611b21565b52612007565b99908d8f8d610731565b509250936107be90612007565b936106b2565b508b8a106106ce565b92506107da919450612007565b926106a1565b508a89106106be565b846108378761082961080d9461081b8d604051978897608089526080890190611819565b9087820360208901526117e6565b908582036040870152611819565b908382036060850152611819565b0390f35b508887106106aa565b925f949291945b6003808210156108c9575f5b81811061086857505060010161084b565b808303610878575b600101610857565b6108ae6108848861179d565b90546001600160a01b0391851b1c81169087816108a1888c612214565b511691610721868c612214565b90501561087057926108c1600191612007565b939050610870565b505092600190949192940161066d565b634e487b7160e01b5f52604160045260245ffd5b60803660031901126101935760248035604435801515906004359082810361019357335f526020946005865260ff60405f2054161580610cf6575b6105c357610934612250565b6003543a116105b157600454851161059f5760018060a01b0391815f846001541660405194858092631c96a19760e31b82528960048301525afa92831561054d575f93610cd2575b506101808301516003811015610cbe57610cac57869061099c3447611baf565b9215610b8a57888560015416604460405180958193630f2eb9c560e31b83528b60048401525f878401525af191821561054d575f92610b5b575b505f898501918a8784511660446040518095819363095ea7b360e01b83528973165c3410fc91ef562c50559f7d2289febed552d9978860048601528401525af193841561054d57875f948d94610a8f97610b3e575b506040805195610a3a87611855565b6002875236908701375116610a4e84611b04565b5273a1077a294dde1b09bb078844df40758a5d0f9a27610a6d84611b11565b52836040518096819582946318cbafe560e01b845242913091600486016121db565b03925af1801561054d57610b24575b505b47908082111561051957610ab391611baf565b946064358610610519577fed3147064a5cd15498187670c77c931cb01d589e017a47fe4787c1d63294d6e292876060930151169460405191825286888301526040820152a360017f9b779b17422d0df92223018b32b4d1fa46e071723d6817e2486d003becc55f0055604051908152f35b610b37903d805f833e61053e8183611871565b5087610a9e565b610b5490863d881161057e5761056f8183611871565b508e610a2b565b9091508881813d8311610b83575b610b738183611871565b81010312610193575190896109d6565b503d610b69565b9050610bf45f604051610b9c81611855565b600281526040368c83013773a1077a294dde1b09bb078844df40758a5d0f9a27610bc582611b04565b52868b87015116610bd582611b11565b5260405180938192637ff36ab560e01b835242903090600485016121a9565b03818b73165c3410fc91ef562c50559f7d2289febed552d95af190811561054d578991610c27915f91610c925750611b11565b5160648660015416935f604051958694859363709ef23160e01b85528c60048601528401528160448401525af190811561054d578891610c69575b5050610aa0565b813d8311610c8b575b610c7c8183611871565b81010312610193578688610c62565b503d610c72565b610ca691503d805f833e61053e8183611871565b8b6103eb565b60405163c0d2241560e01b8152600490fd5b50634e487b7160e01b5f9081526021600452fd5b610cef9193503d805f833e610ce78183611871565b81019061196b565b918861097c565b505f546001600160a01b0316331415610928565b3461019357608036600319011261019357610d40610d2661175b565b610d2e611771565b610d36611787565b9160243590612015565b60408051928352901515602083015290f35b3461019357604036600319011261019357610d6b61175b565b60243590610d77612225565b6001600160a01b0390811680610db557505f80809381938254165af1610d9b6118c7565b5015610da357005b6040516312171d8360e31b8152600490fd5b5f805460405163a9059cbb60e01b815293166001600160a01b031660048401526024830193909352909160209183918290816044810103925af1801561054d57610dfb57005b6100189060203d60201161057e5761056f8183611871565b34610193575f366003190112610193576020600454604051908152f35b34610193575f366003190112610193575f546040516001600160a01b039091168152602090f35b34610193575f3660031901126101935760206040517329ea7545def87022badc76323f373ea1e707c5238152f35b34610193575f36600319011261019357604051806007549182815260208091019260075f527fa66cc928b5edb82af9bd49922954155ab7b0942694bea4ce44661d9a8736c688915f905b828210610efa5761083785610ee681890382611871565b604051918291602083526020830190611819565b83546001600160a01b031686529485019460019384019390910190610ecf565b34610193575f36600319011261019357610f32612225565b5f80546001600160a01b0319811682556001600160a01b03167f8be0079c531659141344cd1fd0a4f28419497f9722a3daafe3b4186f6b6457e08280a3005b34610193575f366003190112610193576020604051735bca5697f3a82f0360544a6e8b3e1f8a98c567d18152f35b346101935760403660031901126101935760043567ffffffffffffffff80821161019357366023830112156101935781600401351161019357366024826004013560051b8301011161019357600154604051638b0bc50160e01b8152916001600160a01b0390911690602083600481855afa92831561054d575f9361128c575b50606461102e60243585611aa7565b045f925f5b836004013581106111ea575061104884611ad2565b9061105285611ad2565b9161105c86611ad2565b945f945f5b82600401358110806111e1575b156111a55761108581846004013560248601611ff7565b604051631c96a19760e31b8152903560048201525f81602481895afa90811561054d575f9161118b575b506101808101516003811015611177571580611169575b6110da575b506110d590612007565b611061565b60e0906110f2838660049b959b013560248801611ff7565b356110fd8488611b21565b5201805161110b8389611b21565b5251606481029080820460641490151715611155578a15611141576110d5918b61113a92046107a1828c611b21565b96906110cb565b634e487b7160e01b5f52601260045260245ffd5b634e487b7160e01b5f52601160045260245ffd5b508260e082015110156110c6565b634e487b7160e01b5f52602160045260245ffd5b61119f91503d805f833e610ce78183611871565b8b6110af565b6111c5846108378a6111d38a6040519586956060875260608701906117e6565b9085820360208701526117e6565b9083820360408501526117e6565b5088871061106e565b6111fc81856004013560248701611ff7565b604051631c96a19760e31b8152903560048201525f81602481865afa90811561054d575f91611272575b506101808101516003811015611177578490159182611263575b505061124f575b600101611033565b9361125b600191612007565b949050611247565b60e00151101590508388611240565b61128691503d805f833e610ce78183611871565b87611226565b9092506020813d6020116112b8575b816112a860209383611871565b810103126101935751918361101f565b3d915061129b565b3461019357602036600319011261019357600435600754811015610193576112e960209161179d565b905460405160039290921b1c6001600160a01b03168152f35b3461019357604036600319011261019357610d40602435600435611bbc565b3461019357602036600319011261019357600435335f52600560205260ff60405f205416158061143b575b6105c357600154604051631c96a19760e31b8152600481018390526001600160a01b03915f908290602490829086165afa801561054d576020915f91611421575b5001818151165f52600660205260ff60405f205416156113a957005b818151165f5260405f20600160ff1982541617905581815116600754680100000000000000008110156108d9578060016113e6920160075561179d565b84829392549160031b92831b921b191617905551167ffdecc6831156af7d23a15e581564c1620647dd1bf5435c62a967de8aa11bec395f80a3005b61143591503d805f833e610ce78183611871565b8461138d565b505f546001600160a01b031633141561134c565b34610193576020366003190112610193576001600160a01b0361147061175b565b165f526006602052602060ff60405f2054166040519015158152f35b34610193575f366003190112610193576020600354604051908152f35b34610193575f366003190112610193576001546040516001600160a01b039091168152602090f35b34610193576020366003190112610193576001600160a01b036114f261175b565b165f526005602052602060ff60405f2054166040519015158152f35b34610193575f366003190112610193576020600254604051908152f35b346101935760403660031901126101935761154461175b565b602435908115158092036101935761155a612225565b60018060a01b03165f52600560205260405f209060ff801983541691161790555f80f35b34610193575f3660031901126101935760206040517349bbefa1d94702c0e9a5eaddec7c3c5d3eb9086b8152f35b34610193576020366003190112610193576115c561175b565b6115cd612225565b600180546001600160a01b0319166001600160a01b0392909216919091179055005b34610193576020806003193601126101935761160961175b565b611611612225565b6001600160a01b031690816116785747905f808080857349bbefa1d94702c0e9a5eaddec7c3c5d3eb9086b5af16116466118c7565b5015610da3577f016e128b6bdadd9e9068abd0b18db2fc8b27ed3dbced50e4aa6cc0a6934251ab915b604051908152a2005b6040516370a0823160e01b8152306004820152908082602481865afa91821561054d575f9261172c575b5060405163a9059cbb60e01b81527349bbefa1d94702c0e9a5eaddec7c3c5d3eb9086b6004820152602481018390529181836044815f885af192831561054d577f016e128b6bdadd9e9068abd0b18db2fc8b27ed3dbced50e4aa6cc0a6934251ab9361170f575b5061166f565b61172590833d851161057e5761056f8183611871565b5084611709565b9080925081813d8311611754575b6117448183611871565b81010312610193575190836116a2565b503d61173a565b600435906001600160a01b038216820361019357565b604435906001600160a01b038216820361019357565b606435906001600160a01b038216820361019357565b6007548110156117d25760075f527fa66cc928b5edb82af9bd49922954155ab7b0942694bea4ce44661d9a8736c68801905f90565b634e487b7160e01b5f52603260045260245ffd5b9081518082526020808093019301915f5b828110611805575050505090565b8351855293810193928101926001016117f7565b9081518082526020808093019301915f5b828110611838575050505090565b83516001600160a01b03168552938101939281019260010161182a565b6060810190811067ffffffffffffffff8211176108d957604052565b90601f8019910116810190811067ffffffffffffffff8211176108d957604052565b90816020910312610193575180151581036101935790565b67ffffffffffffffff81116108d957601f01601f191660200190565b3d156118f1573d906118d8826118ab565b916118e66040519384611871565b82523d5f602084013e565b606090565b51906001600160a01b038216820361019357565b9080601f8301121561019357815190611922826118ab565b926119306040519485611871565b82845260209160208483010111610193575f5b8381106119585750505060205f918301015290565b8181018301518582018401528201611943565b60208183031261019357805167ffffffffffffffff918282116101935701906101e092838382031261019357604051938401848110838211176108d957604052825184526119bb602084016118f6565b6020850152604083015182811161019357816119d891850161190a565b6040850152606083015182811161019357816119f591850161190a565b606085015260808301518281116101935781611a1291850161190a565b608085015260a083015191821161019357611a2e91830161190a565b60a0830152611a3f60c082016118f6565b60c083015260e081015160e0830152610100808201519083015261012080820151908301526101408082015190830152610160808201519083015261018080820151906003821015610193578301526101a080820151908301526101c0809101519082015290565b8181029291811591840414171561115557565b67ffffffffffffffff81116108d95760051b60200190565b90611adc82611aba565b611ae96040519182611871565b8281528092611afa601f1991611aba565b0190602036910137565b8051156117d25760200190565b8051600110156117d25760400190565b80518210156117d25760209160051b010190565b60209081818403126101935780519067ffffffffffffffff821161019357019180601f84011215610193578251611b6b81611aba565b93611b796040519586611871565b818552838086019260051b820101928311610193578301905b828210611ba0575050505090565b81518152908301908301611b92565b9190820391821161115557565b60015460408051631c96a19760e31b815260048082018590525f969587959094602493926001600160a01b039291831688858781845afa948515611fed575f95611fd1575b506101808501516003811015611fbf57611fae57606388029388850460631489151715611f9c5760648851956303ff40fb60e01b8752858588015204878601526020958686604481865afa958615611f92579087915f97611f61575b50018051895163e6a4390560e01b81529083168582015273a1077a294dde1b09bb078844df40758a5d0f9a2789820181905292919088816044817329ea7545def87022badc76323f373ea1e707c5235afa908115611f57579083915f91611f1f575b501615611f0b57895197611cd289611855565b600289528a36828b013783611ce68a611b04565b5282825116611cf48a611b11565b528a519663d06ca61f60e01b958689528d888a01528c8c8a015288611d1c604482018d611819565b03985f8173165c3410fc91ef562c50559f7d2289febed552d99b818d5afa5f9181611eef575b50611d5f575050505050505050505050505050505090505f905f90565b9e9f9e611d6b90611b11565b51808b1115611e3e5750505050915f9791611db2935116611d8b83611b04565b52611d9582611b11565b528880519889978896879687528601528401526044830190611819565b03915afa918215611e3557505f91611e1b575b5081611dd082611b11565b5111611df7575b50611de9612710915b60025490611aa7565b048310611df257565b5f9250565b611e0f929450819350611e0990611b11565b51611baf565b91600191611de9611dd7565b611e2f91503d805f833e61053e8183611871565b5f611dc5565b513d5f823e3d90fd5b9650969750979350975050508111611e64575b50505050505050611de961271091611de0565b916044918594938851978895869463ebff160b60e01b86528501528301525afa928315611e3557505f92611ec1575b5050818111611ea8575b808080808080611e51565b611eb6929450819350611baf565b915f91611de9611e9d565b90809250813d8311611ee8575b611ed88183611871565b8101031261019357515f80611e93565b503d611ece565b611f049192503d805f833e61053e8183611871565b905f611d42565b50505050505050505050505090505f905f90565b8092508a8092503d8311611f50575b611f388183611871565b8101031261019357611f4a83916118f6565b5f611cbf565b503d611f2e565b8b513d5f823e3d90fd5b8281939298503d8311611f8b575b611f798183611871565b8101031261019357869051955f611c5d565b503d611f6f565b89513d5f823e3d90fd5b86601184634e487b7160e01b5f52525ffd5b50505050505050505090505f905f90565b86602184634e487b7160e01b5f52525ffd5b611fe69195503d805f833e610ce78183611871565b935f611c01565b87513d5f823e3d90fd5b91908110156117d25760051b0190565b5f1981146111555760010190565b93915f945f9460409081519261202a84611855565b600284528236602086013773a1077a294dde1b09bb078844df40758a5d0f9a27908161205586611b04565b52865f61209d61206488611b11565b9860018060a01b039889809616809b528851998a8094819363d06ca61f60e01b9889845260048401528c60248401526044830190611819565b0392165afa5f968161218d575b506120ba575b5050505050505050565b6120c45f96611b11565b51928551976120d289611855565b60028952863660208b01376120e689611b04565b526120f088611b11565b526121138551978896879586948552600485015260248401526044830190611819565b0392165afa5f9181612171575b50612131575b8080808080806120b0565b8161213b82611b11565b5111156121265781612165929550612710939450611e0961215b92611b11565b9360025490611aa7565b04821015905f80612126565b6121869192503d805f833e61053e8183611871565b905f612120565b6121a29197503d805f833e61053e8183611871565b955f6120aa565b6121c7606092959493955f8352608060208401526080830190611819565b6001600160a01b0390951660408201520152565b90608092612200919695949683525f602084015260a0604084015260a0830190611819565b6001600160a01b0390951660608201520152565b9060038110156117d25760051b0190565b5f546001600160a01b0316330361223857565b60405163118cdaa760e01b8152336004820152602490fd5b7f9b779b17422d0df92223018b32b4d1fa46e071723d6817e2486d003becc55f0060028154146122805760029055565b604051633ee5aeb560e01b8152600490fdfea2646970667358221220e45c276e9b89a5b4b8fccdeaa774137f2591bfc37fd1a458ec9984954f5dd62c64736f6c63430008180033","linkReferences":{}},"methodIdentifiers":{"NINEINCH_ROUTER()":"64134afb","PULSEX_V1_ROUTER()":"d8004a93","PULSEX_V2_FACTORY()":"7a87fccd","PULSEX_V2_ROUTER()":"e243f05f","TREASURY()":"2d2c5565","WPLS()":"ef8ef56f","addToWatchlist(uint256)":"3f6784d0","authorizedBots(address)":"3ba8396e","checkBondingCurveArb(uint256,uint256)":"41550478","checkCrossDexArb(address,uint256,address,address)":"9a6cd386","emergencyWithdraw(address,uint256)":"95ccea67","executeBondingCurveArb(uint256,uint256,bool,uint256)":"b0457c70","executeCrossDexArb(address,uint256,address,address,uint256)":"c2ae6770","getWatchList()":"728584b7","maxGasPrice()":"3de39c11","maxPositionPls()":"8f92a1c0","minProfitBps()":"383aeeae","owner()":"8da5cb5b","pumpFud()":"3d0c93a3","renounceOwnership()":"715018a6","scanNearGraduation(uint256[],uint256)":"51ef4670","scanWatchedTokens(uint256)":"bccd86c0","setBot(address,bool)":"342aa8b5","setMaxGasPrice(uint256)":"d2fa635e","setMaxPositionPls(uint256)":"eca9ad71","setMinProfitBps(uint256)":"fcff2c28","setPumpFud(address)":"0afdb28b","transferOwnership(address)":"f2fde38b","watchList(uint256)":"44938107","watchedTokens(address)":"3e0ef92e","withdrawProfits(address)":"00362a77"},"id":40}