{"abi":[{"type":"constructor","inputs":[],"stateMutability":"nonpayable"},{"type":"receive","stateMutability":"payable"},{"type":"function","name":"TREASURY","inputs":[],"outputs":[{"name":"","type":"address","internalType":"address"}],"stateMutability":"view"},{"type":"function","name":"awardBadge","inputs":[{"name":"user","type":"address","internalType":"address"},{"name":"badgeId","type":"uint256","internalType":"uint256"}],"outputs":[],"stateMutability":"nonpayable"},{"type":"function","name":"badgeCount","inputs":[],"outputs":[{"name":"","type":"uint256","internalType":"uint256"}],"stateMutability":"view"},{"type":"function","name":"badges","inputs":[{"name":"","type":"uint256","internalType":"uint256"}],"outputs":[{"name":"id","type":"uint256","internalType":"uint256"},{"name":"name","type":"string","internalType":"string"},{"name":"imageUri","type":"string","internalType":"string"},{"name":"description","type":"string","internalType":"string"},{"name":"isTransferable","type":"bool","internalType":"bool"}],"stateMutability":"view"},{"type":"function","name":"createBadge","inputs":[{"name":"name","type":"string","internalType":"string"},{"name":"imageUri","type":"string","internalType":"string"},{"name":"description","type":"string","internalType":"string"},{"name":"isTransferable","type":"bool","internalType":"bool"}],"outputs":[{"name":"","type":"uint256","internalType":"uint256"}],"stateMutability":"nonpayable"},{"type":"function","name":"createCult","inputs":[{"name":"name","type":"string","internalType":"string"},{"name":"tag","type":"string","internalType":"string"},{"name":"imageUri","type":"string","internalType":"string"},{"name":"description","type":"string","internalType":"string"},{"name":"isPublic","type":"bool","internalType":"bool"}],"outputs":[{"name":"cultId","type":"uint256","internalType":"uint256"}],"stateMutability":"payable"},{"type":"function","name":"createProfile","inputs":[{"name":"displayName","type":"string","internalType":"string"},{"name":"avatarUri","type":"string","internalType":"string"},{"name":"bio","type":"string","internalType":"string"}],"outputs":[],"stateMutability":"payable"},{"type":"function","name":"cultCount","inputs":[],"outputs":[{"name":"","type":"uint256","internalType":"uint256"}],"stateMutability":"view"},{"type":"function","name":"cultCreationFee","inputs":[],"outputs":[{"name":"","type":"uint256","internalType":"uint256"}],"stateMutability":"view"},{"type":"function","name":"cultMemberList","inputs":[{"name":"","type":"uint256","internalType":"uint256"},{"name":"","type":"uint256","internalType":"uint256"}],"outputs":[{"name":"","type":"address","internalType":"address"}],"stateMutability":"view"},{"type":"function","name":"cultMembers","inputs":[{"name":"","type":"uint256","internalType":"uint256"},{"name":"","type":"address","internalType":"address"}],"outputs":[{"name":"","type":"bool","internalType":"bool"}],"stateMutability":"view"},{"type":"function","name":"cultTagToId","inputs":[{"name":"","type":"string","internalType":"string"}],"outputs":[{"name":"","type":"uint256","internalType":"uint256"}],"stateMutability":"view"},{"type":"function","name":"cults","inputs":[{"name":"","type":"uint256","internalType":"uint256"}],"outputs":[{"name":"id","type":"uint256","internalType":"uint256"},{"name":"name","type":"string","internalType":"string"},{"name":"tag","type":"string","internalType":"string"},{"name":"imageUri","type":"string","internalType":"string"},{"name":"description","type":"string","internalType":"string"},{"name":"founder","type":"address","internalType":"address"},{"name":"leader","type":"address","internalType":"address"},{"name":"memberCount","type":"uint256","internalType":"uint256"},{"name":"createdAt","type":"uint256","internalType":"uint256"},{"name":"isPublic","type":"bool","internalType":"bool"},{"name":"isActive","type":"bool","internalType":"bool"}],"stateMutability":"view"},{"type":"function","name":"deactivateCult","inputs":[{"name":"cultId","type":"uint256","internalType":"uint256"}],"outputs":[],"stateMutability":"nonpayable"},{"type":"function","name":"emergencyWithdraw","inputs":[],"outputs":[],"stateMutability":"nonpayable"},{"type":"function","name":"follow","inputs":[{"name":"toFollow","type":"address","internalType":"address"}],"outputs":[],"stateMutability":"nonpayable"},{"type":"function","name":"followers","inputs":[{"name":"","type":"address","internalType":"address"},{"name":"","type":"uint256","internalType":"uint256"}],"outputs":[{"name":"","type":"address","internalType":"address"}],"stateMutability":"view"},{"type":"function","name":"following","inputs":[{"name":"","type":"address","internalType":"address"},{"name":"","type":"uint256","internalType":"uint256"}],"outputs":[{"name":"","type":"address","internalType":"address"}],"stateMutability":"view"},{"type":"function","name":"getCult","inputs":[{"name":"cultId","type":"uint256","internalType":"uint256"}],"outputs":[{"name":"","type":"tuple","internalType":"struct PumpFudProfile.Cult","components":[{"name":"id","type":"uint256","internalType":"uint256"},{"name":"name","type":"string","internalType":"string"},{"name":"tag","type":"string","internalType":"string"},{"name":"imageUri","type":"string","internalType":"string"},{"name":"description","type":"string","internalType":"string"},{"name":"founder","type":"address","internalType":"address"},{"name":"leader","type":"address","internalType":"address"},{"name":"memberCount","type":"uint256","internalType":"uint256"},{"name":"createdAt","type":"uint256","internalType":"uint256"},{"name":"isPublic","type":"bool","internalType":"bool"},{"name":"isActive","type":"bool","internalType":"bool"}]}],"stateMutability":"view"},{"type":"function","name":"getCultMembers","inputs":[{"name":"cultId","type":"uint256","internalType":"uint256"}],"outputs":[{"name":"","type":"address[]","internalType":"address[]"}],"stateMutability":"view"},{"type":"function","name":"getFollowers","inputs":[{"name":"user","type":"address","internalType":"address"}],"outputs":[{"name":"","type":"address[]","internalType":"address[]"}],"stateMutability":"view"},{"type":"function","name":"getFollowing","inputs":[{"name":"user","type":"address","internalType":"address"}],"outputs":[{"name":"","type":"address[]","internalType":"address[]"}],"stateMutability":"view"},{"type":"function","name":"getProfile","inputs":[{"name":"user","type":"address","internalType":"address"}],"outputs":[{"name":"","type":"tuple","internalType":"struct PumpFudProfile.Profile","components":[{"name":"wallet","type":"address","internalType":"address"},{"name":"displayName","type":"string","internalType":"string"},{"name":"avatarUri","type":"string","internalType":"string"},{"name":"bannerUri","type":"string","internalType":"string"},{"name":"bio","type":"string","internalType":"string"},{"name":"cultId","type":"uint256","internalType":"uint256"},{"name":"createdAt","type":"uint256","internalType":"uint256"},{"name":"lastUpdated","type":"uint256","internalType":"uint256"},{"name":"isPremium","type":"bool","internalType":"bool"},{"name":"isVerified","type":"bool","internalType":"bool"},{"name":"exists","type":"bool","internalType":"bool"}]}],"stateMutability":"view"},{"type":"function","name":"getProfileByName","inputs":[{"name":"name","type":"string","internalType":"string"}],"outputs":[{"name":"","type":"tuple","internalType":"struct PumpFudProfile.Profile","components":[{"name":"wallet","type":"address","internalType":"address"},{"name":"displayName","type":"string","internalType":"string"},{"name":"avatarUri","type":"string","internalType":"string"},{"name":"bannerUri","type":"string","internalType":"string"},{"name":"bio","type":"string","internalType":"string"},{"name":"cultId","type":"uint256","internalType":"uint256"},{"name":"createdAt","type":"uint256","internalType":"uint256"},{"name":"lastUpdated","type":"uint256","internalType":"uint256"},{"name":"isPremium","type":"bool","internalType":"bool"},{"name":"isVerified","type":"bool","internalType":"bool"},{"name":"exists","type":"bool","internalType":"bool"}]}],"stateMutability":"view"},{"type":"function","name":"getStats","inputs":[{"name":"user","type":"address","internalType":"address"}],"outputs":[{"name":"","type":"tuple","internalType":"struct PumpFudProfile.ProfileStats","components":[{"name":"tokensLaunched","type":"uint256","internalType":"uint256"},{"name":"tokensGraduated","type":"uint256","internalType":"uint256"},{"name":"totalVolume","type":"uint256","internalType":"uint256"},{"name":"totalTips","type":"uint256","internalType":"uint256"},{"name":"followerCount","type":"uint256","internalType":"uint256"},{"name":"followingCount","type":"uint256","internalType":"uint256"},{"name":"reputation","type":"uint256","internalType":"uint256"}]}],"stateMutability":"view"},{"type":"function","name":"getUserBadges","inputs":[{"name":"user","type":"address","internalType":"address"}],"outputs":[{"name":"","type":"uint256[]","internalType":"uint256[]"}],"stateMutability":"view"},{"type":"function","name":"hasBadge","inputs":[{"name":"","type":"address","internalType":"address"},{"name":"","type":"uint256","internalType":"uint256"}],"outputs":[{"name":"","type":"bool","internalType":"bool"}],"stateMutability":"view"},{"type":"function","name":"inviteToCult","inputs":[{"name":"cultId","type":"uint256","internalType":"uint256"},{"name":"invitee","type":"address","internalType":"address"}],"outputs":[],"stateMutability":"nonpayable"},{"type":"function","name":"isFollowing","inputs":[{"name":"","type":"address","internalType":"address"},{"name":"","type":"address","internalType":"address"}],"outputs":[{"name":"","type":"bool","internalType":"bool"}],"stateMutability":"view"},{"type":"function","name":"joinCult","inputs":[{"name":"cultId","type":"uint256","internalType":"uint256"}],"outputs":[],"stateMutability":"nonpayable"},{"type":"function","name":"leaveCult","inputs":[],"outputs":[],"stateMutability":"nonpayable"},{"type":"function","name":"maxBioLength","inputs":[],"outputs":[{"name":"","type":"uint256","internalType":"uint256"}],"stateMutability":"view"},{"type":"function","name":"maxCultMembers","inputs":[],"outputs":[{"name":"","type":"uint256","internalType":"uint256"}],"stateMutability":"view"},{"type":"function","name":"maxCultNameLength","inputs":[],"outputs":[{"name":"","type":"uint256","internalType":"uint256"}],"stateMutability":"view"},{"type":"function","name":"maxNameLength","inputs":[],"outputs":[{"name":"","type":"uint256","internalType":"uint256"}],"stateMutability":"view"},{"type":"function","name":"nameToAddress","inputs":[{"name":"","type":"string","internalType":"string"}],"outputs":[{"name":"","type":"address","internalType":"address"}],"stateMutability":"view"},{"type":"function","name":"owner","inputs":[],"outputs":[{"name":"","type":"address","internalType":"address"}],"stateMutability":"view"},{"type":"function","name":"premiumProfileFee","inputs":[],"outputs":[{"name":"","type":"uint256","internalType":"uint256"}],"stateMutability":"view"},{"type":"function","name":"profileCount","inputs":[],"outputs":[{"name":"","type":"uint256","internalType":"uint256"}],"stateMutability":"view"},{"type":"function","name":"profileCreationFee","inputs":[],"outputs":[{"name":"","type":"uint256","internalType":"uint256"}],"stateMutability":"view"},{"type":"function","name":"profileExists","inputs":[{"name":"user","type":"address","internalType":"address"}],"outputs":[{"name":"","type":"bool","internalType":"bool"}],"stateMutability":"view"},{"type":"function","name":"profiles","inputs":[{"name":"","type":"address","internalType":"address"}],"outputs":[{"name":"wallet","type":"address","internalType":"address"},{"name":"displayName","type":"string","internalType":"string"},{"name":"avatarUri","type":"string","internalType":"string"},{"name":"bannerUri","type":"string","internalType":"string"},{"name":"bio","type":"string","internalType":"string"},{"name":"cultId","type":"uint256","internalType":"uint256"},{"name":"createdAt","type":"uint256","internalType":"uint256"},{"name":"lastUpdated","type":"uint256","internalType":"uint256"},{"name":"isPremium","type":"bool","internalType":"bool"},{"name":"isVerified","type":"bool","internalType":"bool"},{"name":"exists","type":"bool","internalType":"bool"}],"stateMutability":"view"},{"type":"function","name":"recordGraduation","inputs":[{"name":"creator","type":"address","internalType":"address"}],"outputs":[],"stateMutability":"nonpayable"},{"type":"function","name":"recordTip","inputs":[{"name":"recipient","type":"address","internalType":"address"},{"name":"amount","type":"uint256","internalType":"uint256"}],"outputs":[],"stateMutability":"nonpayable"},{"type":"function","name":"recordTokenLaunch","inputs":[{"name":"creator","type":"address","internalType":"address"}],"outputs":[],"stateMutability":"nonpayable"},{"type":"function","name":"recordVolume","inputs":[{"name":"trader","type":"address","internalType":"address"},{"name":"amount","type":"uint256","internalType":"uint256"}],"outputs":[],"stateMutability":"nonpayable"},{"type":"function","name":"renounceOwnership","inputs":[],"outputs":[],"stateMutability":"nonpayable"},{"type":"function","name":"setCultCreationFee","inputs":[{"name":"_fee","type":"uint256","internalType":"uint256"}],"outputs":[],"stateMutability":"nonpayable"},{"type":"function","name":"setMaxBioLength","inputs":[{"name":"_max","type":"uint256","internalType":"uint256"}],"outputs":[],"stateMutability":"nonpayable"},{"type":"function","name":"setMaxCultMembers","inputs":[{"name":"_max","type":"uint256","internalType":"uint256"}],"outputs":[],"stateMutability":"nonpayable"},{"type":"function","name":"setMaxNameLength","inputs":[{"name":"_max","type":"uint256","internalType":"uint256"}],"outputs":[],"stateMutability":"nonpayable"},{"type":"function","name":"setPremiumProfileFee","inputs":[{"name":"_fee","type":"uint256","internalType":"uint256"}],"outputs":[],"stateMutability":"nonpayable"},{"type":"function","name":"setProfileCreationFee","inputs":[{"name":"_fee","type":"uint256","internalType":"uint256"}],"outputs":[],"stateMutability":"nonpayable"},{"type":"function","name":"stats","inputs":[{"name":"","type":"address","internalType":"address"}],"outputs":[{"name":"tokensLaunched","type":"uint256","internalType":"uint256"},{"name":"tokensGraduated","type":"uint256","internalType":"uint256"},{"name":"totalVolume","type":"uint256","internalType":"uint256"},{"name":"totalTips","type":"uint256","internalType":"uint256"},{"name":"followerCount","type":"uint256","internalType":"uint256"},{"name":"followingCount","type":"uint256","internalType":"uint256"},{"name":"reputation","type":"uint256","internalType":"uint256"}],"stateMutability":"view"},{"type":"function","name":"transferCultLeadership","inputs":[{"name":"cultId","type":"uint256","internalType":"uint256"},{"name":"newLeader","type":"address","internalType":"address"}],"outputs":[],"stateMutability":"nonpayable"},{"type":"function","name":"transferOwnership","inputs":[{"name":"newOwner","type":"address","internalType":"address"}],"outputs":[],"stateMutability":"nonpayable"},{"type":"function","name":"unfollow","inputs":[{"name":"toUnfollow","type":"address","internalType":"address"}],"outputs":[],"stateMutability":"nonpayable"},{"type":"function","name":"updateCult","inputs":[{"name":"cultId","type":"uint256","internalType":"uint256"},{"name":"imageUri","type":"string","internalType":"string"},{"name":"description","type":"string","internalType":"string"},{"name":"isPublic","type":"bool","internalType":"bool"}],"outputs":[],"stateMutability":"nonpayable"},{"type":"function","name":"updateProfile","inputs":[{"name":"displayName","type":"string","internalType":"string"},{"name":"avatarUri","type":"string","internalType":"string"},{"name":"bannerUri","type":"string","internalType":"string"},{"name":"bio","type":"string","internalType":"string"}],"outputs":[],"stateMutability":"nonpayable"},{"type":"function","name":"upgradeToPremium","inputs":[],"outputs":[],"stateMutability":"payable"},{"type":"function","name":"userBadges","inputs":[{"name":"","type":"address","internalType":"address"},{"name":"","type":"uint256","internalType":"uint256"}],"outputs":[{"name":"","type":"uint256","internalType":"uint256"}],"stateMutability":"view"},{"type":"function","name":"verifyProfile","inputs":[{"name":"user","type":"address","internalType":"address"},{"name":"verified","type":"bool","internalType":"bool"}],"outputs":[],"stateMutability":"nonpayable"},{"type":"event","name":"BadgeAwarded","inputs":[{"name":"user","type":"address","indexed":true,"internalType":"address"},{"name":"badgeId","type":"uint256","indexed":true,"internalType":"uint256"}],"anonymous":false},{"type":"event","name":"CultCreated","inputs":[{"name":"cultId","type":"uint256","indexed":true,"internalType":"uint256"},{"name":"name","type":"string","indexed":false,"internalType":"string"},{"name":"tag","type":"string","indexed":false,"internalType":"string"},{"name":"founder","type":"address","indexed":false,"internalType":"address"}],"anonymous":false},{"type":"event","name":"CultJoined","inputs":[{"name":"cultId","type":"uint256","indexed":true,"internalType":"uint256"},{"name":"member","type":"address","indexed":true,"internalType":"address"}],"anonymous":false},{"type":"event","name":"CultLeaderChanged","inputs":[{"name":"cultId","type":"uint256","indexed":true,"internalType":"uint256"},{"name":"oldLeader","type":"address","indexed":true,"internalType":"address"},{"name":"newLeader","type":"address","indexed":true,"internalType":"address"}],"anonymous":false},{"type":"event","name":"CultLeft","inputs":[{"name":"cultId","type":"uint256","indexed":true,"internalType":"uint256"},{"name":"member","type":"address","indexed":true,"internalType":"address"}],"anonymous":false},{"type":"event","name":"Followed","inputs":[{"name":"follower","type":"address","indexed":true,"internalType":"address"},{"name":"followed","type":"address","indexed":true,"internalType":"address"}],"anonymous":false},{"type":"event","name":"OwnershipTransferred","inputs":[{"name":"previousOwner","type":"address","indexed":true,"internalType":"address"},{"name":"newOwner","type":"address","indexed":true,"internalType":"address"}],"anonymous":false},{"type":"event","name":"ProfileCreated","inputs":[{"name":"wallet","type":"address","indexed":true,"internalType":"address"},{"name":"displayName","type":"string","indexed":false,"internalType":"string"},{"name":"timestamp","type":"uint256","indexed":false,"internalType":"uint256"}],"anonymous":false},{"type":"event","name":"ProfileUpdated","inputs":[{"name":"wallet","type":"address","indexed":true,"internalType":"address"},{"name":"displayName","type":"string","indexed":false,"internalType":"string"},{"name":"timestamp","type":"uint256","indexed":false,"internalType":"uint256"}],"anonymous":false},{"type":"event","name":"ProfileUpgraded","inputs":[{"name":"wallet","type":"address","indexed":true,"internalType":"address"},{"name":"isPremium","type":"bool","indexed":false,"internalType":"bool"},{"name":"timestamp","type":"uint256","indexed":false,"internalType":"uint256"}],"anonymous":false},{"type":"event","name":"StatsUpdated","inputs":[{"name":"user","type":"address","indexed":true,"internalType":"address"},{"name":"reputation","type":"uint256","indexed":false,"internalType":"uint256"}],"anonymous":false},{"type":"event","name":"Unfollowed","inputs":[{"name":"follower","type":"address","indexed":true,"internalType":"address"},{"name":"unfollowed","type":"address","indexed":true,"internalType":"address"}],"anonymous":false},{"type":"error","name":"AlreadyFollowing","inputs":[]},{"type":"error","name":"AlreadyInCult","inputs":[]},{"type":"error","name":"BioTooLong","inputs":[]},{"type":"error","name":"CannotFollowSelf","inputs":[]},{"type":"error","name":"CultFull","inputs":[]},{"type":"error","name":"CultTagTaken","inputs":[]},{"type":"error","name":"InsufficientPayment","inputs":[]},{"type":"error","name":"InvalidCult","inputs":[]},{"type":"error","name":"NameTaken","inputs":[]},{"type":"error","name":"NameTooLong","inputs":[]},{"type":"error","name":"NotCultLeader","inputs":[]},{"type":"error","name":"NotCultMember","inputs":[]},{"type":"error","name":"NotFollowing","inputs":[]},{"type":"error","name":"OwnableInvalidOwner","inputs":[{"name":"owner","type":"address","internalType":"address"}]},{"type":"error","name":"OwnableUnauthorizedAccount","inputs":[{"name":"account","type":"address","internalType":"address"}]},{"type":"error","name":"ProfileAlreadyExists","inputs":[]},{"type":"error","name":"ProfileNotFound","inputs":[]},{"type":"error","name":"ReentrancyGuardReentrantCall","inputs":[]}],"bytecode":{"object":"0x6080806040523462000d5e5760017f9b779b17422d0df92223018b32b4d1fa46e071723d6817e2486d003becc55f0055331562000d49575f8054336001600160a01b0319821681178355916001600160a01b03909116907f8be0079c531659141344cd1fd0a4f28419497f9722a3daafe3b4186f6b6457e09080a35f60015569152d02c7e14af680000060025569021e19e0c9bab24000006003556101f4600455602060055560186006556103e86007556200012e620000be62000d82565b60028152614f4760f01b6020820152620000d762000d82565b600f81526e697066733a2f2f6f672d626164676560881b6020820152620000fd62000d82565b91601383527f4561726c7920706c6174666f726d207573657200000000000000000000000000602084015262000da2565b50620001a86200013d62000d82565b60058152645768616c6560d81b60208201526200015962000d82565b6012815271697066733a2f2f7768616c652d626164676560701b60208201526200018262000d82565b9160128352712434b3b4103b37b63ab6b2903a3930b232b960711b602084015262000da2565b50620001b362000d82565b600781526621b932b0ba37b960c91b6020820152620001d162000d82565b90601482527f697066733a2f2f63726561746f722d626164676500000000000000000000000060208301526200020662000d82565b601381527f4c61756e636865642031302b20746f6b656e73000000000000000000000000006020820152600a545f19811462000abd576001019081600a556200024e62000d62565b9382855260208501938452604085015260608401525f60808401525f52601060205260405f2090825182555191825160018060401b0381116200090b576001830154600181811c9116801562000d3e575b6020821014620008ec57601f811162000cf5575b506020601f821160011462000c8657819293945f9262000c7a575b50508160011b915f199060031b1c19161760018301555b604081015180519092906001600160401b0381116200090b576002820154600181811c9116801562000c6f575b6020821014620008ec57601f811162000c26575b506020601f821160011462000bb757819293945f9262000bab575b50508160011b915f199060031b1c19161760028201555b60608201518051906001600160401b0382116200090b576003830154600181811c9116801562000ba0575b6020821014620008ec57601f811162000b53575b50602090601f831160011462000add579180608094926004945f9262000ad1575b50508160011b915f199060031b1c19161760038201555b01910151151560ff8019835416911617905562000467620003ef62000d82565b6008815267477261647561746560c01b60208201526200040e62000d82565b601581527f697066733a2f2f67726164756174652d6261646765000000000000000000000060208201526200044262000d82565b91601183527023b930b23ab0ba32b21030903a37b5b2b760791b6020840152620011e3565b50620004ee6200047662000d82565b600a81526924b733363ab2b731b2b960b11b60208201526200049762000d82565b601781527f697066733a2f2f696e666c75656e6365722d62616467650000000000000000006020820152620004cb62000d82565b91600f83526e313030302b20666f6c6c6f7765727360881b6020840152620011e3565b5062000569620004fd62000d82565b600b81526a21bab63a102632b0b232b960a91b60208201526200051f62000d82565b6011815270697066733a2f2f63756c742d626164676560781b60208201526200054762000d82565b91600e83526d119bdd5b99195908184818dd5b1d60921b6020840152620011e3565b506200057462000d82565b600d81526c4469616d6f6e642048616e647360981b60208201526200059862000d82565b90601482527f697066733a2f2f6469616d6f6e642d62616467650000000000000000000000006020830152620005cd62000d82565b600a8082526913995d995c881cdbdb1960b21b6020830152545f19811462000abd576001019081600a556200060162000d62565b9382855260208501938452604085015260608401525f60808401525f52601060205260405f2090825182555191825160018060401b0381116200090b576001830154600181811c9116801562000ab2575b6020821014620008ec57601f811162000a69575b506020601f8211600114620009fa57819293945f92620009ee575b50508160011b915f199060031b1c19161760018301555b604081015180519092906001600160401b0381116200090b576002820154600181811c91168015620009e3575b6020821014620008ec57601f81116200099a575b506020601f82116001146200092b57819293945f926200091f575b50508160011b915f199060031b1c19161760028201555b60608201518051906001600160401b0382116200090b576003830154600181811c9116801562000900575b6020821014620008ec57601f81116200089f575b50602090601f831160011462000829579180608094926004945f926200081d575b50508160011b915f199060031b1c19161760038201555b01910151151560ff801983541691161790556200080c620007a262000d82565b60058152642232b3b2b760d91b6020820152620007be62000d82565b6012815271697066733a2f2f646567656e2d626164676560701b6020820152620007e762000d82565b9160118352705472756520646567656e20656e6572677960781b6020840152620011e3565b50604051613c9e9081620015fd8239f35b0151905086806200076b565b90600384015f5260205f20915f5b601f1985168110620008865750926080949260019260049583601f198116106200086d575b505050811b01600382015562000782565b01515f1960f88460031b161c191690558680806200085c565b9192602060018192868501518155019401920162000837565b600384015f5260205f20601f840160051c81019160208510620008e1575b601f0160051c01905b818110620008d557506200074a565b5f8155600101620008c6565b9091508190620008bd565b634e487b7160e01b5f52602260045260245ffd5b90607f169062000736565b634e487b7160e01b5f52604160045260245ffd5b015190508480620006f4565b600283015f5260205f20905f5b601f1984168110620009815750600193949583601f1981161062000968575b505050811b0160028201556200070b565b01515f1960f88460031b161c1916905584808062000957565b9091602060018192858a01518155019301910162000938565b600283015f5260205f20601f830160051c810160208410620009db575b601f830160051c82018110620009cf575050620006d9565b5f8155600101620009b7565b5080620009b7565b90607f1690620006c5565b01519050848062000681565b600184015f5260205f20905f5b601f198416811062000a505750600193949583601f1981161062000a37575b505050811b01600183015562000698565b01515f1960f88460031b161c1916905584808062000a26565b9091602060018192858a01518155019301910162000a07565b600184015f5260205f20601f830160051c81016020841062000aaa575b601f830160051c8201811062000a9e57505062000666565b5f815560010162000a86565b508062000a86565b90607f169062000652565b634e487b7160e01b5f52601160045260245ffd5b015190508680620003b8565b90600384015f5260205f20915f5b601f198516811062000b3a5750926080949260019260049583601f1981161062000b21575b505050811b016003820155620003cf565b01515f1960f88460031b161c1916905586808062000b10565b9192602060018192868501518155019401920162000aeb565b600384015f5260205f20601f840160051c8101916020851062000b95575b601f0160051c01905b81811062000b89575062000397565b5f815560010162000b7a565b909150819062000b71565b90607f169062000383565b01519050848062000341565b600283015f5260205f20905f5b601f198416811062000c0d5750600193949583601f1981161062000bf4575b505050811b01600282015562000358565b01515f1960f88460031b161c1916905584808062000be3565b9091602060018192858a01518155019301910162000bc4565b600283015f5260205f20601f830160051c81016020841062000c67575b601f830160051c8201811062000c5b57505062000326565b5f815560010162000c43565b508062000c43565b90607f169062000312565b015190508480620002ce565b600184015f5260205f20905f5b601f198416811062000cdc5750600193949583601f1981161062000cc3575b505050811b016001830155620002e5565b01515f1960f88460031b161c1916905584808062000cb2565b9091602060018192858a01518155019301910162000c93565b600184015f5260205f20601f830160051c81016020841062000d36575b601f830160051c8201811062000d2a575050620002b3565b5f815560010162000d12565b508062000d12565b90607f16906200029f565b631e4fbdf760e01b81525f6004820152602490fd5b5f80fd5b6040519060a082016001600160401b038111838210176200090b57604052565b60408051919082016001600160401b038111838210176200090b57604052565b600a54919392915f19811462000abd576001019384600a558462000dc562000d62565b93818552602085019384526040850192835260608501525f60808501525f52601060205260405f2091835183555180519060018060401b0382116200090b57600184015490600182811c92168015620011d8575b6020831014620008ec5781601f84931162001180575b50602090601f831160011462001110575f9262001104575b50508160011b915f199060031b1c19161760018301555b518051906001600160401b0382116200090b57600283015490600182811c92168015620010f9575b6020831014620008ec5781601f849311620010a1575b50602090601f831160011462001031575f9262001025575b50508160011b915f199060031b1c19161760028201555b6060820151805160038301916001600160401b0382116200090b578254600181811c911680156200101a575b6020821014620008ec57601f811162000fd0575b50602090601f831160011462000f6157918060049492608096945f9262000f55575b50508160011b915f199060031b1c19161790555b01910151151560ff80198354169116179055565b015190505f8062000f2d565b90601f19831691845f5260205f20925f5b81811062000fb7575092600192859260809896600498961062000f9e575b505050811b01905562000f41565b01515f1960f88460031b161c191690555f808062000f90565b9293602060018192878601518155019501930162000f72565b835f5260205f20601f840160051c810191602085106200100f575b601f0160051c01905b81811062001003575062000f0b565b5f815560010162000ff4565b909150819062000feb565b90607f169062000ef7565b015190505f8062000eb4565b600285015f908152602081209350601f198516905b8181106200108857509084600195949392106200106f575b505050811b01600282015562000ecb565b01515f1960f88460031b161c191690555f80806200105e565b9293602060018192878601518155019501930162001046565b909150600284015f5260205f20601f840160051c81019160208510620010ee575b90601f859493920160051c01905b818110620010df575062000e9c565b5f8155849350600101620010d0565b9091508190620010c2565b91607f169162000e86565b015190505f8062000e47565b600186015f908152602081209350601f198516905b8181106200116757509084600195949392106200114e575b505050811b01600183015562000e5e565b01515f1960f88460031b161c191690555f80806200113d565b9293602060018192878601518155019501930162001125565b909150600185015f5260205f20601f840160051c81019160208510620011cd575b90601f859493920160051c01905b818110620011be575062000e2f565b5f8155849350600101620011af565b9091508190620011a1565b91607f169162000e19565b600a54919392915f19811462000abd576001019384600a55846200120662000d62565b93818552602085019384526040850192835260608501525f60808501525f52601060205260405f2091835183555180519060018060401b0382116200090b57600184015490600182811c92168015620015f1575b6020831014620008ec5781601f84931162001599575b50602090601f831160011462001529575f926200151d575b50508160011b915f199060031b1c19161760018301555b518051906001600160401b0382116200090b57600283015490600182811c9216801562001512575b6020831014620008ec5781601f849311620014ba575b50602090601f83116001146200144a575f926200143e575b50508160011b915f199060031b1c19161760028201555b6060820151805160038301916001600160401b0382116200090b578254600181811c9116801562001433575b6020821014620008ec57601f8111620013e9575b50602090601f83116001146200139457918060049492608096945f9262000f555750508160011b915f199060031b1c191617905501910151151560ff80198354169116179055565b90601f19831691845f5260205f20925f5b818110620013d0575092600192859260809896600498961062000f9e57505050811b01905562000f41565b92936020600181928786015181550195019301620013a5565b835f5260205f20601f840160051c8101916020851062001428575b601f0160051c01905b8181106200141c57506200134c565b5f81556001016200140d565b909150819062001404565b90607f169062001338565b015190505f80620012f5565b600285015f908152602081209350601f198516905b818110620014a1575090846001959493921062001488575b505050811b0160028201556200130c565b01515f1960f88460031b161c191690555f808062001477565b929360206001819287860151815501950193016200145f565b909150600284015f5260205f20601f840160051c8101916020851062001507575b90601f859493920160051c01905b818110620014f85750620012dd565b5f8155849350600101620014e9565b9091508190620014db565b91607f1691620012c7565b015190505f8062001288565b600186015f908152602081209350601f198516905b81811062001580575090846001959493921062001567575b505050811b0160018301556200129f565b01515f1960f88460031b161c191690555f808062001556565b929360206001819287860151815501950193016200153e565b909150600185015f5260205f20601f840160051c81019160208510620015e6575b90601f859493920160051c01905b818110620015d7575062001270565b5f8155849350600101620015c8565b9091508190620015ba565b91607f16916200125a56fe608080604052600436101561001c575b50361561001a575f80fd5b005b5f3560e01c908163015a4ead1461332e5750806305cfa06f146132eb57806308ba62591461329b57806308d88aad1461325557806309882d47146132385780630f53a470146131ed5780631155e036146131cc57806317872b211461319f5780631db5ff781461317e578063211319c1146130ca5780632ba26fa9146130ad5780632d2c55651461307f5780632e26f7c414612e6d5780633292010814612ccb5780633598435014612caa5780633789043f14612bc657806337c245fe14612b185780633b992f2b14612afb578063451031f514612a9e5780634ace727414612a815780634c6a70ce14612a385780634dbf27cc146128fb57806354619026146128da57806356412d3a146128715780635b806645146128545780636bbba4ed14612833578063715018a6146127dc57806375ea7d57146127bf5780637756cf7e146127655780637d6df6991461263857806382b4577014611f815780638bcdcbf314611f085780638da5cb5b14611ee15780639139cda514611e9a5780639483f25c1461198e5780639841c82c1461125d57806398e36d8b146111c357806399ec3a4214611171578063a9304df614611137578063ad60f84b146110ee578063b08301d41461107d578063bbe1562714610f76578063bd3f977f14610bbd578063bd617d9b14610abe578063bea10fc1146109fd578063c23f85d614610915578063c2fe20221461089c578063c5a53c8d1461087f578063c9c04fcf14610822578063cbe1c2b5146107c4578063d36f4a27146106f5578063d8236dff1461066c578063d85269ec1461064f578063db2e21bc146105cc578063df8c5289146105af578063df91cc2314610558578063e304763914610537578063eaa8604114610500578063ebd009d3146104a9578063ecc4bda014610378578063ef43acef1461035b5763f2fde38b146102d2575f61000f565b34610357576020366003190112610357576102eb6133f6565b6102f3613a38565b6001600160a01b0390811690811561033f575f54826001600160601b0360a01b8216175f55167f8be0079c531659141344cd1fd0a4f28419497f9722a3daafe3b4186f6b6457e05f80a3005b604051631e4fbdf760e01b81525f6004820152602490fd5b5f80fd5b34610357575f366003190112610357576020600854604051908152f35b34610357576020806003193601126103575760043590335f52600b815260405f2060ff600882015460101c161561049757600501805461048557825f52600e825260405f208054158015610473575b6104615760ff60098201541615610461576007018054600754111561044f5760128493845f526011815260405f20335f52815260405f20600160ff19825416179055845f525261041a3360405f20613951565b610424815461398c565b90555533907fba88b2a48c526412cd8a3e0e0090637d9e322590e7087d3557c435993481a93a5f80a3005b604051631cc71b1d60e01b8152600490fd5b60405163fa7843a360e01b8152600490fd5b5060ff600982015460081c16156103c7565b604051635952d3ad60e11b8152600490fd5b6040516372da560b60e01b8152600490fd5b34610357576040366003190112610357576104c26133f6565b6024359060018060a01b038091165f52601460205260405f208054831015610357576020926104f091613422565b9190546040519260031b1c168152f35b3461035757602036600319011261035757610519613a38565b6004355f908152600e60205260409020600901805461ff0019169055005b3461035757602036600319011261035757610550613a38565b600480359055005b34610357576040366003190112610357576105716133f6565b6001600160a01b03165f90815260166020526040902080546024359190821015610357576020916105a191613422565b90546040519160031b1c8152f35b34610357575f366003190112610357576020600154604051908152f35b34610357575f366003190112610357576105e4613a38565b47806105ec57005b5f808080937349bbefa1d94702c0e9a5eaddec7c3c5d3eb9086b5af16106106139a7565b501561061857005b60405162461bcd60e51b815260206004820152600f60248201526e15da5d1a191c985dc819985a5b1959608a1b6044820152606490fd5b34610357575f366003190112610357576020600454604051908152f35b3461035757602080600319360112610357576001600160a01b038061068f6133f6565b165f52601560205260405f20916040518092602085549283815201945f5260205f20925f915b8383106106dc576106d8866106cc818a0382613482565b60405191829182613752565b0390f35b84548116875295810195600194850194909201916106b5565b5f36600319011261035757610708613c19565b335f52600b60205260405f2060088101805460ff8160101c16156104975760035434106107b25760019060ff191617905560074291015561076c5f808080347349bbefa1d94702c0e9a5eaddec7c3c5d3eb9086b5af16107666139a7565b506139d6565b604051600181524260208201527fd05f949499fbc91402cb6a925fce8d19466d29f322ec73840cea152e1156bd2f60403392a260015f80516020613c4983398151915255005b60405163cd1c886760e01b8152600490fd5b34610357576020366003190112610357576107dd6133f6565b6001600160a01b0381165f908152600b602052604090206008015460101c60ff1661080457005b61001a90600d60205260405f2061081b815461398c565b9055613a63565b346103575760403660031901126103575761083b6133f6565b6001600160a01b0381165f908152600b602052604090206008015460101c60ff1661086257005b61001a90600d602052600260405f200161081b602435825461399a565b34610357575f366003190112610357576020600754604051908152f35b3461035757602080600319360112610357576001600160a01b03806108bf6133f6565b165f52601460205260405f20916040518092602085549283815201945f5260205f20925f915b8383106108fc576106d8866106cc818a0382613482565b84548116875295810195600194850194909201916108e5565b346103575760203660031901126103575761092e6133f6565b5f60c060405161093d81613467565b8281528260208201528260408201528260608201528260808201528260a0820152015260018060a01b03165f52600d60205260e060405f2060405161098181613467565b815491828252600181015460208301908152600282015460408401908152600383015490606085019182526004840154926080860193845260c0600660058701549660a08901978852015496019586526040519687525160208701525160408601525160608501525160808401525160a08301525160c0820152f35b3461035757604036600319011261035757600435610a1961340c565b5f828152600e60205260409020600601805491926001600160a01b038084169391929190338503610aac57835f52601160205260405f20951694855f5260205260ff60405f20541615610a9a576001600160a01b031916841790557fcfb801278bb254cfa7d5c6a6fa9febfe9c6a30b954aa7938e5dac5a2c1c683825f80a4005b6040516301a47b2b60e71b8152600490fd5b60405163137e794760e21b8152600490fd5b34610357576020366003190112610357576004355f52600e60205260405f208054610aeb600183016136b0565b9160ff610afa600283016136b0565b610b06600384016136b0565b92610b13600482016136b0565b9360018060a01b0394610b8c866005850154169660068501541691610b7e600786015494610b706009600889015498015498610b626040519e8f9e8f6101609181528160208201520190613553565b8d810360408f015290613553565b908b820360608d0152613553565b9089820360808b0152613553565b9560a088015260c087015260e0860152610100850152818116151561012085015260081c1615156101408301520390f35b34610357576080366003190112610357576004356001600160401b03811161035757610bed90369060040161363c565b906024356001600160401b03811161035757610c0d90369060040161363c565b9290604435926001600160401b03841161035757610c5c610c6492610c39610c5496369060040161363c565b969093610c44613669565b96610c4d613a38565b36916134be565b9636916134be565b9336916134be565b90610c70600a5461398c565b9182600a556040519360a085018581106001600160401b03821117610e7d57604052838552602085019586526040850152606084015215156080830152805f52601060205260405f209282518455519283516001600160401b038111610e7d57610cea81610ce16001850154613678565b60018501613902565b6020601f8211600114610f0b578190610d1b939495965f92610f00575b50508160011b915f199060031b1c19161790565b60018201555b6002810160408401518051906001600160401b038211610e7d57610d4f82610d498554613678565b85613902565b602090601f8311600114610e9c57610d7d92915f9183610e915750508160011b915f199060031b1c19161790565b90555b600381019260608101519384516001600160401b038111610e7d57602095610dac82610d498554613678565b8690601f8311600114610e115792610de483608094610dfe9897946004975f92610e065750508160011b915f199060031b1c19161790565b90555b0151151591019060ff801983541691151516179055565b604051908152f35b015190508b80610d07565b90601f19831691845f52885f20925f5b818110610e66575093610dfe979693600496936001938360809810610e4e575b505050811b019055610de7565b01515f1960f88460031b161c191690558a8080610e41565b92938a600181928786015181550195019301610e21565b634e487b7160e01b5f52604160045260245ffd5b015190508780610d07565b90601f19831691845f5260205f20925f5b818110610ee85750908460019594939210610ed0575b505050811b019055610d80565b01515f1960f88460031b161c19169055868080610ec3565b92936020600181928786015181550195019301610ead565b015190508680610d07565b600183015f5260205f20905f5b601f1984168110610f5e575060019394959683601f19811610610f46575b505050811b016001820155610d21565b01515f1960f88460031b161c19169055858080610f36565b9091602060018192858b015181550193019101610f18565b34610357576020366003190112610357576001600160a01b0380610f986133f6565b165f52600b60205260405f2090815416610fb4600183016136b0565b9160ff610fc3600283016136b0565b610fcf600384016136b0565b92610fdc600482016136b0565b93611044600583015495611036600685015493611028600860078801549701549761101a6040519d8e9d8e6101609181528160208201520190613553565b8c810360408e015290613553565b908a820360608c0152613553565b9088820360808a0152613553565b9460a087015260c086015260e08501528181161515610100850152818160081c16151561012085015260101c1615156101408301520390f35b3461035757602080600319360112610357576004355f52601260205260405f20906040519081602084549182815201935f5260205f20915f905b8282106110ce576106d8856106cc81890382613482565b83546001600160a01b0316865294850194600193840193909101906110b7565b346103575760403660031901126103575761110761340c565b6004355f52601160205260405f209060018060a01b03165f52602052602060ff60405f2054166040519015158152f35b3461035757602061115e8161114b366134f4565b8160405193828580945193849201613532565b8101600f81520301902054604051908152f35b346103575760403660031901126103575761118a6133f6565b61119261340c565b9060018060a01b038091165f52601360205260405f2091165f52602052602060ff60405f2054166040519015158152f35b34610357576020366003190112610357576004355f52601060205260405f2080546111f0600183016136b0565b91611251611200600283016136b0565b9161124360ff6004611214600385016136b0565b9301541693611235604051978897885260a0602089015260a0880190613553565b908682036040880152613553565b908482036060860152613553565b90151560808301520390f35b6060366003190112610357576004356001600160401b0381116103575761128890369060040161363c565b906024356001600160401b038111610357576112a890369060040161363c565b6044356001600160401b038111610357576112c790369060040161363c565b906112d0613c19565b335f52600b60205260ff600860405f20015460101c1661197c57600554861161196a5760045482116119585761130f61130a3688886134be565b613b39565b936040518551611323818360208a01613532565b600c9082019081528190036020019020546001600160a01b03166119465760015434106107b2576113839061135960085461398c565b600855604051946113698661344b565b338652611377368a8a6134be565b602087015236916134be565b6040840152604051918260208101106001600160401b03602085011117610e7d578260206113be94016040525f8152606085015236916134be565b60808201525f60a08201524260c08201524260e08201525f6101008201525f6101208201526001610140820152335f52600b60205260405f2060018060a01b038251166001600160601b0360a01b82541617815560208201518051906001600160401b038211610e7d57611442826114396001860154613678565b60018601613902565b602090601f83116001146118d85761147092915f91836117f15750508160011b915f199060031b1c19161790565b60018201555b60408201518051906001600160401b038211610e7d576114a68261149d6002860154613678565b60028601613902565b602090601f831160011461186a576114d492915f91836117f15750508160011b915f199060031b1c19161790565b60028201555b60608201518051906001600160401b038211610e7d5761150a826115016003860154613678565b60038601613902565b602090601f83116001146117fc5761153892915f91836117f15750508160011b915f199060031b1c19161790565b60038201555b60808201518051906001600160401b038211610e7d5761156e826115656004860154613678565b60048601613902565b602090601f831160011461175357936101406008611658956115cf866020976116fc9b977f25dbccf9f713a2b16ed5d635585b4778d0d7e66b7b631871e668a694131e5fad9d9b5f926117485750508160011b915f199060031b1c19161790565b60048201555b60a0840151600582015560c0840151600682015560e0840151600782015501916116126101008201511515849060ff801983541691151516179055565b610120810151835461ff00191690151560081b61ff00161783550151815462ff0000191690151560101b62ff000016179055604051815190938492829084908601613532565b8101600c815203019020336001600160601b0360a01b82541617905560405161168081613467565b5f81526006602082015f8152604083015f8152606084015f815260808501905f825260a08601925f845260c08701945f8652335f52600d60205260405f2097518855516001880155516002870155516003860155516004850155516005840155519101553461171c575b60405193604085526040850191613a18565b914260208201528033930390a260015f80516020613c4983398151915255005b6117435f808080347349bbefa1d94702c0e9a5eaddec7c3c5d3eb9086b5af16107666139a7565b6116ea565b015190508e80610d07565b90600484015f5260205f20915f5b601f19851681106117d957506008611658956001866116fc9a967f25dbccf9f713a2b16ed5d635585b4778d0d7e66b7b631871e668a694131e5fad9c9a966101409660209a601f198116106117c1575b505050811b0160048201556115d5565b01515f1960f88460031b161c191690558d80806117b1565b91926020600181928685015181550194019201611761565b015190508880610d07565b9190600384015f5260205f20905f935b601f198416851061184f576001945083601f19811610611837575b505050811b01600382015561153e565b01515f1960f88460031b161c19169055878080611827565b8181015183556020948501946001909301929091019061180c565b9190600284015f5260205f20905f935b601f19841685106118bd576001945083601f198116106118a5575b505050811b0160028201556114da565b01515f1960f88460031b161c19169055878080611895565b8181015183556020948501946001909301929091019061187a565b9190600184015f5260205f20905f935b601f198416851061192b576001945083601f19811610611913575b505050811b016001820155611476565b01515f1960f88460031b161c19169055878080611903565b818101518355602094850194600190930192909101906118e8565b604051639e4b268560e01b8152600490fd5b6040516320c753f360e21b8152600490fd5b60405163680b6caf60e01b8152600490fd5b6040516337450d8560e11b8152600490fd5b34610357576080366003190112610357576004356001600160401b038111610357576119be90369060040161363c565b906024356001600160401b038111610357576119de90369060040161363c565b906044356001600160401b038111610357576119fe90369060040161363c565b906064356001600160401b03811161035757611a1e90369060040161363c565b929093335f52600b60205260405f209560ff600888015460101c161561049757600554891161196a57600454851161195857611a5f61130a600189016136b0565b611a6d61130a368c8c6134be565b908051602082012082519081602085012003611e02575b5050506001600160401b038911610e7d57611aaf89611aa660018a0154613678565b60018a01613902565b5f89601f8111600114611d975780611adb925f91611d8c575b508160011b915f199060031b1c19161790565b60018801555b60028701916001600160401b038211610e7d57611b0282610d498554613678565b5f90601f8311600114611d2857611b2f92915f9183611d1d5750508160011b915f199060031b1c19161790565b90555b60038501916001600160401b038211610e7d57611b5382610d498554613678565b5f90601f8311600114611cb957611b8092915f9183611c235750508160011b915f199060031b1c19161790565b90555b60048301916001600160401b038211610e7d57611ba482610d498554613678565b5f90601f8311600114611c2e5782611c1495937fdcb94c0b2c025b0736b4b62b1c595f2ca7ad4c711eada6026d477e87de9cca08979593611bf9935f92611c235750508160011b915f199060031b1c19161790565b90555b60074291015560405193604085526040850191613a18565b914260208201528033930390a2005b013590508980610d07565b601f19831691845f5260205f20925f5b818110611ca15750926001928592611c1498967fdcb94c0b2c025b0736b4b62b1c595f2ca7ad4c711eada6026d477e87de9cca089a989610611c88575b505050811b019055611bfc565b01355f19600384901b60f8161c19169055888080611c7b565b91936020600181928787013581550195019201611c3e565b601f19831691845f5260205f20925f5b818110611d055750908460019594939210611cec575b505050811b019055611b83565b01355f19600384901b60f8161c19169055888080611cdf565b91936020600181928787013581550195019201611cc9565b013590508b80610d07565b601f19831691845f5260205f20925f5b818110611d745750908460019594939210611d5b575b505050811b019055611b32565b01355f19600384901b60f8161c191690558a8080611d4e565b91936020600181928787013581550195019201611d38565b90508a01358c611ac8565b50600188015f5260205f20905f5b8a601f198d168210611dea5750508a601f19811610611dd1575b5050600189811b016001880155611ae1565b8901355f1960038c901b60f8161c191690558980611dbf565b60018394602093948493013581550193019101611da5565b60405190611e14818360208701613532565b600c9082019081528190036020019020546001600160a01b0316611946576020611e4f81611e7f938160405193828580945193849201613532565b8101600c815203019020926001600160601b0360a01b938481541690558160405193828580945193849201613532565b8101600c815203019020903390825416179055898080611a84565b3461035757604036600319011261035757611eb36133f6565b6024359060018060a01b038091165f52601560205260405f208054831015610357576020926104f091613422565b34610357575f366003190112610357575f546040516001600160a01b039091168152602090f35b34610357576020366003190112610357576001600160a01b03611f296133f6565b165f52600d60205260e060405f20805490600181015490600281015460038201546004830154916006600585015494015494604051968752602087015260408601526060850152608084015260a083015260c0820152f35b60a0366003190112610357576004356001600160401b03811161035757611fac90369060040161363c565b6024356001600160401b03811161035757611fcb90369060040161363c565b926044356001600160401b03811161035757611feb90369060040161363c565b9390926064356001600160401b0381116103575761200d90369060040161363c565b9690608435801515810361035757612023613c19565b335f52600b60205260405f209160ff600884015460101c161561049757600654861161196a5760025434106107b25761206061130a3686886134be565b9961207a60208c8160405193828580945193849201613532565b8101600f81520301902054612626576009546120959061398c565b98896009556040519a6120a78c61344b565b8a8c526120b5368a8c6134be565b60208d01526120c536888a6134be565b60408d015236906120d5926134be565b60608b015236906120e5926134be565b60808901523360a08901523360c089015260e0880160019052426101008901521515610120880152610140870160019052855f52600e60205260405f20978751895560208801518051906001600160401b038211610e7d57612157828c600161215081830154613678565b9101613902565b602090601f83116001146125b85761218592915f91836124d15750508160011b915f199060031b1c19161790565b60018a01555b60408801518051906001600160401b038211610e7d576121b4828c600261215081830154613678565b602090601f831160011461254a576121e292915f91836124d15750508160011b915f199060031b1c19161790565b60028a01555b60608801518051906001600160401b038211610e7d57612211828c600361215081830154613678565b602090601f83116001146124dc5761223f92915f91836124d15750508160011b915f199060031b1c19161790565b60038a01555b6080880151978851996001600160401b038b11610e7d578a61227960209c6122706004850154613678565b60048501613902565b8b601f8211600114612428576123708d6123fb989661114b8e9f978f987f95f6756d1fc16a9b798bee79a9bead017e3dabf0db802a041cf7d4c8ae4998949f9e9d9b976005996122e6826009938e9b610140965f9261241d5750508160011b915f199060031b1c19161790565b60048201555b8a810160018060a01b03908160a087015116906001600160601b0360a01b9182825416179055600683019160c0870151169082541617905560e08401516007820155610100840151600882015501916123586101208201511515849060ff801983541691151516179055565b0151815461ff00191690151560081b61ff0016179055565b8101600f81520301902055825f5260118c5260405f20335f528c5260405f20600160ff19825416179055825f5260128c526123ae3360405f20613951565b01556123d75f808080347349bbefa1d94702c0e9a5eaddec7c3c5d3eb9086b5af16107666139a7565b6123ee604051958695606087526060870191613a18565b918483038a860152613a18565b3360408301520390a260015f80516020613c4983398151915255604051908152f35b015190505f80610d07565b600483015f528c5f209b5f5b601f19841681106124ba57508d6123fb989661114b8e9f978f987f95f6756d1fc16a9b798bee79a9bead017e3dabf0db802a041cf7d4c8ae4998949f9e9d9b97600599600182610140948e9b6123709b600996601f198116106124a2575b505050811b0160048201556122ec565b01515f1960f88460031b161c191690555f8080612492565b828201518e556001909d019c918e01918e01612434565b015190508c80610d07565b919060038c015f5260205f20905f935b601f198416851061252f576001945083601f19811610612517575b505050811b0160038a0155612245565b01515f1960f88460031b161c191690558b8080612507565b818101518355602094850194600190930192909101906124ec565b919060028c015f5260205f20905f935b601f198416851061259d576001945083601f19811610612585575b505050811b0160028a01556121e8565b01515f1960f88460031b161c191690558b8080612575565b8181015183556020948501946001909301929091019061255a565b919060018c015f5260205f20905f935b601f198416851061260b576001945083601f198116106125f3575b505050811b0160018a015561218b565b01515f1960f88460031b161c191690558b80806125e3565b818101518355602094850194600190930192909101906125c8565b60405163064da91b60e01b8152600490fd5b34610357576020366003190112610357576004356001600160401b0381116103575761268161130a6126716106d893369060040161363c565b6126796137b6565b5036916134be565b60206126966040519283815193849201613532565b8101600c815281602060018060a01b039384930301902054165f52600b60205260ff600860405f20604051936126cb8561344b565b81541684526126dc600182016136b0565b60208501526126ed600282016136b0565b60408501526126fe600382016136b0565b606085015261270f600482016136b0565b6080850152600581015460a0850152600681015460c0850152600781015460e085015201548181161515610100840152818160081c16151561012084015260101c16151561014082015260405191829182613578565b346103575760203660031901126103575761277e6133f6565b6001600160a01b0381165f908152600b602052604090206008015460101c60ff166127a557005b61001a90600d602052600160405f200161081b815461398c565b34610357575f366003190112610357576020600654604051908152f35b34610357575f366003190112610357576127f4613a38565b5f80546001600160a01b0319811682556001600160a01b03167f8be0079c531659141344cd1fd0a4f28419497f9722a3daafe3b4186f6b6457e08280a3005b346103575760203660031901126103575761284c613a38565b600435600755005b34610357575f366003190112610357576020600a54604051908152f35b346103575760403660031901126103575761288a6133f6565b6024359081151582036103575761289f613a38565b60018060a01b03165f52600b602052600860405f20019060ff825460101c166128c457005b815461ff00191690151560081b61ff0016179055005b34610357576020366003190112610357576128f3613a38565b600435600255005b3461035757602080600319360112610357576129156133f6565b6001600160a01b03811691338314612a2657335f52600b815260ff600860405f20015460101c161561049757825f52600b815260ff600860405f20015460101c161561049757335f526013815260405f20835f52815260ff60405f205416612a14576129bd600d92335f526013835260405f20855f52835260405f20600160ff19825416179055601483526129ad3360405f20613951565b335f526015835260405f20613951565b335f52818152600560405f20016129d4815461398c565b9055825f5252600460405f20016129eb815461398c565b9055337f6178e95c138f06036cdc07a49ed6a3d23008969fa143baeceb037ebae22e8d145f80a3005b60405163118c13c960e21b8152600490fd5b604051635056d97d60e11b8152600490fd5b34610357576040366003190112610357576001600160a01b03612a596133f6565b165f52601760205260405f206024355f52602052602060ff60405f2054166040519015158152f35b34610357575f366003190112610357576020600354604051908152f35b3461035757604036600319011261035757612ab76133f6565b6001600160a01b0381165f908152600b602052604090206008015460101c60ff16612ade57005b61001a90600d602052600360405f200161081b602435825461399a565b34610357575f366003190112610357576020600554604051908152f35b3461035757602080600319360112610357576001600160a01b03612b3a6133f6565b165f526016815260405f20604051908183825491828152019081925f52845f20905f5b86828210612bb2578686612b7382880383613482565b60405192839281840190828552518091526040840192915f5b828110612b9b57505050500390f35b835185528695509381019392810192600101612b8c565b835485529093019260019283019201612b5d565b3461035757604036600319011261035757600435612be261340c565b5f828152600e6020526040902060068101546001600160a01b039392919084163303610aac57600701928354600754111561044f57811692835f52600b60205260405f2060ff600882015460101c16156104975760050190815461048557612c778493845f52601160205260405f20875f5260205260405f20600160ff19825416179055845f52601260205260405f20613951565b612c81815461398c565b9055557fba88b2a48c526412cd8a3e0e0090637d9e322590e7087d3557c435993481a93a5f80a3005b3461035757602036600319011261035757612cc3613a38565b600435600355005b3461035757602036600319011261035757612ce46137b6565b506004355f52600e60205260405f2060ff600960405192612d048461344b565b80548452612d14600182016136b0565b6020850152612d25600282016136b0565b6040850152612d36600382016136b0565b6060850152612d47600482016136b0565b608085015260018060a01b0360058201541660a085015260018060a01b0360068201541660c0850152600781015460e085015260088101546101008501520154818116151561012084015260081c16151561014082015260405180916020825280516020830152610140612e17612dcf60208401516101606040870152610180860190613553565b612e02612dee604086015192601f1993848983030160608a0152613553565b606086015183888303016080890152613553565b906080850151908683030160a0870152613553565b9160018060a01b0360a08201511660c085015260018060a01b0360c08201511660e085015260e0810151610100850152610100810151610120850152610120810151151582850152015115156101608301520390f35b34610357576080366003190112610357576001600160401b0360243581811161035757612e9e90369060040161363c565b9160443581811161035757612eb790369060040161363c565b9092612ec1613669565b936004355f52602091600e835260405f209660018060a01b036006890154163303610aac576003880191868211610e7d57612f0082610d498554613678565b5f90601f831160011461301c57612f2d92915f91836130115750508160011b915f199060031b1c19161790565b90555b60048601938311610e7d57612f4f83612f498654613678565b86613902565b5f91601f8411600114612fa557508261001a969360099593612f85935f92612f9a5750508160011b915f199060031b1c19161790565b90555b019060ff801983541691151516179055565b013590508880610d07565b91601f198416855f52835f20935f905b828210612ff957505092600192859261001a99966009989610612fe0575b505050811b019055612f88565b01355f19600384901b60f8161c19169055878080612fd3565b80600185978294968801358155019601930190612fb5565b013590508a80610d07565b601f19831691845f52865f20925f5b88828210613069575050908460019594939210613050575b505050811b019055612f30565b01355f19600384901b60f8161c19169055898080613043565b600184968293958701358155019501920161302b565b34610357575f3660031901126103575760206040517349bbefa1d94702c0e9a5eaddec7c3c5d3eb9086b8152f35b34610357575f366003190112610357576020600954604051908152f35b34610357575f36600319011261035757335f52600b60205260405f2060ff600882015460101c1615610497576005018054908115610a9a575f828152600e6020526040902060068101549091906001600160a01b03163314610aac5760075f928484526011602052604084203385526020526040842060ff198154169055016131538154613796565b90555533907f9141df029ecc672c054323a39adfa6c9b2a8341ac3d3e7ef0b7ffbf8f0beb0945f80a3005b3461035757602036600319011261035757613197613a38565b600435600555005b346103575760403660031901126103575761001a6131bb6133f6565b6131c3613a38565b6024359061380a565b34610357576020366003190112610357576131e5613a38565b600435600155005b34610357576020366003190112610357576106d86132096133f6565b6132116137b6565b5060018060a01b038091165f52600b60205260ff600860405f20604051936126cb8561344b565b34610357575f366003190112610357576020600254604051908152f35b34610357576020613265366134f4565b816132796040519283815193849201613532565b600c90820190815281900382019020546040516001600160a01b039091168152f35b34610357576040366003190112610357576024356004355f52601260205260405f208054821015610357576020916132d291613422565b905460405160039290921b1c6001600160a01b03168152f35b34610357576020366003190112610357576001600160a01b0361330c6133f6565b165f52600b602052602060ff600860405f20015460101c166040519015158152f35b3461035757602080600319360112610357576133486133f6565b91335f526013825260405f209260018060a01b031692835f52825260ff60405f205416156133e75750600d90335f526013815260405f20835f52815260405f2060ff198154169055335f52818152600560405f20016133a78154613796565b9055825f5252600460405f20016133be8154613796565b9055337f25b48012798806863072289354ed0b3849b73152482d9c6694e5cbb35f38d5e35f80a3005b6322d9eef360e21b8152600490fd5b600435906001600160a01b038216820361035757565b602435906001600160a01b038216820361035757565b8054821015613437575f5260205f2001905f90565b634e487b7160e01b5f52603260045260245ffd5b61016081019081106001600160401b03821117610e7d57604052565b60e081019081106001600160401b03821117610e7d57604052565b90601f801991011681019081106001600160401b03821117610e7d57604052565b6001600160401b038111610e7d57601f01601f191660200190565b9291926134ca826134a3565b916134d86040519384613482565b829481845281830111610357578281602093845f960137010152565b602060031982011261035757600435906001600160401b03821161035757806023830112156103575781602461352f936004013591016134be565b90565b5f5b8381106135435750505f910152565b8181015183820152602001613534565b9060209161356c81518092818552858086019101613532565b601f01601f1916010190565b602080825282516001600160a01b03168282015282015161016060408301819052906135f5906135ad90610180850190613553565b6135e06135cc604087015192601f199384888303016060890152613553565b606087015183878303016080880152613553565b906080860151908583030160a0860152613553565b9260a081015160c084015260c081015160e084015260e081015161010090818501528101516101209015158185015281015190610140911515828501520151151591015290565b9181601f84011215610357578235916001600160401b038311610357576020838186019501011161035757565b60643590811515820361035757565b90600182811c921680156136a6575b602083101461369257565b634e487b7160e01b5f52602260045260245ffd5b91607f1691613687565b9060405191825f82546136c281613678565b908184526020946001916001811690815f1461373057506001146136f2575b5050506136f092500383613482565b565b5f90815285812095935091905b8183106137185750506136f093508201015f80806136e1565b855488840185015294850194879450918301916136ff565b925050506136f094925060ff191682840152151560051b8201015f80806136e1565b60209060206040818301928281528551809452019301915f5b828110613779575050505090565b83516001600160a01b03168552938101939281019260010161376b565b80156137a2575f190190565b634e487b7160e01b5f52601160045260245ffd5b604051906137c38261344b565b5f610140838281526060602082015260606040820152606080820152606060808201528260a08201528260c08201528260e082015282610100820152826101208201520152565b6001600160a01b03165f818152600b60209081526040918290206008015460101c60ff16156138f157835f5260108152815f2054156138e057825f5260178152815f20845f52815260ff825f2054166138da57601690835f5260178152825f20855f528152825f20600160ff19825416179055835f52525f208054600160401b811015610e7d576138a091600182018155613422565b81549060031b9084821b915f19901b19161790557f1538e5a8b6d7b9193ea22abf96eb33aa999b6bc1d9728157028f859e32dc2dbb5f80a3565b50505050565b815163fa7843a360e01b8152600490fd5b81516372da560b60e01b8152600490fd5b601f821161390f57505050565b5f5260205f20906020601f840160051c83019310613947575b601f0160051c01905b81811061393c575050565b5f8155600101613931565b9091508190613928565b8054600160401b811015610e7d5761396e91600182018155613422565b60018060a09493941b038084549260031b9316831b921b1916179055565b5f1981146137a25760010190565b919082018092116137a257565b3d156139d1573d906139b8826134a3565b916139c66040519384613482565b82523d5f602084013e565b606090565b156139dd57565b60405162461bcd60e51b8152602060048201526013602482015272119959481d1c985b9cd9995c8819985a5b1959606a1b6044820152606490fd5b908060209392818452848401375f828201840152601f01601f1916010190565b5f546001600160a01b03163303613a4b57565b60405163118cdaa760e01b8152336004820152602490fd5b6001600160a01b03165f818152600d602052604090208054600a80820291801590830490911417156137a2576001820154906064820291808304606414901517156137a2577f3c351b93b564a3cb1e7f0d7f8310c704b7824b913a9a2d099e726cc14d27a06692613b1a613b0f613af8613ae160209660069661399a565b69d3c21bcecceda10000006002860154049061399a565b69021e19e0c9bab24000006003850154049061399a565b60048301549061399a565b9182910155604051908152a2565b908151811015613437570160200190565b908151613b5e613b48826134a3565b91613b566040519384613482565b8083526134a3565b602090601f190136838301375f5b8451811015613c1257613b7f8186613b28565b5190604160f892831c101580613bfb575b15613bd05782613ba08288613b28565b51831c019160ff83116137a257600192901b6001600160f81b0319165f1a613bc88286613b28565b535b01613b6c565b600191506001600160f81b0319613be78288613b28565b51165f1a613bf58286613b28565b53613bca565b50605a613c088288613b28565b51831c1115613b90565b5090925050565b5f80516020613c498339815191526002815414613c365760029055565b604051633ee5aeb560e01b8152600490fdfe9b779b17422d0df92223018b32b4d1fa46e071723d6817e2486d003becc55f00a2646970667358221220c6a2377ae4b2321a7b4b7be5cca355f6e1b274e2f79a8249b1ff7842b4e3cb5264736f6c63430008180033","linkReferences":{}},"methodIdentifiers":{"TREASURY()":"2d2c5565","awardBadge(address,uint256)":"17872b21","badgeCount()":"5b806645","badges(uint256)":"98e36d8b","createBadge(string,string,string,bool)":"bd3f977f","createCult(string,string,string,string,bool)":"82b45770","createProfile(string,string,string)":"9841c82c","cultCount()":"2ba26fa9","cultCreationFee()":"09882d47","cultMemberList(uint256,uint256)":"08ba6259","cultMembers(uint256,address)":"ad60f84b","cultTagToId(string)":"a9304df6","cults(uint256)":"bd617d9b","deactivateCult(uint256)":"eaa86041","emergencyWithdraw()":"db2e21bc","follow(address)":"4dbf27cc","followers(address,uint256)":"ebd009d3","following(address,uint256)":"9139cda5","getCult(uint256)":"32920108","getCultMembers(uint256)":"b08301d4","getFollowers(address)":"c2fe2022","getFollowing(address)":"d8236dff","getProfile(address)":"0f53a470","getProfileByName(string)":"7d6df699","getStats(address)":"c23f85d6","getUserBadges(address)":"37c245fe","hasBadge(address,uint256)":"4c6a70ce","inviteToCult(uint256,address)":"3789043f","isFollowing(address,address)":"99ec3a42","joinCult(uint256)":"ecc4bda0","leaveCult()":"211319c1","maxBioLength()":"d85269ec","maxCultMembers()":"c5a53c8d","maxCultNameLength()":"75ea7d57","maxNameLength()":"3b992f2b","nameToAddress(string)":"08d88aad","owner()":"8da5cb5b","premiumProfileFee()":"4ace7274","profileCount()":"ef43acef","profileCreationFee()":"df8c5289","profileExists(address)":"05cfa06f","profiles(address)":"bbe15627","recordGraduation(address)":"7756cf7e","recordTip(address,uint256)":"451031f5","recordTokenLaunch(address)":"cbe1c2b5","recordVolume(address,uint256)":"c9c04fcf","renounceOwnership()":"715018a6","setCultCreationFee(uint256)":"54619026","setMaxBioLength(uint256)":"e3047639","setMaxCultMembers(uint256)":"6bbba4ed","setMaxNameLength(uint256)":"1db5ff78","setPremiumProfileFee(uint256)":"35984350","setProfileCreationFee(uint256)":"1155e036","stats(address)":"8bcdcbf3","transferCultLeadership(uint256,address)":"bea10fc1","transferOwnership(address)":"f2fde38b","unfollow(address)":"015a4ead","updateCult(uint256,string,string,bool)":"2e26f7c4","updateProfile(string,string,string,string)":"9483f25c","upgradeToPremium()":"d36f4a27","userBadges(address,uint256)":"df91cc23","verifyProfile(address,bool)":"56412d3a"},"id":43}