{"abi":[{"type":"constructor","inputs":[],"stateMutability":"nonpayable"},{"type":"receive","stateMutability":"payable"},{"type":"function","name":"ADMIN_ROLE","inputs":[],"outputs":[{"name":"","type":"bytes32","internalType":"bytes32"}],"stateMutability":"view"},{"type":"function","name":"BONDING_SUPPLY","inputs":[],"outputs":[{"name":"","type":"uint256","internalType":"uint256"}],"stateMutability":"view"},{"type":"function","name":"BOT_ROLE","inputs":[],"outputs":[{"name":"","type":"bytes32","internalType":"bytes32"}],"stateMutability":"view"},{"type":"function","name":"BPS_DENOMINATOR","inputs":[],"outputs":[{"name":"","type":"uint256","internalType":"uint256"}],"stateMutability":"view"},{"type":"function","name":"BURN_AMOUNT","inputs":[],"outputs":[{"name":"","type":"uint256","internalType":"uint256"}],"stateMutability":"view"},{"type":"function","name":"BUY_FEE_BPS","inputs":[],"outputs":[{"name":"","type":"uint256","internalType":"uint256"}],"stateMutability":"view"},{"type":"function","name":"CREATION_FEE","inputs":[],"outputs":[{"name":"","type":"uint256","internalType":"uint256"}],"stateMutability":"view"},{"type":"function","name":"CREATOR_REWARD_BPS","inputs":[],"outputs":[{"name":"","type":"uint256","internalType":"uint256"}],"stateMutability":"view"},{"type":"function","name":"DEAD_ADDRESS","inputs":[],"outputs":[{"name":"","type":"address","internalType":"address"}],"stateMutability":"view"},{"type":"function","name":"FEE_EXEMPT_ROLE","inputs":[],"outputs":[{"name":"","type":"bytes32","internalType":"bytes32"}],"stateMutability":"view"},{"type":"function","name":"GRADUATION_TARGET","inputs":[],"outputs":[{"name":"","type":"uint256","internalType":"uint256"}],"stateMutability":"view"},{"type":"function","name":"LP_AMOUNT","inputs":[],"outputs":[{"name":"","type":"uint256","internalType":"uint256"}],"stateMutability":"view"},{"type":"function","name":"LP_RESERVE","inputs":[],"outputs":[{"name":"","type":"uint256","internalType":"uint256"}],"stateMutability":"view"},{"type":"function","name":"OWNER_ROLE","inputs":[],"outputs":[{"name":"","type":"bytes32","internalType":"bytes32"}],"stateMutability":"view"},{"type":"function","name":"SELL_FEE_BPS","inputs":[],"outputs":[{"name":"","type":"uint256","internalType":"uint256"}],"stateMutability":"view"},{"type":"function","name":"TOTAL_SUPPLY","inputs":[],"outputs":[{"name":"","type":"uint256","internalType":"uint256"}],"stateMutability":"view"},{"type":"function","name":"TREASURY","inputs":[],"outputs":[{"name":"","type":"address","internalType":"address"}],"stateMutability":"view"},{"type":"function","name":"VIRTUAL_PLS","inputs":[],"outputs":[{"name":"","type":"uint256","internalType":"uint256"}],"stateMutability":"view"},{"type":"function","name":"VIRTUAL_TOKENS","inputs":[],"outputs":[{"name":"","type":"uint256","internalType":"uint256"}],"stateMutability":"view"},{"type":"function","name":"WPLS","inputs":[],"outputs":[{"name":"","type":"address","internalType":"address"}],"stateMutability":"view"},{"type":"function","name":"addSuperChatTier","inputs":[{"name":"minAmount","type":"uint256","internalType":"uint256"},{"name":"durationSeconds","type":"uint256","internalType":"uint256"},{"name":"tierName","type":"string","internalType":"string"}],"outputs":[],"stateMutability":"nonpayable"},{"type":"function","name":"allTokens","inputs":[{"name":"","type":"uint256","internalType":"uint256"}],"outputs":[{"name":"","type":"address","internalType":"address"}],"stateMutability":"view"},{"type":"function","name":"bondingSupply","inputs":[],"outputs":[{"name":"","type":"uint256","internalType":"uint256"}],"stateMutability":"view"},{"type":"function","name":"burn","inputs":[{"name":"token","type":"address","internalType":"address"},{"name":"tokenAmount","type":"uint256","internalType":"uint256"}],"outputs":[{"name":"plsReceived","type":"uint256","internalType":"uint256"}],"stateMutability":"nonpayable"},{"type":"function","name":"burnAmount","inputs":[],"outputs":[{"name":"","type":"uint256","internalType":"uint256"}],"stateMutability":"view"},{"type":"function","name":"buy","inputs":[{"name":"token","type":"address","internalType":"address"},{"name":"minTokens","type":"uint256","internalType":"uint256"},{"name":"referrer","type":"address","internalType":"address"}],"outputs":[{"name":"tokensOut","type":"uint256","internalType":"uint256"}],"stateMutability":"payable"},{"type":"function","name":"buyFeeBps","inputs":[],"outputs":[{"name":"","type":"uint256","internalType":"uint256"}],"stateMutability":"view"},{"type":"function","name":"canUseChat","inputs":[{"name":"token","type":"address","internalType":"address"},{"name":"user","type":"address","internalType":"address"}],"outputs":[{"name":"","type":"bool","internalType":"bool"}],"stateMutability":"view"},{"type":"function","name":"canUseMessageBoard","inputs":[{"name":"token","type":"address","internalType":"address"},{"name":"user","type":"address","internalType":"address"}],"outputs":[{"name":"","type":"bool","internalType":"bool"}],"stateMutability":"view"},{"type":"function","name":"chatHoldingBps","inputs":[],"outputs":[{"name":"","type":"uint256","internalType":"uint256"}],"stateMutability":"view"},{"type":"function","name":"clearTokenOverrides","inputs":[{"name":"token","type":"address","internalType":"address"}],"outputs":[],"stateMutability":"nonpayable"},{"type":"function","name":"createLivestreamToken","inputs":[{"name":"name","type":"string","internalType":"string"},{"name":"symbol","type":"string","internalType":"string"},{"name":"imageUri","type":"string","internalType":"string"},{"name":"scheduledStartTime","type":"uint256","internalType":"uint256"}],"outputs":[{"name":"tokenAddress","type":"address","internalType":"address"}],"stateMutability":"payable"},{"type":"function","name":"createToken","inputs":[{"name":"name","type":"string","internalType":"string"},{"name":"symbol","type":"string","internalType":"string"},{"name":"imageUri","type":"string","internalType":"string"}],"outputs":[{"name":"tokenAddress","type":"address","internalType":"address"}],"stateMutability":"payable"},{"type":"function","name":"createTokenWithBuy","inputs":[{"name":"name","type":"string","internalType":"string"},{"name":"symbol","type":"string","internalType":"string"},{"name":"imageUri","type":"string","internalType":"string"},{"name":"buyAmount","type":"uint256","internalType":"uint256"},{"name":"minTokens","type":"uint256","internalType":"uint256"}],"outputs":[{"name":"tokenAddress","type":"address","internalType":"address"},{"name":"tokensOut","type":"uint256","internalType":"uint256"}],"stateMutability":"payable"},{"type":"function","name":"creationFee","inputs":[],"outputs":[{"name":"","type":"uint256","internalType":"uint256"}],"stateMutability":"view"},{"type":"function","name":"creatorRewardBps","inputs":[],"outputs":[{"name":"","type":"uint256","internalType":"uint256"}],"stateMutability":"view"},{"type":"function","name":"deadAddress","inputs":[],"outputs":[{"name":"","type":"address","internalType":"address"}],"stateMutability":"view"},{"type":"function","name":"emergencyWithdraw","inputs":[],"outputs":[],"stateMutability":"nonpayable"},{"type":"function","name":"flashTrade","inputs":[{"name":"token","type":"address","internalType":"address"},{"name":"plsIn","type":"uint256","internalType":"uint256"},{"name":"minProfit","type":"uint256","internalType":"uint256"}],"outputs":[{"name":"profit","type":"uint256","internalType":"uint256"}],"stateMutability":"payable"},{"type":"function","name":"forceGraduate","inputs":[{"name":"token","type":"address","internalType":"address"}],"outputs":[],"stateMutability":"nonpayable"},{"type":"function","name":"forceRefund","inputs":[{"name":"token","type":"address","internalType":"address"}],"outputs":[],"stateMutability":"nonpayable"},{"type":"function","name":"getAllTokens","inputs":[{"name":"offset","type":"uint256","internalType":"uint256"},{"name":"limit","type":"uint256","internalType":"uint256"}],"outputs":[{"name":"","type":"address[]","internalType":"address[]"}],"stateMutability":"view"},{"type":"function","name":"getBondingCurveProgress","inputs":[{"name":"token","type":"address","internalType":"address"}],"outputs":[{"name":"plsRaised","type":"uint256","internalType":"uint256"},{"name":"plsTarget","type":"uint256","internalType":"uint256"},{"name":"progressBps","type":"uint256","internalType":"uint256"},{"name":"tokensSold","type":"uint256","internalType":"uint256"}],"stateMutability":"view"},{"type":"function","name":"getCirculatingSupply","inputs":[{"name":"token","type":"address","internalType":"address"}],"outputs":[{"name":"","type":"uint256","internalType":"uint256"}],"stateMutability":"view"},{"type":"function","name":"getConfig","inputs":[],"outputs":[{"name":"","type":"tuple","internalType":"struct PumpFudV2.ConfigBatch","components":[{"name":"totalSupply","type":"uint256","internalType":"uint256"},{"name":"bondingSupply","type":"uint256","internalType":"uint256"},{"name":"lpReserve","type":"uint256","internalType":"uint256"},{"name":"graduationTarget","type":"uint256","internalType":"uint256"},{"name":"burnAmount","type":"uint256","internalType":"uint256"},{"name":"lpAmount","type":"uint256","internalType":"uint256"},{"name":"buyFeeBps","type":"uint256","internalType":"uint256"},{"name":"sellFeeBps","type":"uint256","internalType":"uint256"},{"name":"creatorRewardBps","type":"uint256","internalType":"uint256"},{"name":"creationFee","type":"uint256","internalType":"uint256"},{"name":"virtualPls","type":"uint256","internalType":"uint256"},{"name":"virtualTokens","type":"uint256","internalType":"uint256"},{"name":"chatHoldingBps","type":"uint256","internalType":"uint256"},{"name":"messageBoardHoldingBps","type":"uint256","internalType":"uint256"}]}],"stateMutability":"view"},{"type":"function","name":"getEstimatedPls","inputs":[{"name":"token","type":"address","internalType":"address"},{"name":"tokenAmount","type":"uint256","internalType":"uint256"}],"outputs":[{"name":"plsOut","type":"uint256","internalType":"uint256"}],"stateMutability":"view"},{"type":"function","name":"getEstimatedTokens","inputs":[{"name":"token","type":"address","internalType":"address"},{"name":"plsAmount","type":"uint256","internalType":"uint256"}],"outputs":[{"name":"tokensOut","type":"uint256","internalType":"uint256"}],"stateMutability":"view"},{"type":"function","name":"getLiveTokens","inputs":[{"name":"offset","type":"uint256","internalType":"uint256"},{"name":"limit","type":"uint256","internalType":"uint256"}],"outputs":[{"name":"","type":"address[]","internalType":"address[]"}],"stateMutability":"view"},{"type":"function","name":"getPrices","inputs":[{"name":"tokens","type":"address[]","internalType":"address[]"}],"outputs":[{"name":"prices","type":"uint256[]","internalType":"uint256[]"}],"stateMutability":"view"},{"type":"function","name":"getSuperChatTiers","inputs":[],"outputs":[{"name":"","type":"tuple[]","internalType":"struct PumpFudV2.SuperChatTier[]","components":[{"name":"minAmount","type":"uint256","internalType":"uint256"},{"name":"durationSeconds","type":"uint256","internalType":"uint256"},{"name":"tierName","type":"string","internalType":"string"}]}],"stateMutability":"view"},{"type":"function","name":"getTokenCount","inputs":[],"outputs":[{"name":"","type":"uint256","internalType":"uint256"}],"stateMutability":"view"},{"type":"function","name":"getTokenData","inputs":[{"name":"token","type":"address","internalType":"address"}],"outputs":[{"name":"","type":"tuple","internalType":"struct PumpFudV2.TokenData","components":[{"name":"tokenAddress","type":"address","internalType":"address"},{"name":"creator","type":"address","internalType":"address"},{"name":"name","type":"string","internalType":"string"},{"name":"symbol","type":"string","internalType":"string"},{"name":"imageUri","type":"string","internalType":"string"},{"name":"plsReserve","type":"uint256","internalType":"uint256"},{"name":"tokensSold","type":"uint256","internalType":"uint256"},{"name":"totalVolume","type":"uint256","internalType":"uint256"},{"name":"createdAt","type":"uint256","internalType":"uint256"},{"name":"graduatedAt","type":"uint256","internalType":"uint256"},{"name":"isGraduated","type":"bool","internalType":"bool"},{"name":"isLivestream","type":"bool","internalType":"bool"},{"name":"livestreamStartTime","type":"uint256","internalType":"uint256"}]}],"stateMutability":"view"},{"type":"function","name":"getTokenPrice","inputs":[{"name":"token","type":"address","internalType":"address"}],"outputs":[{"name":"price","type":"uint256","internalType":"uint256"}],"stateMutability":"view"},{"type":"function","name":"graduationTarget","inputs":[],"outputs":[{"name":"","type":"uint256","internalType":"uint256"}],"stateMutability":"view"},{"type":"function","name":"grantRole","inputs":[{"name":"role","type":"bytes32","internalType":"bytes32"},{"name":"account","type":"address","internalType":"address"}],"outputs":[],"stateMutability":"nonpayable"},{"type":"function","name":"grantRoleBatch","inputs":[{"name":"role","type":"bytes32","internalType":"bytes32"},{"name":"accounts","type":"address[]","internalType":"address[]"}],"outputs":[],"stateMutability":"nonpayable"},{"type":"function","name":"hasRole","inputs":[{"name":"role","type":"bytes32","internalType":"bytes32"},{"name":"account","type":"address","internalType":"address"}],"outputs":[{"name":"","type":"bool","internalType":"bool"}],"stateMutability":"view"},{"type":"function","name":"isFeeExempt","inputs":[{"name":"account","type":"address","internalType":"address"}],"outputs":[{"name":"","type":"bool","internalType":"bool"}],"stateMutability":"view"},{"type":"function","name":"leaderboard","inputs":[],"outputs":[{"name":"","type":"address","internalType":"address"}],"stateMutability":"view"},{"type":"function","name":"lpAmount","inputs":[],"outputs":[{"name":"","type":"uint256","internalType":"uint256"}],"stateMutability":"view"},{"type":"function","name":"lpReserve","inputs":[],"outputs":[{"name":"","type":"uint256","internalType":"uint256"}],"stateMutability":"view"},{"type":"function","name":"messageBoardHoldingBps","inputs":[],"outputs":[{"name":"","type":"uint256","internalType":"uint256"}],"stateMutability":"view"},{"type":"function","name":"multiArb","inputs":[{"name":"tokens","type":"address[]","internalType":"address[]"},{"name":"amounts","type":"uint256[]","internalType":"uint256[]"},{"name":"isBuy","type":"bool[]","internalType":"bool[]"}],"outputs":[{"name":"totalProfit","type":"uint256","internalType":"uint256"}],"stateMutability":"payable"},{"type":"function","name":"owner","inputs":[],"outputs":[{"name":"","type":"address","internalType":"address"}],"stateMutability":"view"},{"type":"function","name":"paused","inputs":[],"outputs":[{"name":"","type":"bool","internalType":"bool"}],"stateMutability":"view"},{"type":"function","name":"primaryFactory","inputs":[],"outputs":[{"name":"","type":"address","internalType":"address"}],"stateMutability":"view"},{"type":"function","name":"primaryRouter","inputs":[],"outputs":[{"name":"","type":"address","internalType":"address"}],"stateMutability":"view"},{"type":"function","name":"pumpFudToken","inputs":[],"outputs":[{"name":"","type":"address","internalType":"address"}],"stateMutability":"view"},{"type":"function","name":"removeSuperChatTier","inputs":[{"name":"index","type":"uint256","internalType":"uint256"}],"outputs":[],"stateMutability":"nonpayable"},{"type":"function","name":"revokeRole","inputs":[{"name":"role","type":"bytes32","internalType":"bytes32"},{"name":"account","type":"address","internalType":"address"}],"outputs":[],"stateMutability":"nonpayable"},{"type":"function","name":"revokeRoleBatch","inputs":[{"name":"role","type":"bytes32","internalType":"bytes32"},{"name":"accounts","type":"address[]","internalType":"address[]"}],"outputs":[],"stateMutability":"nonpayable"},{"type":"function","name":"secondaryFactory","inputs":[],"outputs":[{"name":"","type":"address","internalType":"address"}],"stateMutability":"view"},{"type":"function","name":"secondaryRouter","inputs":[],"outputs":[{"name":"","type":"address","internalType":"address"}],"stateMutability":"view"},{"type":"function","name":"sell","inputs":[{"name":"token","type":"address","internalType":"address"},{"name":"tokenAmount","type":"uint256","internalType":"uint256"},{"name":"minPls","type":"uint256","internalType":"uint256"},{"name":"referrer","type":"address","internalType":"address"}],"outputs":[{"name":"plsOut","type":"uint256","internalType":"uint256"}],"stateMutability":"nonpayable"},{"type":"function","name":"sellFeeBps","inputs":[],"outputs":[{"name":"","type":"uint256","internalType":"uint256"}],"stateMutability":"view"},{"type":"function","name":"setBondingSupply","inputs":[{"name":"_bondingSupply","type":"uint256","internalType":"uint256"}],"outputs":[],"stateMutability":"nonpayable"},{"type":"function","name":"setBurnAmount","inputs":[{"name":"_burnAmount","type":"uint256","internalType":"uint256"}],"outputs":[],"stateMutability":"nonpayable"},{"type":"function","name":"setBuyFeeBps","inputs":[{"name":"_buyFeeBps","type":"uint256","internalType":"uint256"}],"outputs":[],"stateMutability":"nonpayable"},{"type":"function","name":"setChatHoldingBps","inputs":[{"name":"_chatHoldingBps","type":"uint256","internalType":"uint256"}],"outputs":[],"stateMutability":"nonpayable"},{"type":"function","name":"setConfigBatch","inputs":[{"name":"config","type":"tuple","internalType":"struct PumpFudV2.ConfigBatch","components":[{"name":"totalSupply","type":"uint256","internalType":"uint256"},{"name":"bondingSupply","type":"uint256","internalType":"uint256"},{"name":"lpReserve","type":"uint256","internalType":"uint256"},{"name":"graduationTarget","type":"uint256","internalType":"uint256"},{"name":"burnAmount","type":"uint256","internalType":"uint256"},{"name":"lpAmount","type":"uint256","internalType":"uint256"},{"name":"buyFeeBps","type":"uint256","internalType":"uint256"},{"name":"sellFeeBps","type":"uint256","internalType":"uint256"},{"name":"creatorRewardBps","type":"uint256","internalType":"uint256"},{"name":"creationFee","type":"uint256","internalType":"uint256"},{"name":"virtualPls","type":"uint256","internalType":"uint256"},{"name":"virtualTokens","type":"uint256","internalType":"uint256"},{"name":"chatHoldingBps","type":"uint256","internalType":"uint256"},{"name":"messageBoardHoldingBps","type":"uint256","internalType":"uint256"}]}],"outputs":[],"stateMutability":"nonpayable"},{"type":"function","name":"setCreationFee","inputs":[{"name":"_creationFee","type":"uint256","internalType":"uint256"}],"outputs":[],"stateMutability":"nonpayable"},{"type":"function","name":"setCreatorRewardBps","inputs":[{"name":"_creatorRewardBps","type":"uint256","internalType":"uint256"}],"outputs":[],"stateMutability":"nonpayable"},{"type":"function","name":"setDeadAddress","inputs":[{"name":"_deadAddress","type":"address","internalType":"address"}],"outputs":[],"stateMutability":"nonpayable"},{"type":"function","name":"setGraduationTarget","inputs":[{"name":"_graduationTarget","type":"uint256","internalType":"uint256"}],"outputs":[],"stateMutability":"nonpayable"},{"type":"function","name":"setLeaderboard","inputs":[{"name":"_leaderboard","type":"address","internalType":"address"}],"outputs":[],"stateMutability":"nonpayable"},{"type":"function","name":"setLpAmount","inputs":[{"name":"_lpAmount","type":"uint256","internalType":"uint256"}],"outputs":[],"stateMutability":"nonpayable"},{"type":"function","name":"setLpReserve","inputs":[{"name":"_lpReserve","type":"uint256","internalType":"uint256"}],"outputs":[],"stateMutability":"nonpayable"},{"type":"function","name":"setMessageBoardHoldingBps","inputs":[{"name":"_messageBoardHoldingBps","type":"uint256","internalType":"uint256"}],"outputs":[],"stateMutability":"nonpayable"},{"type":"function","name":"setPaused","inputs":[{"name":"_paused","type":"bool","internalType":"bool"}],"outputs":[],"stateMutability":"nonpayable"},{"type":"function","name":"setPrimaryFactory","inputs":[{"name":"_primaryFactory","type":"address","internalType":"address"}],"outputs":[],"stateMutability":"nonpayable"},{"type":"function","name":"setPrimaryRouter","inputs":[{"name":"_primaryRouter","type":"address","internalType":"address"}],"outputs":[],"stateMutability":"nonpayable"},{"type":"function","name":"setPumpFudToken","inputs":[{"name":"_pumpFudToken","type":"address","internalType":"address"}],"outputs":[],"stateMutability":"nonpayable"},{"type":"function","name":"setSecondaryFactory","inputs":[{"name":"_factory","type":"address","internalType":"address"}],"outputs":[],"stateMutability":"nonpayable"},{"type":"function","name":"setSecondaryRouter","inputs":[{"name":"_router","type":"address","internalType":"address"}],"outputs":[],"stateMutability":"nonpayable"},{"type":"function","name":"setSellFeeBps","inputs":[{"name":"_sellFeeBps","type":"uint256","internalType":"uint256"}],"outputs":[],"stateMutability":"nonpayable"},{"type":"function","name":"setTokenBuyFeeOverride","inputs":[{"name":"token","type":"address","internalType":"address"},{"name":"_buyFeeBps","type":"uint256","internalType":"uint256"}],"outputs":[],"stateMutability":"nonpayable"},{"type":"function","name":"setTokenCreationFeeOverride","inputs":[{"name":"token","type":"address","internalType":"address"},{"name":"_creationFee","type":"uint256","internalType":"uint256"}],"outputs":[],"stateMutability":"nonpayable"},{"type":"function","name":"setTokenGraduationTargetOverride","inputs":[{"name":"token","type":"address","internalType":"address"},{"name":"_graduationTarget","type":"uint256","internalType":"uint256"}],"outputs":[],"stateMutability":"nonpayable"},{"type":"function","name":"setTokenSellFeeOverride","inputs":[{"name":"token","type":"address","internalType":"address"},{"name":"_sellFeeBps","type":"uint256","internalType":"uint256"}],"outputs":[],"stateMutability":"nonpayable"},{"type":"function","name":"setTotalSupply","inputs":[{"name":"_totalSupply","type":"uint256","internalType":"uint256"}],"outputs":[],"stateMutability":"nonpayable"},{"type":"function","name":"setTreasury","inputs":[{"name":"_treasury","type":"address","internalType":"address"}],"outputs":[],"stateMutability":"nonpayable"},{"type":"function","name":"setVirtualPls","inputs":[{"name":"_virtualPls","type":"uint256","internalType":"uint256"}],"outputs":[],"stateMutability":"nonpayable"},{"type":"function","name":"setVirtualTokens","inputs":[{"name":"_virtualTokens","type":"uint256","internalType":"uint256"}],"outputs":[],"stateMutability":"nonpayable"},{"type":"function","name":"setWpls","inputs":[{"name":"_wpls","type":"address","internalType":"address"}],"outputs":[],"stateMutability":"nonpayable"},{"type":"function","name":"startLivestream","inputs":[{"name":"token","type":"address","internalType":"address"}],"outputs":[],"stateMutability":"nonpayable"},{"type":"function","name":"superChat","inputs":[{"name":"token","type":"address","internalType":"address"},{"name":"recipient","type":"address","internalType":"address"},{"name":"message","type":"string","internalType":"string"}],"outputs":[{"name":"tierIndex","type":"uint256","internalType":"uint256"}],"stateMutability":"payable"},{"type":"function","name":"superChatTiers","inputs":[{"name":"","type":"uint256","internalType":"uint256"}],"outputs":[{"name":"minAmount","type":"uint256","internalType":"uint256"},{"name":"durationSeconds","type":"uint256","internalType":"uint256"},{"name":"tierName","type":"string","internalType":"string"}],"stateMutability":"view"},{"type":"function","name":"superChatTotal","inputs":[{"name":"","type":"address","internalType":"address"},{"name":"","type":"address","internalType":"address"}],"outputs":[{"name":"","type":"uint256","internalType":"uint256"}],"stateMutability":"view"},{"type":"function","name":"tokenData","inputs":[{"name":"","type":"address","internalType":"address"}],"outputs":[{"name":"tokenAddress","type":"address","internalType":"address"},{"name":"creator","type":"address","internalType":"address"},{"name":"name","type":"string","internalType":"string"},{"name":"symbol","type":"string","internalType":"string"},{"name":"imageUri","type":"string","internalType":"string"},{"name":"plsReserve","type":"uint256","internalType":"uint256"},{"name":"tokensSold","type":"uint256","internalType":"uint256"},{"name":"totalVolume","type":"uint256","internalType":"uint256"},{"name":"createdAt","type":"uint256","internalType":"uint256"},{"name":"graduatedAt","type":"uint256","internalType":"uint256"},{"name":"isGraduated","type":"bool","internalType":"bool"},{"name":"isLivestream","type":"bool","internalType":"bool"},{"name":"livestreamStartTime","type":"uint256","internalType":"uint256"}],"stateMutability":"view"},{"type":"function","name":"tokenOverrides","inputs":[{"name":"","type":"address","internalType":"address"}],"outputs":[{"name":"hasBuyFeeOverride","type":"bool","internalType":"bool"},{"name":"buyFeeBps","type":"uint256","internalType":"uint256"},{"name":"hasSellFeeOverride","type":"bool","internalType":"bool"},{"name":"sellFeeBps","type":"uint256","internalType":"uint256"},{"name":"hasCreationFeeOverride","type":"bool","internalType":"bool"},{"name":"creationFee","type":"uint256","internalType":"uint256"},{"name":"hasGraduationTargetOverride","type":"bool","internalType":"bool"},{"name":"graduationTarget","type":"uint256","internalType":"uint256"}],"stateMutability":"view"},{"type":"function","name":"totalSupply","inputs":[],"outputs":[{"name":"","type":"uint256","internalType":"uint256"}],"stateMutability":"view"},{"type":"function","name":"transferOwnership","inputs":[{"name":"newOwner","type":"address","internalType":"address"}],"outputs":[],"stateMutability":"nonpayable"},{"type":"function","name":"treasury","inputs":[],"outputs":[{"name":"","type":"address","internalType":"address"}],"stateMutability":"view"},{"type":"function","name":"updateSuperChatTier","inputs":[{"name":"index","type":"uint256","internalType":"uint256"},{"name":"minAmount","type":"uint256","internalType":"uint256"},{"name":"durationSeconds","type":"uint256","internalType":"uint256"},{"name":"tierName","type":"string","internalType":"string"}],"outputs":[],"stateMutability":"nonpayable"},{"type":"function","name":"virtualPls","inputs":[],"outputs":[{"name":"","type":"uint256","internalType":"uint256"}],"stateMutability":"view"},{"type":"function","name":"virtualTokens","inputs":[],"outputs":[{"name":"","type":"uint256","internalType":"uint256"}],"stateMutability":"view"},{"type":"function","name":"wpls","inputs":[],"outputs":[{"name":"","type":"address","internalType":"address"}],"stateMutability":"view"},{"type":"event","name":"AddressUpdated","inputs":[{"name":"param","type":"string","indexed":true,"internalType":"string"},{"name":"oldAddress","type":"address","indexed":false,"internalType":"address"},{"name":"newAddress","type":"address","indexed":false,"internalType":"address"}],"anonymous":false},{"type":"event","name":"ConfigUpdated","inputs":[{"name":"param","type":"string","indexed":true,"internalType":"string"},{"name":"oldValue","type":"uint256","indexed":false,"internalType":"uint256"},{"name":"newValue","type":"uint256","indexed":false,"internalType":"uint256"}],"anonymous":false},{"type":"event","name":"LivestreamStarted","inputs":[{"name":"token","type":"address","indexed":true,"internalType":"address"},{"name":"startTime","type":"uint256","indexed":false,"internalType":"uint256"}],"anonymous":false},{"type":"event","name":"OwnershipTransferred","inputs":[{"name":"previousOwner","type":"address","indexed":true,"internalType":"address"},{"name":"newOwner","type":"address","indexed":true,"internalType":"address"}],"anonymous":false},{"type":"event","name":"ReferralPaid","inputs":[{"name":"referrer","type":"address","indexed":true,"internalType":"address"},{"name":"token","type":"address","indexed":true,"internalType":"address"},{"name":"plsAmount","type":"uint256","indexed":false,"internalType":"uint256"}],"anonymous":false},{"type":"event","name":"RoleGranted","inputs":[{"name":"role","type":"bytes32","indexed":true,"internalType":"bytes32"},{"name":"account","type":"address","indexed":true,"internalType":"address"},{"name":"sender","type":"address","indexed":true,"internalType":"address"}],"anonymous":false},{"type":"event","name":"RoleRevoked","inputs":[{"name":"role","type":"bytes32","indexed":true,"internalType":"bytes32"},{"name":"account","type":"address","indexed":true,"internalType":"address"},{"name":"sender","type":"address","indexed":true,"internalType":"address"}],"anonymous":false},{"type":"event","name":"SuperChatSent","inputs":[{"name":"token","type":"address","indexed":true,"internalType":"address"},{"name":"sender","type":"address","indexed":true,"internalType":"address"},{"name":"recipient","type":"address","indexed":true,"internalType":"address"},{"name":"amount","type":"uint256","indexed":false,"internalType":"uint256"},{"name":"message","type":"string","indexed":false,"internalType":"string"},{"name":"tierIndex","type":"uint256","indexed":false,"internalType":"uint256"}],"anonymous":false},{"type":"event","name":"TokenBought","inputs":[{"name":"token","type":"address","indexed":true,"internalType":"address"},{"name":"buyer","type":"address","indexed":true,"internalType":"address"},{"name":"plsIn","type":"uint256","indexed":false,"internalType":"uint256"},{"name":"tokensOut","type":"uint256","indexed":false,"internalType":"uint256"},{"name":"referrer","type":"address","indexed":false,"internalType":"address"}],"anonymous":false},{"type":"event","name":"TokenBurned","inputs":[{"name":"token","type":"address","indexed":true,"internalType":"address"},{"name":"burner","type":"address","indexed":true,"internalType":"address"},{"name":"tokensBurned","type":"uint256","indexed":false,"internalType":"uint256"},{"name":"plsReceived","type":"uint256","indexed":false,"internalType":"uint256"}],"anonymous":false},{"type":"event","name":"TokenCreated","inputs":[{"name":"token","type":"address","indexed":true,"internalType":"address"},{"name":"creator","type":"address","indexed":true,"internalType":"address"},{"name":"name","type":"string","indexed":false,"internalType":"string"},{"name":"symbol","type":"string","indexed":false,"internalType":"string"},{"name":"creatorBuyAmount","type":"uint256","indexed":false,"internalType":"uint256"}],"anonymous":false},{"type":"event","name":"TokenGraduated","inputs":[{"name":"token","type":"address","indexed":true,"internalType":"address"},{"name":"plsBurned","type":"uint256","indexed":false,"internalType":"uint256"},{"name":"plsToLP","type":"uint256","indexed":false,"internalType":"uint256"},{"name":"tokensToLP","type":"uint256","indexed":false,"internalType":"uint256"}],"anonymous":false},{"type":"event","name":"TokenOverrideSet","inputs":[{"name":"token","type":"address","indexed":true,"internalType":"address"},{"name":"param","type":"string","indexed":false,"internalType":"string"},{"name":"value","type":"uint256","indexed":false,"internalType":"uint256"}],"anonymous":false},{"type":"event","name":"TokenSold","inputs":[{"name":"token","type":"address","indexed":true,"internalType":"address"},{"name":"seller","type":"address","indexed":true,"internalType":"address"},{"name":"tokensIn","type":"uint256","indexed":false,"internalType":"uint256"},{"name":"plsOut","type":"uint256","indexed":false,"internalType":"uint256"},{"name":"referrer","type":"address","indexed":false,"internalType":"address"}],"anonymous":false},{"type":"error","name":"ContractPaused","inputs":[]},{"type":"error","name":"InsufficientHolding","inputs":[]},{"type":"error","name":"InsufficientPayment","inputs":[]},{"type":"error","name":"InsufficientTokens","inputs":[]},{"type":"error","name":"InvalidTier","inputs":[]},{"type":"error","name":"InvalidToken","inputs":[]},{"type":"error","name":"LivestreamNotActive","inputs":[]},{"type":"error","name":"NothingToBurn","inputs":[]},{"type":"error","name":"ReentrancyGuardReentrantCall","inputs":[]},{"type":"error","name":"SlippageExceeded","inputs":[]},{"type":"error","name":"TokenAlreadyGraduated","inputs":[]},{"type":"error","name":"TransferFailed","inputs":[]},{"type":"error","name":"Unauthorized","inputs":[]},{"type":"error","name":"ZeroAddress","inputs":[]},{"type":"error","name":"ZeroAmount","inputs":[]}],"bytecode":{"object":"0x604060808152346200050057600190817f9b779b17422d0df92223018b32b4d1fa46e071723d6817e2486d003becc55f005560018060a01b03199033828454161783557fb19546dff01e856fb3f010c267a7b1c60363cf8a4664e21cc89c26224620214e90815f526020905f8252805f20335f528252805f2060ff199086828254161790557fa49807205ce4d355092ef5a8a18f56e8913cf4a201fbe287825b095693c2177595865f525f8452825f20335f528452825f2081838254161790557f6d5c9827c1f410bbb61d3b2a0a34b6b30492d9a1fd38588edca7ec4562ab9c9b93845f525f8152835f20335f528152835f2082848254161790556200033e7f4b41dfcec163471e57d8e95736c9a1074b9e2d313632c33d95f024a46957265b97885f525f8352855f20335f528352855f20848682541617905573ae213e8afbf7d76667332092f817589fdab68ec26acecb8f27f4200f3a00000091826002556aa56fa5b99019a5c80000006003556a295be96e64066972000000806004556005556a084595161401484a0000006006556a21165458500521280000006007556064600855607a6009556064600a5568056bc75e2d631000009283600b556a0a56fa5b99019a5c800000600c55600d557349bbefa1d94702c0e9a5eaddec7c3c5d3eb9086b81600e541617600e5561dead81600f541617600f5573a1077a294dde1b09bb078844df40758a5d0f9a2781601054161760105573165c3410fc91ef562c50559f7d2289febed552d98160115416176011557329ea7545def87022badc76323f373ea1e707c5238160125416176012557398bf93ebf5c380c0e6ae8e192a7e2ae08edacc02816013541617601355731715a3e4a142d8b698131108995174f37aeba10d816014541617601455737e65383639d8418e826a78a2f5c784cd4bdb92d781601554161760155560165416176016556064601855603260195562000304620002cd62000504565b678ac7230489e800008152603c85820152620002e862000538565b600681526542726f6e7a6560d01b868201528882015262000558565b6200030e62000504565b90815261012c838201526200032262000538565b600681526529b4b63b32b960d11b848201528682015262000558565b620003836200034c62000504565b683635c9adc5dea000008152610258838201526200036962000538565b600481526311dbdb1960e21b848201528682015262000558565b620003cc6200039162000504565b69021e19e0c9bab24000008152610e1083820152620003af62000538565b6007815266111a585b5bdb9960ca1b848201528682015262000558565b855f525f8152835f2073dbda1341890efcc30734eec5d5a462a69a29b0b790815f528252845f208385825416179055885f525f8252845f20815f528252845f208385825416179055875f525f8252845f20905f528152835f208284825416179055855f525f8152835f20734bd4f261e7057fc8ea8127e6cf96e4102cc4c8fb90815f528252845f208385825416179055885f525f8252845f20815f528252845f208385825416179055875f525f8252845f20905f528152835f208284825416179055865f525f8152835f209060018060a01b03600e54165f5252825f209182541617905551937f2f8788117e7eff1d82e926ec794901d17c78024a50270940304540a733656f0d9233903390855f80a433903390845f80a433903390835f80a4339133915f80a4617b129081620006f48239f35b5f80fd5b60405190606082016001600160401b038111838210176200052457604052565b634e487b7160e01b5f52604160045260245ffd5b60408051919082016001600160401b038111838210176200052457604052565b60175468010000000000000000811015620005245760019081810180601755811015620006df5760175f52604060026020926003845f20910201855181558386015185820155019301519081519160018060401b038311620005245784548481811c91168015620006d4575b83821014620006c057601f811162000675575b5081601f84116001146200061257509282939183925f9462000606575b50501b915f199060031b1c1916179055565b015192505f80620005f4565b919083601f198116875f52845f20945f905b888383106200065a575050501062000641575b505050811b019055565b01515f1960f88460031b161c191690555f808062000637565b85870151885590960195948501948793509081019062000624565b855f52825f20601f850160051c810191848610620006b5575b601f0160051c019085905b828110620006a9575050620005d7565b5f815501859062000699565b90915081906200068e565b634e487b7160e01b5f52602260045260245ffd5b90607f1690620005c4565b634e487b7160e01b5f52603260045260245ffdfe60808060405260043610156200001e575b5036156200001c575f80fd5b005b5f905f3560e01c9081631190641714620054c85750806312c73c2e146200543b57806313ff7e9f146200520e5780631585a1e314620051cf57806316c38b3c146200510857806318160ddd14620050e95780631cda51f114620050ca5780631d3dad0914620050ab5780631f9c84171462004a4c57806320ad6ae3146200383e578063226378a914620049dd57806323cbe1f314620049be57806323efec0a146200499f578063265dc0f7146200491a57806327c8f83514620037f557806327e45c2c14620047fd5780632d2c556514620034ba5780632d32976914620047de5780632d6244f214620047485780632da82010146200471b5780632dc8f86714620044b35780632f2ff15d1462004433578063325d703c1462003b8057806333fb11a91462003a9557806334119d151462003a145780633f4218e014620039eb5780633fb6c74e146200395e578063458447ed14620039345780634635995d1462003887578063480e4597146200385d578063486a7e6b146200383e57806349a2104d146200381f5780634e6fd6c414620037f55780635187af2e14620037b95780635754f4f1146200379a5780635ae8f06d14620037135780635c975abb14620036ef5780635ce013cd146200366f5780635ea72c8414620035c15780635f08896a14620035115780636191905e14620034e457806361d027b314620034ba578063634282af146200347357806365dc7ef414620034545780636b40bd0a14620033d557806370aa2381146200334657806371447e08146200311a578063739470a614620030b457806374a2b79b146200302e57806375b238fc1462002ff157806376790d3d1462002fd157806377975e0b1462002f2357806377d2300e14620009c257806378a895671462002f035780637e5d936a1462002ee35780637ec4adb31462002e2e5780637f4735aa1462002d9057806382f51fa61462002ce7578063833ec7371462002cb25780638afc11381462002c025780638d427e251462002be25780638da5cb5b1462002bb75780638fb5a4821462002ac6578063902d55a51462002aa65780639058c8a41462002a2457806391d1485414620029d7578063927ef7fa1462000c8457806394aed7d014620023295780639731aa2e14620023095780639a04383214620022e85780639dc29fac14620020ea5780639fb7d7e71462001f5d5780639feb930a1462001f32578063a054f9271462001ead578063a4b20f131462001724578063a7cb17cb1462001d7a578063aa347dfb1462001d48578063ac01de671462001c97578063ada29fa91462001c77578063b15037741462001c3a578063b5d4ce0d1462001c1a578063b7d862251462001b96578063badfa0cf146200178f578063bc4309121462001764578063bf0d2c531462001744578063c1a844f01462001724578063c2692ae514620016d1578063c2812faf146200166f578063c3f909d414620014d9578063caa0531214620014ae578063cc43f3d3146200142b578063d02641a014620013f9578063d547741f146200137a578063d6065c1c14620012f7578063db2e21bc14620012bb578063db61c76e1462001018578063db7f86c01462000f81578063dce0b4e41462000f61578063e07b17031462000ec2578063e1a452181462000ea3578063e58378bb1462000e66578063e630f13a1462000de0578063e90ceb9f1462000dc0578063ea2e9cad1462000d19578063eb4310d21462000cda578063eb56b7401462000caf578063ef8ef56f1462000c84578063f0f442601462000bd9578063f1a2de721462000b2b578063f2fde38b14620009e2578063f436451514620009c2578063f7ea7a3d146200093e578063f871ed13146200091e578063f8b9a03914620007a2578063fd47852b14620006f1578063fdb1ef6c146200063e5763fee3b54b036200001057346200063b5760203660031901126200063b57600154600435906001600160a01b031633036200062a577fa31ae2be4c33e5e69ea85ec497141a64f5f6192912fb570f74ee86b63bc7802b5f8051602062007a5d8339815191526040600a546f63726561746f7252657761726442707360801b8251528151908152846020820152a2600a5580f35b6040516282b42960e81b8152600490fd5b80fd5b50346200063b5760203660031901126200063b576200065c62005573565b6001546001600160a01b0390811633036200062a57601454604080516f7365636f6e64617279466163746f727960801b905280516001600160a01b0384841681168252851660208201529193917fbb03f2118a5d993dd2b8fc0226506022691263b82288aa72e4244af745628f38915f8051602062007a9d83398151915291a216906001600160601b0360a01b161760145580f35b50346200063b57620007033662005859565b9060018060a01b0392600193806001541633036200062a57855b84811062000729578680f35b85908388526020888152604089209084620007506200074a858b8b62005cf6565b62005d07565b165f525260405f208260ff198254161790553383620007756200074a848a8a62005cf6565b16857f2f8788117e7eff1d82e926ec794901d17c78024a50270940304540a733656f0d8b80a4016200071d565b50346200063b5760203660031901126200063b57600154600435906001600160a01b031633036200062a5760175490818110156200090c575f1991808301908111620008f857620007f7620007ff91620057ec565b5091620057ec565b620008e457818103620008bd575b50506017548015620008a957016200082581620057ec565b6200089557600281848093558260018201550162000844815462005611565b8062000854575b50505060175580f35b601f81116001146200086c5750555b815f806200084b565b90805f9184526200088d601f60208620940160051c84016001850162005b94565b555562000863565b634e487b7160e01b83526004839052602483fd5b634e487b7160e01b83526031600452602483fd5b60028083620008dc9454845560018101546001850155019101620061be565b5f806200080d565b634e487b7160e01b84526004849052602484fd5b634e487b7160e01b84526011600452602484fd5b60405163e142361760e01b8152600490fd5b50346200063b57806003193601126200063b576020600754604051908152f35b50346200063b5760203660031901126200063b57600154600435906001600160a01b031633036200062a577f7c80aa9fdbfaf9615e4afc7f5f722e265daca5ccc655360fa5ccacf9c267936d5f8051602062007a5d83398151915260406002546a746f74616c537570706c7960a81b8251528151908152846020820152a260025580f35b50346200063b57806003193601126200063b576020600854604051908152f35b50346200063b5760208060031936011262000b275762000a0162005573565b600154916001600160a01b0380841692338490036200062a571692831562000b155783906001600160601b0360a01b16176001557fb19546dff01e856fb3f010c267a7b1c60363cf8a4664e21cc89c26224620214e845283815260408420835f52815260405f209060ff19916001838254161790557fa49807205ce4d355092ef5a8a18f56e8913cf4a201fbe287825b095693c21775855284815260408520845f52815260405f206001838254161790557f4b41dfcec163471e57d8e95736c9a1074b9e2d313632c33d95f024a46957265b85528481526040852090845f5252600160405f20918254161790557f8be0079c531659141344cd1fd0a4f28419497f9722a3daafe3b4186f6b6457e08380a380f35b60405163d92e233d60e01b8152600490fd5b5080fd5b50346200063b5760203660031901126200063b5762000b4962005573565b6001546001600160a01b0390811633036200062a57601654604080516a1b195859195c989bd85c9960aa1b905280516001600160a01b0384841681168252851660208201529193917fc6f5a473ff29abd2f91987da5d5f690c5a1ac4a125b840d858e0fac690785de8915f8051602062007a9d83398151915291a216906001600160601b0360a01b161760165580f35b50346200063b5760203660031901126200063b5762000bf762005573565b6001546001600160a01b0390811633036200062a57600e546040805167747265617375727960c01b905280516001600160a01b0384841681168252851660208201529193917fcbd818ad4dd6f1ff9338c2bb62480241424dd9a65f9f3284101a01cd099ad8ac915f8051602062007a9d83398151915291a216906001600160601b0360a01b1617600e5580f35b50346200063b57806003193601126200063b576010546040516001600160a01b039091168152602090f35b50346200063b57806003193601126200063b576016546040516001600160a01b039091168152602090f35b50346200063b5760403660031901126200063b57602062000d0f62000cfe62005573565b62000d086200558a565b9062006108565b6040519015158152f35b50346200063b5760203660031901126200063b5762000d3762005573565b6001546001600160a01b0390811633036200062a57601054604080516377706c7360e01b905280516001600160a01b0384841681168252851660208201529193917fc51a31433961df7d08837c46596b133c2ece77490c94f1451a4b1f4da1b538fc915f8051602062007a9d83398151915291a216906001600160601b0360a01b161760105580f35b50346200063b57806003193601126200063b576020600d54604051908152f35b50346200063b5760203660031901126200063b57600154600435906001600160a01b031633036200062a577f6033502198be9e2b97dca7b7f8c11cdc4712f496a12a6c2c1e4029473ad5a8f35f8051602062007a5d83398151915260406003546c626f6e64696e67537570706c7960981b8251528151908152846020820152a260035580f35b50346200063b57806003193601126200063b5760206040517fb19546dff01e856fb3f010c267a7b1c60363cf8a4664e21cc89c26224620214e8152f35b50346200063b57806003193601126200063b5760206040516127108152f35b50346200063b5760203660031901126200063b57610100906040906001600160a01b0362000eef62005573565b168152601a6020522060ff8154169060018101549060ff600282015416600382015460ff60048401541690600584015492600760ff60068701541695015495604051971515885260208801521515604087015260608601521515608085015260a0840152151560c083015260e0820152f35b50346200063b57806003193601126200063b576020600b54604051908152f35b50346200063b5760403660031901126200063b5762000f9f62005573565b600154602435916001600160a01b0391821633036200062a575f8051602062007a7d833981519152916080911692838552601a6020528060036040872060028101600160ff1982541617905501556040519060408252600a60408301526973656c6c46656542707360b01b60608301526020820152a280f35b5060603660031901126200063b576200103062005573565b604435906001600160a01b039081831683036200120b5762001051620062ac565b60ff601d5416620012a95734156200120f57818116805f52601b60205260405f2092835416156200129757600a83015460ff8116620012855760081c60ff168062001277575b62001265575f933491620010ab3362005a15565b1562001233575b620010be838562005aa7565b946024358610620012215785156200120f5780620010e46005600793019586546200591b565b855560068101620010f78882546200591b565b905501620011073482546200591b565b9055803b156200120b576040516340c10f1960e01b815233600482015260248101869052955f8760448183865af19687156200120057602097620011ee575b50848382620011da575b505060408051348152602081018890526001600160a01b0394909416908401525033917f3b590f26093c2bbd75c6830e4fb4d0079f125be6db131255422d9e5088d2326890606090a354620011a58262006414565b1115620011c8575b5060015f8051602062007abd83398151915255604051908152f35b620011d390620064a8565b82620011ad565b620011e5926200636f565b86848362001150565b620011f99062005669565b8762001146565b6040513d5f823e3d90fd5b5f80fd5b604051631f2a200560e01b8152600490fd5b604051638199f5f360e01b8152600490fd5b9150935061271062001250620012498462006776565b3462005929565b04936200125e8534620058ed565b91620010b2565b604051630699796960e01b8152600490fd5b50600b830154421062001097565b60405163e2b861a160e01b8152600490fd5b60405163c1ab6dc160e01b8152600490fd5b60405163ab35696f60e01b8152600490fd5b50346200063b57806003193601126200063b576001546001600160a01b0390811633036200062a57620012f490600e5416479062006311565b80f35b50346200063b5760203660031901126200063b57600154600435906001600160a01b031633036200062a577f8f090e48c03d575e5a060038a33eb2ad9844c17b859e18f7b6b6b84d0a94a6355f8051602062007a5d8339815191526040600c54697669727475616c506c7360b01b8251528151908152846020820152a2600c5580f35b50346200063b5760403660031901126200063b576004356200139b6200558a565b6001546001600160a01b0390811633036200062a578284528360205260408420911690815f5260205260405f2060ff19815416905533917ff6391f5c32d9c69d2a47ea670b442974b53935d1edc7fd64eb21e047a839171b8480a480f35b50346200063b5760203660031901126200063b576020620014236200141d62005573565b62006090565b604051908152f35b50346200063b5760203660031901126200063b57600154600435906001600160a01b031633036200062a577f1e62e5cf20f185ee4055ffdfcb428ff6b126a044203dbea4ae12e41a1a5696345f8051602062007a5d833981519152604060065469189d5c9b905b5bdd5b9d60b21b8251528151908152846020820152a260065580f35b50346200063b57806003193601126200063b576015546040516001600160a01b039091168152602090f35b50346200063b57806003193601126200063b576101a0604051620014fd8162005699565b8281528260208201528260408201528260608201528260808201528260a08201528260c08201528260e0820152826101008201528261012082015282610140820152826101608201528261018082015201526101c06002546101a081600354600454600554600654600754600854600954600a5491600b5493600c5495600d5497601854996019549b60206040519e8f90620015998262005699565b8152015260408d015260608c015260808b015260a08a015260c089015260e0880152610100870152610120860152610140850152610160840152610180830152828201526040519283526020810151602084015260408101516040840152606081015160608401526080810151608084015260a081015160a084015260c081015160c084015260e081015160e084015261010081015161010084015261012081015161012084015261014081015161014084015261016081015161016084015261018081015161018084015201516101a0820152f35b50346200063b5760203660031901126200063b576200168d62005573565b6001546001600160a01b0390811633036200062a578082168352601b6020526040832090815416156200129757600a015460ff166200128557620012f490620064a8565b50346200063b5760403660031901126200063b57620016ef62005573565b6040620016fb6200558a565b9260018060a01b038093168152601e6020522091165f52602052602060405f2054604051908152f35b50346200063b57806003193601126200063b576020600554604051908152f35b50346200063b57806003193601126200063b576020601854604051908152f35b50346200063b57806003193601126200063b576013546040516001600160a01b039091168152602090f35b5060603660031901126200063b576001600160401b039060043582811162000b2757620017c190369060040162005826565b60249391933582811162001b9257620017df90369060040162005826565b909260443590811162001b8e57620017fc90369060040162005826565b93909562001809620062ac565b7f6d5c9827c1f410bbb61d3b2a0a34b6b30492d9a1fd38588edca7ec4562ab9c9b86526020938660205260408720335f5260205260ff9160ff60405f205416158062001b78575b6200062a57879685831480159062001b6d575b6200120f57969594939291908897899a5b838c10620018d15760208b8b8b81811115620018c957620018969250620058ed565b47620018b7575b60015f8051602062007abd83398151915255604051908152f35b620018c3473362006311565b6200189d565b505062001896565b9091929394959697986200074a8c620018f560018060a01b03928392898962005cf6565b168c52601b8a5260408c208181541615801562001b5f575b62001b53576200191f8e868662005cf6565b35801515810362001b4f571562001a495790620019a66200074a8f60068c956200197a8f80620019738f8f888095620019648f94836200074a916200196b9662005cf6565b9362005cf6565b359062005aa7565b9962005cf6565b356200198c600583019182546200591b565b9055016200199c8682546200591b565b9055898962005cf6565b1690813b1562001a45576040516340c10f1960e01b81523360048201526024810191909152908c908290604490829084905af1801562001a3a578d918d9162001a1b575b505060019162001a0062001a08928b8b62005cf6565b35906200591b565b9b5b019a98979695949392919062001874565b62001a2891925062005669565b62001a36578b8b5f620019ea565b8a80fd5b6040513d8e823e3d90fd5b8c80fd5b908d9b9162001aae8a949f62001aa2818e62001a8862001a736200074a8f968f9760069862005cf6565b62001a8084848d62005cf6565b35906200595c565b986005870162001a9a8b8254620058ed565b905562005cf6565b359201918254620058ed565b905562001ac16200074a8d898962005cf6565b1662001acf8c8b8b62005cf6565b35813b1562001b4f57604051632770a7eb60e21b81523360048201526024810191909152908d908290604490829084905af1801562001b4457908d9162001b28575b505060019162001b21916200591b565b9962001a0a565b62001b339062005669565b62001b40578b5f62001b11565b8b80fd5b6040513d8f823e3d90fd5b8d80fd5b50509a60019062001a0a565b5087600a820154166200190d565b508083141562001863565b506001546001600160a01b031633141562001850565b8480fd5b8380fd5b50346200063b5760203660031901126200063b57600154600435906001600160a01b031633036200062a577f0c335b9e9554f592d8b6d57af0b04b86771fb9e44d65f35c141f01a6de646a175f8051602062007a5d8339815191526040600b546a6372656174696f6e46656560a81b8251528151908152846020820152a2600b5580f35b50346200063b57806003193601126200063b576020601954604051908152f35b50346200063b57806003193601126200063b5760206040517f6d5c9827c1f410bbb61d3b2a0a34b6b30492d9a1fd38588edca7ec4562ab9c9b8152f35b50346200063b57806003193601126200063b576020600454604051908152f35b50346200063b5760203660031901126200063b5762001cb562005573565b6001546001600160a01b0390811633036200062a57601254604080516d7072696d617279466163746f727960901b905280516001600160a01b0384841681168252851660208201529193917f945699b56a7a63447d2b2343aed3c4f83565e5a1f8cf0c9eb5b31ba9e45e80a4915f8051602062007a9d83398151915291a216906001600160601b0360a01b161760125580f35b50346200063b5762001d7662001d6962001d623662005890565b9062005f07565b60405191829182620058a7565b0390f35b50346200063b57806003193601126200063b5760175462001d9b8162005de8565b9062001dab6040519283620056d2565b8082526017835260209283830191817fc624b66cc0138b8fabc209247f72d758e1cf3343756d543badbf24212bed8c15845b83831062001e635750505050604051928484019085855251809152604084019460408260051b8601019392955b82871062001e185785850386f35b90919293828062001e52600193603f198a8203018652885160406060918051845285810151868501520151918160408201520190620055a1565b960192019601959291909262001e0a565b60038860019260409a99979a5162001e7b816200567d565b85548152848601548382015262001e9560028701620056f4565b60408201528152019201920191909693959662001ddd565b50346200063b576101c03660031901126200063b576001546001600160a01b031633036200062a5760043560025560243560035560443560045560643560055560843560065560a43560075560c43560085560e43560095561010435600a5561012435600b5561014435600c5561016435600d55610184356018556101a43560195580f35b50346200063b57806003193601126200063b576011546040516001600160a01b039091168152602090f35b5060603660031901126200063b5762001f7562005573565b9062001f806200558a565b6044356001600160401b038111620020e65762001fa2903690600401620055e1565b919062001fae620062ac565b60ff601d5416620012a95734156200120f576001600160a01b03948516808552601b602052604085205490919086161562001297576020956200207a7fa68c4bf97b9d85a9d779d0788f6d6c246d9dae6bc90154c349f360f39513f91292620020173462006445565b97858152601e8a5260408120335f528a5260405f20620020393482546200591b565b905534620020473362005a15565b15620020ba575b6200205a908862006311565b80620020a3575b506040519634885260608a8901526060880191620058fb565b9386604087015216938033940390a460015f8051602062007abd83398151915255604051908152f35b620020b39084600e541662006311565b5f62002061565b5050612710620020cd6008543462005929565b046200205a620020de8234620058ed565b90506200204e565b8280fd5b50346200063b5760403660031901126200063b576200210862005573565b60243562002115620062ac565b60ff601d5416620012a95780156200120f5760018060a01b03809216808452602093601b8552604081209384541615620012975760ff600a8501541662001285576040516370a0823160e01b81523360048201528581602481865afa90811562002282579084918391620022b1575b50106200229f576006840180549485156200228d576005018054620021b587620021af838962005929565b6200593d565b9687156200228d57620021d792620021cf898994620058ed565b9055620058ed565b9055813b156200063b57604051632770a7eb60e21b815233600482015260248101849052818160448183875af1801562002282576200226a575b50506200221f833362006311565b60405191825282848301527f52dfda3906d4cbf321bb72f93842c6205f7b598f4774e779919316c34c691dd860403393a360015f8051602062007abd83398151915255604051908152f35b62002276829162005669565b6200063b578062002211565b6040513d84823e3d90fd5b604051634c3215c360e11b8152600490fd5b6040516378dbf0af60e11b8152600490fd5b809250878092503d8311620022e0575b620022cd8183620056d2565b810103126200120b578390515f62002184565b503d620022c1565b50346200063b5762001d7662001d69620023023662005890565b9062005e4d565b50346200063b57806003193601126200063b576020600954604051908152f35b5060603660031901126200063b576004356001600160401b03811162000b275762002359903690600401620055e1565b6024929192356001600160401b038111620020e6576200237e903690600401620055e1565b92906044356001600160401b038111620020e657620023a2903690600401620055e1565b919094620023af620062ac565b60ff601d5416620012a957600b5492620023c93362005a15565b15620029bb575b60405161120881818101106001600160401b0382840111176200283e578082916200685583396080818301526200243f6200242b620024178d8c60808688010191620058fb565b8385018103602085870101528789620058fb565b828401810360408486010152858c620058fb565b90606033918401015203905ff09687156200120057620024a6906040519262002468846200564c565b6001600160a01b038a16845233602085015262002487368a8d62005b59565b60408501526200249936868862005b59565b6060850152369162005b59565b60808201525f60a08201525f60c08201525f60e0820152426101008201525f6101208201525f6101408201525f6101608201525f61018082015260018060a01b0387165f52601b60205260405f209060018060a01b038151166001600160601b0360a01b8354161782556001820160018060a01b036020830151166001600160601b0360a01b82541617905560408101518051906001600160401b0382116200283e5762002567826200255d600287015462005611565b6002870162005bac565b602090601f831160011462002948576200259992915f918362002852575b50508160011b915f199060031b1c19161790565b60028301555b60608101518051906001600160401b0382116200283e57620025d482620025ca600387015462005611565b6003870162005bac565b602090601f8311600114620028d5576200260592915f9183620028525750508160011b915f199060031b1c19161790565b60038301555b60808101518051906001600160401b0382116200283e57620026408262002636600487015462005611565b6004870162005bac565b602090601f83116001146200285e578261018093600b959362002678935f92620028525750508160011b915f199060031b1c19161790565b60048501555b60a0810151600585015560c0810151600685015560e0810151600785015561010081015160088501556101208101516009850155600a8401620026d46101408301511515829060ff801983541691151516179055565b610160820151815461ff00191690151560081b61ff00161790550151910155601c54600160401b8110156200283e57602097620027969462002721836001620027889501601c55620057a2565b81546001600160a01b038c811660039390931b92831b921b1916179055620027493362005a15565b158062002834575b62002815575b620027623362005a15565b156200280f5750855b803411620027f1575b5060405196606088526060880191620058fb565b9185830388870152620058fb565b9060408301527f6e6ae68e7d7d45fbd855c40d1eaafa8de46c5fbec3ee26f1af88730e400bc92c33928060018060a01b038616930390a360015f8051602062007abd833981519152556040516001600160a01b039091168152f35b62002801620028089134620058ed565b3362006311565b5f62002774565b6200276b565b600e546200282e9082906001600160a01b031662006311565b62002757565b5080151562002751565b634e487b7160e01b5f52604160045260245ffd5b015190505f8062002585565b90600485015f5260205f20915f5b601f1985168110620028bc575092600b94926001926101809583601f19811610620028a3575b505050811b0160048501556200267e565b01515f1960f88460031b161c191690555f808062002892565b919260206001819286850151815501940192016200286c565b9190600385015f5260205f20905f935b601f19841685106200292c576001945083601f1981161062002913575b505050811b0160038301556200260b565b01515f1960f88460031b161c191690555f808062002902565b81810151835560209485019460019093019290910190620028e5565b9190600285015f5260205f20905f935b601f19841685106200299f576001945083601f1981161062002986575b505050811b0160028301556200259f565b01515f1960f88460031b161c191690555f808062002975565b8181015183556020948501946001909301929091019062002958565b83341015620023d0575b60405163cd1c886760e01b8152600490fd5b50346200063b5760403660031901126200063b576040620029f76200558a565b91600435815280602052209060018060a01b03165f52602052602060ff60405f2054166040519015158152f35b50346200063b5760203660031901126200063b57600154600435906001600160a01b031633036200062a577f2c1552247d8ec872175853fd9d0f4f52e30b031529b9542e691957b70eac018b5f8051602062007a5d83398151915260406008546862757946656542707360b81b8251528151908152846020820152a260085580f35b50346200063b57806003193601126200063b576020600254604051908152f35b50346200063b5760208060031936011262000b27576004356001600160401b038111620020e65762002afd90369060040162005826565b909262002b0a8262005de8565b9362002b1a6040519586620056d2565b82855262002b288362005de8565b8585019390601f1901368537825b81811062002b815750505060405193838594850191818652518092526040850193925b82811062002b6957505050500390f35b83518552869550938101939281019260010162002b59565b8062002b9e6200141d6200074a60019486889c9a9b999c62005cf6565b62002baa828862005e00565b5201959294939562002b36565b50346200063b57806003193601126200063b576001546040516001600160a01b039091168152602090f35b50346200063b57806003193601126200063b576020600354604051908152f35b50346200063b5760203660031901126200063b5762002c2062005573565b6001546001600160a01b0390811633036200062a57601154604080516c383934b6b0b93ca937baba32b960991b905280516001600160a01b0384841681168252851660208201529193917ffa6bbf96bbb65a30185f7311d82a00fb1c8f0155db7ece20c5220a2b56832de1915f8051602062007a9d83398151915291a216906001600160601b0360a01b161760115580f35b50346200063b5760403660031901126200063b57602062000d0f62002cd662005573565b62002ce06200558a565b9062005d1c565b50346200063b5762002cf93662005859565b9060018060a01b0392600193806001541633036200062a57855b84811062002d1f578680f35b8590838852602088815260408920908462002d406200074a858b8b62005cf6565b165f525260405f2060ff198154169055338362002d636200074a848a8a62005cf6565b16857ff6391f5c32d9c69d2a47ea670b442974b53935d1edc7fd64eb21e047a839171b8b80a40162002d13565b50346200063b5760803660031901126200063b576004356064356001600160401b038111620020e65762002dc9903690600401620055e1565b6001549091906001600160a01b031633036200062a576017548310156200090c57620012f49262002e1c62002e27926040519462002e07866200567d565b60243586526044356020870152369162005b59565b6040840152620057ec565b9062005bf4565b50346200063b5760603660031901126200063b576044356001600160401b03811162000b275762002e64903690600401620055e1565b6001549091906001600160a01b031633036200062a5762002ea3906040519262002e8e846200567d565b60043584526024356020850152369162005b59565b6040820152601754600160401b81101562002ecf579062002e27826001620012f49401601755620057ec565b634e487b7160e01b83526041600452602483fd5b50346200063b57806003193601126200063b576020600a54604051908152f35b50346200063b57806003193601126200063b576020601c54604051908152f35b50346200063b5760203660031901126200063b5762002f4162005573565b6001546001600160a01b0390811633036200062a57600f54604080516a646561644164647265737360a81b905280516001600160a01b0384841681168252851660208201529193917f6e0976d5eb3c12c9865d810a9c3ca8079a1fa7493704ff3ac8201f2a3a9f6b21915f8051602062007a9d83398151915291a216906001600160601b0360a01b1617600f5580f35b50346200063b57806003193601126200063b576020600c54604051908152f35b50346200063b57806003193601126200063b5760206040517fa49807205ce4d355092ef5a8a18f56e8913cf4a201fbe287825b095693c217758152f35b50346200063b5760203660031901126200063b57600154600435906001600160a01b031633036200062a577fd286ec5630789d7201f5386b85f02acccf925d90c5163e0fb2a89ffff62bca5f5f8051602062007a5d8339815191526040600d546c7669727475616c546f6b656e7360981b8251528151908152846020820152a2600d5580f35b50346200063b5760203660031901126200063b5760043560175481101562000b2757620030e190620057ec565b50805462001d76620030fb600260018501549401620056f4565b60405193849384526020840152606060408401526060830190620055a1565b5060603660031901126200120b576200313262005573565b9060243562003140620062ac565b335f9081527fc748e564f3b67d777128c175b8f51af1229a55070ce08662ef69b06b4c56ecd9602052604090205460ff16158062003330575b6200062a575f91813410620029c5576001600160a01b038481165f818152601b602052604090208054909691921615620012975760ff600a870154166200128557620031c6848262005aa7565b9060066005880197620031db878a546200591b565b89550190620031ec8383546200591b565b8255833b156200120b576040516340c10f1960e01b8152306004820152602481018490525f8160448183895af1801562001200576200331a575b508262003233916200595c565b9662003241888254620058ed565b905562003250828254620058ed565b9055813b15620020e657604051632770a7eb60e21b815230600482015260248101919091529082908290604490829084905af18015620022825762003302575b5050808311620032ed575b60443582106200122157620032b36020933362006311565b803411620032d6575060015f8051602062007abd83398151915255604051908152f35b62002801620032e69134620058ed565b5f620011ad565b9050620032fb8183620058ed565b906200329b565b6200330e829162005669565b6200063b578062003290565b6200332791955062005669565b5f938262003226565b506001546001600160a01b031633141562003179565b346200120b5760403660031901126200120b576200336362005573565b600154602435916001600160a01b0391821633036200062a575f8051602062007a7d833981519152916080911692835f52601a60205280600160405f208160ff1982541617815501556040519060408252600960408301526862757946656542707360b81b60608301526020820152a2005b346200120b5760203660031901126200120b57600154600435906001600160a01b031633036200062a577f8a22a7ff3bd67428bc6e680219861d3b97859e01a1518b1a68f3b3084bf6e48a5f8051602062007a5d8339815191526040600754671b1c105b5bdd5b9d60c21b8251528151908152846020820152a2600755005b346200120b575f3660031901126200120b576020600754604051908152f35b346200120b5760203660031901126200120b57600435601c548110156200120b57620034a1602091620057a2565b905460405160039290921b1c6001600160a01b03168152f35b346200120b575f3660031901126200120b57600e546040516001600160a01b039091168152602090f35b346200120b5760403660031901126200120b576020620014236200350762005573565b6024359062005aa7565b346200120b5760203660031901126200120b576200352e62005573565b6001546001600160a01b0390811633036200062a57601354604080516e39b2b1b7b73230b93ca937baba32b960891b905280516001600160a01b0384841681168252851660208201529193917f7dc7e4b583580a213b56d23db017921272f3c9d0dd2efd3fb969f2105aab820c915f8051602062007a9d83398151915291a26001600160a01b0319909216911617601355005b346200120b5760203660031901126200120b57620035de62005573565b6001600160a01b0381165f908152601b6020526040902090620036019062006414565b600582015490612710808302938385048214841517156200365b576200362a836080966200593d565b9180831162003651575b506006015491604051938452602084015260408301526060820152f35b9150600662003634565b634e487b7160e01b5f52601160045260245ffd5b346200120b5760203660031901126200120b57600154600435906001600160a01b031633036200062a577f97a5f989eec6805d4b5cd910a3ddd62350d10ee1ae766a98d9ca23962948f1585f8051602062007a5d8339815191526040600454686c705265736572766560b81b8251528151908152846020820152a2600455005b346200120b575f3660031901126200120b57602060ff601d54166040519015158152f35b346200120b5760203660031901126200120b57600154600435906001600160a01b031633036200062a577fb4216c86b213d8870338a18ed6873868f0542f605938ae454bf645e79c4bb3155f8051602062007a5d83398151915260406005546f19dc98591d585d1a5bdb95185c99d95d60821b8251528151908152846020820152a2600555005b346200120b575f3660031901126200120b576020600c54604051908152f35b346200120b575f3660031901126200120b5760206040517f4b41dfcec163471e57d8e95736c9a1074b9e2d313632c33d95f024a46957265b8152f35b346200120b575f3660031901126200120b57600f546040516001600160a01b039091168152602090f35b346200120b575f3660031901126200120b576020600b54604051908152f35b346200120b575f3660031901126200120b576020600654604051908152f35b346200120b575f3660031901126200120b576014546040516001600160a01b039091168152602090f35b346200120b5760203660031901126200120b57620038a462005573565b6001546001600160a01b0390811633036200062a57601554604080516b383ab6b8233ab22a37b5b2b760a11b905280516001600160a01b0384841681168252851660208201529193917f1915164cd7d81b095c2410ccbc787f25f2659e94238e852dbb03e82334dfada3915f8051602062007a9d83398151915291a26001600160a01b0319909216911617601555005b346200120b575f3660031901126200120b576012546040516001600160a01b039091168152602090f35b346200120b5760203660031901126200120b576200397b62005573565b6001546001600160a01b039190821633036200062a5781165f52601b60205260405f2081815416156200129757600a81019081549160ff83166200128557600160059360ff19161790554260098201550180549182620039d757005b5f92620039e891600e541662006311565b55005b346200120b5760203660031901126200120b57602062000d0f62003a0e62005573565b62005a15565b346200120b5760203660031901126200120b57600154600435906001600160a01b031633036200062a577f2ca2b2f0f72dfe42f49f25b344ce1a372fbb3765d2abdd4238dddd8e4057dfe85f8051602062007a5d83398151915260406009546973656c6c46656542707360b01b8251528151908152846020820152a2600955005b346200120b5760203660031901126200120b576001600160a01b038062003abb62005573565b1690815f52601b60205260405f20908082541615620012975760ff600a83015460081c1615620012975780600183015416331415908162003b46575b8162003b36575b506200062a57600b429101557fcbf334074196c96e868ba5e05628e41fde21742d3560da2cc932f070582d7c006020604051428152a2005b9050600154163314158362003afe565b335f9081527f7d7ffb7a348e1c6a02869081a26547b49160dd3df72d1d75a570eb9b698292ec602052604090205460ff1615915062003af7565b60a03660031901126200120b576004356001600160401b0381116200120b5762003baf903690600401620055e1565b906024356001600160401b0381116200120b5762003bd2903690600401620055e1565b92906044356001600160401b0381116200120b5762003bf6903690600401620055e1565b94909362003c03620062ac565b60ff601d5416620012a9575f9562003c1b3362005a15565b1562004429575f905b62003c32606435836200591b565b3410620029c557604051806112088101106001600160401b03611208830111176200283e5761120862006855823960806112088201528062003cb562003c9d62003c8560806112088501018b89620058fb565b61120884018103602061120886010152888a620058fb565b61120883018103604061120885010152848b620058fb565b3360606112088401015203905ff0968715620012005762003d10906040519262003cdf846200564c565b6001600160a01b038a16845233602085015262003cfe368a8862005b59565b60408501526200249936888a62005b59565b60808201525f60a08201525f60c08201525f60e0820152426101008201525f6101208201525f6101408201525f6101608201525f61018082015260018060a01b0387165f52601b60205260405f209060018060a01b038151166001600160601b0360a01b8354161782556001820160018060a01b036020830151166001600160601b0360a01b82541617905560408101518051906001600160401b0382116200283e5762003dc7826200255d600287015462005611565b602090601f8311600114620043b65762003df892915f9183620043375750508160011b915f199060031b1c19161790565b60028301555b60608101518051906001600160401b0382116200283e5762003e2982620025ca600387015462005611565b602090601f8311600114620043435762003e5a92915f9183620043375750508160011b915f199060031b1c19161790565b60038301555b60808101518051906001600160401b0382116200283e5762003e8b8262002636600487015462005611565b602090601f8311600114620042c0578261018093600b959362003ec3935f92620042b45750508160011b915f199060031b1c19161790565b60048501555b60a0810151600585015560c0810151600685015560e0810151600785015561010081015160088501556101208101516009850155600a840162003f1f6101408301511515829060ff801983541691151516179055565b610160820151815461ff00191690151560081b61ff00161790550151910155601c54600160401b8110156200283e5780600162003f609201601c55620057a2565b81546001600160a01b0389811660039390931b92831b921b19161790558062004295575b60643562004055575b62003fd393929162003fa762003fc492606435906200591b565b8034116200403e575b5060405195606087526060870191620058fb565b918483036020860152620058fb565b606435604083015233916001600160a01b038416917f6e6ae68e7d7d45fbd855c40d1eaafa8de46c5fbec3ee26f1af88730e400bc92c919081900390a360015f8051602062007abd83398151915255604080516001600160a01b039290921682526020820192909252f35b620028016200404e9134620058ed565b8862003fb0565b6001600160a01b038681165f908152601b602052604081208054939950909594939092909116156200129757600a82015460ff8116620012855760081c60ff168062004287575b62001265575f9160643590620040b23362005a15565b1562004248575b620040ce826001600160a01b038b1662005aa7565b906084358210620012215781156200120f5780620040f46005600793019485546200591b565b845560068101620041078482546200591b565b9055016200411960643582546200591b565b90556001600160a01b0389163b156200120b576040516340c10f1960e01b815233600482015260248101829052915f83604481836001600160a01b038f165af18015620012005762003fd39862003fc49662003fa7958d9362004232575b508062004213575b50604080516064358152602081018690526001600160a01b03928316918101919091523392909116907f3b590f26093c2bbd75c6830e4fb4d0079f125be6db131255422d9e5088d2326890606090a354620041e36001600160a01b038b1662006414565b1115620041f9575b989250509192935062003f8d565b6200420d6001600160a01b038a16620064a8565b620041eb565b6200422b906001600160a01b0384169083906200636f565b8d6200417f565b6200423f91925062005669565b5f908e62004177565b9250612710905062004270620042676001600160a01b038a1662006776565b60643562005929565b04916200428083606435620058ed565b90620040b9565b5042600b830154116200409c565b600e54620042ae9082906001600160a01b031662006311565b62003f84565b015190508e8062002585565b90600485015f5260205f20915f5b601f19851681106200431e575092600b94926001926101809583601f1981161062004305575b505050811b01600485015562003ec9565b01515f1960f88460031b161c191690558d8080620042f4565b91926020600181928685015181550194019201620042ce565b015190508c8062002585565b9190600385015f5260205f20905f935b601f19841685106200439a576001945083601f1981161062004381575b505050811b01600383015562003e60565b01515f1960f88460031b161c191690558b808062004370565b8181015183556020948501946001909301929091019062004353565b9190600285015f5260205f20905f935b601f19841685106200440d576001945083601f19811610620043f4575b505050811b01600283015562003dfe565b01515f1960f88460031b161c191690558b8080620043e3565b81810151835560209485019460019093019290910190620043c6565b600b549062003c24565b346200120b5760403660031901126200120b57600435620044536200558a565b6001546001600160a01b0390811633036200062a57825f525f60205260405f20911690815f5260205260405f20600160ff1982541617905533917f2f8788117e7eff1d82e926ec794901d17c78024a50270940304540a733656f0d5f80a4005b346200120b5760803660031901126200120b57620044d062005573565b6001600160a01b0360243560643582811681036200120b57620044f2620062ac565b60ff601d5416620012a95781156200120f5782841690815f52602094601b865260405f209485541615620012975760ff600a8601541662001285576040516370a0823160e01b81523360048201528681602481875afa8015620012005785915f91620046e4575b50106200229f576200456c84826200595c565b915f9280966200457c3362005a15565b15620046b2575b6044358810620012215787156200120f576007816005620045cb9301620045ac858254620058ed565b905560068101620045bf8a8254620058ed565b9055019182546200591b565b9055833b156200120b57604051632770a7eb60e21b815233600482015260248101869052925f8460448183895af192831562001200577f3a9f97a6a48ebb382fd055a3fc9f65b407d4ae5d79e7ca7cab6cff7692f7244a946200466f94620046a0575b5082826200468c575b50505062004646863362006311565b60408051958652602086018790526001600160a01b039091169085015233939081906060820190565b0390a360015f8051602062007abd83398151915255604051908152f35b62004697926200636f565b87808262004637565b620046ab9062005669565b896200462e565b96509250612710620046cf620046c8846200633e565b8562005929565b0492620046dd8482620058ed565b9662004583565b809250888092503d831162004713575b620047008183620056d2565b810103126200120b578490518862004559565b503d620046f4565b346200120b5760403660031901126200120b576020620014236200473e62005573565b602435906200595c565b346200120b5760403660031901126200120b576200476562005573565b600154602435916001600160a01b0391821633036200062a575f8051602062007a7d833981519152916080911692835f52601a60205280600560405f2060048101600160ff1982541617905501556040519060408252600b60408301526a6372656174696f6e46656560a81b60608301526020820152a2005b346200120b575f3660031901126200120b576020600354604051908152f35b346200120b5760203660031901126200120b576001600160a01b03806200482362005573565b165f52601b60205260405f20818154169160018201541690600281016200484a90620056f4565b6200485860038301620056f4565b916200486760048201620056f4565b926005820154936006830154600784015490600885015492600986015494600a87015496600b0154976040519b8c9b6101a0918d5260208d01528060408d01528b01620048b491620055a1565b8a810360608c0152620048c791620055a1565b89810360808b0152620048da91620055a1565b9660a089015260c088015260e087015261010086015261012085015260ff8116151561014085015260081c60ff1615156101608401526101808301520390f35b346200120b5760203660031901126200120b57600154600435906001600160a01b031633036200062a577f89cec6c2c94cdbea5316a29458323acb34cdc4a4bc75ce3b2da39e48a9fd88535f8051602062007a5d83398151915260406018546d63686174486f6c64696e6742707360901b8251528151908152846020820152a2601855005b346200120b575f3660031901126200120b576020600a54604051908152f35b346200120b575f3660031901126200120b576020600954604051908152f35b346200120b5760203660031901126200120b57620049fa62005573565b6001546001600160a01b039190821633036200062a57165f52601a6020525f60076040822082815582600182015582600282015582600382015582600482015582600582015582600682015501555f80f35b60803660031901126200120b576004356001600160401b0381116200120b5762004a7b903690600401620055e1565b6024356001600160401b0381116200120b5762004a9d903690600401620055e1565b91906044356001600160401b0381116200120b5762004ac1903690600401620055e1565b91909362004ace620062ac565b60ff601d5416620012a95762004ae43362005a15565b15620050a1575f925b833410620029c557604051806112088101106001600160401b03611208830111176200283e5761120862006855823960806112088201528062004b7162004b5962004b4160806112088501018a8d620058fb565b611208840181036020611208860101528688620058fb565b61120883018103604061120885010152848a620058fb565b3360606112088401015203905ff0958615620012005762004bba906040519262004b9b846200564c565b6001600160a01b03891684523360208501526200248736898c62005b59565b60808201525f60a08201525f60c08201525f60e0820152426101008201525f6101208201525f61014082015260016101608201525f61018082015260018060a01b0386165f52601b60205260405f209060018060a01b038151166001600160601b0360a01b9081845416178355600183019060018060a01b036020840151169082541617905560408101518051906001600160401b0382116200283e5762004c6b826200255d600287015462005611565b602090601f83116001146200502e5762004c9c92915f918362004faf5750508160011b915f199060031b1c19161790565b60028301555b60608101518051906001600160401b0382116200283e5762004ccd82620025ca600387015462005611565b602090601f831160011462004fbb5762004cfe92915f918362004faf5750508160011b915f199060031b1c19161790565b60038301555b60808101518051906001600160401b0382116200283e5762004d2f8262002636600487015462005611565b602090601f831160011462004f38578261018093600b959362004d67935f9262004f2c5750508160011b915f199060031b1c19161790565b60048501555b60a0810151600585015560c0810151600685015560e0810151600785015561010081015160088501556101208101516009850155600a840162004dc36101408301511515829060ff801983541691151516179055565b610160820151815461ff00191690151560081b61ff00161790550151910155601c54600160401b8110156200283e5760209662004e769462004e1083600162004e689501601c55620057a2565b81546001600160a01b038b811660039390931b83811b91901b19909116179091555f908152601b8a5260409020606435600b909101558062004f0d578034116200403e575060405195606087526060870191620058fb565b9184830387860152620058fb565b5f604083015233916001600160a01b038416917f6e6ae68e7d7d45fbd855c40d1eaafa8de46c5fbec3ee26f1af88730e400bc92c919081900390a360405160643581526001600160a01b038216907fcbf334074196c96e868ba5e05628e41fde21742d3560da2cc932f070582d7c00908490a260015f8051602062007abd833981519152556040516001600160a01b039091168152f35b600e5462004f269082906001600160a01b031662006311565b62003fa7565b015190508d8062002585565b90600485015f5260205f20915f5b601f198516811062004f96575092600b94926001926101809583601f1981161062004f7d575b505050811b01600485015562004d6d565b01515f1960f88460031b161c191690558c808062004f6c565b9192602060018192868501518155019401920162004f46565b015190508b8062002585565b9190600385015f5260205f20905f935b601f198416851062005012576001945083601f1981161062004ff9575b505050811b01600383015562004d04565b01515f1960f88460031b161c191690558a808062004fe8565b8181015183556020948501946001909301929091019062004fcb565b9190600285015f5260205f20905f935b601f198416851062005085576001945083601f198116106200506c575b505050811b01600283015562004ca2565b01515f1960f88460031b161c191690558a80806200505b565b818101518355602094850194600190930192909101906200503e565b600b549262004aed565b346200120b575f3660031901126200120b576020600d54604051908152f35b346200120b575f3660031901126200120b576020600454604051908152f35b346200120b575f3660031901126200120b576020600254604051908152f35b346200120b5760203660031901126200120b576004358015158091036200120b57335f9081527f7d7ffb7a348e1c6a02869081a26547b49160dd3df72d1d75a570eb9b698292ec602052604090205460ff16158062005196575b8062005180575b6200062a5760ff8019601d5416911617601d555f80f35b506001546001600160a01b031633141562005169565b50335f9081527fd329ff8a035c3ce5df2b0dae604d660c0d8783bf7e64be00c1d10db96c0b87b4602052604090205460ff161562005162565b346200120b5760203660031901126200120b576001600160a01b03620051f462005573565b165f52601b6020526020600660405f200154604051908152f35b346200120b5760203660031901126200120b576200522b62005573565b5f6101806040516200523d816200564c565b82815282602082015260606040820152606080820152606060808201528260a08201528260c08201528260e082015282610100820152826101208201528261014082015282610160820152015260018060a01b03165f52601b60205260405f20600b60405191620052ae836200564c565b80546001600160a01b0390811684526001820154166020840152620052d660028201620056f4565b6040840152620052e960038201620056f4565b6060840152620052fc60048201620056f4565b6080840152600581015460a0840152600681015460c0840152600781015460e08401526008810154610100840152600981015461012084015260ff600a820154818116151561014086015260081c161515610160840152015461018082015260405180916020825260018060a01b03815116602083015260018060a01b036020820151166040830152610180620053dd620053a960408401516101a060608701526101c0860190620055a1565b620053c7606085015191601f199283888303016080890152620055a1565b906080850151908683030160a0870152620055a1565b9160a081015160c085015260c081015160e085015260e0810151610100850152610100810151610120850152610120810151610140850152610140810151151561016085015261016081015115158285015201516101a08301520390f35b346200120b5760203660031901126200120b57600154600435906001600160a01b031633036200062a577f15a33c330a1d23c504eafaaded7849e3f046a6c4d1d7231280049202e8ddfc8c5f8051602062007a5d8339815191526040601954756d657373616765426f617264486f6c64696e6742707360501b8251528151908152846020820152a2601955005b346200120b5760403660031901126200120b57620054e562005573565b600154602435926001600160a01b039291831633036200556557505f8051602062007a7d833981519152916080911692835f52601a60205280600760405f2060068101600160ff1982541617905501556040519060408252601060408301526f19dc98591d585d1a5bdb95185c99d95d60821b60608301526020820152a2005b6282b42960e81b8152600490fd5b600435906001600160a01b03821682036200120b57565b602435906001600160a01b03821682036200120b57565b91908251928382525f5b848110620055cc575050825f602080949584010152601f8019910116010190565b602081830181015184830182015201620055ab565b9181601f840112156200120b578235916001600160401b0383116200120b57602083818601950101116200120b57565b90600182811c9216801562005641575b60208310146200562d57565b634e487b7160e01b5f52602260045260245ffd5b91607f169162005621565b6101a081019081106001600160401b038211176200283e57604052565b6001600160401b0381116200283e57604052565b606081019081106001600160401b038211176200283e57604052565b6101c081019081106001600160401b038211176200283e57604052565b602081019081106001600160401b038211176200283e57604052565b90601f801991011681019081106001600160401b038211176200283e57604052565b9060405191825f8254620057088162005611565b908184526020946001916001811690815f146200577e57506001146200573c575b5050506200573a92500383620056d2565b565b5f90815285812095935091905b818310620057655750506200573a93508201015f808062005729565b8554888401850152948501948794509183019162005749565b925050506200573a94925060ff191682840152151560051b8201015f808062005729565b601c54811015620057d857601c5f527f0e4562a10381dec21b205ed72637e6b1b523bdd0e4d4d50af5cd23dd4500a21101905f90565b634e487b7160e01b5f52603260045260245ffd5b601754811015620057d85760039060175f52027fc624b66cc0138b8fabc209247f72d758e1cf3343756d543badbf24212bed8c1501905f90565b9181601f840112156200120b578235916001600160401b0383116200120b576020808501948460051b0101116200120b57565b9060406003198301126200120b5760043591602435906001600160401b0382116200120b576200588c9160040162005826565b9091565b60409060031901126200120b576004359060243590565b60209060206040818301928281528551809452019301915f5b828110620058cf575050505090565b83516001600160a01b031685529381019392810192600101620058c0565b919082039182116200365b57565b908060209392818452848401375f828201840152601f01601f1916010190565b919082018092116200365b57565b818102929181159184041417156200365b57565b811562005948570490565b634e487b7160e01b5f52601260045260245ffd5b6001600160a01b039081165f908152601b602052604090208054909392911615801562005a06575b62005a0057600683015490818111620059f95790620059e2620059e992620059db620059c7620059bd6005600c5499015480996200591b565b94600d54620058ed565b91620059d4838662005929565b926200591b565b906200593d565b90620058ed565b91808311620059f55750565b9150565b505f925050565b505f9150565b5060ff600a8401541662005984565b6001600160a01b039081165f8181527fd22ca4dad9c935597e1a08869f662b60f3b24f9bc4fa604ca86be22691eee043602052604090205460ff1691821562005a6f575b821562005a6557505090565b6001541614919050565b5f8281527fd329ff8a035c3ce5df2b0dae604d660c0d8783bf7e64be00c1d10db96c0b87b4602052604090205460ff16925062005a59565b6001600160a01b039081165f908152601b602052604090208054909392911615801562005b2e575b62005a005762005b1962005b2391620059e262005af4600c546005880154906200591b565b620059db62005b0c6006600d549901548099620058ed565b93620059d4858462005929565b92600354620058ed565b808311620059f55750565b5060ff600a8401541662005acf565b6001600160401b0381116200283e57601f01601f191660200190565b92919262005b678262005b3d565b9162005b776040519384620056d2565b8294818452818301116200120b578281602093845f960137010152565b81811062005ba0575050565b5f815560010162005b94565b9190601f811162005bbc57505050565b6200573a925f5260205f20906020601f840160051c8301931062005be9575b601f0160051c019062005b94565b909150819062005bdb565b92919062005ce35780518355600192604060026020926020850151600182015501920151938451916001600160401b0383116200283e5762005c438362005c3c865462005611565b8662005bac565b602091601f841160011462005c7c575050819062005c789394955f92620028525750508160011b915f199060031b1c19161790565b9055565b5f85815260208120601f1986169890949390925b89831062005ccb575050508360019596971062005cb2575b505050811b019055565b01515f1960f88460031b161c191690555f808062005ca8565b83850151865594850194938101939181019162005c90565b634e487b7160e01b5f525f60045260245ffd5b9190811015620057d85760051b0190565b356001600160a01b03811681036200120b5790565b62005d278262005a15565b62005de1576001600160a01b039081165f818152601b602052604090206006015490929091821562005dd857602460209260405195869384926370a0823160e01b84521660048301525afa91821562001200575f9262005d9b575b5062005d95612710916018549062005929565b04111590565b9091506020813d60201162005dcf575b8162005dba60209383620056d2565b810103126200120b57519062005d9562005d82565b3d915062005dab565b50505050600190565b5050600190565b6001600160401b0381116200283e5760051b60200190565b8051821015620057d85760209160051b010190565b9062005e218262005de8565b62005e306040519182620056d2565b828152809262005e43601f199162005de8565b0190602036910137565b90601c54908183101562005edd5762005e6790836200591b565b9080821162005ed4575b5062005e8862005e828383620058ed565b62005e15565b91805b82811062005e995750505090565b8062005ea7600192620057a2565b838060a01b0391549060031b1c1662005ecc62005ec58584620058ed565b8762005e00565b520162005e8b565b90505f62005e71565b50505060405162005eee81620056b6565b5f81525f36813790565b5f1981146200365b5760010190565b601c54915f805b8481106200603d5750808310156200602b5780839162005f2f84846200591b565b1162006017575b505062005f438162005e15565b5f915f905f5b868110806200600d575b15620060035762005f6481620057a2565b60018060a01b03809254600392831b1c165f52601b60205260ff600a60405f200154161562005fa1575b505062005f9b9062005ef8565b62005f49565b87879397101562005fc7575b505062005fbe62005f9b9162005ef8565b94905f62005f8e565b62005f9b929462005fbe9262005ffb9262005fe28a620057a2565b9054911b1c1662005ff4828962005e00565b5262005ef8565b939162005fad565b5050509250505090565b5081831062005f53565b620060239250620058ed565b815f62005f36565b5050505060405162005eee81620056b6565b6200604881620057a2565b60018060a01b0391549060031b1c165f52601b60205260ff600a60405f200154161562006079575b60010162005f0e565b906200608760019162005ef8565b91905062006070565b6001600160a01b039081165f908152601b602052604090208054909116156200610357620060da620060ca600c546005840154906200591b565b916006600d5491015490620058ed565b670de0b6b3a7640000918281029281840414901517156200365b5762006100916200593d565b90565b505f90565b620061138262005a15565b62005de1576001600160a01b039081165f818152601b602052604090206006015490929091821562005dd857602460209260405195869384926370a0823160e01b84521660048301525afa91821562001200575f9262006181575b5062005d95612710916019549062005929565b9091506020813d602011620061b5575b81620061a060209383620056d2565b810103126200120b57519062005d956200616e565b3d915062006191565b90808214620062a857620061d3815462005611565b906001600160401b0382116200283e57620061fb82620061f4855462005611565b8562005bac565b5f90601f8311600114620062375762005c7892915f91836200622b5750508160011b915f199060031b1c19161790565b015490505f8062002585565b90601f198316915f5260209160205f2090855f5260205f20935f905b8282106200628e5750509084600195949392106200627557505050811b019055565b01545f1960f88460031b161c191690555f808062005ca8565b849581929585015481556001809101960194019062006253565b5050565b5f8051602062007abd8339815191526002815414620062cb5760029055565b604051633ee5aeb560e01b8152600490fd5b3d156200630c573d90620062f18262005b3d565b91620063016040519384620056d2565b82523d5f602084013e565b606090565b5f80809381935af162006323620062dd565b50156200632c57565b6040516312171d8360e31b8152600490fd5b6001600160a01b03165f908152601a60205260409020600281015460ff1662006368575060095490565b6003015490565b9182156200640f576001600160a01b0392828416928315158062006404575b15620063f157937f0a721ab4682ceb61c7e4d264ef879fc419a6d764b136e7d96ef54b2053c7567392620063e683620063d597620063e060209660011c998a8094620058ed565b86600e541662006311565b62006311565b6040519586521693a3565b509150506200573a91600e541662006311565b50338414156200638e565b505050565b6001600160a01b03165f908152601a60205260409020600681015460ff166200643e575060055490565b6007015490565b90601754805b6200645657505f9150565b5f1981018181116200365b576200646d81620057ec565b505484101562006489575080156200365b575f1901806200644b565b925050565b908160209103126200120b575180151581036200120b5790565b5f9060018060a01b039081811692835f52602091601b8352604091825f2094600a8601805460ff81166200676b5760019060ff1916179055426009870155600586015495612710620064fd600a548962005929565b04906006549780891162006762575b886200651d846200652393620058ed565b620058ed565b948560011c6004548060011c908c3b156200120b5789516340c10f1960e01b815230600482015260248101919091525f818e8183816044810103925af1801562006758578d8b928d926200673c575b50839089601354168b81620066b1575b601154955163095ea7b360e01b8152958c166001600160a01b031660048701526024860193909352508391829081604481015b03925af18015620066a757946200661762006620957f74ddd6b35eb9921605ec2cb7da4af12cd0020d2117b708ade1d30523471b74419e9c9a98958a989560609f600196819f9d9862006672575b505086601154169287600f541693620067a4565b01541662006311565b858015158062006667575b62006646575b505050600454928251948552840152820152a2565b828092918192600f54165af1506200665d620062dd565b505f808562006631565b50804710156200662b565b816200669692903d106200669f575b6200668d8183620056d2565b8101906200648e565b508d5f62006603565b503d62006681565b8a513d8a823e3d90fd5b945163095ea7b360e01b81526001600160a01b0391909116600482015260248101929092529092839160449183915af18015620066a757828e620065b5938e936200671a575b50620067118a87848a836013541693600f541693620067a4565b8c938b62006582565b6200673490843d86116200669f576200668d8183620056d2565b505f620066f7565b915098506200674c915062005669565b888a825f999062006572565b8a513d5f823e3d90fd5b9750876200650c565b505050505050505050565b6001600160a01b03165f908152601a60205260409020805460ff166200679d575060085490565b6001015490565b919093605f820294828604605f14831517156200365b57605f850291858304605f14861517156200365b576102584201928342116200365b57606490816040519960208b019763f305d71960e01b895260018060a01b0380971660248d015260448c015204828a01520460848801521660a486015260c485015260c484526101008401928484106001600160401b038511176200283e575f94859460405251925af15062006851620062dd565b5056fe60e060405234620007225762001208803803806200001d8162000726565b928339810190608081830312620007225780516001600160401b039190828111620007225783620000509183016200074c565b602093848301518481116200072257816200006d9185016200074c565b90604084015185811162000722576060916200008b9186016200074c565b930151946001600160a01b038616860362000722578251958587116200063a576003948554946001988987811c9716801562000717575b858810146200070357601f96878111620006bb575b5080858882116001146200065a575f916200064e575b505f19828a1b1c1916908a1b1787555b8451928884116200063a5760049384548b81811c911680156200062f575b878210146200055257888111620005e7575b5080868982116001146200057c575f9162000570575b505f19828b1b1c1916908b1b1784555b3360805260a0528151888111620004765760059283548b81811c9116801562000565575b87821014620005525790818984931162000501575b50869089831160011462000495575f9262000489575b50505f19828a1b1c1916908a1b1782555b4260c05280519088821162000476576006548a81811c911680156200046b575b86821014620004585790818884931162000406575b508590888311600114620003a1575f9262000395575b50505f1982891b1c191690891b176006555b83519687116200038257600754918883811c9316801562000377575b848410146200036457508482116200031d575b505080928511600114620002b157509383949184925f95620002a5575b50501b925f19911b1c1916176007555b604051610a4b9081620007bd823960805181818161015f015281816101e80152610448015260a05181610899015260c051816101280152f35b015193505f806200025c565b92919084601f19811660075f52855f20955f905b89838310620003025750505010620002e8575b50505050811b016007556200026c565b01519060f8845f19921b161c191690555f808080620002d8565b858701518955909701969485019488935090810190620002c5565b60075f52825f209085808901821c830193858a106200035a575b01901c019087905b8281106200034e57506200023f565b5f81550187906200033f565b9350829362000337565b602290634e487b7160e01b5f525260245ffd5b92607f16926200022c565b604182634e487b7160e01b5f525260245ffd5b015190505f80620001fe565b908b9350601f1983169160065f52875f20925f5b89828210620003ef5750508411620003d7575b505050811b0160065562000210565b01515f19838b1b60f8161c191690555f8080620003c8565b8385015186558f97909501949384019301620003b5565b90915060065f52855f2088808501861c8201928886106200044e575b918d918695949301871c01915b8281106200043f575050620001e8565b5f81558594508d91016200042f565b9250819262000422565b602285634e487b7160e01b5f525260245ffd5b90607f1690620001d3565b604184634e487b7160e01b5f525260245ffd5b015190505f80620001a2565b908c9350601f19831691865f52885f20925f5b8a828210620004e15750508411620004c9575b505050811b018255620001b3565b01515f19838c1b60f8161c191690555f8080620004bb565b91929395968291958786015181550195019301908e9594939291620004a8565b909150845f52865f2089808501871c82019289861062000548575b918e918695949301881c01915b828110620005395750506200018c565b5f81558594508e910162000529565b925081926200051c565b602286634e487b7160e01b5f525260245ffd5b90607f169062000177565b90508701515f62000143565b8c9250601f19821690875f52885f20915f5b8a8c838310620005c8575050508311620005b0575b5050811b01845562000153565b8901515f19838d1b60f8161c191690555f80620005a3565b94848294959798929396015181550194019201908e949392916200058e565b855f52865f208980840160051c82019289851062000625575b0160051c01908c905b828110620006195750506200012d565b5f8155018c9062000609565b9250819262000600565b90607f16906200011b565b634e487b7160e01b5f52604160045260245ffd5b90508201515f620000ed565b8b9250601f198216908a5f52875f20915f5b89828210620006a457505083116200068c575b5050811b018755620000fd565b8401515f19838c1b60f8161c191690555f806200067f565b8388015185558f969094019392830192016200066c565b885f52855f208880840160051c820192888510620006f9575b0160051c01908b905b828110620006ed575050620000d7565b5f8155018b90620006dd565b92508192620006d4565b634e487b7160e01b5f52602260045260245ffd5b96607f1696620000c2565b5f80fd5b6040519190601f01601f191682016001600160401b038111838210176200063a57604052565b919080601f84011215620007225782516001600160401b0381116200063a5760209062000782601f8201601f1916830162000726565b9281845282828701011162000722575f5b818110620007a85750825f9394955001015290565b85810183015184820184015282016200079356fe6080604090808252600480361015610015575f80fd5b5f3560e01c91826302d05d3f146108875750816306fdde03146107ac578163095ea7b3146107045781630bf82da41461062957816318160ddd1461060b57816323b872dd14610519578163313ce567146104fe57816340c10f191461041f57816370a08231146103e957816395d89b41146102c75781639dc29fac146101be57508063a9059cbb1461018e578063c45a01551461014b578063cf09e0d0146101115763dd62ed3e146100c5575f80fd5b3461010d578060031936011261010d576020906100e061090f565b6100e8610925565b9060018060a01b038091165f5260018452825f2091165f528252805f20549051908152f35b5f80fd5b503461010d575f36600319011261010d57602090517f00000000000000000000000000000000000000000000000000000000000000008152f35b503461010d575f36600319011261010d57517f00000000000000000000000000000000000000000000000000000000000000006001600160a01b03168152602090f35b503461010d578060031936011261010d576020906101b76101ad61090f565b602435903361093b565b5160018152f35b823461010d578060031936011261010d576101d761090f565b602435929091906001600160a01b037f0000000000000000000000000000000000000000000000000000000000000000811633036102b85783169283156102a257835f525f602052825f20549185831061026e575f857fddf252ad1be2c89b69c2b068fc378daa952ba7f163c4a11628f55a4df523b3ef6020898881898688528785520381872055816002540360025551908152a3005b835163391434e360e21b81526001600160a01b03909216908201908152602081018390526040810186905281906060010390fd5b505f6024925191634b637e8f60e11b8352820152fd5b509051630636a15760e11b8152fd5b823461010d575f36600319011261010d578051905f60075460018160011c90600183169283156103df575b60209384841081146103cc578388529081156103b0575060011461035a575b505050829003601f01601f191682019267ffffffffffffffff84118385101761034757508291826103439252826108c8565b0390f35b604190634e487b7160e01b5f525260245ffd5b60075f908152929350837fa66cc928b5edb82af9bd49922954155ab7b0942694bea4ce44661d9a8736c6885b83851061039c5750505050830101848080610311565b805488860183015293019284908201610386565b60ff1916878501525050151560051b8401019050848080610311565b602289634e487b7160e01b5f525260245ffd5b91607f16916102f2565b823461010d57602036600319011261010d576020906001600160a01b0361040e61090f565b165f525f8252805f20549051908152f35b823461010d578060031936011261010d5761043861090f565b60243591906001600160a01b03907f0000000000000000000000000000000000000000000000000000000000000000821633036104ee57169283156104d957600254908382018092116104c657505f927fddf252ad1be2c89b69c2b068fc378daa952ba7f163c4a11628f55a4df523b3ef9260209260025585855284835280852082815401905551908152a3005b601190634e487b7160e01b5f525260245ffd5b5f602492519163ec442f0560e01b8352820152fd5b8251630636a15760e11b81528590fd5b823461010d575f36600319011261010d576020905160128152f35b90503461010d57606036600319011261010d5761053461090f565b61053c610925565b906044359260018060a01b038216805f526001602052855f20335f52602052855f2054915f198310610577575b6020876101b788888861093b565b8583106105df5781156105c95733156105b357505f908152600160209081528682203383528152908690209185900390915582906101b7610569565b6024905f885191634a1406b160e11b8352820152fd5b6024905f88519163e602df0560e01b8352820152fd5b8651637dc7a0d960e11b8152339181019182526020820193909352604081018690528291506060010390fd5b823461010d575f36600319011261010d576020906002549051908152f35b823461010d575f36600319011261010d578051905f60055460018160011c90600183169283156106fa575b60209384841081146103cc578388529081156103b057506001146106a457505050829003601f01601f191682019267ffffffffffffffff84118385101761034757508291826103439252826108c8565b60055f908152929350837f036b6384b5eca791c62761152d0c79bb0604c104a5fb6f4eb0703f3154bb3db05b8385106106e65750505050830101848080610311565b8054888601830152930192849082016106d0565b91607f1691610654565b823461010d578060031936011261010d5761071d61090f565b602435903315610796576001600160a01b03169081156107805760209350335f5260018452825f20825f52845280835f205582519081527f8c5be1e5ebec7d5bd14f71427d1e84f3dd0314c0f7b2291e5b200ac8c7c3b925843392a35160018152f35b8251634a1406b160e11b81525f81860152602490fd5b825163e602df0560e01b81525f81860152602490fd5b823461010d575f36600319011261010d578051905f60065460018160011c906001831692831561087d575b60209384841081146103cc578388529081156103b0575060011461082757505050829003601f01601f191682019267ffffffffffffffff84118385101761034757508291826103439252826108c8565b60065f908152929350837ff652222313e28459528d920b65115c16c04f3efc82aaedc97be59f3f377c0d3f5b8385106108695750505050830101848080610311565b805488860183015293019284908201610853565b91607f16916107d7565b3461010d575f36600319011261010d577f00000000000000000000000000000000000000000000000000000000000000006001600160a01b03168152602090f35b602080825282518183018190529093925f5b8281106108fb57505060409293505f838284010152601f8019910116010190565b8181018601518482016040015285016108da565b600435906001600160a01b038216820361010d57565b602435906001600160a01b038216820361010d57565b916001600160a01b038084169283156109fd57169283156109e557825f525f60205260405f2054908282106109b35750817fddf252ad1be2c89b69c2b068fc378daa952ba7f163c4a11628f55a4df523b3ef92602092855f525f84520360405f2055845f5260405f20818154019055604051908152a3565b60405163391434e360e21b81526001600160a01b03919091166004820152602481019190915260448101829052606490fd5b60405163ec442f0560e01b81525f6004820152602490fd5b604051634b637e8f60e11b81525f6004820152602490fdfea2646970667358221220651555d6067d4d1611616e2df992710b20b7b4034946fef89b317f8d47f0b5e664736f6c63430008180033d7474166e78731bc168caca1fe1ccebbd6f3c95baee64997902e6b48f442b81a342c58e102ad7414ed327c384dfa1f78f64e4427c10e2bd8ad93142b3833504f7878dffb4ada647885186a00ea129964d140835f125808ba48b1f3974b5f81899b779b17422d0df92223018b32b4d1fa46e071723d6817e2486d003becc55f00a264697066735822122064beba11a47060571986da3b2a3f798324317fd29d4484edc1cc69c8efc9910064736f6c63430008180033","linkReferences":{}},"methodIdentifiers":{"ADMIN_ROLE()":"75b238fc","BONDING_SUPPLY()":"8d427e25","BOT_ROLE()":"b1503774","BPS_DENOMINATOR()":"e1a45218","BURN_AMOUNT()":"20ad6ae3","BUY_FEE_BPS()":"f4364515","CREATION_FEE()":"49a2104d","CREATOR_REWARD_BPS()":"23efec0a","DEAD_ADDRESS()":"4e6fd6c4","FEE_EXEMPT_ROLE()":"5187af2e","GRADUATION_TARGET()":"c1a844f0","LP_AMOUNT()":"f871ed13","LP_RESERVE()":"1cda51f1","OWNER_ROLE()":"e58378bb","SELL_FEE_BPS()":"9731aa2e","TOTAL_SUPPLY()":"902d55a5","TREASURY()":"2d2c5565","VIRTUAL_PLS()":"76790d3d","VIRTUAL_TOKENS()":"e90ceb9f","WPLS()":"ef8ef56f","addSuperChatTier(uint256,uint256,string)":"7ec4adb3","allTokens(uint256)":"634282af","bondingSupply()":"2d329769","burn(address,uint256)":"9dc29fac","burnAmount()":"486a7e6b","buy(address,uint256,address)":"db61c76e","buyFeeBps()":"77d2300e","canUseChat(address,address)":"833ec737","canUseMessageBoard(address,address)":"eb4310d2","chatHoldingBps()":"bf0d2c53","clearTokenOverrides(address)":"226378a9","createLivestreamToken(string,string,string,uint256)":"1f9c8417","createToken(string,string,string)":"94aed7d0","createTokenWithBuy(string,string,string,uint256,uint256)":"325d703c","creationFee()":"dce0b4e4","creatorRewardBps()":"7e5d936a","deadAddress()":"27c8f835","emergencyWithdraw()":"db2e21bc","flashTrade(address,uint256,uint256)":"71447e08","forceGraduate(address)":"c2812faf","forceRefund(address)":"3fb6c74e","getAllTokens(uint256,uint256)":"9a043832","getBondingCurveProgress(address)":"5ea72c84","getCirculatingSupply(address)":"1585a1e3","getConfig()":"c3f909d4","getEstimatedPls(address,uint256)":"2da82010","getEstimatedTokens(address,uint256)":"6191905e","getLiveTokens(uint256,uint256)":"aa347dfb","getPrices(address[])":"8fb5a482","getSuperChatTiers()":"a7cb17cb","getTokenCount()":"78a89567","getTokenData(address)":"13ff7e9f","getTokenPrice(address)":"d02641a0","graduationTarget()":"a4b20f13","grantRole(bytes32,address)":"2f2ff15d","grantRoleBatch(bytes32,address[])":"fd47852b","hasRole(bytes32,address)":"91d14854","isFeeExempt(address)":"3f4218e0","leaderboard()":"eb56b740","lpAmount()":"65dc7ef4","lpReserve()":"ada29fa9","messageBoardHoldingBps()":"b5d4ce0d","multiArb(address[],uint256[],bool[])":"badfa0cf","owner()":"8da5cb5b","paused()":"5c975abb","primaryFactory()":"458447ed","primaryRouter()":"9feb930a","pumpFudToken()":"caa05312","removeSuperChatTier(uint256)":"f8b9a039","revokeRole(bytes32,address)":"d547741f","revokeRoleBatch(bytes32,address[])":"82f51fa6","secondaryFactory()":"480e4597","secondaryRouter()":"bc430912","sell(address,uint256,uint256,address)":"2dc8f867","sellFeeBps()":"23cbe1f3","setBondingSupply(uint256)":"e630f13a","setBurnAmount(uint256)":"cc43f3d3","setBuyFeeBps(uint256)":"9058c8a4","setChatHoldingBps(uint256)":"265dc0f7","setConfigBatch((uint256,uint256,uint256,uint256,uint256,uint256,uint256,uint256,uint256,uint256,uint256,uint256,uint256,uint256))":"a054f927","setCreationFee(uint256)":"b7d86225","setCreatorRewardBps(uint256)":"fee3b54b","setDeadAddress(address)":"77975e0b","setGraduationTarget(uint256)":"5ae8f06d","setLeaderboard(address)":"f1a2de72","setLpAmount(uint256)":"6b40bd0a","setLpReserve(uint256)":"5ce013cd","setMessageBoardHoldingBps(uint256)":"12c73c2e","setPaused(bool)":"16c38b3c","setPrimaryFactory(address)":"ac01de67","setPrimaryRouter(address)":"8afc1138","setPumpFudToken(address)":"4635995d","setSecondaryFactory(address)":"fdb1ef6c","setSecondaryRouter(address)":"5f08896a","setSellFeeBps(uint256)":"34119d15","setTokenBuyFeeOverride(address,uint256)":"70aa2381","setTokenCreationFeeOverride(address,uint256)":"2d6244f2","setTokenGraduationTargetOverride(address,uint256)":"11906417","setTokenSellFeeOverride(address,uint256)":"db7f86c0","setTotalSupply(uint256)":"f7ea7a3d","setTreasury(address)":"f0f44260","setVirtualPls(uint256)":"d6065c1c","setVirtualTokens(uint256)":"74a2b79b","setWpls(address)":"ea2e9cad","startLivestream(address)":"33fb11a9","superChat(address,address,string)":"9fb7d7e7","superChatTiers(uint256)":"739470a6","superChatTotal(address,address)":"c2692ae5","tokenData(address)":"27e45c2c","tokenOverrides(address)":"e07b1703","totalSupply()":"18160ddd","transferOwnership(address)":"f2fde38b","treasury()":"61d027b3","updateSuperChatTier(uint256,uint256,uint256,string)":"7f4735aa","virtualPls()":"5754f4f1","virtualTokens()":"1d3dad09","wpls()":"927ef7fa"},"id":47}