{"abi":[{"type":"constructor","inputs":[],"stateMutability":"nonpayable"},{"type":"receive","stateMutability":"payable"},{"type":"function","name":"TREASURY","inputs":[],"outputs":[{"name":"","type":"address","internalType":"address"}],"stateMutability":"view"},{"type":"function","name":"adManager","inputs":[],"outputs":[{"name":"","type":"address","internalType":"address"}],"stateMutability":"view"},{"type":"function","name":"arbitrage","inputs":[],"outputs":[{"name":"","type":"address","internalType":"address"}],"stateMutability":"view"},{"type":"function","name":"componentIds","inputs":[{"name":"","type":"uint256","internalType":"uint256"}],"outputs":[{"name":"","type":"string","internalType":"string"}],"stateMutability":"view"},{"type":"function","name":"components","inputs":[{"name":"","type":"string","internalType":"string"}],"outputs":[{"name":"componentId","type":"string","internalType":"string"},{"name":"layoutJson","type":"string","internalType":"string"},{"name":"styleJson","type":"string","internalType":"string"},{"name":"isActive","type":"bool","internalType":"bool"},{"name":"version","type":"uint256","internalType":"uint256"}],"stateMutability":"view"},{"type":"function","name":"emergencyWithdraw","inputs":[],"outputs":[],"stateMutability":"nonpayable"},{"type":"function","name":"featureFlagKeys","inputs":[{"name":"","type":"uint256","internalType":"uint256"}],"outputs":[{"name":"","type":"string","internalType":"string"}],"stateMutability":"view"},{"type":"function","name":"featureFlags","inputs":[{"name":"","type":"string","internalType":"string"}],"outputs":[{"name":"","type":"bool","internalType":"bool"}],"stateMutability":"view"},{"type":"function","name":"getAllContracts","inputs":[],"outputs":[{"name":"_pumpFud","type":"address","internalType":"address"},{"name":"_superChat","type":"address","internalType":"address"},{"name":"_adManager","type":"address","internalType":"address"},{"name":"_swap","type":"address","internalType":"address"},{"name":"_profile","type":"address","internalType":"address"}],"stateMutability":"view"},{"type":"function","name":"getAllFeatureFlags","inputs":[],"outputs":[{"name":"keys","type":"string[]","internalType":"string[]"},{"name":"values","type":"bool[]","internalType":"bool[]"}],"stateMutability":"view"},{"type":"function","name":"getAllNumericConfigs","inputs":[],"outputs":[{"name":"keys","type":"string[]","internalType":"string[]"},{"name":"values","type":"uint256[]","internalType":"uint256[]"}],"stateMutability":"view"},{"type":"function","name":"getAllRouters","inputs":[],"outputs":[{"name":"_pulseXV1","type":"address","internalType":"address"},{"name":"_pulseXV2","type":"address","internalType":"address"},{"name":"_paisley","type":"address","internalType":"address"}],"stateMutability":"view"},{"type":"function","name":"getAllStringConfigs","inputs":[],"outputs":[{"name":"keys","type":"string[]","internalType":"string[]"},{"name":"values","type":"string[]","internalType":"string[]"}],"stateMutability":"view"},{"type":"function","name":"getComponent","inputs":[{"name":"componentId","type":"string","internalType":"string"}],"outputs":[{"name":"","type":"tuple","internalType":"struct PumpFudConfig.ComponentConfig","components":[{"name":"componentId","type":"string","internalType":"string"},{"name":"layoutJson","type":"string","internalType":"string"},{"name":"styleJson","type":"string","internalType":"string"},{"name":"isActive","type":"bool","internalType":"bool"},{"name":"version","type":"uint256","internalType":"uint256"}]}],"stateMutability":"view"},{"type":"function","name":"getComponentIds","inputs":[],"outputs":[{"name":"","type":"string[]","internalType":"string[]"}],"stateMutability":"view"},{"type":"function","name":"getFeatureFlagKeys","inputs":[],"outputs":[{"name":"","type":"string[]","internalType":"string[]"}],"stateMutability":"view"},{"type":"function","name":"getJsonConfigKeys","inputs":[],"outputs":[{"name":"","type":"string[]","internalType":"string[]"}],"stateMutability":"view"},{"type":"function","name":"getNumericConfigKeys","inputs":[],"outputs":[{"name":"","type":"string[]","internalType":"string[]"}],"stateMutability":"view"},{"type":"function","name":"getPage","inputs":[{"name":"pageId","type":"string","internalType":"string"}],"outputs":[{"name":"","type":"tuple","internalType":"struct PumpFudConfig.PageConfig","components":[{"name":"pageId","type":"string","internalType":"string"},{"name":"layoutJson","type":"string","internalType":"string"},{"name":"sectionsJson","type":"string","internalType":"string"},{"name":"isActive","type":"bool","internalType":"bool"},{"name":"version","type":"uint256","internalType":"uint256"}]}],"stateMutability":"view"},{"type":"function","name":"getPageIds","inputs":[],"outputs":[{"name":"","type":"string[]","internalType":"string[]"}],"stateMutability":"view"},{"type":"function","name":"getStringConfigKeys","inputs":[],"outputs":[{"name":"","type":"string[]","internalType":"string[]"}],"stateMutability":"view"},{"type":"function","name":"jsonConfig","inputs":[{"name":"","type":"string","internalType":"string"}],"outputs":[{"name":"","type":"string","internalType":"string"}],"stateMutability":"view"},{"type":"function","name":"jsonConfigKeys","inputs":[{"name":"","type":"uint256","internalType":"uint256"}],"outputs":[{"name":"","type":"string","internalType":"string"}],"stateMutability":"view"},{"type":"function","name":"numericConfig","inputs":[{"name":"","type":"string","internalType":"string"}],"outputs":[{"name":"","type":"uint256","internalType":"uint256"}],"stateMutability":"view"},{"type":"function","name":"numericConfigKeys","inputs":[{"name":"","type":"uint256","internalType":"uint256"}],"outputs":[{"name":"","type":"string","internalType":"string"}],"stateMutability":"view"},{"type":"function","name":"owner","inputs":[],"outputs":[{"name":"","type":"address","internalType":"address"}],"stateMutability":"view"},{"type":"function","name":"pageIds","inputs":[{"name":"","type":"uint256","internalType":"uint256"}],"outputs":[{"name":"","type":"string","internalType":"string"}],"stateMutability":"view"},{"type":"function","name":"pages","inputs":[{"name":"","type":"string","internalType":"string"}],"outputs":[{"name":"pageId","type":"string","internalType":"string"},{"name":"layoutJson","type":"string","internalType":"string"},{"name":"sectionsJson","type":"string","internalType":"string"},{"name":"isActive","type":"bool","internalType":"bool"},{"name":"version","type":"uint256","internalType":"uint256"}],"stateMutability":"view"},{"type":"function","name":"paisleyRouter","inputs":[],"outputs":[{"name":"","type":"address","internalType":"address"}],"stateMutability":"view"},{"type":"function","name":"profile","inputs":[],"outputs":[{"name":"","type":"address","internalType":"address"}],"stateMutability":"view"},{"type":"function","name":"pulseXV1Router","inputs":[],"outputs":[{"name":"","type":"address","internalType":"address"}],"stateMutability":"view"},{"type":"function","name":"pulseXV2Router","inputs":[],"outputs":[{"name":"","type":"address","internalType":"address"}],"stateMutability":"view"},{"type":"function","name":"pumpFud","inputs":[],"outputs":[{"name":"","type":"address","internalType":"address"}],"stateMutability":"view"},{"type":"function","name":"renounceOwnership","inputs":[],"outputs":[],"stateMutability":"nonpayable"},{"type":"function","name":"setAdManager","inputs":[{"name":"_addr","type":"address","internalType":"address"}],"outputs":[],"stateMutability":"nonpayable"},{"type":"function","name":"setArbitrage","inputs":[{"name":"_addr","type":"address","internalType":"address"}],"outputs":[],"stateMutability":"nonpayable"},{"type":"function","name":"setBatchFeatureFlags","inputs":[{"name":"flags","type":"string[]","internalType":"string[]"},{"name":"values","type":"bool[]","internalType":"bool[]"}],"outputs":[],"stateMutability":"nonpayable"},{"type":"function","name":"setBatchNumericConfig","inputs":[{"name":"keys","type":"string[]","internalType":"string[]"},{"name":"values","type":"uint256[]","internalType":"uint256[]"}],"outputs":[],"stateMutability":"nonpayable"},{"type":"function","name":"setBatchStringConfig","inputs":[{"name":"keys","type":"string[]","internalType":"string[]"},{"name":"values","type":"string[]","internalType":"string[]"}],"outputs":[],"stateMutability":"nonpayable"},{"type":"function","name":"setComponent","inputs":[{"name":"componentId","type":"string","internalType":"string"},{"name":"layoutJson","type":"string","internalType":"string"},{"name":"styleJson","type":"string","internalType":"string"},{"name":"isActive","type":"bool","internalType":"bool"}],"outputs":[],"stateMutability":"nonpayable"},{"type":"function","name":"setComponentActive","inputs":[{"name":"componentId","type":"string","internalType":"string"},{"name":"isActive","type":"bool","internalType":"bool"}],"outputs":[],"stateMutability":"nonpayable"},{"type":"function","name":"setFeatureFlag","inputs":[{"name":"flag","type":"string","internalType":"string"},{"name":"value","type":"bool","internalType":"bool"}],"outputs":[],"stateMutability":"nonpayable"},{"type":"function","name":"setJsonConfig","inputs":[{"name":"key","type":"string","internalType":"string"},{"name":"jsonValue","type":"string","internalType":"string"}],"outputs":[],"stateMutability":"nonpayable"},{"type":"function","name":"setNumericConfig","inputs":[{"name":"key","type":"string","internalType":"string"},{"name":"value","type":"uint256","internalType":"uint256"}],"outputs":[],"stateMutability":"nonpayable"},{"type":"function","name":"setPage","inputs":[{"name":"pageId","type":"string","internalType":"string"},{"name":"layoutJson","type":"string","internalType":"string"},{"name":"sectionsJson","type":"string","internalType":"string"},{"name":"isActive","type":"bool","internalType":"bool"}],"outputs":[],"stateMutability":"nonpayable"},{"type":"function","name":"setPageActive","inputs":[{"name":"pageId","type":"string","internalType":"string"},{"name":"isActive","type":"bool","internalType":"bool"}],"outputs":[],"stateMutability":"nonpayable"},{"type":"function","name":"setPaisleyRouter","inputs":[{"name":"_addr","type":"address","internalType":"address"}],"outputs":[],"stateMutability":"nonpayable"},{"type":"function","name":"setProfile","inputs":[{"name":"_addr","type":"address","internalType":"address"}],"outputs":[],"stateMutability":"nonpayable"},{"type":"function","name":"setPulseXV1Router","inputs":[{"name":"_addr","type":"address","internalType":"address"}],"outputs":[],"stateMutability":"nonpayable"},{"type":"function","name":"setPulseXV2Router","inputs":[{"name":"_addr","type":"address","internalType":"address"}],"outputs":[],"stateMutability":"nonpayable"},{"type":"function","name":"setPumpFud","inputs":[{"name":"_addr","type":"address","internalType":"address"}],"outputs":[],"stateMutability":"nonpayable"},{"type":"function","name":"setStringConfig","inputs":[{"name":"key","type":"string","internalType":"string"},{"name":"value","type":"string","internalType":"string"}],"outputs":[],"stateMutability":"nonpayable"},{"type":"function","name":"setSuperChat","inputs":[{"name":"_addr","type":"address","internalType":"address"}],"outputs":[],"stateMutability":"nonpayable"},{"type":"function","name":"setSwap","inputs":[{"name":"_addr","type":"address","internalType":"address"}],"outputs":[],"stateMutability":"nonpayable"},{"type":"function","name":"stringConfig","inputs":[{"name":"","type":"string","internalType":"string"}],"outputs":[{"name":"","type":"string","internalType":"string"}],"stateMutability":"view"},{"type":"function","name":"stringConfigKeys","inputs":[{"name":"","type":"uint256","internalType":"uint256"}],"outputs":[{"name":"","type":"string","internalType":"string"}],"stateMutability":"view"},{"type":"function","name":"superChat","inputs":[],"outputs":[{"name":"","type":"address","internalType":"address"}],"stateMutability":"view"},{"type":"function","name":"swap","inputs":[],"outputs":[{"name":"","type":"address","internalType":"address"}],"stateMutability":"view"},{"type":"function","name":"transferOwnership","inputs":[{"name":"newOwner","type":"address","internalType":"address"}],"outputs":[],"stateMutability":"nonpayable"},{"type":"event","name":"ComponentUpdated","inputs":[{"name":"componentId","type":"string","indexed":true,"internalType":"string"},{"name":"version","type":"uint256","indexed":false,"internalType":"uint256"}],"anonymous":false},{"type":"event","name":"ContractAddressUpdated","inputs":[{"name":"name","type":"string","indexed":true,"internalType":"string"},{"name":"oldAddr","type":"address","indexed":false,"internalType":"address"},{"name":"newAddr","type":"address","indexed":false,"internalType":"address"}],"anonymous":false},{"type":"event","name":"FeatureFlagUpdated","inputs":[{"name":"flag","type":"string","indexed":true,"internalType":"string"},{"name":"value","type":"bool","indexed":false,"internalType":"bool"}],"anonymous":false},{"type":"event","name":"JsonConfigUpdated","inputs":[{"name":"key","type":"string","indexed":true,"internalType":"string"}],"anonymous":false},{"type":"event","name":"NumericConfigUpdated","inputs":[{"name":"key","type":"string","indexed":true,"internalType":"string"},{"name":"value","type":"uint256","indexed":false,"internalType":"uint256"}],"anonymous":false},{"type":"event","name":"OwnershipTransferred","inputs":[{"name":"previousOwner","type":"address","indexed":true,"internalType":"address"},{"name":"newOwner","type":"address","indexed":true,"internalType":"address"}],"anonymous":false},{"type":"event","name":"PageUpdated","inputs":[{"name":"pageId","type":"string","indexed":true,"internalType":"string"},{"name":"version","type":"uint256","indexed":false,"internalType":"uint256"}],"anonymous":false},{"type":"event","name":"StringConfigUpdated","inputs":[{"name":"key","type":"string","indexed":true,"internalType":"string"},{"name":"value","type":"string","indexed":false,"internalType":"string"}],"anonymous":false},{"type":"error","name":"OwnableInvalidOwner","inputs":[{"name":"owner","type":"address","internalType":"address"}]},{"type":"error","name":"OwnableUnauthorizedAccount","inputs":[{"name":"account","type":"address","internalType":"address"}]}],"bytecode":{"object":"0x608060409080825234620011895733156200117457505f8054336001600160a01b03198083168217845573165c3410fc91ef562c50559f7d2289febed552d99390926001600160a01b0316907f8be0079c531659141344cd1fd0a4f28419497f9722a3daafe3b4186f6b6457e09080a37398bf93ebf5c380c0e6ae8e192a7e2ae08edacc0281600754161760075560085416176008556200009f6200118d565b620000bf6020916a1cddd85c115b98589b195960aa1b8382015262001589565b620000ea620000cd620011b1565b6e1b1a5d9950da185d115b98589b1959608a1b8382015262001589565b81516001600160401b03908084019082821181831017620010f8576200013b918552601381527f6d657373616765426f617264456e61626c6564000000000000000000000000008482015262001589565b6200016162000149620011d5565b6918591cd15b98589b195960b21b8482015262001589565b6200018c6200016f620011b1565b6e1c1c9bd99a5b195cd15b98589b1959608a1b8482015262001589565b620001b46200019a620011f9565b6b18dd5b1d1cd15b98589b195960a21b8482015262001589565b620001e1620001c26200121d565b701b9cd99dd19a5b1d195c915b98589b1959607a1b8482015262001589565b6200020e620001ef6200121d565b701b585e5a195b535bd919515b98589b1959607a1b8482015262001589565b82518381019080821083831117620010f8576200024b91855260128152711b1a5b5a5d13dc99195c9cd15b98589b195960721b8482015262001589565b620002776200025962001241565b6f1cdd5c195c90da185d115b98589b195960821b8482015262001589565b6200047962000285620011f9565b6b383934b6b0b93ca1b7b637b960a11b84820152620002be620002a762001265565b660466060cccc70760cb1b9283878301526200167d565b620003c2620002cc62001289565b6d39b2b1b7b73230b93ca1b7b637b960911b8682015262000307620002f062001265565b662331613161326560c81b9283898301526200167d565b62000348620003156200118d565b6a30b1b1b2b73a21b7b637b960a91b888201526200033262001265565b9066119818321a333360c91b898301526200167d565b6200038d62000356620011b1565b6e3130b1b5b3b937bab73221b7b637b960891b888201526200037762001265565b90661198309830983360c91b898301526200167d565b6200039762001289565b6d18d85c99109858dad9dc9bdd5b9960921b87820152620003b762001265565b91878301526200167d565b62000403620003d06200118d565b6a746578745072696d61727960a81b86820152620003ed62001265565b906611b3333333333360c91b878301526200167d565b6200044662000411620012ad565b6c746578745365636f6e6461727960981b868201526200043062001265565b90660467070707070760cb1b878301526200167d565b62000450620011f9565b6b39bab1b1b2b9b9a1b7b637b960a11b858201526200046e62001265565b91858301526200167d565b620004b962000487620011d5565b6932b93937b921b7b637b960b11b84820152620004a362001265565b906608d9998d0d0d0d60ca1b858301526200167d565b620004fb620004c7620011f9565b6b3bb0b93734b733a1b7b637b960a11b84820152620004e562001265565b90660236666616130360cc1b858301526200167d565b6200053e62000509620011f9565b6b706c6174666f726d4e616d6560a01b8482015262000527620012d1565b90671c1d5b5c0b999d5960c21b858301526200167d565b620005916200054c62001265565b661b1bd9dbd55c9b60ca1b8482015262000565620012f5565b907f2f6272616e64696e672f6c6f676f2d6d61696e2e6a7067000000000000000000858301526200167d565b620005e96200059f620011f9565b6b1a195c9bd25b5859d9555c9b60a21b84820152620005bd620012f5565b907f2f6272616e64696e672f6865726f2d6d61696e2e6a7067000000000000000000858301526200167d565b6200062e620005f7620011d5565b6919985d9a58dbdb955c9b60b21b8482015262000613620011f9565b906b2f66617669636f6e2e69636f60a01b858301526200167d565b6200065a6200063c62001241565b6f746f6b656e47726964436f6c756d6e7360801b84820152620017b4565b81620008a66200066962001289565b620006c9620006e1848301926d0e8ded6cadc86c2e4c8aed2c8e8d60931b845288519381516200069b81878462001385565b8501948781600e97888152030190205415806200116b575b6200115a575b8951938491835192839162001385565b83018481528387610118958693030190205562001567565b9087519081525f80516020620043ee833981519152948591a262000727620007086200121d565b7073747265616d47726964436f6c756d6e7360781b87820152620017b4565b6200078c8386620007a46200073b620012ad565b8281016c18d85c9bdd5cd95b14dc195959609a1b81528b51848184516200076481838762001385565b81018a81520301902054158062001151575b62001140575b8b51958691835192839162001385565b85018681528584611388978893030190205562001567565b928951908152a262000825620007b962001241565b603262000815888084016f6d6178546f6b656e735065725061676560801b81528b5182818751620007ec81838762001385565b81018a81520301902054158062001137575b62001126575b8b5180938192875192839162001385565b8101878152030190205562001567565b8386885160328152a2606462000896866200083f62001241565b93818501906f18da185d13595cdcd859d9531a5b5a5d60821b82528a51838188516200086d81838862001385565b8101848152030190205415806200111d575b6200110c575b8a5180948193885192839162001385565b8201908152030190205562001567565b9083855160648152a2620008b9620012d1565b90671cddd85c10d85c9960c21b8383015283519160609081840184811084821117620010f8578652603884527f7b227769647468223a223430307078222c2270616464696e67223a2232347078858501527f222c22626f72646572526164697573223a2231367078227d0000000000000000868501528551936080948581019181831086841117620010f857620009b9928952604f82527f7b226261636b67726f756e64223a22766172282d2d636172644261636b67726f9384898401527f756e6429222c22626f72646572223a2231707820736f6c696420766172282d2d8a8401526e7072696d617279436f6c6f7229227d60881b868401526200186e565b620009c362001319565b681d1bdad95b90d85c9960ba1b868201528651908582019180831086841117620010f85762000a9c928952605781527f7b227769647468223a223238307078222c22617370656374526174696f223a22888201527f31222c2273686f775072696365223a747275652c2273686f77566f6c756d6522898201527f3a747275652c2273686f774368617274223a747275657d0000000000000000008582015262000a6b6200133d565b9184898401527f756e6429222c22686f7665725363616c65223a22312e3032227d0000000000008a8401526200186e565b62000aa66200118d565b906a1c1c9bd99a5b1950d85c9960aa1b8683015286518581019281841086851117620010f85762000b69938952604682527f7b2273686f77417661746172223a747275652c2273686f77426164676573223a888301527f747275652c2273686f7743756c74223a747275652c2273686f7753746174732289830152653a747275657d60d01b8583015262000b396200133d565b92888401527f756e6429222c2261766174617253697a65223a2238307078227d000000000000898401526200186e565b62000b736200118d565b6a636861744d65737361676560a81b8582015262000b9062001361565b7f7b2273686f77417661746172223a747275652c2273686f7754696572223a7472868201527f75652c226d61784c656e677468223a3238307d00000000000000000000000000878201528651908582019282841086851117620010f85762000c6d938952605b83527f7b2274696572436f6c6f7273223a7b2262726f6e7a65223a2223636437663332888401527f222c2273696c766572223a2223633063306330222c22676f6c64223a22236666898401527f64373030222c226469616d6f6e64223a2223623966326666227d7d0000000000858401526200186e565b62000c7762001265565b666c616e64696e6760c81b85820152855184810181811085821117620010f8578752605981527f7b2273656374696f6e73223a5b226865726f222c226361726f7573656c222c22868201527f6665617475726564546f6b656e73222c22726563656e744c61756e6368657322878201527f2c226c69766553747265616d73222c22666f6f746572225d7d0000000000000083820152865160a081019181831086841117620010f85762000db0928952606782527f7b226865726f223a747275652c226361726f7573656c223a747275652c226665888301527f617475726564546f6b656e73223a747275652c22726563656e744c61756e6368898301527f6573223a747275652c226c69766553747265616d73223a747275652c226164738583015266223a747275657d60c81b93848884015262001981565b62000dba62001319565b681d1bdad95b931a5cdd60ba1b86820152865160a0810181811086821117620010f8578852607681527f7b226c61796f7574223a2267726964222c2266696c74657273223a5b22666561878201527f7475726564222c22746f704d61726b6574436170222c226d6f73745669657765888201527f7273222c226e736677225d2c22736f72744f7074696f6e73223a5b226e657765848201527f7374222c22766f6c756d65222c227072696365225d7d00000000000000000000868201528751908482019282841087851117620010f857928952603082527f7b2266696c74657273223a747275652c22736561726368223a747275652c2270888301526f6167696e6174696f6e223a747275657d60801b828a015262000ed99262001981565b855186810181811085821117620010f857875260048152630737761760e41b868201528651908582019180831086841117620010f85762000fe4928952605381527f7b226c61796f7574223a2263656e7465726564222c2273686f77436861727422888201527f3a747275652c2273686f77526563656e74547261646573223a747275652c2273898201527f686f77506f736974696f6e73223a747275657d000000000000000000000000008582015262000f9362001361565b917f7b226368617274223a747275652c22726563656e74547261646573223a747275898401527f652c22706f736974696f6e73223a747275657d000000000000000000000000008a84015262001981565b62000fee62001319565b916819185cda189bd85c9960ba1b8684015286519385850185811082821117620010f8578852605185527f7b226c61796f7574223a2273706c6974222c226c65667450616e656c223a2263878601527f68617274222c22726967687450616e656c223a2263686174222c22626f74746f85890152706d50616e656c223a22747261646573227d60781b82860152875195860190811186821017620010f857620010ea967f7b226c69766543686174223a747275652c226d657373616765426f617264223a918952604787528601527f747275652c22766f69636543686174223a747275652c227375706572436861748786015284015262001981565b5161293d908162001a518239f35b634e487b7160e01b5f52604160045260245ffd5b6200111786620014fa565b62000885565b5060016200087f565b6200113185620014fa565b62000804565b506001620007fe565b6200114b82620014fa565b6200077c565b50600162000776565b6200116582620014fa565b620006b9565b506001620006b3565b631e4fbdf760e01b81525f6004820152602490fd5b5f80fd5b60408051919082016001600160401b03811183821017620010f857604052600b8252565b60408051919082016001600160401b03811183821017620010f857604052600f8252565b60408051919082016001600160401b03811183821017620010f857604052600a8252565b60408051919082016001600160401b03811183821017620010f857604052600c8252565b60408051919082016001600160401b03811183821017620010f85760405260118252565b60408051919082016001600160401b03811183821017620010f85760405260108252565b60408051919082016001600160401b03811183821017620010f85760405260078252565b60408051919082016001600160401b03811183821017620010f857604052600e8252565b60408051919082016001600160401b03811183821017620010f857604052600d8252565b60408051919082016001600160401b03811183821017620010f85760405260088252565b60408051919082016001600160401b03811183821017620010f85760405260178252565b60408051919082016001600160401b03811183821017620010f85760405260098252565b60405190606082016001600160401b03811183821017620010f857604052603a8252565b60405190606082016001600160401b03811183821017620010f85760405260338252565b5f5b838110620013975750505f910152565b818101518382015260200162001387565b90600182811c92168015620013d8575b6020831014620013c457565b634e487b7160e01b5f52602260045260245ffd5b91607f1691620013b8565b81519192916001600160401b038111620010f857620014038254620013a8565b601f8111620014b0575b50602080601f83116001146200144b5750819293945f926200143f575b50508160011b915f199060031b1c1916179055565b015190505f806200142a565b90601f19831695845f5260205f20925f905b88821062001497575050836001959697106200147e575b505050811b019055565b01515f1960f88460031b161c191690555f808062001474565b806001859682949686015181550195019301906200145d565b825f5260205f20601f830160051c81019160208410620014ef575b601f0160051c01905b818110620014e357506200140d565b5f8155600101620014d4565b9091508190620014cb565b600f549068010000000000000000821015620010f8576001820180600f558210156200155357600f5f5262001551917f8d1108e10bcb7c27dddfc02ed9d693a074039d026cf4ea4240b40f7d581ac80201620013e3565b565b634e487b7160e01b5f52603260045260245ffd5b620015819060206040519282848094519384920162001385565b810103902090565b6040519060ff81519260208181850195620015a681838962001385565b8101600a8152030190205416158062001674575b62001625575b620015dd6020620015f89360405180938192865192839162001385565b8101600a815203019020600160ff1982541617905562001567565b7f061dec86c58c6329f0bef98112858e27715d3813e00431fe174ee1fbb6c21898602060405160018152a2565b600b549168010000000000000000831015620010f8576001830180600b5583101562001553576020620015dd916200166a84620015f896600b5f52845f2001620013e3565b93505050620015c0565b506001620015ba565b60405190828151620016af6020948581818701946200169e81838862001385565b8101600c81520301902054620013a8565b1580620017a9575b62001737575b926200170a620017289362001704604094620016f4855f80516020620043ce83398151915299885180938192885192839162001385565b8101600c815203019020620013e3565b62001567565b94825193828593845282519281848093870152868601910162001385565b601f01601f19168101030190a2565b9050600d549268010000000000000000841015620010f8576001840180600d5584101562001553576200170a836200170487620016f48560409762001798620017289a5f80516020620043ce8339815191529c600d5f52845f2001620013e3565b9650985050945050935050620016bd565b5081511515620016b7565b62001816906004620018056020604051845190828181880193620017da81838762001385565b8101600e81520301902054158062001842575b62001831575b60405180938192875192839162001385565b8101600e8152030190205562001567565b5f80516020620043ee833981519152602060405160048152a2565b6200183c85620014fa565b620017f3565b506001620017ed565b5f1981146200185a5760010190565b634e487b7160e01b5f52601160045260245ffd5b916040516020818551620018868183858a0162001385565b81016012815203019020916200189d8354620013a8565b1562001916575b600483620018e6602094620018dc6200190c95620018d28a5f80516020620043ae8339815191529a620013e3565b60018501620013e3565b60028301620013e3565b60038101600160ff1982541617905501936200190385546200184b565b80955562001567565b92604051908152a2565b9060135468010000000000000000811015620010f857600181018060135581101562001553575f80516020620043ae83398151915293620018e66200190c93620018dc602096620019728a60049760135f528a5f2001620013e3565b955050945050935050620018a4565b916040516020818551620019998183858a0162001385565b8101601481520301902091620019b08354620013a8565b15620019e5575b600483620018e6602094620018dc6200190c95620018d28a5f805160206200438e8339815191529a620013e3565b9060155468010000000000000000811015620010f857600181018060155581101562001553575f805160206200438e83398151915293620018e66200190c93620018dc60209662001a418a60049760155f528a5f2001620013e3565b955050945050935050620019b756fe60406080815260048036101561001e575b5050361561001c575f80fd5b005b5f3560e01c9081630694c2d514611cae5781630aa1bd4f14611b835781630afdb28b14611ae35781630b3e1ae614611a515781630e58ba3314611a265781631307ea191461196b578163139c9ab71461188f578163176cfb63146117fd57816318d3ce96146117a957816319e6a548146117505781631a1df5b9146116ae5781631d5c4f5f146115f35781631faee24f146115b85781632084b5f8146115165781632d2c5565146114e85781632e6b8c5d1461149757816335785aa71461137b578163367b4c891461132a5781633d0c93a3146113025781633d1265151461121a57816340b760f2146110cd578163487dee331461102757816356a79bb214610ffd57816357f2b4c614610e575781635cd5a94a14610db057816363c3d80014610d725781636683e0d214610d2157816369c8d33814610cf9578163715018a614610ca257816374364ef014610c6857816379f26a8314610c405781637d67bc9714610c215781638119c06514610bfa57816384d969bd14610b8e57816385a467da14610b225781638730cc1314610ad15781638da5cb5b14610aaa57816390b30e8814610a03578163918a4fd4146109a7578163977ec54d1461097a578163a14c241814610952578163a69744d6146108c0578163ab60636c14610898578163acb3c073146107fe578163b512d740146107e1578163b8275205146107b6578163be49457614610737578163c6c095e11461070f578163d5a586c8146106d3578163d6696d5614610631578163db2e21bc1461058c578163e00aca411461055c578163e0b6a1e3146104bc578163e302ebab1461046e578163e405c62714610406578163ea12bfec14610395578163ec4277ab1461036d578163f2fde38b146102de575063fca6682a146102b35780610010565b346102da575f3660031901126102da5760085490516001600160a01b039091168152602090f35b5f80fd5b82346102da5760203660031901126102da576001600160a01b038235818116939192908490036102da576103106123ff565b83156103575750505f54826bffffffffffffffffffffffff60a01b8216175f55167f8be0079c531659141344cd1fd0a4f28419497f9722a3daafe3b4186f6b6457e05f80a3005b905f6024925191631e4fbdf760e01b8352820152fd5b82346102da575f3660031901126102da5760025490516001600160a01b039091168152602090f35b346102da576103a336611d3e565b92906103ad6123ff565b6103b88484146121a2565b5f5b8381106103c357005b806104006103fa6103d760019488886121e0565b6103f26103e8868c8a9695966121e0565b9490923691611e95565b923691611e95565b9061279c565b016103ba565b9050346102da5760203660031901126102da5735906011548210156102da5761045761046a9260115f527f31ecc21a745e3968a04e9570e4425bc18fa8019c68028196b546d1669c200c6801611f41565b9051918291602083526020830190611da9565b0390f35b82346102da573660031901126102da578035906001600160401b0382116102da576104a26104b79161001c9336910161202c565b91906104ac6123ff565b602435923691611e95565b612551565b9050346102da5760203660031901126102da576001600160a01b03903581811692918382036102da577fe3dd854eb9d23c94680b3ec632b9072842365d9a702ab0df7da8bc398ee52c7d915f805160206128e88339815191529161051e6123ff565b60055485516670726f66696c6560c81b905294516001600160a01b039186168216815291166020820152604090a26001600160a01b03191617600555005b82346102da575f3660031901126102da5761046a9061057961225c565b9051918291602083526020830190611dce565b9050346102da575f3660031901126102da576105a66123ff565b47806105ae57005b5f808080937349bbefa1d94702c0e9a5eaddec7c3c5d3eb9086b5af13d1561062c573d6105da81611e7a565b906105e785519283611e59565b81525f60203d92013e5b156105f857005b6020606492519162461bcd60e51b8352820152600f60248201526e15da5d1a191c985dc819985a5b1959608a1b6044820152fd5b6105f1565b9050346102da5760203660031901126102da576001600160a01b03903581811692918382036102da577f0142c2a2f13c78e9b34ad89c5166c24d7308886a4868ee72d45d5f0d7d8f4d8a915f805160206128e8833981519152916106936123ff565b60065485516861726269747261676560b81b905294516001600160a01b039186168216815291166020820152604090a26001600160a01b03191617600655005b82346102da5761046a9061045761070060206106ee36611ecb565b81855193828580945193849201611d88565b8101600c815203019020611f41565b82346102da575f3660031901126102da5760095490516001600160a01b039091168152602090f35b82346102da575f3660031901126102da57600d5461075481612245565b9061076183519283611e59565b808252600d5f90815260205f805160206128c88339815191528185015b84841061079a5786516020808252819061046a90820189611dce565b60018381926107a885611f41565b81520192019301929061077e565b346102da5761001c6103f26103fa6107cd3661215c565b94916107da9391936123ff565b3691611e95565b82346102da575f3660031901126102da5761046a906105796122d1565b82346102da5760203660031901126102da576001600160a01b03823581811692918382036102da577f695543c3708653cda9d418b4ccd3be11368e40636c10c44b18cfe756b6d88b29915f805160206128e88339815191529161085f6123ff565b86548551630737761760e41b905294516001600160a01b039186168216815291166020820152604090a26001600160a01b031916179055005b82346102da575f3660031901126102da5760055490516001600160a01b039091168152602090f35b82346102da575f3660031901126102da576015546108dd81612245565b906108ea83519283611e59565b80825260155f90815260207f55f448fdea98c4d29eb340757ef0a66cd03dbb9538908a6a81d96026b71ec4758185015b8484106109365786516020808252819061046a90820189611dce565b600183819261094485611f41565b81520192019301929061091a565b82346102da575f3660031901126102da5760075490516001600160a01b039091168152602090f35b82346102da5760209060ff610992836106ee36611ecb565b8101600a815203019020541690519015158152f35b82346102da5761046a6109be60206106ee36611ecb565b81016014815203019020916109d283611f41565b926109df60018201611f41565b946109ec60028301611f41565b9060ff600384015416920154925195869586611fe3565b9050346102da5760203660031901126102da576001600160a01b03903581811692918382036102da577f176a176952da077410d31261e84ed8c14edd1b2af749df575908b495fb94da22915f805160206128e883398151915291610a656123ff565b60075485516d383ab639b2ac2b18a937baba32b960911b905294516001600160a01b039186168216815291166020820152604090a26001600160a01b03191617600755005b82346102da575f3660031901126102da575f5490516001600160a01b039091168152602090f35b9050346102da5760203660031901126102da5735906013548210156102da5761045761046a9260135f527f66de8ffda797e3de9c05e8fc57b3bf0ec28a930d40b0d285d93c06501cf6a09001611f41565b346102da57610b3036611d3e565b9291610b3a6123ff565b610b458482146121a2565b5f5b818110610b5057005b610b5b8183866121e0565b9190610b68828887612235565b3580151581036102da57610b83610b88926001953691611e95565b61266c565b01610b47565b82346102da5760203660031901126102da5781356001600160401b0381116102da576020610bc561046a94610be79336910161202c565b9190610bcf61237c565b508285519384928337810160128152030190206123a9565b9051918291602083526020830190612094565b82346102da575f3660031901126102da57905490516001600160a01b039091168152602090f35b346102da5761001c610b83610c3536612059565b9291906107da6123ff565b82346102da575f3660031901126102da5760035490516001600160a01b039091168152602090f35b82346102da57602090610c9082610c7e36611ecb565b81845193828580945193849201611d88565b8101600e815203019020549051908152f35b346102da575f3660031901126102da57610cba6123ff565b5f80546001600160a01b0319811682556001600160a01b03167f8be0079c531659141344cd1fd0a4f28419497f9722a3daafe3b4186f6b6457e08280a3005b82346102da575f3660031901126102da5760065490516001600160a01b039091168152602090f35b9050346102da5760203660031901126102da573590600b548210156102da5761045761046a92600b5f527f0175b7a638427703f0dbe7bb9bbf987a2551717b34e79f33b5b1008d1fa01db901611f41565b9050346102da5760203660031901126102da573590600d548210156102da5761045761046a92600d5f525f805160206128c883398151915201611f41565b9050346102da5760203660031901126102da576001600160a01b03903581811692918382036102da577fb17c9db522f5d95fec148aedc6097c0523c1b38b970cae664ac0e2d51c59e402915f805160206128e883398151915291610e126123ff565b60085485516d383ab639b2ac2b192937baba32b960911b905294516001600160a01b039186168216815291166020820152604090a26001600160a01b03191617600855005b9050346102da57610e8290610e8a610e92610e71366120ea565b9695909793929991946107da6123ff565b973691611e95565b933691611e95565b85516020818751610ea68183858c01611d88565b8101601481520301902092610ebb8454611f09565b15610f43575b92610f27610f3b93610f1260209794610f098a98610f007f1b2e2373dde7aa71fb1702fc5b39e4c6104af46e598f6c6597cd8ae635917c819c8861242a565b6001870161242a565b6002850161242a565b600383019060ff801983541691151516179055565b0191610f33835461235a565b809355612531565b9351908152a2005b601554600160401b811015610fea576001810180601555811015610fd757610f3b93610f1260209794610f098a9895610fc67f1b2e2373dde7aa71fb1702fc5b39e4c6104af46e598f6c6597cd8ae635917c819c610f279760155f527f55f448fdea98c4d29eb340757ef0a66cd03dbb9538908a6a81d96026b71ec4750161242a565b95989a505094975050935050610ec1565b603286634e487b7160e01b5f525260245ffd5b604186634e487b7160e01b5f525260245ffd5b82346102da5761046a9061045761101860206106ee36611ecb565b81016010815203019020611f41565b9050346102da5760203660031901126102da576001600160a01b03903581811692918382036102da577f56a5b4103fe3aa14eda8720b6d09f40d8dd54cf4846170c6d3de9a9647bb065e915f805160206128e8833981519152916110896123ff565b60095485516c3830b4b9b632bca937baba32b960991b905294516001600160a01b039186168216815291166020820152604090a26001600160a01b03191617600955005b9050346102da57610e8a906110f16110e43661215c565b95916107da9391936123ff565b9280519161111d8451936020818188019661110d81838a611d88565b8101601081520301902054611f09565b1580611210575b611181575b509261114760206111569361115b9651809381928851928391611d88565b8101601081520301902061242a565b612531565b7fcf26e27f31a8b3513c6fc8fbbdec6129294c95ed7a8fcd112accde0a1f55bc3c5f80a2005b60115490600160401b8210156111fd5760018201806011558210156111ea575060206111569361115b96936111df876111479560115f527f31ecc21a745e3968a04e9570e4425bc18fa8019c68028196b546d1669c200c680161242a565b939650935050611129565b603290634e487b7160e01b5f525260245ffd5b604190634e487b7160e01b5f525260245ffd5b5084511515611124565b82346102da575f3660031901126102da576112336122d1565b805161125661124182612245565b9161124e85519384611e59565b808352612245565b6020828101939091601f19013685375f5b8282518210156112b157906112956001926112828386612346565b51818a5193828580945193849201611d88565b8101600e815203019020546112aa8287612346565b5201611267565b5050939291816112ca8551968688978852870190611dce565b918583038287015251918281520192915f5b8281106112eb57505050500390f35b8351855286955093810193928101926001016112dc565b82346102da575f3660031901126102da5760015490516001600160a01b039091168152602090f35b9050346102da5760203660031901126102da573590600f548210156102da5761045761046a92600f5f527f8d1108e10bcb7c27dddfc02ed9d693a074039d026cf4ea4240b40f7d581ac80201611f41565b9050346102da57610e8290610e8a611395610e71366120ea565b855160208187516113a98183858c01611d88565b81016012815203019020926113be8454611f09565b15611403575b92610f27610f3b93610f1260209794610f098a98610f007f5324d4f0b093f69d6f6ffe47346b30e4147743eed843366bf0d70a70c4a85c699c8861242a565b601354600160401b811015610fea576001810180601355811015610fd757610f3b93610f1260209794610f098a98956114867f5324d4f0b093f69d6f6ffe47346b30e4147743eed843366bf0d70a70c4a85c699c610f279760135f527f66de8ffda797e3de9c05e8fc57b3bf0ec28a930d40b0d285d93c06501cf6a0900161242a565b95989a5050949750509350506113c4565b9050346102da5760203660031901126102da5735906015548210156102da5761045761046a9260155f527f55f448fdea98c4d29eb340757ef0a66cd03dbb9538908a6a81d96026b71ec47501611f41565b82346102da575f3660031901126102da57602090517349bbefa1d94702c0e9a5eaddec7c3c5d3eb9086b8152f35b9050346102da5760203660031901126102da576001600160a01b03903581811692918382036102da577fad27fea3c88f843ced65255b972dfd84f290a9497e8d5dd2e81cf40d2892dfca915f805160206128e8833981519152916115786123ff565b60035485516830b226b0b730b3b2b960b91b905294516001600160a01b039186168216815291166020820152604090a26001600160a01b03191617600355005b82346102da575f3660031901126102da5760609060018060a01b03806007541691816008541691600954169181519384526020840152820152f35b9050346102da5760207f1b2e2373dde7aa71fb1702fc5b39e4c6104af46e598f6c6597cd8ae635917c819161165f61162a36612059565b6116389492949391936123ff565b600388518587823787818781016014815203019020019060ff801983541691151516179055565b80865183858237858185810160148152030190200161167e815461235a565b905585518284823784818481016014815203019020015491818651928392833781015f81520390209351908152a2005b9050346102da5760203660031901126102da576001600160a01b03903581811692918382036102da577f3c07cf64e557e87460a7dd8eea9e33af00b1d82a4762093d7482f5102d1e87fc915f805160206128e8833981519152916117106123ff565b6002548551681cdd5c195c90da185d60ba1b905294516001600160a01b039186168216815291166020820152604090a26001600160a01b03191617600255005b82346102da5760203660031901126102da5781356001600160401b0381116102da57602061178761046a94610be79336910161202c565b919061179161237c565b508285519384928337810160148152030190206123a9565b9050346102da575f3660031901126102da57600154600254600354925460055485516001600160a01b039485168152928416602084015293831694820194909452928116606084015216608082015260a090f35b82346102da575f3660031901126102da5760135461181a81612245565b9061182783519283611e59565b80825260135f90815260207f66de8ffda797e3de9c05e8fc57b3bf0ec28a930d40b0d285d93c06501cf6a0908185015b8484106118735786516020808252819061046a90820189611dce565b600183819261188185611f41565b815201920193019290611857565b82346102da575f3660031901126102da576118a861225c565b80516118b661124182612245565b6020828101939091601f19013685375f5b828251821015611918579060ff6118f76001936118e48487612346565b51818b5193828580945193849201611d88565b8101600a815203019020541661190d8287612346565b9015159052016118c7565b5050939291816119318551968688978852870190611dce565b918583038287015251918281520192915f5b82811061195257505050500390f35b8351151585528695509381019392810192600101611943565b9050346102da5760207f5324d4f0b093f69d6f6ffe47346b30e4147743eed843366bf0d70a70c4a85c69916119d76119a236612059565b6119b09492949391936123ff565b600388518587823787818781016012815203019020019060ff801983541691151516179055565b8086518385823785818581016012815203019020016119f6815461235a565b905585518284823784818481016012815203019020015491818651928392833781015f81520390209351908152a2005b82346102da5761046a611a3d60206106ee36611ecb565b81016012815203019020916109d283611f41565b82346102da575f3660031901126102da57601154611a6e81612245565b90611a7b83519283611e59565b80825260115f90815260207f31ecc21a745e3968a04e9570e4425bc18fa8019c68028196b546d1669c200c688185015b848410611ac75786516020808252819061046a90820189611dce565b6001838192611ad585611f41565b815201920193019290611aab565b9050346102da5760203660031901126102da576001600160a01b03903581811692918382036102da577f764fc72cbe35ebe6340990f45f610c02f188a2a8c3b6025bc83e47db90523866915f805160206128e883398151915291611b456123ff565b6001548551661c1d5b5c119d5960ca1b905294516001600160a01b039186168216815291166020820152604090a26001600160a01b03191617600155005b82346102da575f3660031901126102da57600d5490611ba182612245565b91611bae82519384611e59565b808352602090818401600d5f525f805160206128c8833981519152835f925b848410611c9057878783825190611be382612245565b91611bf084519384611e59565b808352611bff601f1991612245565b01815f5b828110611c80575050505f5b8451811015611c5b5780611c3f61070084611c2c6001958a612346565b5181895193828580945193849201611d88565b611c498286612346565b52611c548185612346565b5001611c0f565b5061046a91611c738451958587968752860190611dce565b9184830390850152611dce565b6060828287010152018290611c03565b6001918291611c9e85611f41565b8152019201920191908490611bcd565b346102da57611cbc36611d3e565b611cc8939291936123ff565b611cd38183146121a2565b5f5b828110611cde57005b80611d086104b7611cf260019487896121e0565b9190611cff85888c612235565b35923691611e95565b01611cd5565b9181601f840112156102da578235916001600160401b0383116102da576020808501948460051b0101116102da57565b60406003198201126102da576001600160401b03916004358381116102da5782611d6a91600401611d0e565b939093926024359182116102da57611d8491600401611d0e565b9091565b5f5b838110611d995750505f910152565b8181015183820152602001611d8a565b90602091611dc281518092818552858086019101611d88565b601f01601f1916010190565b90808251908181526020809101926020808460051b8301019501935f915b848310611dfc5750505050505090565b9091929394958480611e1a600193601f198682030187528a51611da9565b9801930193019194939290611dec565b60a081019081106001600160401b03821117611e4557604052565b634e487b7160e01b5f52604160045260245ffd5b90601f801991011681019081106001600160401b03821117611e4557604052565b6001600160401b038111611e4557601f01601f191660200190565b929192611ea182611e7a565b91611eaf6040519384611e59565b8294818452818301116102da578281602093845f960137010152565b60206003198201126102da57600435906001600160401b0382116102da57806023830112156102da57816024611f0693600401359101611e95565b90565b90600182811c92168015611f37575b6020831014611f2357565b634e487b7160e01b5f52602260045260245ffd5b91607f1691611f18565b9060405191825f8254611f5381611f09565b908184526020946001916001811690815f14611fc15750600114611f83575b505050611f8192500383611e59565b565b5f90815285812095935091905b818310611fa9575050611f8193508201015f8080611f72565b85548884018501529485019487945091830191611f90565b92505050611f8194925060ff191682840152151560051b8201015f8080611f72565b9192612012608094612004612020949998979960a0875260a0870190611da9565b908582036020870152611da9565b908382036040850152611da9565b94151560608201520152565b9181601f840112156102da578235916001600160401b0383116102da57602083818601950101116102da57565b60406003198201126102da57600435906001600160401b0382116102da576120839160040161202c565b909160243580151581036102da5790565b906080806120d56120c36120b1865160a0875260a0870190611da9565b60208701518682036020880152611da9565b60408601518582036040870152611da9565b93606081015115156060850152015191015290565b9060806003198301126102da576001600160401b036004358181116102da57836121169160040161202c565b939093926024358381116102da57826121319160040161202c565b939093926044359182116102da5761214b9160040161202c565b909160643580151581036102da5790565b60406003198201126102da576001600160401b03916004358381116102da57826121889160040161202c565b939093926024359182116102da57611d849160040161202c565b156121a957565b60405162461bcd60e51b815260206004820152600f60248201526e098cadccee8d040dad2e6dac2e8c6d608b1b6044820152606490fd5b91908110156122215760051b81013590601e19813603018212156102da5701908135916001600160401b0383116102da5760200182360381136102da579190565b634e487b7160e01b5f52603260045260245ffd5b91908110156122215760051b0190565b6001600160401b038111611e455760051b60200190565b600b549061226982612245565b916122776040519384611e59565b808352600b5f90815260207f0175b7a638427703f0dbe7bb9bbf987a2551717b34e79f33b5b1008d1fa01db98186015b8484106122b5575050505050565b60018381926122c385611f41565b8152019201930192906122a7565b600f54906122de82612245565b916122ec6040519384611e59565b808352600f5f90815260207f8d1108e10bcb7c27dddfc02ed9d693a074039d026cf4ea4240b40f7d581ac8028186015b84841061232a575050505050565b600183819261233885611f41565b81520192019301929061231c565b80518210156122215760209160051b010190565b5f1981146123685760010190565b634e487b7160e01b5f52601160045260245ffd5b6040519061238982611e2a565b5f6080836060815260606020820152606060408201528260608201520152565b906040516123b681611e2a565b6080600482946123c581611f41565b84526123d360018201611f41565b60208501526123e460028201611f41565b604085015260ff600382015416151560608501520154910152565b5f546001600160a01b0316330361241257565b60405163118cdaa760e01b8152336004820152602490fd5b91909182516001600160401b038111611e45576124478254611f09565b601f81116124ec575b50602080601f831160011461248b5750819293945f92612480575b50508160011b915f199060031b1c1916179055565b015190505f8061246b565b90601f19831695845f5260205f20925f905b8882106124d4575050836001959697106124bc575b505050811b019055565b01515f1960f88460031b161c191690555f80806124b2565b8060018596829496860151815501950193019061249d565b825f5260205f20601f830160051c81019160208410612527575b601f0160051c01905b81811061251c5750612450565b5f815560010161250f565b9091508190612506565b61254990602060405192828480945193849201611d88565b810103902090565b816040518251906020818186019361256a818387611d88565b8101600e815203019020541580612663575b6125d9575b7f0d96cbc58bb1ae4159b01d220ad36ce21e79eeab5b63396611b4936b29d386fd926020926125bf846125cf94604051809381928751928391611d88565b8101600e81520301902055612531565b92604051908152a2565b600f549150600160401b821015611e45576001820180600f558210156122215782846125bf60206125cf946126567f0d96cbc58bb1ae4159b01d220ad36ce21e79eeab5b63396611b4936b29d386fd988398600f5f527f8d1108e10bcb7c27dddfc02ed9d693a074039d026cf4ea4240b40f7d581ac8020161242a565b9450505092509250612581565b5081151561257c565b8160405160ff83519160208181870194612687818388611d88565b8101600a81520301902054161580612795575b612707575b7f061dec86c58c6329f0bef98112858e27715d3813e00431fe174ee1fbb6c21898926111566020936126e0856126fb95604051809381928851928391611d88565b8101600a8152030190209060ff801983541691151516179055565b926040519015158152a2565b9050600b54600160401b811015611e45576001810180600b558110156122215782611156856126e0602080966127877f061dec86c58c6329f0bef98112858e27715d3813e00431fe174ee1fbb6c21898996126fb98600b5f527f0175b7a638427703f0dbe7bb9bbf987a2551717b34e79f33b5b1008d1fa01db90161242a565b95505050935050925061269f565b508161269a565b816040516127c8835191602081818701946127b8818388611d88565b8101600c81520301902054611f09565b15806128bd575b612840575b7f88a1cd91b26cdaffd2bc81479c20ace7612fb542c0c037b4fca09d9d3e0ade839261115661283b93612817602061282695604051809381928851928391611d88565b8101600c81520301902061242a565b92604051918291602083526020830190611da9565b0390a2565b9050600d54600160401b811015611e45576001810180600d55811015612221578261115685612817602061283b966128af7f88a1cd91b26cdaffd2bc81479c20ace7612fb542c0c037b4fca09d9d3e0ade839961282698600d5f525f805160206128c88339815191520161242a565b9550505093505092506127d4565b50815115156127cf56fed7b6990105719101dabeb77144f2a3385c8033acd3af97e9423a695e81ad1eb5a90fb318cef160851f542872dfce25dadafdfde152ba8cc05e3f0b882842e53ca26469706673582212206f3a60c08726b03399d5c90a253002733d471fe8ee48a3dcefccfd8183e2113d64736f6c634300081800331b2e2373dde7aa71fb1702fc5b39e4c6104af46e598f6c6597cd8ae635917c815324d4f0b093f69d6f6ffe47346b30e4147743eed843366bf0d70a70c4a85c6988a1cd91b26cdaffd2bc81479c20ace7612fb542c0c037b4fca09d9d3e0ade830d96cbc58bb1ae4159b01d220ad36ce21e79eeab5b63396611b4936b29d386fd","linkReferences":{}},"methodIdentifiers":{"TREASURY()":"2d2c5565","adManager()":"79f26a83","arbitrage()":"69c8d338","componentIds(uint256)":"8730cc13","components(string)":"0e58ba33","emergencyWithdraw()":"db2e21bc","featureFlagKeys(uint256)":"6683e0d2","featureFlags(string)":"977ec54d","getAllContracts()":"18d3ce96","getAllFeatureFlags()":"139c9ab7","getAllNumericConfigs()":"3d126515","getAllRouters()":"1faee24f","getAllStringConfigs()":"0aa1bd4f","getComponent(string)":"84d969bd","getComponentIds()":"176cfb63","getFeatureFlagKeys()":"e00aca41","getJsonConfigKeys()":"0b3e1ae6","getNumericConfigKeys()":"b512d740","getPage(string)":"19e6a548","getPageIds()":"a69744d6","getStringConfigKeys()":"be494576","jsonConfig(string)":"56a79bb2","jsonConfigKeys(uint256)":"e405c627","numericConfig(string)":"74364ef0","numericConfigKeys(uint256)":"367b4c89","owner()":"8da5cb5b","pageIds(uint256)":"2e6b8c5d","pages(string)":"918a4fd4","paisleyRouter()":"c6c095e1","profile()":"ab60636c","pulseXV1Router()":"a14c2418","pulseXV2Router()":"fca6682a","pumpFud()":"3d0c93a3","renounceOwnership()":"715018a6","setAdManager(address)":"2084b5f8","setArbitrage(address)":"d6696d56","setBatchFeatureFlags(string[],bool[])":"85a467da","setBatchNumericConfig(string[],uint256[])":"0694c2d5","setBatchStringConfig(string[],string[])":"ea12bfec","setComponent(string,string,string,bool)":"35785aa7","setComponentActive(string,bool)":"1307ea19","setFeatureFlag(string,bool)":"7d67bc97","setJsonConfig(string,string)":"40b760f2","setNumericConfig(string,uint256)":"e302ebab","setPage(string,string,string,bool)":"57f2b4c6","setPageActive(string,bool)":"1d5c4f5f","setPaisleyRouter(address)":"487dee33","setProfile(address)":"e0b6a1e3","setPulseXV1Router(address)":"90b30e88","setPulseXV2Router(address)":"5cd5a94a","setPumpFud(address)":"0afdb28b","setStringConfig(string,string)":"b8275205","setSuperChat(address)":"1a1df5b9","setSwap(address)":"acb3c073","stringConfig(string)":"d5a586c8","stringConfigKeys(uint256)":"63c3d800","superChat()":"ec4277ab","swap()":"8119c065","transferOwnership(address)":"f2fde38b"},"id":41}