{"abi":[{"type":"constructor","inputs":[{"name":"name_","type":"string","internalType":"string"},{"name":"symbol_","type":"string","internalType":"string"},{"name":"imageUri_","type":"string","internalType":"string"},{"name":"creator_","type":"address","internalType":"address"}],"stateMutability":"nonpayable"},{"type":"function","name":"allowance","inputs":[{"name":"owner","type":"address","internalType":"address"},{"name":"spender","type":"address","internalType":"address"}],"outputs":[{"name":"","type":"uint256","internalType":"uint256"}],"stateMutability":"view"},{"type":"function","name":"approve","inputs":[{"name":"spender","type":"address","internalType":"address"},{"name":"value","type":"uint256","internalType":"uint256"}],"outputs":[{"name":"","type":"bool","internalType":"bool"}],"stateMutability":"nonpayable"},{"type":"function","name":"balanceOf","inputs":[{"name":"account","type":"address","internalType":"address"}],"outputs":[{"name":"","type":"uint256","internalType":"uint256"}],"stateMutability":"view"},{"type":"function","name":"burn","inputs":[{"name":"from","type":"address","internalType":"address"},{"name":"amount","type":"uint256","internalType":"uint256"}],"outputs":[],"stateMutability":"nonpayable"},{"type":"function","name":"createdAt","inputs":[],"outputs":[{"name":"","type":"uint256","internalType":"uint256"}],"stateMutability":"view"},{"type":"function","name":"creator","inputs":[],"outputs":[{"name":"","type":"address","internalType":"address"}],"stateMutability":"view"},{"type":"function","name":"decimals","inputs":[],"outputs":[{"name":"","type":"uint8","internalType":"uint8"}],"stateMutability":"pure"},{"type":"function","name":"factory","inputs":[],"outputs":[{"name":"","type":"address","internalType":"address"}],"stateMutability":"view"},{"type":"function","name":"imageUri","inputs":[],"outputs":[{"name":"","type":"string","internalType":"string"}],"stateMutability":"view"},{"type":"function","name":"mint","inputs":[{"name":"to","type":"address","internalType":"address"},{"name":"amount","type":"uint256","internalType":"uint256"}],"outputs":[],"stateMutability":"nonpayable"},{"type":"function","name":"name","inputs":[],"outputs":[{"name":"","type":"string","internalType":"string"}],"stateMutability":"view"},{"type":"function","name":"symbol","inputs":[],"outputs":[{"name":"","type":"string","internalType":"string"}],"stateMutability":"view"},{"type":"function","name":"totalSupply","inputs":[],"outputs":[{"name":"","type":"uint256","internalType":"uint256"}],"stateMutability":"view"},{"type":"function","name":"transfer","inputs":[{"name":"to","type":"address","internalType":"address"},{"name":"value","type":"uint256","internalType":"uint256"}],"outputs":[{"name":"","type":"bool","internalType":"bool"}],"stateMutability":"nonpayable"},{"type":"function","name":"transferFrom","inputs":[{"name":"from","type":"address","internalType":"address"},{"name":"to","type":"address","internalType":"address"},{"name":"value","type":"uint256","internalType":"uint256"}],"outputs":[{"name":"","type":"bool","internalType":"bool"}],"stateMutability":"nonpayable"},{"type":"event","name":"Approval","inputs":[{"name":"owner","type":"address","indexed":true,"internalType":"address"},{"name":"spender","type":"address","indexed":true,"internalType":"address"},{"name":"value","type":"uint256","indexed":false,"internalType":"uint256"}],"anonymous":false},{"type":"event","name":"Transfer","inputs":[{"name":"from","type":"address","indexed":true,"internalType":"address"},{"name":"to","type":"address","indexed":true,"internalType":"address"},{"name":"value","type":"uint256","indexed":false,"internalType":"uint256"}],"anonymous":false},{"type":"error","name":"ERC20InsufficientAllowance","inputs":[{"name":"spender","type":"address","internalType":"address"},{"name":"allowance","type":"uint256","internalType":"uint256"},{"name":"needed","type":"uint256","internalType":"uint256"}]},{"type":"error","name":"ERC20InsufficientBalance","inputs":[{"name":"sender","type":"address","internalType":"address"},{"name":"balance","type":"uint256","internalType":"uint256"},{"name":"needed","type":"uint256","internalType":"uint256"}]},{"type":"error","name":"ERC20InvalidApprover","inputs":[{"name":"approver","type":"address","internalType":"address"}]},{"type":"error","name":"ERC20InvalidReceiver","inputs":[{"name":"receiver","type":"address","internalType":"address"}]},{"type":"error","name":"ERC20InvalidSender","inputs":[{"name":"sender","type":"address","internalType":"address"}]},{"type":"error","name":"ERC20InvalidSpender","inputs":[{"name":"spender","type":"address","internalType":"address"}]},{"type":"error","name":"OnlyFactory","inputs":[]}],"bytecode":{"object":"0x60e060405234620007225762001208803803806200001d8162000726565b928339810190608081830312620007225780516001600160401b039190828111620007225783620000509183016200074c565b602093848301518481116200072257816200006d9185016200074c565b90604084015185811162000722576060916200008b9186016200074c565b930151946001600160a01b038616860362000722578251958587116200063a576003948554946001988987811c9716801562000717575b858810146200070357601f96878111620006bb575b5080858882116001146200065a575f916200064e575b505f19828a1b1c1916908a1b1787555b8451928884116200063a5760049384548b81811c911680156200062f575b878210146200055257888111620005e7575b5080868982116001146200057c575f9162000570575b505f19828b1b1c1916908b1b1784555b3360805260a0528151888111620004765760059283548b81811c9116801562000565575b87821014620005525790818984931162000501575b50869089831160011462000495575f9262000489575b50505f19828a1b1c1916908a1b1782555b4260c05280519088821162000476576006548a81811c911680156200046b575b86821014620004585790818884931162000406575b508590888311600114620003a1575f9262000395575b50505f1982891b1c191690891b176006555b83519687116200038257600754918883811c9316801562000377575b848410146200036457508482116200031d575b505080928511600114620002b157509383949184925f95620002a5575b50501b925f19911b1c1916176007555b604051610a4b9081620007bd823960805181818161015f015281816101e80152610448015260a05181610899015260c051816101280152f35b015193505f806200025c565b92919084601f19811660075f52855f20955f905b89838310620003025750505010620002e8575b50505050811b016007556200026c565b01519060f8845f19921b161c191690555f808080620002d8565b858701518955909701969485019488935090810190620002c5565b60075f52825f209085808901821c830193858a106200035a575b01901c019087905b8281106200034e57506200023f565b5f81550187906200033f565b9350829362000337565b602290634e487b7160e01b5f525260245ffd5b92607f16926200022c565b604182634e487b7160e01b5f525260245ffd5b015190505f80620001fe565b908b9350601f1983169160065f52875f20925f5b89828210620003ef5750508411620003d7575b505050811b0160065562000210565b01515f19838b1b60f8161c191690555f8080620003c8565b8385015186558f97909501949384019301620003b5565b90915060065f52855f2088808501861c8201928886106200044e575b918d918695949301871c01915b8281106200043f575050620001e8565b5f81558594508d91016200042f565b9250819262000422565b602285634e487b7160e01b5f525260245ffd5b90607f1690620001d3565b604184634e487b7160e01b5f525260245ffd5b015190505f80620001a2565b908c9350601f19831691865f52885f20925f5b8a828210620004e15750508411620004c9575b505050811b018255620001b3565b01515f19838c1b60f8161c191690555f8080620004bb565b91929395968291958786015181550195019301908e9594939291620004a8565b909150845f52865f2089808501871c82019289861062000548575b918e918695949301881c01915b828110620005395750506200018c565b5f81558594508e910162000529565b925081926200051c565b602286634e487b7160e01b5f525260245ffd5b90607f169062000177565b90508701515f62000143565b8c9250601f19821690875f52885f20915f5b8a8c838310620005c8575050508311620005b0575b5050811b01845562000153565b8901515f19838d1b60f8161c191690555f80620005a3565b94848294959798929396015181550194019201908e949392916200058e565b855f52865f208980840160051c82019289851062000625575b0160051c01908c905b828110620006195750506200012d565b5f8155018c9062000609565b9250819262000600565b90607f16906200011b565b634e487b7160e01b5f52604160045260245ffd5b90508201515f620000ed565b8b9250601f198216908a5f52875f20915f5b89828210620006a457505083116200068c575b5050811b018755620000fd565b8401515f19838c1b60f8161c191690555f806200067f565b8388015185558f969094019392830192016200066c565b885f52855f208880840160051c820192888510620006f9575b0160051c01908b905b828110620006ed575050620000d7565b5f8155018b90620006dd565b92508192620006d4565b634e487b7160e01b5f52602260045260245ffd5b96607f1696620000c2565b5f80fd5b6040519190601f01601f191682016001600160401b038111838210176200063a57604052565b919080601f84011215620007225782516001600160401b0381116200063a5760209062000782601f8201601f1916830162000726565b9281845282828701011162000722575f5b818110620007a85750825f9394955001015290565b85810183015184820184015282016200079356fe6080604090808252600480361015610015575f80fd5b5f3560e01c91826302d05d3f146108875750816306fdde03146107ac578163095ea7b3146107045781630bf82da41461062957816318160ddd1461060b57816323b872dd14610519578163313ce567146104fe57816340c10f191461041f57816370a08231146103e957816395d89b41146102c75781639dc29fac146101be57508063a9059cbb1461018e578063c45a01551461014b578063cf09e0d0146101115763dd62ed3e146100c5575f80fd5b3461010d578060031936011261010d576020906100e061090f565b6100e8610925565b9060018060a01b038091165f5260018452825f2091165f528252805f20549051908152f35b5f80fd5b503461010d575f36600319011261010d57602090517f00000000000000000000000000000000000000000000000000000000000000008152f35b503461010d575f36600319011261010d57517f00000000000000000000000000000000000000000000000000000000000000006001600160a01b03168152602090f35b503461010d578060031936011261010d576020906101b76101ad61090f565b602435903361093b565b5160018152f35b823461010d578060031936011261010d576101d761090f565b602435929091906001600160a01b037f0000000000000000000000000000000000000000000000000000000000000000811633036102b85783169283156102a257835f525f602052825f20549185831061026e575f857fddf252ad1be2c89b69c2b068fc378daa952ba7f163c4a11628f55a4df523b3ef6020898881898688528785520381872055816002540360025551908152a3005b835163391434e360e21b81526001600160a01b03909216908201908152602081018390526040810186905281906060010390fd5b505f6024925191634b637e8f60e11b8352820152fd5b509051630636a15760e11b8152fd5b823461010d575f36600319011261010d578051905f60075460018160011c90600183169283156103df575b60209384841081146103cc578388529081156103b0575060011461035a575b505050829003601f01601f191682019267ffffffffffffffff84118385101761034757508291826103439252826108c8565b0390f35b604190634e487b7160e01b5f525260245ffd5b60075f908152929350837fa66cc928b5edb82af9bd49922954155ab7b0942694bea4ce44661d9a8736c6885b83851061039c5750505050830101848080610311565b805488860183015293019284908201610386565b60ff1916878501525050151560051b8401019050848080610311565b602289634e487b7160e01b5f525260245ffd5b91607f16916102f2565b823461010d57602036600319011261010d576020906001600160a01b0361040e61090f565b165f525f8252805f20549051908152f35b823461010d578060031936011261010d5761043861090f565b60243591906001600160a01b03907f0000000000000000000000000000000000000000000000000000000000000000821633036104ee57169283156104d957600254908382018092116104c657505f927fddf252ad1be2c89b69c2b068fc378daa952ba7f163c4a11628f55a4df523b3ef9260209260025585855284835280852082815401905551908152a3005b601190634e487b7160e01b5f525260245ffd5b5f602492519163ec442f0560e01b8352820152fd5b8251630636a15760e11b81528590fd5b823461010d575f36600319011261010d576020905160128152f35b90503461010d57606036600319011261010d5761053461090f565b61053c610925565b906044359260018060a01b038216805f526001602052855f20335f52602052855f2054915f198310610577575b6020876101b788888861093b565b8583106105df5781156105c95733156105b357505f908152600160209081528682203383528152908690209185900390915582906101b7610569565b6024905f885191634a1406b160e11b8352820152fd5b6024905f88519163e602df0560e01b8352820152fd5b8651637dc7a0d960e11b8152339181019182526020820193909352604081018690528291506060010390fd5b823461010d575f36600319011261010d576020906002549051908152f35b823461010d575f36600319011261010d578051905f60055460018160011c90600183169283156106fa575b60209384841081146103cc578388529081156103b057506001146106a457505050829003601f01601f191682019267ffffffffffffffff84118385101761034757508291826103439252826108c8565b60055f908152929350837f036b6384b5eca791c62761152d0c79bb0604c104a5fb6f4eb0703f3154bb3db05b8385106106e65750505050830101848080610311565b8054888601830152930192849082016106d0565b91607f1691610654565b823461010d578060031936011261010d5761071d61090f565b602435903315610796576001600160a01b03169081156107805760209350335f5260018452825f20825f52845280835f205582519081527f8c5be1e5ebec7d5bd14f71427d1e84f3dd0314c0f7b2291e5b200ac8c7c3b925843392a35160018152f35b8251634a1406b160e11b81525f81860152602490fd5b825163e602df0560e01b81525f81860152602490fd5b823461010d575f36600319011261010d578051905f60065460018160011c906001831692831561087d575b60209384841081146103cc578388529081156103b0575060011461082757505050829003601f01601f191682019267ffffffffffffffff84118385101761034757508291826103439252826108c8565b60065f908152929350837ff652222313e28459528d920b65115c16c04f3efc82aaedc97be59f3f377c0d3f5b8385106108695750505050830101848080610311565b805488860183015293019284908201610853565b91607f16916107d7565b3461010d575f36600319011261010d577f00000000000000000000000000000000000000000000000000000000000000006001600160a01b03168152602090f35b602080825282518183018190529093925f5b8281106108fb57505060409293505f838284010152601f8019910116010190565b8181018601518482016040015285016108da565b600435906001600160a01b038216820361010d57565b602435906001600160a01b038216820361010d57565b916001600160a01b038084169283156109fd57169283156109e557825f525f60205260405f2054908282106109b35750817fddf252ad1be2c89b69c2b068fc378daa952ba7f163c4a11628f55a4df523b3ef92602092855f525f84520360405f2055845f5260405f20818154019055604051908152a3565b60405163391434e360e21b81526001600160a01b03919091166004820152602481019190915260448101829052606490fd5b60405163ec442f0560e01b81525f6004820152602490fd5b604051634b637e8f60e11b81525f6004820152602490fdfea2646970667358221220651555d6067d4d1611616e2df992710b20b7b4034946fef89b317f8d47f0b5e664736f6c63430008180033","linkReferences":{}},"methodIdentifiers":{"allowance(address,address)":"dd62ed3e","approve(address,uint256)":"095ea7b3","balanceOf(address)":"70a08231","burn(address,uint256)":"9dc29fac","createdAt()":"cf09e0d0","creator()":"02d05d3f","decimals()":"313ce567","factory()":"c45a0155","imageUri()":"0bf82da4","mint(address,uint256)":"40c10f19","name()":"06fdde03","symbol()":"95d89b41","totalSupply()":"18160ddd","transfer(address,uint256)":"a9059cbb","transferFrom(address,address,uint256)":"23b872dd"},"id":46}