{"abi":[{"type":"constructor","inputs":[{"name":"_pumpFud","type":"address","internalType":"address"}],"stateMutability":"nonpayable"},{"type":"receive","stateMutability":"payable"},{"type":"function","name":"MAX_FEE_BPS","inputs":[],"outputs":[{"name":"","type":"uint256","internalType":"uint256"}],"stateMutability":"view"},{"type":"function","name":"TREASURY","inputs":[],"outputs":[{"name":"","type":"address","internalType":"address"}],"stateMutability":"view"},{"type":"function","name":"WPLS","inputs":[],"outputs":[{"name":"","type":"address","internalType":"address"}],"stateMutability":"view"},{"type":"function","name":"cancelPosition","inputs":[{"name":"positionId","type":"uint256","internalType":"uint256"}],"outputs":[],"stateMutability":"nonpayable"},{"type":"function","name":"createPosition","inputs":[{"name":"tokenIn","type":"address","internalType":"address"},{"name":"tokenOut","type":"address","internalType":"address"},{"name":"amountIn","type":"uint256","internalType":"uint256"},{"name":"minAmountOut","type":"uint256","internalType":"uint256"},{"name":"duration","type":"uint256","internalType":"uint256"}],"outputs":[{"name":"positionId","type":"uint256","internalType":"uint256"}],"stateMutability":"payable"},{"type":"function","name":"emergencyWithdraw","inputs":[{"name":"token","type":"address","internalType":"address"},{"name":"amount","type":"uint256","internalType":"uint256"}],"outputs":[],"stateMutability":"nonpayable"},{"type":"function","name":"fillPosition","inputs":[{"name":"positionId","type":"uint256","internalType":"uint256"}],"outputs":[],"stateMutability":"nonpayable"},{"type":"function","name":"getActivePositions","inputs":[{"name":"user","type":"address","internalType":"address"}],"outputs":[{"name":"","type":"tuple[]","internalType":"struct PumpFudSwap.Position[]","components":[{"name":"id","type":"uint256","internalType":"uint256"},{"name":"owner","type":"address","internalType":"address"},{"name":"tokenIn","type":"address","internalType":"address"},{"name":"tokenOut","type":"address","internalType":"address"},{"name":"amountIn","type":"uint256","internalType":"uint256"},{"name":"minAmountOut","type":"uint256","internalType":"uint256"},{"name":"createdAt","type":"uint256","internalType":"uint256"},{"name":"expiresAt","type":"uint256","internalType":"uint256"},{"name":"isActive","type":"bool","internalType":"bool"},{"name":"isFilled","type":"bool","internalType":"bool"}]}],"stateMutability":"view"},{"type":"function","name":"getPosition","inputs":[{"name":"positionId","type":"uint256","internalType":"uint256"}],"outputs":[{"name":"","type":"tuple","internalType":"struct PumpFudSwap.Position","components":[{"name":"id","type":"uint256","internalType":"uint256"},{"name":"owner","type":"address","internalType":"address"},{"name":"tokenIn","type":"address","internalType":"address"},{"name":"tokenOut","type":"address","internalType":"address"},{"name":"amountIn","type":"uint256","internalType":"uint256"},{"name":"minAmountOut","type":"uint256","internalType":"uint256"},{"name":"createdAt","type":"uint256","internalType":"uint256"},{"name":"expiresAt","type":"uint256","internalType":"uint256"},{"name":"isActive","type":"bool","internalType":"bool"},{"name":"isFilled","type":"bool","internalType":"bool"}]}],"stateMutability":"view"},{"type":"function","name":"getQuote","inputs":[{"name":"tokenIn","type":"address","internalType":"address"},{"name":"tokenOut","type":"address","internalType":"address"},{"name":"amountIn","type":"uint256","internalType":"uint256"}],"outputs":[{"name":"amountOut","type":"uint256","internalType":"uint256"},{"name":"bestRoute","type":"string","internalType":"string"}],"stateMutability":"view"},{"type":"function","name":"getUserPositions","inputs":[{"name":"user","type":"address","internalType":"address"}],"outputs":[{"name":"","type":"uint256[]","internalType":"uint256[]"}],"stateMutability":"view"},{"type":"function","name":"isPositionFillable","inputs":[{"name":"positionId","type":"uint256","internalType":"uint256"}],"outputs":[{"name":"fillable","type":"bool","internalType":"bool"},{"name":"currentQuote","type":"uint256","internalType":"uint256"}],"stateMutability":"view"},{"type":"function","name":"owner","inputs":[],"outputs":[{"name":"","type":"address","internalType":"address"}],"stateMutability":"view"},{"type":"function","name":"paisleyRouter","inputs":[],"outputs":[{"name":"","type":"address","internalType":"address"}],"stateMutability":"view"},{"type":"function","name":"positionCount","inputs":[],"outputs":[{"name":"","type":"uint256","internalType":"uint256"}],"stateMutability":"view"},{"type":"function","name":"positions","inputs":[{"name":"","type":"uint256","internalType":"uint256"}],"outputs":[{"name":"id","type":"uint256","internalType":"uint256"},{"name":"owner","type":"address","internalType":"address"},{"name":"tokenIn","type":"address","internalType":"address"},{"name":"tokenOut","type":"address","internalType":"address"},{"name":"amountIn","type":"uint256","internalType":"uint256"},{"name":"minAmountOut","type":"uint256","internalType":"uint256"},{"name":"createdAt","type":"uint256","internalType":"uint256"},{"name":"expiresAt","type":"uint256","internalType":"uint256"},{"name":"isActive","type":"bool","internalType":"bool"},{"name":"isFilled","type":"bool","internalType":"bool"}],"stateMutability":"view"},{"type":"function","name":"pulseXV1Router","inputs":[],"outputs":[{"name":"","type":"address","internalType":"address"}],"stateMutability":"view"},{"type":"function","name":"pulseXV2Router","inputs":[],"outputs":[{"name":"","type":"address","internalType":"address"}],"stateMutability":"view"},{"type":"function","name":"pumpFud","inputs":[],"outputs":[{"name":"","type":"address","internalType":"contract IPumpFud"}],"stateMutability":"view"},{"type":"function","name":"renounceOwnership","inputs":[],"outputs":[],"stateMutability":"nonpayable"},{"type":"function","name":"setPaisleyRouter","inputs":[{"name":"_router","type":"address","internalType":"address"}],"outputs":[],"stateMutability":"nonpayable"},{"type":"function","name":"setPulseXV1Router","inputs":[{"name":"_router","type":"address","internalType":"address"}],"outputs":[],"stateMutability":"nonpayable"},{"type":"function","name":"setPulseXV2Router","inputs":[{"name":"_router","type":"address","internalType":"address"}],"outputs":[],"stateMutability":"nonpayable"},{"type":"function","name":"setPumpFud","inputs":[{"name":"_pumpFud","type":"address","internalType":"address"}],"outputs":[],"stateMutability":"nonpayable"},{"type":"function","name":"setSwapFee","inputs":[{"name":"_feeBps","type":"uint256","internalType":"uint256"}],"outputs":[],"stateMutability":"nonpayable"},{"type":"function","name":"swap","inputs":[{"name":"tokenIn","type":"address","internalType":"address"},{"name":"tokenOut","type":"address","internalType":"address"},{"name":"amountIn","type":"uint256","internalType":"uint256"},{"name":"minAmountOut","type":"uint256","internalType":"uint256"}],"outputs":[{"name":"amountOut","type":"uint256","internalType":"uint256"}],"stateMutability":"payable"},{"type":"function","name":"swapFeeBps","inputs":[],"outputs":[{"name":"","type":"uint256","internalType":"uint256"}],"stateMutability":"view"},{"type":"function","name":"totalFeesCollected","inputs":[],"outputs":[{"name":"","type":"uint256","internalType":"uint256"}],"stateMutability":"view"},{"type":"function","name":"totalVolumeSwapped","inputs":[],"outputs":[{"name":"","type":"uint256","internalType":"uint256"}],"stateMutability":"view"},{"type":"function","name":"transferOwnership","inputs":[{"name":"newOwner","type":"address","internalType":"address"}],"outputs":[],"stateMutability":"nonpayable"},{"type":"function","name":"userPositions","inputs":[{"name":"","type":"address","internalType":"address"},{"name":"","type":"uint256","internalType":"uint256"}],"outputs":[{"name":"","type":"uint256","internalType":"uint256"}],"stateMutability":"view"},{"type":"event","name":"FeeUpdated","inputs":[{"name":"oldFee","type":"uint256","indexed":false,"internalType":"uint256"},{"name":"newFee","type":"uint256","indexed":false,"internalType":"uint256"}],"anonymous":false},{"type":"event","name":"OwnershipTransferred","inputs":[{"name":"previousOwner","type":"address","indexed":true,"internalType":"address"},{"name":"newOwner","type":"address","indexed":true,"internalType":"address"}],"anonymous":false},{"type":"event","name":"PositionCancelled","inputs":[{"name":"positionId","type":"uint256","indexed":true,"internalType":"uint256"}],"anonymous":false},{"type":"event","name":"PositionCreated","inputs":[{"name":"positionId","type":"uint256","indexed":true,"internalType":"uint256"},{"name":"owner","type":"address","indexed":true,"internalType":"address"},{"name":"tokenIn","type":"address","indexed":false,"internalType":"address"},{"name":"tokenOut","type":"address","indexed":false,"internalType":"address"},{"name":"amountIn","type":"uint256","indexed":false,"internalType":"uint256"},{"name":"minAmountOut","type":"uint256","indexed":false,"internalType":"uint256"}],"anonymous":false},{"type":"event","name":"PositionFilled","inputs":[{"name":"positionId","type":"uint256","indexed":true,"internalType":"uint256"},{"name":"amountOut","type":"uint256","indexed":false,"internalType":"uint256"}],"anonymous":false},{"type":"event","name":"Swapped","inputs":[{"name":"user","type":"address","indexed":true,"internalType":"address"},{"name":"tokenIn","type":"address","indexed":true,"internalType":"address"},{"name":"tokenOut","type":"address","indexed":true,"internalType":"address"},{"name":"amountIn","type":"uint256","indexed":false,"internalType":"uint256"},{"name":"amountOut","type":"uint256","indexed":false,"internalType":"uint256"},{"name":"route","type":"string","indexed":false,"internalType":"string"}],"anonymous":false},{"type":"error","name":"FeeTooHigh","inputs":[]},{"type":"error","name":"InsufficientOutput","inputs":[]},{"type":"error","name":"InvalidAmount","inputs":[]},{"type":"error","name":"InvalidToken","inputs":[]},{"type":"error","name":"NotPositionOwner","inputs":[]},{"type":"error","name":"OwnableInvalidOwner","inputs":[{"name":"owner","type":"address","internalType":"address"}]},{"type":"error","name":"OwnableUnauthorizedAccount","inputs":[{"name":"account","type":"address","internalType":"address"}]},{"type":"error","name":"PositionExpired","inputs":[]},{"type":"error","name":"PositionNotActive","inputs":[]},{"type":"error","name":"PositionNotFound","inputs":[]},{"type":"error","name":"ReentrancyGuardReentrantCall","inputs":[]},{"type":"error","name":"SafeERC20FailedOperation","inputs":[{"name":"token","type":"address","internalType":"address"}]},{"type":"error","name":"SwapFailed","inputs":[]}],"bytecode":{"object":"0x60803461012957601f6200274838819003918201601f19168301916001600160401b0383118484101761012d5780849260209460405283398101031261012957516001600160a01b0390818116908190036101295760017f9b779b17422d0df92223018b32b4d1fa46e071723d6817e2486d003becc55f00553315610111575f5460018060a01b03199033828216175f55604051933391167f8be0079c531659141344cd1fd0a4f28419497f9722a3daafe3b4186f6b6457e05f80a37398bf93ebf5c380c0e6ae8e192a7e2ae08edacc0281600154161760015573165c3410fc91ef562c50559f7d2289febed552d9816002541617600255603260055560045416176004556126069081620001428239f35b604051631e4fbdf760e01b81525f6004820152602490fd5b5f80fd5b634e487b7160e01b5f52604160045260245ffdfe6040608081526004908136101561001f575b5050361561001d575f80fd5b005b60e05f3560e01c9081630afdb28b146111cf5781632a6bc2dd146111255781632d2c5565146110f75781632d7fa5a014610f3d5781632ffdaf8914610f1f57816334e1990714610eb35781633d0c93a314610e8b578163487dee3314610e485781635cd5a94a14610e055781635e1b4d9914610dae57816360c6d8ae14610d90578163715018a614610d3957816389bcdea314610d0e5781638da5cb5b14610ce757816390b30e8814610ca457816395ccea6714610c0257816399fbab8814610b62578163a14c241814610b3a578163aec774ba14610919578163b4e9e65c146106cb57508063c515ee2314610665578063c6c095e11461063d578063cd4e9ffa14610509578063d55be8c6146104ed578063e7702d05146104cf578063eb02c30114610417578063ef8ef56f146103e9578063f2fde38b1461035c578063fb127e7e1461033e578063fca6682a146103165763fe029156036100115760803660031901126103125761019061120e565b90610199611224565b606435926044356101a861164e565b80928115610302576001600160a01b0383811680159590939192919086156102e9575034106102d95786976101fc34998a965b846101f66127106101ee6005548c6113a6565b04809a6113cd565b91611b68565b509788106102cb57509160209793916102469593168781155f146102bb5761023591505f80808093335af161022f6113f6565b50611425565b81610260575b505050600954611583565b60095560015f805160206125b18339815191525551908152f35b816102a2935f146102ad5761029a91505f808080937349bbefa1d94702c0e9a5eaddec7c3c5d3eb9086b5af16102946113f6565b50611467565b600a54611583565b600a555f808061023b565b6102b69161219b565b61029a565b6102c6913390612225565b610235565b865163bb2875c360e01b8152fd5b855163162908e360e11b81528890fd5b9890888a966102fd6101fc9330338a6122a3565b6101db565b845163162908e360e11b81528790fd5b5f80fd5b5034610312575f3660031901126103125760025490516001600160a01b039091168152602090f35b5034610312575f366003190112610312576020906009549051908152f35b5090346103125760203660031901126103125761037761120e565b90610380611623565b6001600160a01b039182169283156103d35750505f54826bffffffffffffffffffffffff60a01b8216175f55167f8be0079c531659141344cd1fd0a4f28419497f9722a3daafe3b4186f6b6457e05f80a3005b905f6024925191631e4fbdf760e01b8352820152fd5b5034610312575f366003190112610312576020905173a1077a294dde1b09bb078844df40758a5d0f9a278152f35b509034610312576020366003190112610312576104cd610140926104396115d9565b5082355f52600760205260ff6008825f208351956104568761131b565b8154875260018201546001600160a01b039081166020890152600283015481168689015260038301541660608801528101546080870152600581015460a0870152600681015460c0870152600781015460e08701520154818116151561010086015260081c16151561012084015251918290611263565bf35b5034610312575f366003190112610312576020906006549051908152f35b5034610312575f366003190112610312576020905161012c8152f35b5090346103125760203660031901126103125780359161052761164e565b825f526007602052805f2080541561062f5760018101546001600160a01b0390811633036106205760088201805460ff8116156106105760ff19169055600282015416806105fa57505f80808581940154335af16105836113f6565b50156105c35750505b7fee53664e9f50aa90922dc3cdd811255c96b0497e3074ad02ca9f85ef609d9ad45f80a260015f805160206125b183398151915255005b906020606492519162461bcd60e51b83528201526011602482015270141314c81c99599d5b990819985a5b1959607a1b6044820152fd5b91509161060b920154903390612225565b61058c565b845163a8a168bf60e01b81528690fd5b5050516370d645e360e01b8152fd5b5051636ec9be1160e01b8152fd5b5034610312575f3660031901126103125760035490516001600160a01b039091168152602090f35b5034610312576060366003190112610312576106c76106af61068561120e565b61068d611224565b6106a96044356127106106a2600554836113a6565b04906113cd565b916118a0565b839291925193849384528060208501528301906112f6565b0390f35b839150346103125760209182600319360112610312576001600160a01b0392836106f361120e565b165f5260089160088252855f209086518083858295549384815201905f52855f20925f5b878282106109035750505061072e92500383611384565b5f945f5b83518110156107765761074581856115ad565b515f526007855260ff868a5f20015416610762575b600101610732565b9561076e600191611575565b96905061075a565b5093959294909461079e610789836115c1565b926107968a519485611384565b8084526115c1565b601f1901815f5b8281106108ed575050505f945f5b84518110156108a0576107c681866115ad565b515f526007808452898b60ff928b8484845f200154166107ee575b50505050506001016107b3565b928a926108959592879d956108056001998e6115ad565b515f52818b52825f209280519661081b8861131b565b84548852808b860154168d890152600285015416908701528d60038401541660608701528201546080860152600582015460a0860152600682015460c086015281015488850152015481811615156101008401528d1c16151561012082015261088482886115ad565b5261088f81876115ad565b50611575565b9690898b8d8b6107e1565b50509087908151918380840191818552835180935284019201935f5b8281106108c95784840385f35b90919282610140826108de6001948a51611263565b019601910194929190946108bc565b6108f56115d9565b8282870101520182906107a5565b8554845260019586019588955093019201610717565b505060a03660031901126103125761092f61120e565b90610938611224565b9160643560443561094761164e565b8015610b2a576001600160a01b03928316928484610b1257508134106103025760015f600887935b61097a600654611575565b998a6006558a888d8961098f60843542611583565b948d8b519761099d8961131b565b86895260208901913383528d8a019081528160608b0194169d8e855260808b0195865260a08b0197885260c08b0198428a5260e08c019a8b526101008c019e8f526101208c019d8e525f5260076020525f2099518a558160018b01935116926bffffffffffffffffffffffff60a01b93848254161790558160028b01915116838254161790556003890192511690825416179055519085015551600584015551600683015551600782015501915115159060ff61ff0084549251151560081b1692169061ffff191617179055335f526008602052845f2080549768010000000000000000891015610aff575087610a9b91600160209a01815561123a565b81549060031b9088821b915f19901b1916179055845193845286840152838301526060820152827f0663e2bdfa90233bb7466abd39c8db40e763bea89eea11e2ddcd8da4916b419460803393a360015f805160206125b18339815191525551908152f35b604190634e487b7160e01b5f525260245ffd5b905f6008600192610b258630338b6122a3565b61096f565b835163162908e360e11b81528690fd5b8234610312575f3660031901126103125760015490516001600160a01b039091168152602090f35b5050346103125760203660031901126103125760ff8261014093355f526007602052825f2080549360018060a01b03806001840154169381600285015416916003850154169084015490600585015492600686015494600860078801549701549781519a8b5260208b01528901526060880152608087015260a086015260c085015260e0840152818116151561010084015260081c161515610120820152f35b828434610312578160031936011261031257610c1c61120e565b60243590610c28611623565b6001600160a01b031680610c9757505f808080937349bbefa1d94702c0e9a5eaddec7c3c5d3eb9086b5af1610c5b6113f6565b5015610c6357005b6020606492519162461bcd60e51b8352820152600f60248201526e15da5d1a191c985dc819985a5b1959608a1b6044820152fd5b90915061001d925061219b565b3461031257602036600319011261031257610cbd61120e565b610cc5611623565b600180546001600160a01b0319166001600160a01b0392909216919091179055005b8234610312575f366003190112610312575f5490516001600160a01b039091168152602090f35b82843461031257602036600319011261031257610d2b90356114a9565b825191151582526020820152f35b34610312575f36600319011261031257610d51611623565b5f80546001600160a01b0319811682556001600160a01b03167f8be0079c531659141344cd1fd0a4f28419497f9722a3daafe3b4186f6b6457e08280a3005b8234610312575f36600319011261031257602090600a549051908152f35b8234610312578060031936011261031257610dc761120e565b6001600160a01b03165f9081526008602052819020805460243592919083101561031257602092610df79161123a565b91905490519160031b1c8152f35b3461031257602036600319011261031257610e1e61120e565b610e26611623565b600280546001600160a01b0319166001600160a01b0392909216919091179055005b3461031257602036600319011261031257610e6161120e565b610e69611623565b600380546001600160a01b0319166001600160a01b0392909216919091179055005b505034610312575f36600319011261031257905490516001600160a01b039091168152602090f35b50503461031257602036600319011261031257813591610ed1611623565b61012c8311610f1157507f528d9479e9f9889a87a3c30c7f7ba537e5e59c4c85a37733b16e57c62df61302906005548151908152836020820152a1600555005b905163cd4e616760e01b8152fd5b8234610312575f366003190112610312576020906005549051908152f35b82843461031257602036600319011261031257803591610f5b61164e565b825f526007602052805f20918254156110e957600883019060ff825416156110db57600784015442116110cd576002840160018060a01b03948582541692600382019087825416948184015495610fb38782846118a0565b509260058601548094106110bf5750928961100e8199979460209b9997947f4d4ea37c162af1a1af8a77d58d8274bbfb527efd4a837c47ed41f5c8f86d387b9d976101f66127106110066005548d6113a6565b04809b6113cd565b50988992541680155f146110aa57505f80809381936001611036970154165af161022f6113f6565b82611064575b50505061010061ffff1982541617905551908152a260015f805160206125b183398151915255005b54168061109b57505f808080611093947349bbefa1d94702c0e9a5eaddec7c3c5d3eb9086b5af16102946113f6565b86808061103c565b906110a59161219b565b611093565b9060016110ba9401541690612225565b611036565b895163bb2875c360e01b8152fd5b82516315ff94d360e11b8152fd5b825163a8a168bf60e01b8152fd5b9051636ec9be1160e01b8152fd5b8234610312575f36600319011261031257602090517349bbefa1d94702c0e9a5eaddec7c3c5d3eb9086b8152f35b82346103125760208060031936011261031257906001600160a01b0361114961120e565b165f5260088252805f208151928381835491828152019081935f52825f20905f5b8181106111bb5750505084611180910385611384565b825181815293518185018190528493840192915f5b8281106111a457505050500390f35b835185528695509381019392810192600101611195565b82548452928401926001928301920161116a565b8334610312576020366003190112610312576111e961120e565b6111f1611623565b81546001600160a01b0319166001600160a01b0391909116179055005b600435906001600160a01b038216820361031257565b602435906001600160a01b038216820361031257565b805482101561124f575f5260205f2001905f90565b634e487b7160e01b5f52603260045260245ffd5b80518252602081015160018060a01b03809116602084015280604083015116604084015260608201511660608301526080810151608083015260a081015160a083015260c081015160c083015260e081015160e083015261010080820151151590830152610120809101511515910152565b5f5b8381106112e65750505f910152565b81810151838201526020016112d7565b9060209161130f815180928185528580860191016112d5565b601f01601f1916010190565b610140810190811067ffffffffffffffff82111761133857604052565b634e487b7160e01b5f52604160045260245ffd5b6040810190811067ffffffffffffffff82111761133857604052565b6060810190811067ffffffffffffffff82111761133857604052565b90601f8019910116810190811067ffffffffffffffff82111761133857604052565b818102929181159184041417156113b957565b634e487b7160e01b5f52601160045260245ffd5b919082039182116113b957565b67ffffffffffffffff811161133857601f01601f191660200190565b3d15611420573d90611407826113da565b916114156040519384611384565b82523d5f602084013e565b606090565b1561142c57565b60405162461bcd60e51b8152602060048201526013602482015272141314c81d1c985b9cd9995c8819985a5b1959606a1b6044820152606490fd5b1561146e57565b60405162461bcd60e51b8152602060048201526013602482015272119959481d1c985b9cd9995c8819985a5b1959606a1b6044820152606490fd5b5f52600760205260405f206040516114c08161131b565b8154815260018060a01b0390816001840154166020820152816002840154169182604083015260038401541680606083015260048401549182608082015260058501549460a08201958652600681015460c083015260086007820154918260e085015201549160ff8316159061012060ff8315958661010085015260081c1615159101529161156b575b5061156157611558926118a0565b50809151111591565b505050505f905f90565b905042115f61154a565b5f1981146113b95760010190565b919082018092116113b957565b80511561124f5760200190565b80516001101561124f5760400190565b805182101561124f5760209160051b010190565b67ffffffffffffffff81116113385760051b60200190565b604051906115e68261131b565b5f610120838281528260208201528260408201528260608201528260808201528260a08201528260c08201528260e0820152826101008201520152565b5f546001600160a01b0316330361163657565b60405163118cdaa760e01b8152336004820152602490fd5b5f805160206125b1833981519152600281541461166b5760029055565b604051633ee5aeb560e01b8152600490fd5b51906001600160a01b038216820361031257565b81601f820112156103125780516116a7816113da565b926116b56040519485611384565b81845260208284010111610312576116d391602080850191016112d5565b90565b60208183031261031257805167ffffffffffffffff918282116103125701906101e0928383820312610312576040519384018481108382111761133857604052825184526117266020840161167d565b602085015260408301518281116103125781611743918501611691565b604085015260608301518281116103125781611760918501611691565b60608501526080830151828111610312578161177d918501611691565b608085015260a083015191821161031257611799918301611691565b60a08301526117aa60c0820161167d565b60c083015260e081015160e0830152610100808201519083015261012080820151908301526101408082015190830152610160808201519083015261018080820151906003821015610312578301526101a080820151908301526101c0809101519082015290565b6040519061181f8261134c565b6005825264637572766560d81b6020830152565b604051906118408261134c565b600982526870756c7365782d763160b81b6020830152565b604051906118658261134c565b6009825268383ab639b2bc16bb1960b91b6020830152565b6040519061188a8261134c565b6007825266706169736c657960c81b6020830152565b5f9360609390926118b08161230d565b80611b57575b611a74575b6118c48361230d565b80611a63575b61196b575b60018060a01b036118e68383868460015416612465565b878111611958575b506118ff8383868460025416612465565b878111611945575b50600354169283611919575b50505050565b61192293612465565b838111611932575b808080611913565b9250905061193e61187d565b905f61192a565b96509450611951611858565b945f611907565b96509450611964611833565b945f6118ee565b600480546040516348ef6c7d60e11b81526001600160a01b03868116938201939093529116905f81602481855afa5f9181611a3f575b506119ae575b50506118cf565b6020905160446040518094819363ebff160b60e01b835260048301528760248301525afa908115611a34575f91611a02575b508681116119ef575b806119a7565b955093506119fb611812565b935f6119e9565b90506020813d602011611a2c575b81611a1d60209383611384565b8101031261031257515f6119e0565b3d9150611a10565b6040513d5f823e3d90fd5b611a5c9192503d805f833e611a548183611384565b8101906116d6565b905f6119a1565b506001600160a01b038116156118ca565b600480546040516348ef6c7d60e11b81526001600160a01b03848116938201939093529116905f81602481855afa5f9181611b3b575b50611ab7575b50506118bb565b602090516044604051809481936303ff40fb60e01b835260048301528760248301525afa908115611a34575f91611b09575b5080611af6575b80611ab0565b95509350611b02611812565b935f611af0565b90506020813d602011611b33575b81611b2460209383611384565b8101031261031257515f611ae9565b3d9150611b17565b611b509192503d805f833e611a548183611384565b905f611aaa565b506001600160a01b038316156118b6565b929190611b748461230d565b91611b7e8261230d565b928061218a575b612016576001600160a01b039480861680159490939085908161200e575b50611f305785611bb48483856118a0565b9711611f1e57865197602098898901908120611bce611833565b8051908c012003611ed1575080600154165b604093845195611bef87611368565b6002875285368d8901378915611ecc575073a1077a294dde1b09bb078844df40758a5d0f9a275b83611c2088611590565b91169052808316988915918215611ec7575073a1077a294dde1b09bb078844df40758a5d0f9a275b84611c528961159d565b9116905215611d48575061012c4201948542116113b95786611c99935f95875198899687958693637ff36ab560e01b85526004850152608060248501526084840190612429565b9030604484015260648301520393165af1918215611d3e575f92611d1a575b5081515f198101929083116113b957606092611cd3916115ad565b5180975b82519485528401528201527f943c2d4f6b04a3117772c5b4ca92f76893bd11287acd75d884f6c05fb6cd1b55339180611d1360608201886112f6565b0390a49091565b611d379192503d805f833e611d2f8183611384565b8101906123af565b905f611cb8565b50513d5f823e3d90fd5b15611e4057835163095ea7b360e01b81526001600160a01b0382166004820152602481018790528a816044815f8c5af18015611e3657611e09575b5061012c4201948542116113b9575f87938195611db78851998a97889687946318cbafe560e01b8652309260048701612577565b0393165af1918215611d3e575f92611ded575b5081515f198101929083116113b957606092611de5916115ad565b518097611cd7565b611e029192503d805f833e611d2f8183611384565b905f611dca565b611e28908b3d8d11611e2f575b611e208183611384565b81019061255f565b505f611d83565b503d611e16565b85513d5f823e3d90fd5b835163095ea7b360e01b81526001600160a01b0382166004820152602481018790528a816044815f8c5af18015611e3657611eaa575b5061012c4201948542116113b9575f87938195611db78851998a97889687946338ed173960e01b8652309260048701612577565b611ec0908b3d8d11611e2f57611e208183611384565b505f611e76565b611c48565b611c16565b88518120611edd611858565b8051908c012003611ef357508060025416611be0565b88519020611eff61187d565b8051908b012003611f14578060035416611be0565b8060025416611be0565b60405163bb2875c360e01b8152600490fd5b925050929150836004541693604051916348ef6c7d60e11b83521660048201525f81602481875afa928315611a34576020936044925f91611ff4575b5051906040519586948593630f2eb9c560e31b8552600485015260248401525af1908115611a34575f91611fc2575b5090604051611fa98161134c565b600981526863757276652d62757960b81b602082015290565b90506020813d602011611fec575b81611fdd60209383611384565b8101031261031257515f611f9b565b3d9150611fd0565b61200891503d805f833e611a548183611384565b5f611f6c565b90505f611ba3565b60048054604080516348ef6c7d60e11b81526001600160a01b039889169381018490529098979396955092935083165f83602481845afa9081156121645786935f9261216e575b50885163095ea7b360e01b81526001600160a01b039190911660048201526024810196909652602095918690839060449082905f905af180156121645786946064935f92612147575b50600454169151918951968795869463709ef23160e01b86526004860152602485015260448401525af1801561213d575f90612103575b6918dd5c9d994b5cd95b1b60b21b91509351916120f98361134c565b600a835282015290565b508181813d8311612136575b6121198183611384565b81010312610312576918dd5c9d994b5cd95b1b60b21b90516120dd565b503d61210f565b84513d5f823e3d90fd5b61215d90873d8911611e2f57611e208183611384565b505f6120a6565b88513d5f823e3d90fd5b6121839192503d805f833e611a548183611384565b905f61205d565b506001600160a01b03821615611b85565b6040519163a9059cbb60e01b5f527349bbefa1d94702c0e9a5eaddec7c3c5d3eb9086b60045260245260205f60448180855af160015f5114811615612206575b82604052156121e8575050565b635274afe760e01b82526001600160a01b0316600482015260249150fd5b600181151661221c57813b15153d1516166121db565b823d5f823e3d90fd5b60405163a9059cbb60e01b5f9081526001600160a01b039384166004526024949094529260209060448180855af160015f5114811615612284575b836040521561226e57505050565b635274afe760e01b835216600482015260249150fd5b600181151661229a57813b15153d151616612260565b833d5f823e3d90fd5b6040516323b872dd60e01b5f9081526001600160a01b03938416600452938316602452604494909452909160209060648180855af160015f51148116156122f7575b836040525f6060521561226e57505050565b600181151661229a57813b15153d1516166122e5565b6001600160a01b039081169081156123a9575f8160045416926024604051809581936348ef6c7d60e11b835260048301525afa5f928161238d575b506123535750505f90565b60208201511615159081612365575090565b610180915001516003811015612379571590565b634e487b7160e01b5f52602160045260245ffd5b6123a29193503d805f833e611a548183611384565b915f612348565b50505f90565b60209081818403126103125780519067ffffffffffffffff821161031257019180601f840112156103125782516123e5816115c1565b936123f36040519586611384565b818552838086019260051b820101928311610312578301905b82821061241a575050505090565b8151815290830190830161240c565b9081518082526020808093019301915f5b828110612448575050505090565b83516001600160a01b03168552938101939281019260010161243a565b612515935f93926040519361247985611368565b6002855260403660208701376001600160a01b039180831615871461255a575073a1077a294dde1b09bb078844df40758a5d0f9a275b826124b987611590565b91169052818116158614612555575073a1077a294dde1b09bb078844df40758a5d0f9a275b816124e88661159d565b9116905260405180968195829463d06ca61f60e01b84526004840152604060248401526044830190612429565b0392165afa5f9181612539575b5061252c57505f90565b6125359061159d565b5190565b61254e9192503d805f833e611d2f8183611384565b905f612522565b6124de565b6124af565b90816020910312610312575180151581036103125790565b919260809361259c92979695978452602084015260a0604084015260a0830190612429565b6001600160a01b039095166060820152015256fe9b779b17422d0df92223018b32b4d1fa46e071723d6817e2486d003becc55f00a26469706673582212204fcaedebca2b4ae8f05f191ad8567215c962530c8822ab98958b4e400cede11064736f6c63430008180033","linkReferences":{}},"methodIdentifiers":{"MAX_FEE_BPS()":"d55be8c6","TREASURY()":"2d2c5565","WPLS()":"ef8ef56f","cancelPosition(uint256)":"cd4e9ffa","createPosition(address,address,uint256,uint256,uint256)":"aec774ba","emergencyWithdraw(address,uint256)":"95ccea67","fillPosition(uint256)":"2d7fa5a0","getActivePositions(address)":"b4e9e65c","getPosition(uint256)":"eb02c301","getQuote(address,address,uint256)":"c515ee23","getUserPositions(address)":"2a6bc2dd","isPositionFillable(uint256)":"89bcdea3","owner()":"8da5cb5b","paisleyRouter()":"c6c095e1","positionCount()":"e7702d05","positions(uint256)":"99fbab88","pulseXV1Router()":"a14c2418","pulseXV2Router()":"fca6682a","pumpFud()":"3d0c93a3","renounceOwnership()":"715018a6","setPaisleyRouter(address)":"487dee33","setPulseXV1Router(address)":"90b30e88","setPulseXV2Router(address)":"5cd5a94a","setPumpFud(address)":"0afdb28b","setSwapFee(uint256)":"34e19907","swap(address,address,uint256,uint256)":"fe029156","swapFeeBps()":"2ffdaf89","totalFeesCollected()":"60c6d8ae","totalVolumeSwapped()":"fb127e7e","transferOwnership(address)":"f2fde38b","userPositions(address,uint256)":"5e1b4d99"},"id":45}