{"abi":[{"type":"constructor","inputs":[{"name":"_treasury","type":"address","internalType":"address"}],"stateMutability":"nonpayable"},{"type":"receive","stateMutability":"payable"},{"type":"function","name":"BPS_DENOMINATOR","inputs":[],"outputs":[{"name":"","type":"uint256","internalType":"uint256"}],"stateMutability":"view"},{"type":"function","name":"PRECISION","inputs":[],"outputs":[{"name":"","type":"uint256","internalType":"uint256"}],"stateMutability":"view"},{"type":"function","name":"batchDelistTokens","inputs":[{"name":"tokenIds","type":"uint256[]","internalType":"uint256[]"},{"name":"reason","type":"string","internalType":"string"}],"outputs":[],"stateMutability":"nonpayable"},{"type":"function","name":"batchSetFeeWhitelist","inputs":[{"name":"accounts","type":"address[]","internalType":"address[]"},{"name":"whitelisted","type":"bool","internalType":"bool"}],"outputs":[],"stateMutability":"nonpayable"},{"type":"function","name":"burnBps","inputs":[],"outputs":[{"name":"","type":"uint256","internalType":"uint256"}],"stateMutability":"view"},{"type":"function","name":"buyFeeBps","inputs":[],"outputs":[{"name":"","type":"uint256","internalType":"uint256"}],"stateMutability":"view"},{"type":"function","name":"buyTokens","inputs":[{"name":"tokenId","type":"uint256","internalType":"uint256"},{"name":"minTokensOut","type":"uint256","internalType":"uint256"}],"outputs":[{"name":"tokensOut","type":"uint256","internalType":"uint256"}],"stateMutability":"payable"},{"type":"function","name":"calculateBuyAmount","inputs":[{"name":"tokenId","type":"uint256","internalType":"uint256"},{"name":"plsIn","type":"uint256","internalType":"uint256"}],"outputs":[{"name":"tokensOut","type":"uint256","internalType":"uint256"}],"stateMutability":"view"},{"type":"function","name":"calculateSellAmount","inputs":[{"name":"tokenId","type":"uint256","internalType":"uint256"},{"name":"tokensIn","type":"uint256","internalType":"uint256"}],"outputs":[{"name":"plsOut","type":"uint256","internalType":"uint256"}],"stateMutability":"view"},{"type":"function","name":"deadAddress","inputs":[],"outputs":[{"name":"","type":"address","internalType":"address"}],"stateMutability":"view"},{"type":"function","name":"delistToken","inputs":[{"name":"tokenId","type":"uint256","internalType":"uint256"},{"name":"reason","type":"string","internalType":"string"}],"outputs":[],"stateMutability":"nonpayable"},{"type":"function","name":"emergencyWithdraw","inputs":[],"outputs":[],"stateMutability":"nonpayable"},{"type":"function","name":"feeWhitelist","inputs":[{"name":"","type":"address","internalType":"address"}],"outputs":[{"name":"","type":"bool","internalType":"bool"}],"stateMutability":"view"},{"type":"function","name":"getAllTokens","inputs":[{"name":"offset","type":"uint256","internalType":"uint256"},{"name":"limit","type":"uint256","internalType":"uint256"}],"outputs":[{"name":"result","type":"tuple[]","internalType":"struct PumpFud.MemeToken[]","components":[{"name":"id","type":"uint256","internalType":"uint256"},{"name":"tokenAddress","type":"address","internalType":"address"},{"name":"name","type":"string","internalType":"string"},{"name":"symbol","type":"string","internalType":"string"},{"name":"description","type":"string","internalType":"string"},{"name":"imageUri","type":"string","internalType":"string"},{"name":"creator","type":"address","internalType":"address"},{"name":"reserveBalance","type":"uint256","internalType":"uint256"},{"name":"tokensSold","type":"uint256","internalType":"uint256"},{"name":"tradingVolume","type":"uint256","internalType":"uint256"},{"name":"createdAt","type":"uint256","internalType":"uint256"},{"name":"graduatedAt","type":"uint256","internalType":"uint256"},{"name":"status","type":"uint8","internalType":"enum PumpFud.TokenStatus"},{"name":"holderCount","type":"uint256","internalType":"uint256"},{"name":"tradeCount","type":"uint256","internalType":"uint256"}]}],"stateMutability":"view"},{"type":"function","name":"getCurrentPrice","inputs":[{"name":"tokenId","type":"uint256","internalType":"uint256"}],"outputs":[{"name":"price","type":"uint256","internalType":"uint256"}],"stateMutability":"view"},{"type":"function","name":"getLiveTokens","inputs":[{"name":"offset","type":"uint256","internalType":"uint256"},{"name":"limit","type":"uint256","internalType":"uint256"}],"outputs":[{"name":"result","type":"tuple[]","internalType":"struct PumpFud.MemeToken[]","components":[{"name":"id","type":"uint256","internalType":"uint256"},{"name":"tokenAddress","type":"address","internalType":"address"},{"name":"name","type":"string","internalType":"string"},{"name":"symbol","type":"string","internalType":"string"},{"name":"description","type":"string","internalType":"string"},{"name":"imageUri","type":"string","internalType":"string"},{"name":"creator","type":"address","internalType":"address"},{"name":"reserveBalance","type":"uint256","internalType":"uint256"},{"name":"tokensSold","type":"uint256","internalType":"uint256"},{"name":"tradingVolume","type":"uint256","internalType":"uint256"},{"name":"createdAt","type":"uint256","internalType":"uint256"},{"name":"graduatedAt","type":"uint256","internalType":"uint256"},{"name":"status","type":"uint8","internalType":"enum PumpFud.TokenStatus"},{"name":"holderCount","type":"uint256","internalType":"uint256"},{"name":"tradeCount","type":"uint256","internalType":"uint256"}]}],"stateMutability":"view"},{"type":"function","name":"getMarketCap","inputs":[{"name":"tokenId","type":"uint256","internalType":"uint256"}],"outputs":[{"name":"","type":"uint256","internalType":"uint256"}],"stateMutability":"view"},{"type":"function","name":"getToken","inputs":[{"name":"tokenId","type":"uint256","internalType":"uint256"}],"outputs":[{"name":"","type":"tuple","internalType":"struct PumpFud.MemeToken","components":[{"name":"id","type":"uint256","internalType":"uint256"},{"name":"tokenAddress","type":"address","internalType":"address"},{"name":"name","type":"string","internalType":"string"},{"name":"symbol","type":"string","internalType":"string"},{"name":"description","type":"string","internalType":"string"},{"name":"imageUri","type":"string","internalType":"string"},{"name":"creator","type":"address","internalType":"address"},{"name":"reserveBalance","type":"uint256","internalType":"uint256"},{"name":"tokensSold","type":"uint256","internalType":"uint256"},{"name":"tradingVolume","type":"uint256","internalType":"uint256"},{"name":"createdAt","type":"uint256","internalType":"uint256"},{"name":"graduatedAt","type":"uint256","internalType":"uint256"},{"name":"status","type":"uint8","internalType":"enum PumpFud.TokenStatus"},{"name":"holderCount","type":"uint256","internalType":"uint256"},{"name":"tradeCount","type":"uint256","internalType":"uint256"}]}],"stateMutability":"view"},{"type":"function","name":"getTokenByAddress","inputs":[{"name":"tokenAddress","type":"address","internalType":"address"}],"outputs":[{"name":"","type":"tuple","internalType":"struct PumpFud.MemeToken","components":[{"name":"id","type":"uint256","internalType":"uint256"},{"name":"tokenAddress","type":"address","internalType":"address"},{"name":"name","type":"string","internalType":"string"},{"name":"symbol","type":"string","internalType":"string"},{"name":"description","type":"string","internalType":"string"},{"name":"imageUri","type":"string","internalType":"string"},{"name":"creator","type":"address","internalType":"address"},{"name":"reserveBalance","type":"uint256","internalType":"uint256"},{"name":"tokensSold","type":"uint256","internalType":"uint256"},{"name":"tradingVolume","type":"uint256","internalType":"uint256"},{"name":"createdAt","type":"uint256","internalType":"uint256"},{"name":"graduatedAt","type":"uint256","internalType":"uint256"},{"name":"status","type":"uint8","internalType":"enum PumpFud.TokenStatus"},{"name":"holderCount","type":"uint256","internalType":"uint256"},{"name":"tradeCount","type":"uint256","internalType":"uint256"}]}],"stateMutability":"view"},{"type":"function","name":"getTokenStats","inputs":[{"name":"tokenId","type":"uint256","internalType":"uint256"}],"outputs":[{"name":"price","type":"uint256","internalType":"uint256"},{"name":"marketCap","type":"uint256","internalType":"uint256"},{"name":"reserveBalance","type":"uint256","internalType":"uint256"},{"name":"tokensSold","type":"uint256","internalType":"uint256"},{"name":"progress","type":"uint256","internalType":"uint256"},{"name":"status","type":"uint8","internalType":"enum PumpFud.TokenStatus"}],"stateMutability":"view"},{"type":"function","name":"graduationThreshold","inputs":[],"outputs":[{"name":"","type":"uint256","internalType":"uint256"}],"stateMutability":"view"},{"type":"function","name":"isTestToken","inputs":[{"name":"","type":"address","internalType":"address"}],"outputs":[{"name":"","type":"bool","internalType":"bool"}],"stateMutability":"view"},{"type":"function","name":"launchFee","inputs":[],"outputs":[{"name":"","type":"uint256","internalType":"uint256"}],"stateMutability":"view"},{"type":"function","name":"launchToken","inputs":[{"name":"name","type":"string","internalType":"string"},{"name":"symbol","type":"string","internalType":"string"},{"name":"description","type":"string","internalType":"string"},{"name":"imageUri","type":"string","internalType":"string"}],"outputs":[{"name":"tokenId","type":"uint256","internalType":"uint256"},{"name":"tokenAddress","type":"address","internalType":"address"}],"stateMutability":"payable"},{"type":"function","name":"lpRecipient","inputs":[],"outputs":[{"name":"","type":"address","internalType":"address"}],"stateMutability":"view"},{"type":"function","name":"maxSupply","inputs":[],"outputs":[{"name":"","type":"uint256","internalType":"uint256"}],"stateMutability":"view"},{"type":"function","name":"owner","inputs":[],"outputs":[{"name":"","type":"address","internalType":"address"}],"stateMutability":"view"},{"type":"function","name":"paisleyFactory","inputs":[],"outputs":[{"name":"","type":"address","internalType":"address"}],"stateMutability":"view"},{"type":"function","name":"paisleyLpBps","inputs":[],"outputs":[{"name":"","type":"uint256","internalType":"uint256"}],"stateMutability":"view"},{"type":"function","name":"paisleyRouter","inputs":[],"outputs":[{"name":"","type":"address","internalType":"address"}],"stateMutability":"view"},{"type":"function","name":"paused","inputs":[],"outputs":[{"name":"","type":"bool","internalType":"bool"}],"stateMutability":"view"},{"type":"function","name":"platformFeeBps","inputs":[],"outputs":[{"name":"","type":"uint256","internalType":"uint256"}],"stateMutability":"view"},{"type":"function","name":"pulseXFactory","inputs":[],"outputs":[{"name":"","type":"address","internalType":"address"}],"stateMutability":"view"},{"type":"function","name":"pulseXLpBps","inputs":[],"outputs":[{"name":"","type":"uint256","internalType":"uint256"}],"stateMutability":"view"},{"type":"function","name":"pulseXRouter","inputs":[],"outputs":[{"name":"","type":"address","internalType":"address"}],"stateMutability":"view"},{"type":"function","name":"renounceOwnership","inputs":[],"outputs":[],"stateMutability":"nonpayable"},{"type":"function","name":"sellFeeBps","inputs":[],"outputs":[{"name":"","type":"uint256","internalType":"uint256"}],"stateMutability":"view"},{"type":"function","name":"sellTokens","inputs":[{"name":"tokenId","type":"uint256","internalType":"uint256"},{"name":"tokensIn","type":"uint256","internalType":"uint256"},{"name":"minPlsOut","type":"uint256","internalType":"uint256"}],"outputs":[{"name":"plsOut","type":"uint256","internalType":"uint256"}],"stateMutability":"nonpayable"},{"type":"function","name":"setBurnBps","inputs":[{"name":"_burnBps","type":"uint256","internalType":"uint256"}],"outputs":[],"stateMutability":"nonpayable"},{"type":"function","name":"setBuyFee","inputs":[{"name":"_buyFeeBps","type":"uint256","internalType":"uint256"}],"outputs":[],"stateMutability":"nonpayable"},{"type":"function","name":"setDeadAddress","inputs":[{"name":"_deadAddress","type":"address","internalType":"address"}],"outputs":[],"stateMutability":"nonpayable"},{"type":"function","name":"setFeeWhitelist","inputs":[{"name":"account","type":"address","internalType":"address"},{"name":"whitelisted","type":"bool","internalType":"bool"}],"outputs":[],"stateMutability":"nonpayable"},{"type":"function","name":"setGraduationThreshold","inputs":[{"name":"_threshold","type":"uint256","internalType":"uint256"}],"outputs":[],"stateMutability":"nonpayable"},{"type":"function","name":"setLaunchFee","inputs":[{"name":"_launchFee","type":"uint256","internalType":"uint256"}],"outputs":[],"stateMutability":"nonpayable"},{"type":"function","name":"setLpRecipient","inputs":[{"name":"_lpRecipient","type":"address","internalType":"address"}],"outputs":[],"stateMutability":"nonpayable"},{"type":"function","name":"setMaxSupply","inputs":[{"name":"_maxSupply","type":"uint256","internalType":"uint256"}],"outputs":[],"stateMutability":"nonpayable"},{"type":"function","name":"setPaisleyFactory","inputs":[{"name":"_factory","type":"address","internalType":"address"}],"outputs":[],"stateMutability":"nonpayable"},{"type":"function","name":"setPaisleyLpBps","inputs":[{"name":"_lpBps","type":"uint256","internalType":"uint256"}],"outputs":[],"stateMutability":"nonpayable"},{"type":"function","name":"setPaisleyRouter","inputs":[{"name":"_router","type":"address","internalType":"address"}],"outputs":[],"stateMutability":"nonpayable"},{"type":"function","name":"setPaused","inputs":[{"name":"_paused","type":"bool","internalType":"bool"}],"outputs":[],"stateMutability":"nonpayable"},{"type":"function","name":"setPlatformFeeBps","inputs":[{"name":"_feeBps","type":"uint256","internalType":"uint256"}],"outputs":[],"stateMutability":"nonpayable"},{"type":"function","name":"setPulseXFactory","inputs":[{"name":"_factory","type":"address","internalType":"address"}],"outputs":[],"stateMutability":"nonpayable"},{"type":"function","name":"setPulseXLpBps","inputs":[{"name":"_lpBps","type":"uint256","internalType":"uint256"}],"outputs":[],"stateMutability":"nonpayable"},{"type":"function","name":"setPulseXRouter","inputs":[{"name":"_router","type":"address","internalType":"address"}],"outputs":[],"stateMutability":"nonpayable"},{"type":"function","name":"setSellFee","inputs":[{"name":"_sellFeeBps","type":"uint256","internalType":"uint256"}],"outputs":[],"stateMutability":"nonpayable"},{"type":"function","name":"setSuccessRewardBps","inputs":[{"name":"_rewardBps","type":"uint256","internalType":"uint256"}],"outputs":[],"stateMutability":"nonpayable"},{"type":"function","name":"setTestToken","inputs":[{"name":"token","type":"address","internalType":"address"},{"name":"status","type":"bool","internalType":"bool"}],"outputs":[],"stateMutability":"nonpayable"},{"type":"function","name":"setTradingFee","inputs":[{"name":"_tradingFeeBps","type":"uint256","internalType":"uint256"}],"outputs":[],"stateMutability":"nonpayable"},{"type":"function","name":"setTreasury","inputs":[{"name":"_treasury","type":"address","internalType":"address"}],"outputs":[],"stateMutability":"nonpayable"},{"type":"function","name":"setVirtualReserves","inputs":[{"name":"_virtualPls","type":"uint256","internalType":"uint256"},{"name":"_virtualTokens","type":"uint256","internalType":"uint256"}],"outputs":[],"stateMutability":"nonpayable"},{"type":"function","name":"setWpls","inputs":[{"name":"_wpls","type":"address","internalType":"address"}],"outputs":[],"stateMutability":"nonpayable"},{"type":"function","name":"successRewardBps","inputs":[],"outputs":[{"name":"","type":"uint256","internalType":"uint256"}],"stateMutability":"view"},{"type":"function","name":"testGraduationThreshold","inputs":[],"outputs":[{"name":"","type":"uint256","internalType":"uint256"}],"stateMutability":"view"},{"type":"function","name":"tokenCount","inputs":[],"outputs":[{"name":"","type":"uint256","internalType":"uint256"}],"stateMutability":"view"},{"type":"function","name":"tokenHolderCount","inputs":[{"name":"","type":"address","internalType":"address"}],"outputs":[{"name":"","type":"uint256","internalType":"uint256"}],"stateMutability":"view"},{"type":"function","name":"tokenToId","inputs":[{"name":"","type":"address","internalType":"address"}],"outputs":[{"name":"","type":"uint256","internalType":"uint256"}],"stateMutability":"view"},{"type":"function","name":"tokens","inputs":[{"name":"","type":"uint256","internalType":"uint256"}],"outputs":[{"name":"id","type":"uint256","internalType":"uint256"},{"name":"tokenAddress","type":"address","internalType":"address"},{"name":"name","type":"string","internalType":"string"},{"name":"symbol","type":"string","internalType":"string"},{"name":"description","type":"string","internalType":"string"},{"name":"imageUri","type":"string","internalType":"string"},{"name":"creator","type":"address","internalType":"address"},{"name":"reserveBalance","type":"uint256","internalType":"uint256"},{"name":"tokensSold","type":"uint256","internalType":"uint256"},{"name":"tradingVolume","type":"uint256","internalType":"uint256"},{"name":"createdAt","type":"uint256","internalType":"uint256"},{"name":"graduatedAt","type":"uint256","internalType":"uint256"},{"name":"status","type":"uint8","internalType":"enum PumpFud.TokenStatus"},{"name":"holderCount","type":"uint256","internalType":"uint256"},{"name":"tradeCount","type":"uint256","internalType":"uint256"}],"stateMutability":"view"},{"type":"function","name":"tradingFeeBps","inputs":[],"outputs":[{"name":"","type":"uint256","internalType":"uint256"}],"stateMutability":"view"},{"type":"function","name":"transferOwnership","inputs":[{"name":"newOwner","type":"address","internalType":"address"}],"outputs":[],"stateMutability":"nonpayable"},{"type":"function","name":"treasury","inputs":[],"outputs":[{"name":"","type":"address","internalType":"address"}],"stateMutability":"view"},{"type":"function","name":"userHoldings","inputs":[{"name":"","type":"address","internalType":"address"},{"name":"","type":"address","internalType":"address"}],"outputs":[{"name":"","type":"uint256","internalType":"uint256"}],"stateMutability":"view"},{"type":"function","name":"virtualPlsReserves","inputs":[],"outputs":[{"name":"","type":"uint256","internalType":"uint256"}],"stateMutability":"view"},{"type":"function","name":"virtualTokenReserves","inputs":[],"outputs":[{"name":"","type":"uint256","internalType":"uint256"}],"stateMutability":"view"},{"type":"function","name":"wpls","inputs":[],"outputs":[{"name":"","type":"address","internalType":"address"}],"stateMutability":"view"},{"type":"event","name":"FeesCollected","inputs":[{"name":"token","type":"address","indexed":true,"internalType":"address"},{"name":"amount","type":"uint256","indexed":false,"internalType":"uint256"},{"name":"treasury","type":"address","indexed":true,"internalType":"address"}],"anonymous":false},{"type":"event","name":"OwnershipTransferred","inputs":[{"name":"previousOwner","type":"address","indexed":true,"internalType":"address"},{"name":"newOwner","type":"address","indexed":true,"internalType":"address"}],"anonymous":false},{"type":"event","name":"TokenBought","inputs":[{"name":"tokenId","type":"uint256","indexed":true,"internalType":"uint256"},{"name":"buyer","type":"address","indexed":true,"internalType":"address"},{"name":"plsIn","type":"uint256","indexed":false,"internalType":"uint256"},{"name":"tokensOut","type":"uint256","indexed":false,"internalType":"uint256"},{"name":"newPrice","type":"uint256","indexed":false,"internalType":"uint256"},{"name":"timestamp","type":"uint256","indexed":false,"internalType":"uint256"}],"anonymous":false},{"type":"event","name":"TokenDelisted","inputs":[{"name":"tokenId","type":"uint256","indexed":true,"internalType":"uint256"},{"name":"tokenAddress","type":"address","indexed":true,"internalType":"address"},{"name":"reason","type":"string","indexed":false,"internalType":"string"},{"name":"timestamp","type":"uint256","indexed":false,"internalType":"uint256"}],"anonymous":false},{"type":"event","name":"TokenGraduated","inputs":[{"name":"tokenId","type":"uint256","indexed":true,"internalType":"uint256"},{"name":"tokenAddress","type":"address","indexed":true,"internalType":"address"},{"name":"lpPair","type":"address","indexed":true,"internalType":"address"},{"name":"plsLiquidity","type":"uint256","indexed":false,"internalType":"uint256"},{"name":"tokenLiquidity","type":"uint256","indexed":false,"internalType":"uint256"},{"name":"lpBurned","type":"uint256","indexed":false,"internalType":"uint256"},{"name":"tokensBurnedToDead","type":"uint256","indexed":false,"internalType":"uint256"},{"name":"creatorReward","type":"uint256","indexed":false,"internalType":"uint256"},{"name":"timestamp","type":"uint256","indexed":false,"internalType":"uint256"}],"anonymous":false},{"type":"event","name":"TokenLaunched","inputs":[{"name":"tokenId","type":"uint256","indexed":true,"internalType":"uint256"},{"name":"tokenAddress","type":"address","indexed":true,"internalType":"address"},{"name":"creator","type":"address","indexed":true,"internalType":"address"},{"name":"name","type":"string","indexed":false,"internalType":"string"},{"name":"symbol","type":"string","indexed":false,"internalType":"string"},{"name":"timestamp","type":"uint256","indexed":false,"internalType":"uint256"}],"anonymous":false},{"type":"event","name":"TokenSold","inputs":[{"name":"tokenId","type":"uint256","indexed":true,"internalType":"uint256"},{"name":"seller","type":"address","indexed":true,"internalType":"address"},{"name":"tokensIn","type":"uint256","indexed":false,"internalType":"uint256"},{"name":"plsOut","type":"uint256","indexed":false,"internalType":"uint256"},{"name":"newPrice","type":"uint256","indexed":false,"internalType":"uint256"},{"name":"timestamp","type":"uint256","indexed":false,"internalType":"uint256"}],"anonymous":false},{"type":"event","name":"TreasuryUpdated","inputs":[{"name":"oldTreasury","type":"address","indexed":true,"internalType":"address"},{"name":"newTreasury","type":"address","indexed":true,"internalType":"address"}],"anonymous":false},{"type":"error","name":"InsufficientPayment","inputs":[]},{"type":"error","name":"InsufficientTokens","inputs":[]},{"type":"error","name":"InvalidToken","inputs":[]},{"type":"error","name":"OwnableInvalidOwner","inputs":[{"name":"owner","type":"address","internalType":"address"}]},{"type":"error","name":"OwnableUnauthorizedAccount","inputs":[{"name":"account","type":"address","internalType":"address"}]},{"type":"error","name":"Paused","inputs":[]},{"type":"error","name":"ReentrancyGuardReentrantCall","inputs":[]},{"type":"error","name":"SlippageExceeded","inputs":[]},{"type":"error","name":"TokenAlreadyGraduated","inputs":[]},{"type":"error","name":"TokenNotLive","inputs":[]},{"type":"error","name":"TransferFailed","inputs":[]},{"type":"error","name":"ZeroAmount","inputs":[]}],"bytecode":{"object":"0x6080346200022257601f62004fed38819003918201601f19168301916001600160401b0383118484101762000226578084926020946040528339810103126200022257516001600160a01b0380821691829003620002225760017f9b779b17422d0df92223018b32b4d1fa46e071723d6817e2486d003becc55f005533156200020a575f549060018060a01b03199133838216175f55604051913391167f8be0079c531659141344cd1fd0a4f28419497f9722a3daafe3b4186f6b6457e05f80a361dead82600354161760035573a1077a294dde1b09bb078844df40758a5d0f9a2782600454161760045573165c3410fc91ef562c50559f7d2289febed552d98260055416176005557329ea7545def87022badc76323f373ea1e707c5238260065416176006557392af1b541ba97c1e0c3b4e4902af170944875d9782600754161760075569021e19e0c9bab2400000600a556acecb8f27f4200f3a00000080600b556a295be96e64066972000000600c556a0c685fa11e01ec6f000000600d55600e556107d0600f556103e88060105580601155601255606460135560646016556064601755606e6018558215620001d55750818160015416176001556002541617600255604051614db290816200023b8239f35b62461bcd60e51b815260206004820152601060248201526f496e76616c696420747265617375727960801b6044820152606490fd5b604051631e4fbdf760e01b81525f6004820152602490fd5b5f80fd5b634e487b7160e01b5f52604160045260245ffdfe60808060405260043610156200001e575b5036156200001c575f80fd5b005b5f905f3560e01c90816303e9faea1462002f555750806303ff40fb1462002f375780630576453c1462002da75780630c8f38f61462002d725780630cc835a31462002d3d5780631459fef71462002d1e5780631655bc621462002cff57806316c38b3c1462002cc257806322dcd13e1462002ca357806323cbe1f31462002c845780632596eeba1462002b3e57806327c8f8351462002b14578063283c9c311462002af25780632d7711d91462002a9c578063325b6a571462002a7d578063452e68dd1462002a53578063487dee331462002a0a5780634f01a3a714620029e05780634f64b2be146200289557806352f5b3ef14620028305780635313be2c146200280b57806353deb3d614620027ec5780635c975abb14620027c85780635fc6762c1462001ef95780636115f90b1462001eda57806361d027b31462001eb05780636f692f061462001e6f5780636f8b44b01462001e0d578063709ef2311462001aa3578063715018a61462001a4657806377975e0b14620019c157806377d2300e14620019a15780637975ce281462000f905780637e5cd6011462000f0c5780638b0bc5011462000eec5780638b4cee081462000eb55780638da5cb5b1462000e8c57806391ded8fa1462000e35578063924cca9a1462000e15578063927ef7fa1462000dea57806395a3b2971462000db3578063975767861462000d585780639a0438321462000d375780639f181b5e1462000d17578063a2d163d41462000cb7578063a46302f91462000c59578063aa347dfb1462000c2b578063aaf5eb681462000c06578063addc831e1462000bcf578063aec9b6f41462000ba4578063b0d54bcf1462000b6d578063b99b3b021462000af5578063b9e05c6a1462000a6b578063c55d0f561462000a48578063c580c94214620009e9578063c58295141462000932578063c6c095e11462000907578063ca82a01414620008ca578063cecb62ba1462000884578063cf3cf5731462000864578063d05521f41462000844578063d408f6571462000801578063d5abeb0114620007e1578063db2e21bc146200078b578063e1203ecc146200074e578063e1a45218146200072f578063e3632a3014620006aa578063e4b50cb81462000656578063ea2e9cad14620005d4578063ebff160b14620005ad578063ece90022146200058d578063f0f4426014620004dd578063f2fde38b146200044e5763f31cd8a6036200001057346200044b5760403660031901126200044b576004356001600160401b0381116200044757620003d390369060040162002f91565b620003dd62002ff4565b90620003e862003ac1565b835b818110620003f6578480f35b62000403818386620033e5565b356001600160a01b038116919082900362000443576001918652601a6020526200043c84604088209060ff801983541691151516179055565b01620003ea565b8580fd5b5080fd5b80fd5b50346200044b5760203660031901126200044b576200046c62003004565b6200047662003ac1565b6001600160a01b03908116908115620004c4575f54826001600160601b0360a01b8216175f55167f8be0079c531659141344cd1fd0a4f28419497f9722a3daafe3b4186f6b6457e05f80a380f35b604051631e4fbdf760e01b815260048101849052602490fd5b50346200044b5760203660031901126200044b57620004fb62003004565b6200050562003ac1565b6001600160a01b039081169081156200055557600154826001600160601b0360a01b821617600155167f4ab5be82436d353e61ca18726e984e561f5c1cc7c6d38b29d2553c790434705a8380a380f35b60405162461bcd60e51b815260206004820152601060248201526f496e76616c696420747265617375727960801b6044820152606490fd5b50346200044b57806003193601126200044b576020601154604051908152f35b50346200044b576020620005cc620005c53662002f7a565b9062003a3d565b604051908152f35b50346200044b5760203660031901126200044b57620005f262003004565b620005fc62003ac1565b6001600160a01b0316801562000622576001600160601b0360a01b600454161760045580f35b60405162461bcd60e51b815260206004820152600c60248201526b496e76616c69642057504c5360a01b6044820152606490fd5b50346200044b5760203660031901126200044b57620006916040620006a6926200067f6200356a565b506004358152601b60205220620035dc565b604051918291602083526020830190620031a5565b0390f35b50346200044b5760203660031901126200044b57620006c862003004565b620006d262003ac1565b6001600160a01b03168015620006f8576001600160601b0360a01b600654161760065580f35b60405162461bcd60e51b815260206004820152600f60248201526e496e76616c696420666163746f727960881b6044820152606490fd5b50346200044b57806003193601126200044b5760206040516127108152f35b50346200044b5760203660031901126200044b576020906040906001600160a01b036200077a62003004565b168152601e83522054604051908152f35b50346200044b57806003193601126200044b57620007a862003ac1565b8080808060018060a01b036001541647905af1620007c562003426565b5015620007cf5780f35b6040516312171d8360e31b8152600490fd5b50346200044b57806003193601126200044b576020600b54604051908152f35b50346200044b5760203660031901126200044b5760209060ff906040906001600160a01b036200083062003004565b168152601a84522054166040519015158152f35b50346200044b57806003193601126200044b576020600d54604051908152f35b50346200044b57806003193601126200044b576020601554604051908152f35b50346200044b5760203660031901126200044b57620008a262003004565b620008ac62003ac1565b60018060a01b03166001600160601b0360a01b600854161760085580f35b50346200044b5760203660031901126200044b576020906040906001600160a01b03620008f662003004565b168152601c83522054604051908152f35b50346200044b57806003193601126200044b576007546040516001600160a01b039091168152602090f35b50346200044b5760203660031901126200044b57600435808252601b602052604082206200096b6200096483620039c9565b92620034eb565b92600782015460088301549161271090818302918383041483151715620009d5575091620009d3939160ff600c620009a960c0999682549062003327565b9401541693604051968752602087015260408601526060850152608084015260a083019062003197565bf35b634e487b7160e01b81526011600452602490fd5b50346200044b5760203660031901126200044b5760043562000a0a62003ac1565b6101f4811162000a1a5760135580f35b60405162461bcd60e51b81526020600482015260066024820152654d617820352560d01b6044820152606490fd5b50346200044b5760203660031901126200044b576020620005cc600435620039c9565b50346200044b5760203660031901126200044b5762000a8962003004565b62000a9362003ac1565b6001600160a01b0316801562000ab9576001600160601b0360a01b600254161760025580f35b60405162461bcd60e51b8152602060048201526014602482015273125b9d985b1a59081314081c9958da5c1a595b9d60621b6044820152606490fd5b50346200044b5762000b073662002f7a565b9062000b1262003ac1565b8015158062000b63575b1562000b2b57600d55600e5580f35b60405162461bcd60e51b815260206004820152601060248201526f496e76616c696420726573657276657360801b6044820152606490fd5b5081151562000b1c565b50346200044b5760203660031901126200044b5760043562000b8e62003ac1565b62000b9e6101f4821115620034b1565b60165580f35b50346200044b57806003193601126200044b576005546040516001600160a01b039091168152602090f35b50346200044b5760203660031901126200044b5760043562000bf062003ac1565b62000c006113888211156200347a565b600f5580f35b50346200044b57806003193601126200044b576020604051670de0b6b3a76400008152f35b50346200044b57620006a662000c4c62000c453662002f7a565b9062003827565b6040519182918262003290565b50346200044b5760403660031901126200044b5762000cb462000c7b62003004565b62000c8562002ff4565b9062000c9062003ac1565b60018060a01b031683526009602052604083209060ff801983541691151516179055565b80f35b50346200044b5760203660031901126200044b5760043562000cd862003ac1565b6107d0811162000ce85760125580f35b60405162461bcd60e51b81526020600482015260076024820152664d61782032302560c81b6044820152606490fd5b50346200044b57806003193601126200044b576020601454604051908152f35b50346200044b57620006a662000c4c62000d513662002f7a565b906200376f565b50346200044b5760403660031901126200044b5762000cb462000d7a62003004565b62000d8462002ff4565b9062000d8f62003ac1565b60018060a01b03168352601a602052604083209060ff801983541691151516179055565b50346200044b5760203660031901126200044b5760043562000dd462003ac1565b62000de46113888211156200347a565b60105580f35b50346200044b57806003193601126200044b576004546040516001600160a01b039091168152602090f35b50346200044b57806003193601126200044b576020601654604051908152f35b50346200044b5760203660031901126200044b57620006916040620006a69262000e5e62003004565b62000e686200356a565b506001600160a01b03168152601c6020908152828220548252601b905220620035dc565b50346200044b57806003193601126200044b57546040516001600160a01b039091168152602090f35b50346200044b5760203660031901126200044b5760043562000ed662003ac1565b62000ee66101f4821115620034b1565b60185580f35b50346200044b57806003193601126200044b576020600c54604051908152f35b50346200044b5760203660031901126200044b5762000f2a62003004565b62000f3462003ac1565b6001600160a01b0316801562000f5a576001600160601b0360a01b600554161760055580f35b60405162461bcd60e51b815260206004820152600e60248201526d24b73b30b634b2103937baba32b960911b6044820152606490fd5b5062000f9c3662002f7a565b9062000fa762003aed565b60ff601954166200198f5734156200192e57808352601b602052604083206001810180546001600160a01b031680156200197d5760ff600c84015416600481101562001876576200196b57338652601a602052604086205460ff1615620019525785905b62001017823462003305565b9362001024858762003346565b968710620019405786156200192e576200104460078201958654620032f7565b85556008810162001057888254620032f7565b9055600981016200106a348254620032f7565b9055600e81016200107c815462003520565b9055818852601d60205260408820335f5260205260405f20541562001916575b508652601d60205260408620335f5260205260405f20620010bf868254620032f7565b9055815486906001600160a01b0316803b1562000447576040516340c10f1960e01b8152336004820152602481018890529082908290604490829084905af180156200154e57620018fe575b50508062001894575b506200112083620039c9565b837f4689c69f82cdf5b000bb00a84dd3258356c9997272fd94a9153e9d13a5b7c29a604051806200116d339542908b34859094939260609260808301968352602083015260408201520152565b0390a3546001600160a01b031684526009602052604084205460ff16156200188a57600a54905b541015620011ba575b60208260015f8051602062004d5d83398151915255604051908152f35b808352601b60205260408320600c8101805460ff811660048110156200187657620018645760019060ff191617905542600b82015560018060a01b03600182015416916007820154600883015461271062001218600f548362003313565b0490601054946127106200122d878462003313565b049861271062001241601154809562003313565b04966200126d620012656127106200125c6012548a62003313565b04809862003305565b9482620032f7565b908115620018555762001298916200128a62001290928762003313565b62003327565b809462003305565b6003546001600160a01b0316893b1562001839576040516340c10f1960e01b81526001600160a01b03919091166004820152602481018690528281604481838e5af180156200182e579083916200183d575b5050620012f8888c620032f7565b893b1562001839576040516340c10f1960e01b815230600482015260248101919091528281604481838e5af180156200182e5790839162001816575b5050819782998395849d60105415158062001801575b620015d7575b5050601154151580620015c2575b62001409575b50505084620013d6575b509260c092602099927f3a5782ce12d354956baf524d170388ba14490cb2fc6cf272f82d65299416f4cc956001808060a01b039101541697604051998a528b8a01526040890152606088015260808701524260a087015260018060a01b031694a45f6200119d565b80808087600180989e9799969860a01b03600154165af1620013f762003426565b5015620007cf57929097915f6200136e565b60075460405163095ea7b360e01b81526001600160a01b03909116600482015260248101839052906020908290604490829088905af18015620015b75762001581575b5060075460018501546001600160a01b0390811693911691908115605f8084028490041417156200156d5780605f810204605f14811517156200156d576002546001600160a01b03169142610258810110620015595760405163f305d71960e01b81526001600160a01b039586166004820152602481018290526064605f928302819004604483015291830282900491810191909152919093166084820152610258420160a482015291606091839160c4918391905af180156200154e5762001518575b808062001364565b6200153e9060603d60601162001546575b62001535818362003087565b81019062003b38565b505062001510565b503d62001529565b6040513d84823e3d90fd5b634e487b7160e01b86526011600452602486fd5b634e487b7160e01b85526011600452602485fd5b620015a79060203d602011620015af575b6200159e818362003087565b81019062003b1e565b505f6200144c565b503d62001592565b6040513d86823e3d90fd5b506007546001600160a01b031615156200135e565b60055460405163095ea7b360e01b81526001600160a01b03909116600482015260248101829052929e50939b5091995093945091926020818d8187816044810103925af18015620015b757620017dd575b5060055460018501546001600160a01b0390811693911691908115605f8084028490041417156200156d5780605f810204605f14811517156200156d576002546001600160a01b03169142610258810110620015595760405163f305d71960e01b81526001600160a01b039586166004820152602481018290526064605f928302819004604483015291830282900491810191909152919093166084820152426102580160a4820152939291606091859160c4918391905af1978815620017d057819882948391620017a2575b5060065460018501546004805460405163e6a4390560e01b81526001600160a01b039384169281019290925282166024820152969b9a92969160209183916044918391165afa908115620015b757849162001755575b509b5f8062001350565b90506020813d60201162001799575b81620017736020938362003087565b810103126200179557516001600160a01b038116810362001795575f6200174b565b8380fd5b3d915062001764565b91995050620017c491935060603d606011620015465762001535818362003087565b93919890935f620016f5565b50604051903d90823e3d90fd5b620017f99060203d602011620015af576200159e818362003087565b505f62001628565b506005546001600160a01b031615156200134a565b620018219062003073565b6200044757815f62001334565b6040513d85823e3d90fd5b8280fd5b620018489062003073565b6200044757815f620012ea565b50506200129883809462003305565b60405163e2b861a160e01b8152600490fd5b634e487b7160e01b87526021600452602487fd5b600c549062001194565b858080808460018060a01b03600154165af1620018b062003426565b5015620007cf5781546001546040519283526001600160a01b03908116929116907fbb64cfa7f75512208a9b73fb4034b028a5972cba07a53b641e16ba38571f133190602090a35f62001114565b620019099062003073565b6200044357855f6200110b565b600d0162001925815462003520565b90555f6200109c565b604051631f2a200560e01b8152600490fd5b604051638199f5f360e01b8152600490fd5b612710620019636017543462003313565b04906200100b565b60405163c0d2241560e01b8152600490fd5b60405163c1ab6dc160e01b8152600490fd5b6040516313d0ff5960e31b8152600490fd5b50346200044b57806003193601126200044b576020601754604051908152f35b50346200044b5760203660031901126200044b57620019df62003004565b620019e962003ac1565b6001600160a01b0316801562001a0f576001600160601b0360a01b600354161760035580f35b60405162461bcd60e51b815260206004820152600f60248201526e496e76616c6964206164647265737360881b6044820152606490fd5b50346200044b57806003193601126200044b5762001a6362003ac1565b5f80546001600160a01b0319811682556001600160a01b03167f8be0079c531659141344cd1fd0a4f28419497f9722a3daafe3b4186f6b6457e08280a380f35b503462001d6757606036600319011262001d67576004359060243562001ac862003aed565b60ff601954166200198f5780156200192e57825f52602092601b845260405f2092600184019360018060a01b03808654169586156200197d5760ff600c84015416600481101562001df9576200196b576040516370a0823160e01b815233600482015288816024818b5afa801562001d5c5787915f9162001dc2575b501062001db05762001b57868662003a3d565b96335f52601a895260ff60405f2054165f1462001d97575f935b62001b7d858a62003305565b986044358a10620019405789156200192e576007820162001ba082825462003305565b90556008820162001bb38a825462003305565b905562001bc660098301918254620032f7565b9055600e810162001bd8815462003520565b9055815f52601d8a5260405f20335f528a5260405f2062001bfb89825462003305565b9055838354165f52601d8a5260405f20335f528a5260405f20541562001d6b575b50803b1562001d6757604051632770a7eb60e21b815233600482015260248101889052905f908290604490829084905af1801562001d5c5762001d46575b508262001ced575b50505080808086335af162001c7662003426565b5015620007cf577fb322b718fa78c3bbf5454f91fc6dd9e9bdde69d249756c3e6a1a4cac09c1f86e62001cd062001cad83620039c9565b604080519586526020860187905285015242606085015233939081906080820190565b0390a360015f8051602062004d5d83398151915255604051908152f35b838080808686600154165af162001d0362003426565b5015620007cf5787827fbb64cfa7f75512208a9b73fb4034b028a5972cba07a53b641e16ba38571f1331925416926001541693604051908152a35f808062001c62565b62001d5391945062003073565b5f925f62001c5a565b6040513d5f823e3d90fd5b5f80fd5b600d018054801562001d83575f190190555f62001c1c565b634e487b7160e01b5f52601160045260245ffd5b61271062001da86018548a62003313565b049362001b71565b6040516378dbf0af60e11b8152600490fd5b8092508a8092503d831162001df1575b62001dde818362003087565b8101031262001d67578690515f62001b44565b503d62001dd2565b634e487b7160e01b5f52602160045260245ffd5b3462001d6757602036600319011262001d675760043562001e2d62003ac1565b801562001e3957600b55005b60405162461bcd60e51b815260206004820152600e60248201526d496e76616c696420737570706c7960901b6044820152606490fd5b3462001d6757602036600319011262001d67576001600160a01b0362001e9462003004565b165f526009602052602060ff60405f2054166040519015158152f35b3462001d67575f36600319011262001d67576001546040516001600160a01b039091168152602090f35b3462001d67575f36600319011262001d67576020601254604051908152f35b608036600319011262001d67576004356001600160401b03811162001d675762001f2890369060040162002fc4565b906024356001600160401b03811162001d675762001f4b90369060040162002fc4565b926044356001600160401b03811162001d675762001f6e90369060040162002fc4565b9290936064356001600160401b03811162001d675762001f9390369060040162002fc4565b62001fa095919562003aed565b60ff601954166200198f57601554803410620027b6578062002788575b5060405161120881818101106001600160401b038284011117620024f85780829162003b5583396080818301526200202c62002018620020046080848601018b8a6200345a565b8385018103602085870101528d8a6200345a565b828401810360408486010152858b6200345a565b90606033918401015203905ff095861562001d5c57620020b691620020a96200205760145462003520565b998a601455604051956200206b8762003056565b8b87526001600160a01b038b1660208801526200208a368b8a6200352f565b60408801526200209c368e8b6200352f565b606088015236916200352f565b608085015236916200352f565b60a08201523360c08201525f60e08201525f6101008201525f610120820152426101408201525f6101608201525f6101808201525f6101a08201525f6101c0820152855f52601b60205260405f2090805182556001820160018060a01b036020830151166001600160601b0360a01b82541617905560408101518051906001600160401b038211620024f85781906200215360028601546200301b565b601f811162002733575b50602090601f8311600114620026c0575f92620026b4575b50508160011b915f199060031b1c19161760028301555b60608101518051906001600160401b038211620024f8578190620021b460038601546200301b565b601f81116200265f575b50602090601f8311600114620025ec575f92620025e0575b50508160011b915f199060031b1c19161760038301555b60808101518051906001600160401b038211620024f85781906200221560048601546200301b565b601f81116200258b575b50602090601f831160011462002518575f926200250c575b50508160011b915f199060031b1c19161760048301555b60a08101518051906001600160401b038211620024f85781906200227660058601546200301b565b601f8111620024a3575b50602090601f831160011462002430575f9262002424575b50508160011b915f199060031b1c19161760058301555b60c08101516006830180546001600160a01b0319166001600160a01b039290921691909117905560e0810151600783015561010081015160088301556101208101516009830155610140810151600a830155610160810151600b830155610180810151600c830191600482101562001df957600e926101c09260ff801983541691161790556101a0810151600d850155015191015560018060a01b0384165f52601c6020528460405f2055620023686015543462003305565b8062002400575b50906040956200238f6200239e938851956060875260608701916200345a565b9184830360208601526200345a565b428286015233916001600160a01b0384169185917f4d489902cb58125178940d9999449ef9dcb2d5a62606b2849104bf9f9adffad49181900390a460015f8051602062004d5d8339815191525582519182526001600160a01b03166020820152f35b5f80808093959495335af16200241562003426565b5015620007cf5790866200236f565b015190508a8062002298565b9250600585015f5260205f20905f935b601f198416851062002487576001945083601f198116106200246e575b505050811b016005830155620022af565b01515f1960f88460031b161c191690558a80806200245d565b8181015183556020948501946001909301929091019062002440565b909150600585015f5260205f20601f840160051c810160208510620024f0575b90849392915b601f830160051c82018110620024e157505062002280565b5f8155859450600101620024c9565b5080620024c3565b634e487b7160e01b5f52604160045260245ffd5b015190508a8062002237565b9250600485015f5260205f20905f935b601f19841685106200256f576001945083601f1981161062002556575b505050811b0160048301556200224e565b01515f1960f88460031b161c191690558a808062002545565b8181015183556020948501946001909301929091019062002528565b909150600485015f5260205f20601f840160051c810160208510620025d8575b90849392915b601f830160051c82018110620025c95750506200221f565b5f8155859450600101620025b1565b5080620025ab565b015190508a80620021d6565b9250600385015f5260205f20905f935b601f198416851062002643576001945083601f198116106200262a575b505050811b016003830155620021ed565b01515f1960f88460031b161c191690558a808062002619565b81810151835560209485019460019093019290910190620025fc565b909150600385015f5260205f20601f840160051c810160208510620026ac575b90849392915b601f830160051c820181106200269d575050620021be565b5f815585945060010162002685565b50806200267f565b015190508a8062002175565b9250600285015f5260205f20905f935b601f198416851062002717576001945083601f19811610620026fe575b505050811b0160028301556200218c565b01515f1960f88460031b161c191690558a8080620026ed565b81810151835560209485019460019093019290910190620026d0565b909150600285015f5260205f20601f840160051c81016020851062002780575b90849392915b601f830160051c82018110620027715750506200215d565b5f815585945060010162002759565b508062002753565b6001545f918291829182916001600160a01b03165af1620027a862003426565b5015620007cf578862001fbd565b60405163cd1c886760e01b8152600490fd5b3462001d67575f36600319011262001d6757602060ff601954166040519015158152f35b3462001d67575f36600319011262001d67576020600f54604051908152f35b3462001d6757602036600319011262001d67576200282862003ac1565b600435601555005b3462001d6757602036600319011262001d67576004356200285062003ac1565b80156200285c57600c55005b60405162461bcd60e51b8152602060048201526011602482015270125b9d985b1a59081d1a1c995cda1bdb19607a1b6044820152606490fd5b3462001d6757602036600319011262001d67576004355f908152601b602052604090208054600182015490916001600160a01b039182169190620028dc60028201620030a9565b90620028eb60038201620030a9565b620028f960048301620030a9565b6200290760058401620030a9565b946006840154169460078401546008850154600986015491600a87015493600b88015495600c89015460ff1697600d8a015499600e01549a6040519e8f9e8f906101e0928252602082015281604082015201620029649162003157565b8d810360608f0152620029779162003157565b8c810360808e01526200298a9162003157565b8b810360a08d01526200299d9162003157565b9860c08b015260e08a01526101008901526101208801526101408701526101608601526101808501620029d09162003197565b6101a08401526101c08301520390f35b3462001d67575f36600319011262001d67576006546040516001600160a01b039091168152602090f35b3462001d6757602036600319011262001d675762002a2762003004565b62002a3162003ac1565b600780546001600160a01b0319166001600160a01b0392909216919091179055005b3462001d67575f36600319011262001d67576002546040516001600160a01b039091168152602090f35b3462001d67575f36600319011262001d67576020601054604051908152f35b3462001d6757604036600319011262001d675762002ab962003004565b6001600160a01b03602435818116929083900362001d6757165f52601d60205260405f20905f52602052602060405f2054604051908152f35b3462001d6757602036600319011262001d67576020620005cc600435620034eb565b3462001d67575f36600319011262001d67576003546040516001600160a01b039091168152602090f35b3462001d6757604036600319011262001d67576004356024356001600160401b03811162001d675762002b7690369060040162002fc4565b919062002b8262003ac1565b5f828152601b602052604090206001810180549092916001600160a01b03918216156200197d57600c81019081549160ff8316600481101562001df95762002c4e57600360079360ff1916179055018054908162002c26575b50507ff74a47d89e84c2b28bdb4075073b40eaf57125e411cc91d8e631ab8f0835a26b9254169362002c1b6040519283926040845260408401916200345a565b4260208301520390a3005b5f8080938180945585600154165af162002c3f62003426565b5015620007cf57858062002bdb565b60405162461bcd60e51b815260206004820152600e60248201526d546f6b656e206e6f74206c69766560901b6044820152606490fd5b3462001d67575f36600319011262001d67576020601854604051908152f35b3462001d67575f36600319011262001d67576020601354604051908152f35b3462001d6757602036600319011262001d675760043580151580910362001d675762002ced62003ac1565b60ff8019601954169116176019555f80f35b3462001d67575f36600319011262001d67576020600e54604051908152f35b3462001d67575f36600319011262001d67576020600a54604051908152f35b3462001d6757602036600319011262001d675760043562002d5d62003ac1565b62002d6d6101f4821115620034b1565b601755005b3462001d6757602036600319011262001d675760043562002d9262003ac1565b62002da26113888211156200347a565b601155005b3462001d6757604036600319011262001d67576001600160401b0360043581811162001d675762002ddd90369060040162002f91565b9160249060243590811162001d675762002dfc90369060040162002fc4565b929062002e0862003ac1565b5f5b85811062002e1457005b62002e21818785620033e5565b355f52602090601b825260405f209160018084019060018060a01b03948583541615158062002f0a575b62002e60575b50505050600191500162002e0a565b600c8101805460ff19166003179055600701805491908262002ee2575b5050507ff74a47d89e84c2b28bdb4075073b40eaf57125e411cc91d8e631ab8f0835a26b60019462002eb1858c8a620033e5565b359254169260405180916040825262002ecf604083018d8b6200345a565b9042908301520390a38780808062002e51565b5f80938882948380955554165af162002efa62003426565b5015620007cf5789808062002e7d565b5060ff600c82015416600481101562002f24571562002e4b565b89634e487b7160e01b5f5260216004525ffd5b3462001d67576020620005cc62002f4e3662002f7a565b9062003346565b3462001d67575f36600319011262001d67576008546001600160a01b03168152602090f35b604090600319011262001d67576004359060243590565b9181601f8401121562001d67578235916001600160401b03831162001d67576020808501948460051b01011162001d6757565b9181601f8401121562001d67578235916001600160401b03831162001d67576020838186019501011162001d6757565b60243590811515820362001d6757565b600435906001600160a01b038216820362001d6757565b90600182811c921680156200304b575b60208310146200303757565b634e487b7160e01b5f52602260045260245ffd5b91607f16916200302b565b6101e081019081106001600160401b03821117620024f857604052565b6001600160401b038111620024f857604052565b90601f801991011681019081106001600160401b03821117620024f857604052565b9060405191825f8254620030bd816200301b565b908184526020946001916001811690815f14620031335750600114620030f1575b505050620030ef9250038362003087565b565b5f90815285812095935091905b8183106200311a575050620030ef93508201015f8080620030de565b85548884018501529485019487945091830191620030fe565b92505050620030ef94925060ff191682840152151560051b8201015f8080620030de565b91908251928382525f5b84811062003182575050825f602080949584010152601f8019910116010190565b60208183018101518483018201520162003161565b90600482101562001df95752565b906101e09180518252620032216200320e620031fb620031e860208501519660018060a01b03809816602088015260408601519080604089015287019062003157565b6060850151868203606088015262003157565b6080840151858203608087015262003157565b60a083015184820360a086015262003157565b9260c08201511660c083015260e081015160e0830152610100808201519083015261012080820151908301526101408082015190830152610160808201519083015262003278610180808301519084019062003197565b6101a080820151908301526101c08091015191015290565b6020808201906020835283518092526040830192602060408460051b8301019501935f915b848310620032c65750505050505090565b9091929394958480620032e6600193603f198682030187528a51620031a5565b9801930193019194939290620032b5565b9190820180921162001d8357565b9190820391821162001d8357565b8181029291811591840414171562001d8357565b811562003332570490565b634e487b7160e01b5f52601260045260245ffd5b9190915f52601b60205260405f209160ff600c84015416600481101562001df957620033df57620033c6620033d091620033bf6200338c600d54600788015490620032f7565b620033b8620033a46008600e54990154809962003305565b93620033b1858462003313565b92620032f7565b9062003327565b9062003305565b92600b5462003305565b808311620033db5750565b9150565b505f9150565b9190811015620033f65760051b0190565b634e487b7160e01b5f52603260045260245ffd5b6001600160401b038111620024f857601f01601f191660200190565b3d1562003455573d906200343a826200340a565b916200344a604051938462003087565b82523d5f602084013e565b606090565b908060209392818452848401375f828201840152601f01601f1916010190565b156200348257565b60405162461bcd60e51b81526020600482015260076024820152664d61782035302560c81b6044820152606490fd5b15620034b957565b60405162461bcd60e51b815260206004820152600a6024820152694d61782035252066656560b01b6044820152606490fd5b6200351c670de0b6b3a764000091805f52601b60205260086200351260405f2092620039c9565b9101549062003313565b0490565b5f19811462001d835760010190565b9291926200353d826200340a565b916200354d604051938462003087565b82948184528183011162001d67578281602093845f960137010152565b60405190620035798262003056565b5f6101c0838281528260208201526060604082015260608082015260606080820152606060a08201528260c08201528260e08201528261010082015282610120820152826101408201528261016082015282610180820152826101a08201520152565b90604051620035eb8162003056565b8254815260018301546001600160a01b039081166020830152909283916200361660028301620030a9565b60408401526200362960038301620030a9565b60608401526200363c60048301620030a9565b60808401526200364f60058301620030a9565b60a084015260068201541660c0830152600781015460e083015260088101546101008301526009810154610120830152600a810154610140830152600b81015461016083015260ff600c82015416600481101562001df9576101c091600e91610180850152600d8101546101a08501520154910152565b6001600160401b038111620024f85760051b60200190565b604051602081018181106001600160401b03821117620024f8576040525f815290565b906200370d82620036c6565b6200371c604051918262003087565b82815280926200372f601f1991620036c6565b01905f5b8281106200374057505050565b6020906200374d6200356a565b8282850101520162003733565b8051821015620033f65760209160051b010190565b9190601454908184101562003816576200378a9084620032f7565b908082116200380d575b50620037ab620037a5848362003305565b62003701565b92805b828110620037bb57505050565b600181019081811162001d83576001915f52601b6020526200380560405f20620037f1620037ea868562003305565b91620035dc565b620037fd828a6200375a565b52876200375a565b5001620037ae565b90505f62003794565b5050905062003824620036de565b90565b60145491925f60015b84811115620039795750808310156200396a5780620038508685620032f7565b1162003953575b50620038638462003701565b935f915f9160015b868111158062003949575b156200394057805f52601b60209080825260409160ff600c845f200154166004808210156200392d575015620038bb575b505050620038b59062003520565b6200386b565b888894981015620038e3575b505050620038d9620038b59162003520565b94905f80620038a7565b9562003904620038d9936200392493620038b596998b5f52525f20620035dc565b62003910828d6200375a565b526200391d818c6200375a565b5062003520565b94915f620038c7565b602190634e487b7160e01b5f525260245ffd5b50509350505050565b5081841062003876565b62003962919450829062003305565b925f62003857565b509250505062003824620036de565b805f52601b60205260ff600c60405f200154166004808210156200392d575015620039b0575b620039aa9062003520565b62003830565b90620039c0620039aa9162003520565b9190506200399f565b5f52601b60205260405f2060ff600c82015416600481101562001df95762003a385762003a1262003a02600d54600784015490620032f7565b916008600e549101549062003305565b670de0b6b3a76400009182810292818404149015171562001d8357620038249162003327565b505f90565b9190915f52601b60205260405f209160ff600c84015416600481101562001df957620033df5760088301549081811162003aba5790620033bf62003aae92620033b862003aa162003a976007600d549901548099620032f7565b94600e5462003305565b91620033b1838662003313565b91808311620033db5750565b505f925050565b5f546001600160a01b0316330362003ad557565b60405163118cdaa760e01b8152336004820152602490fd5b5f8051602062004d5d833981519152600281541462003b0c5760029055565b604051633ee5aeb560e01b8152600490fd5b9081602091031262001d675751801515810362001d675790565b9081606091031262001d6757805191604060208301519201519056fe60e060405234620007225762001208803803806200001d8162000726565b928339810190608081830312620007225780516001600160401b039190828111620007225783620000509183016200074c565b602093848301518481116200072257816200006d9185016200074c565b90604084015185811162000722576060916200008b9186016200074c565b930151946001600160a01b038616860362000722578251958587116200063a576003948554946001988987811c9716801562000717575b858810146200070357601f96878111620006bb575b5080858882116001146200065a575f916200064e575b505f19828a1b1c1916908a1b1787555b8451928884116200063a5760049384548b81811c911680156200062f575b878210146200055257888111620005e7575b5080868982116001146200057c575f9162000570575b505f19828b1b1c1916908b1b1784555b3360805260a0528151888111620004765760059283548b81811c9116801562000565575b87821014620005525790818984931162000501575b50869089831160011462000495575f9262000489575b50505f19828a1b1c1916908a1b1782555b4260c05280519088821162000476576006548a81811c911680156200046b575b86821014620004585790818884931162000406575b508590888311600114620003a1575f9262000395575b50505f1982891b1c191690891b176006555b83519687116200038257600754918883811c9316801562000377575b848410146200036457508482116200031d575b505080928511600114620002b157509383949184925f95620002a5575b50501b925f19911b1c1916176007555b604051610a4b9081620007bd823960805181818161015f015281816101e80152610448015260a05181610899015260c051816101280152f35b015193505f806200025c565b92919084601f19811660075f52855f20955f905b89838310620003025750505010620002e8575b50505050811b016007556200026c565b01519060f8845f19921b161c191690555f808080620002d8565b858701518955909701969485019488935090810190620002c5565b60075f52825f209085808901821c830193858a106200035a575b01901c019087905b8281106200034e57506200023f565b5f81550187906200033f565b9350829362000337565b602290634e487b7160e01b5f525260245ffd5b92607f16926200022c565b604182634e487b7160e01b5f525260245ffd5b015190505f80620001fe565b908b9350601f1983169160065f52875f20925f5b89828210620003ef5750508411620003d7575b505050811b0160065562000210565b01515f19838b1b60f8161c191690555f8080620003c8565b8385015186558f97909501949384019301620003b5565b90915060065f52855f2088808501861c8201928886106200044e575b918d918695949301871c01915b8281106200043f575050620001e8565b5f81558594508d91016200042f565b9250819262000422565b602285634e487b7160e01b5f525260245ffd5b90607f1690620001d3565b604184634e487b7160e01b5f525260245ffd5b015190505f80620001a2565b908c9350601f19831691865f52885f20925f5b8a828210620004e15750508411620004c9575b505050811b018255620001b3565b01515f19838c1b60f8161c191690555f8080620004bb565b91929395968291958786015181550195019301908e9594939291620004a8565b909150845f52865f2089808501871c82019289861062000548575b918e918695949301881c01915b828110620005395750506200018c565b5f81558594508e910162000529565b925081926200051c565b602286634e487b7160e01b5f525260245ffd5b90607f169062000177565b90508701515f62000143565b8c9250601f19821690875f52885f20915f5b8a8c838310620005c8575050508311620005b0575b5050811b01845562000153565b8901515f19838d1b60f8161c191690555f80620005a3565b94848294959798929396015181550194019201908e949392916200058e565b855f52865f208980840160051c82019289851062000625575b0160051c01908c905b828110620006195750506200012d565b5f8155018c9062000609565b9250819262000600565b90607f16906200011b565b634e487b7160e01b5f52604160045260245ffd5b90508201515f620000ed565b8b9250601f198216908a5f52875f20915f5b89828210620006a457505083116200068c575b5050811b018755620000fd565b8401515f19838c1b60f8161c191690555f806200067f565b8388015185558f969094019392830192016200066c565b885f52855f208880840160051c820192888510620006f9575b0160051c01908b905b828110620006ed575050620000d7565b5f8155018b90620006dd565b92508192620006d4565b634e487b7160e01b5f52602260045260245ffd5b96607f1696620000c2565b5f80fd5b6040519190601f01601f191682016001600160401b038111838210176200063a57604052565b919080601f84011215620007225782516001600160401b0381116200063a5760209062000782601f8201601f1916830162000726565b9281845282828701011162000722575f5b818110620007a85750825f9394955001015290565b85810183015184820184015282016200079356fe6080604090808252600480361015610015575f80fd5b5f3560e01c91826302d05d3f146108875750816306fdde03146107ac578163095ea7b3146107045781630bf82da41461062957816318160ddd1461060b57816323b872dd14610519578163313ce567146104fe57816340c10f191461041f57816370a08231146103e957816395d89b41146102c75781639dc29fac146101be57508063a9059cbb1461018e578063c45a01551461014b578063cf09e0d0146101115763dd62ed3e146100c5575f80fd5b3461010d578060031936011261010d576020906100e061090f565b6100e8610925565b9060018060a01b038091165f5260018452825f2091165f528252805f20549051908152f35b5f80fd5b503461010d575f36600319011261010d57602090517f00000000000000000000000000000000000000000000000000000000000000008152f35b503461010d575f36600319011261010d57517f00000000000000000000000000000000000000000000000000000000000000006001600160a01b03168152602090f35b503461010d578060031936011261010d576020906101b76101ad61090f565b602435903361093b565b5160018152f35b823461010d578060031936011261010d576101d761090f565b602435929091906001600160a01b037f0000000000000000000000000000000000000000000000000000000000000000811633036102b85783169283156102a257835f525f602052825f20549185831061026e575f857fddf252ad1be2c89b69c2b068fc378daa952ba7f163c4a11628f55a4df523b3ef6020898881898688528785520381872055816002540360025551908152a3005b835163391434e360e21b81526001600160a01b03909216908201908152602081018390526040810186905281906060010390fd5b505f6024925191634b637e8f60e11b8352820152fd5b509051630636a15760e11b8152fd5b823461010d575f36600319011261010d578051905f60075460018160011c90600183169283156103df575b60209384841081146103cc578388529081156103b0575060011461035a575b505050829003601f01601f191682019267ffffffffffffffff84118385101761034757508291826103439252826108c8565b0390f35b604190634e487b7160e01b5f525260245ffd5b60075f908152929350837fa66cc928b5edb82af9bd49922954155ab7b0942694bea4ce44661d9a8736c6885b83851061039c5750505050830101848080610311565b805488860183015293019284908201610386565b60ff1916878501525050151560051b8401019050848080610311565b602289634e487b7160e01b5f525260245ffd5b91607f16916102f2565b823461010d57602036600319011261010d576020906001600160a01b0361040e61090f565b165f525f8252805f20549051908152f35b823461010d578060031936011261010d5761043861090f565b60243591906001600160a01b03907f0000000000000000000000000000000000000000000000000000000000000000821633036104ee57169283156104d957600254908382018092116104c657505f927fddf252ad1be2c89b69c2b068fc378daa952ba7f163c4a11628f55a4df523b3ef9260209260025585855284835280852082815401905551908152a3005b601190634e487b7160e01b5f525260245ffd5b5f602492519163ec442f0560e01b8352820152fd5b8251630636a15760e11b81528590fd5b823461010d575f36600319011261010d576020905160128152f35b90503461010d57606036600319011261010d5761053461090f565b61053c610925565b906044359260018060a01b038216805f526001602052855f20335f52602052855f2054915f198310610577575b6020876101b788888861093b565b8583106105df5781156105c95733156105b357505f908152600160209081528682203383528152908690209185900390915582906101b7610569565b6024905f885191634a1406b160e11b8352820152fd5b6024905f88519163e602df0560e01b8352820152fd5b8651637dc7a0d960e11b8152339181019182526020820193909352604081018690528291506060010390fd5b823461010d575f36600319011261010d576020906002549051908152f35b823461010d575f36600319011261010d578051905f60055460018160011c90600183169283156106fa575b60209384841081146103cc578388529081156103b057506001146106a457505050829003601f01601f191682019267ffffffffffffffff84118385101761034757508291826103439252826108c8565b60055f908152929350837f036b6384b5eca791c62761152d0c79bb0604c104a5fb6f4eb0703f3154bb3db05b8385106106e65750505050830101848080610311565b8054888601830152930192849082016106d0565b91607f1691610654565b823461010d578060031936011261010d5761071d61090f565b602435903315610796576001600160a01b03169081156107805760209350335f5260018452825f20825f52845280835f205582519081527f8c5be1e5ebec7d5bd14f71427d1e84f3dd0314c0f7b2291e5b200ac8c7c3b925843392a35160018152f35b8251634a1406b160e11b81525f81860152602490fd5b825163e602df0560e01b81525f81860152602490fd5b823461010d575f36600319011261010d578051905f60065460018160011c906001831692831561087d575b60209384841081146103cc578388529081156103b0575060011461082757505050829003601f01601f191682019267ffffffffffffffff84118385101761034757508291826103439252826108c8565b60065f908152929350837ff652222313e28459528d920b65115c16c04f3efc82aaedc97be59f3f377c0d3f5b8385106108695750505050830101848080610311565b805488860183015293019284908201610853565b91607f16916107d7565b3461010d575f36600319011261010d577f00000000000000000000000000000000000000000000000000000000000000006001600160a01b03168152602090f35b602080825282518183018190529093925f5b8281106108fb57505060409293505f838284010152601f8019910116010190565b8181018601518482016040015285016108da565b600435906001600160a01b038216820361010d57565b602435906001600160a01b038216820361010d57565b916001600160a01b038084169283156109fd57169283156109e557825f525f60205260405f2054908282106109b35750817fddf252ad1be2c89b69c2b068fc378daa952ba7f163c4a11628f55a4df523b3ef92602092855f525f84520360405f2055845f5260405f20818154019055604051908152a3565b60405163391434e360e21b81526001600160a01b03919091166004820152602481019190915260448101829052606490fd5b60405163ec442f0560e01b81525f6004820152602490fd5b604051634b637e8f60e11b81525f6004820152602490fdfea2646970667358221220651555d6067d4d1611616e2df992710b20b7b4034946fef89b317f8d47f0b5e664736f6c634300081800339b779b17422d0df92223018b32b4d1fa46e071723d6817e2486d003becc55f00a2646970667358221220ad690941cea126273e658797f4de4b4aac3ff3ada5df3f95d56b7d30275480f264736f6c63430008180033","linkReferences":{}},"methodIdentifiers":{"BPS_DENOMINATOR()":"e1a45218","PRECISION()":"aaf5eb68","batchDelistTokens(uint256[],string)":"0576453c","batchSetFeeWhitelist(address[],bool)":"f31cd8a6","burnBps()":"53deb3d6","buyFeeBps()":"77d2300e","buyTokens(uint256,uint256)":"7975ce28","calculateBuyAmount(uint256,uint256)":"03ff40fb","calculateSellAmount(uint256,uint256)":"ebff160b","deadAddress()":"27c8f835","delistToken(uint256,string)":"2596eeba","emergencyWithdraw()":"db2e21bc","feeWhitelist(address)":"d408f657","getAllTokens(uint256,uint256)":"9a043832","getCurrentPrice(uint256)":"c55d0f56","getLiveTokens(uint256,uint256)":"aa347dfb","getMarketCap(uint256)":"283c9c31","getToken(uint256)":"e4b50cb8","getTokenByAddress(address)":"91ded8fa","getTokenStats(uint256)":"c5829514","graduationThreshold()":"8b0bc501","isTestToken(address)":"6f692f06","launchFee()":"cf3cf573","launchToken(string,string,string,string)":"5fc6762c","lpRecipient()":"452e68dd","maxSupply()":"d5abeb01","owner()":"8da5cb5b","paisleyFactory()":"03e9faea","paisleyLpBps()":"ece90022","paisleyRouter()":"c6c095e1","paused()":"5c975abb","platformFeeBps()":"22dcd13e","pulseXFactory()":"4f01a3a7","pulseXLpBps()":"325b6a57","pulseXRouter()":"aec9b6f4","renounceOwnership()":"715018a6","sellFeeBps()":"23cbe1f3","sellTokens(uint256,uint256,uint256)":"709ef231","setBurnBps(uint256)":"addc831e","setBuyFee(uint256)":"0cc835a3","setDeadAddress(address)":"77975e0b","setFeeWhitelist(address,bool)":"97576786","setGraduationThreshold(uint256)":"52f5b3ef","setLaunchFee(uint256)":"5313be2c","setLpRecipient(address)":"b9e05c6a","setMaxSupply(uint256)":"6f8b44b0","setPaisleyFactory(address)":"cecb62ba","setPaisleyLpBps(uint256)":"0c8f38f6","setPaisleyRouter(address)":"487dee33","setPaused(bool)":"16c38b3c","setPlatformFeeBps(uint256)":"c580c942","setPulseXFactory(address)":"e3632a30","setPulseXLpBps(uint256)":"95a3b297","setPulseXRouter(address)":"7e5cd601","setSellFee(uint256)":"8b4cee08","setSuccessRewardBps(uint256)":"a2d163d4","setTestToken(address,bool)":"a46302f9","setTradingFee(uint256)":"b0d54bcf","setTreasury(address)":"f0f44260","setVirtualReserves(uint256,uint256)":"b99b3b02","setWpls(address)":"ea2e9cad","successRewardBps()":"6115f90b","testGraduationThreshold()":"1459fef7","tokenCount()":"9f181b5e","tokenHolderCount(address)":"e1203ecc","tokenToId(address)":"ca82a014","tokens(uint256)":"4f64b2be","tradingFeeBps()":"924cca9a","transferOwnership(address)":"f2fde38b","treasury()":"61d027b3","userHoldings(address,address)":"2d7711d9","virtualPlsReserves()":"d05521f4","virtualTokenReserves()":"1655bc62","wpls()":"927ef7fa"},"id":34}