{"abi":[{"type":"constructor","inputs":[{"name":"_treasury","type":"address","internalType":"address"}],"stateMutability":"nonpayable"},{"type":"receive","stateMutability":"payable"},{"type":"function","name":"BPS_DENOMINATOR","inputs":[],"outputs":[{"name":"","type":"uint256","internalType":"uint256"}],"stateMutability":"view"},{"type":"function","name":"PRECISION","inputs":[],"outputs":[{"name":"","type":"uint256","internalType":"uint256"}],"stateMutability":"view"},{"type":"function","name":"batchDelistTokens","inputs":[{"name":"tokenIds","type":"uint256[]","internalType":"uint256[]"},{"name":"reason","type":"string","internalType":"string"}],"outputs":[],"stateMutability":"nonpayable"},{"type":"function","name":"batchSetFeeWhitelist","inputs":[{"name":"accounts","type":"address[]","internalType":"address[]"},{"name":"whitelisted","type":"bool","internalType":"bool"}],"outputs":[],"stateMutability":"nonpayable"},{"type":"function","name":"burnBps","inputs":[],"outputs":[{"name":"","type":"uint256","internalType":"uint256"}],"stateMutability":"view"},{"type":"function","name":"buyFeeBps","inputs":[],"outputs":[{"name":"","type":"uint256","internalType":"uint256"}],"stateMutability":"view"},{"type":"function","name":"buyTokens","inputs":[{"name":"tokenId","type":"uint256","internalType":"uint256"},{"name":"minTokensOut","type":"uint256","internalType":"uint256"}],"outputs":[{"name":"tokensOut","type":"uint256","internalType":"uint256"}],"stateMutability":"payable"},{"type":"function","name":"calculateBuyAmount","inputs":[{"name":"tokenId","type":"uint256","internalType":"uint256"},{"name":"plsIn","type":"uint256","internalType":"uint256"}],"outputs":[{"name":"tokensOut","type":"uint256","internalType":"uint256"}],"stateMutability":"view"},{"type":"function","name":"calculateSellAmount","inputs":[{"name":"tokenId","type":"uint256","internalType":"uint256"},{"name":"tokensIn","type":"uint256","internalType":"uint256"}],"outputs":[{"name":"plsOut","type":"uint256","internalType":"uint256"}],"stateMutability":"view"},{"type":"function","name":"deadAddress","inputs":[],"outputs":[{"name":"","type":"address","internalType":"address"}],"stateMutability":"view"},{"type":"function","name":"delistToken","inputs":[{"name":"tokenId","type":"uint256","internalType":"uint256"},{"name":"reason","type":"string","internalType":"string"}],"outputs":[],"stateMutability":"nonpayable"},{"type":"function","name":"emergencyWithdraw","inputs":[],"outputs":[],"stateMutability":"nonpayable"},{"type":"function","name":"feeWhitelist","inputs":[{"name":"","type":"address","internalType":"address"}],"outputs":[{"name":"","type":"bool","internalType":"bool"}],"stateMutability":"view"},{"type":"function","name":"getAllTokens","inputs":[{"name":"offset","type":"uint256","internalType":"uint256"},{"name":"limit","type":"uint256","internalType":"uint256"}],"outputs":[{"name":"result","type":"tuple[]","internalType":"struct PumpFud.MemeToken[]","components":[{"name":"id","type":"uint256","internalType":"uint256"},{"name":"tokenAddress","type":"address","internalType":"address"},{"name":"name","type":"string","internalType":"string"},{"name":"symbol","type":"string","internalType":"string"},{"name":"description","type":"string","internalType":"string"},{"name":"imageUri","type":"string","internalType":"string"},{"name":"creator","type":"address","internalType":"address"},{"name":"reserveBalance","type":"uint256","internalType":"uint256"},{"name":"tokensSold","type":"uint256","internalType":"uint256"},{"name":"tradingVolume","type":"uint256","internalType":"uint256"},{"name":"createdAt","type":"uint256","internalType":"uint256"},{"name":"graduatedAt","type":"uint256","internalType":"uint256"},{"name":"status","type":"uint8","internalType":"enum PumpFud.TokenStatus"},{"name":"holderCount","type":"uint256","internalType":"uint256"},{"name":"tradeCount","type":"uint256","internalType":"uint256"}]}],"stateMutability":"view"},{"type":"function","name":"getCurrentPrice","inputs":[{"name":"tokenId","type":"uint256","internalType":"uint256"}],"outputs":[{"name":"price","type":"uint256","internalType":"uint256"}],"stateMutability":"view"},{"type":"function","name":"getLiveTokens","inputs":[{"name":"offset","type":"uint256","internalType":"uint256"},{"name":"limit","type":"uint256","internalType":"uint256"}],"outputs":[{"name":"result","type":"tuple[]","internalType":"struct PumpFud.MemeToken[]","components":[{"name":"id","type":"uint256","internalType":"uint256"},{"name":"tokenAddress","type":"address","internalType":"address"},{"name":"name","type":"string","internalType":"string"},{"name":"symbol","type":"string","internalType":"string"},{"name":"description","type":"string","internalType":"string"},{"name":"imageUri","type":"string","internalType":"string"},{"name":"creator","type":"address","internalType":"address"},{"name":"reserveBalance","type":"uint256","internalType":"uint256"},{"name":"tokensSold","type":"uint256","internalType":"uint256"},{"name":"tradingVolume","type":"uint256","internalType":"uint256"},{"name":"createdAt","type":"uint256","internalType":"uint256"},{"name":"graduatedAt","type":"uint256","internalType":"uint256"},{"name":"status","type":"uint8","internalType":"enum PumpFud.TokenStatus"},{"name":"holderCount","type":"uint256","internalType":"uint256"},{"name":"tradeCount","type":"uint256","internalType":"uint256"}]}],"stateMutability":"view"},{"type":"function","name":"getMarketCap","inputs":[{"name":"tokenId","type":"uint256","internalType":"uint256"}],"outputs":[{"name":"","type":"uint256","internalType":"uint256"}],"stateMutability":"view"},{"type":"function","name":"getToken","inputs":[{"name":"tokenId","type":"uint256","internalType":"uint256"}],"outputs":[{"name":"","type":"tuple","internalType":"struct PumpFud.MemeToken","components":[{"name":"id","type":"uint256","internalType":"uint256"},{"name":"tokenAddress","type":"address","internalType":"address"},{"name":"name","type":"string","internalType":"string"},{"name":"symbol","type":"string","internalType":"string"},{"name":"description","type":"string","internalType":"string"},{"name":"imageUri","type":"string","internalType":"string"},{"name":"creator","type":"address","internalType":"address"},{"name":"reserveBalance","type":"uint256","internalType":"uint256"},{"name":"tokensSold","type":"uint256","internalType":"uint256"},{"name":"tradingVolume","type":"uint256","internalType":"uint256"},{"name":"createdAt","type":"uint256","internalType":"uint256"},{"name":"graduatedAt","type":"uint256","internalType":"uint256"},{"name":"status","type":"uint8","internalType":"enum PumpFud.TokenStatus"},{"name":"holderCount","type":"uint256","internalType":"uint256"},{"name":"tradeCount","type":"uint256","internalType":"uint256"}]}],"stateMutability":"view"},{"type":"function","name":"getTokenByAddress","inputs":[{"name":"tokenAddress","type":"address","internalType":"address"}],"outputs":[{"name":"","type":"tuple","internalType":"struct PumpFud.MemeToken","components":[{"name":"id","type":"uint256","internalType":"uint256"},{"name":"tokenAddress","type":"address","internalType":"address"},{"name":"name","type":"string","internalType":"string"},{"name":"symbol","type":"string","internalType":"string"},{"name":"description","type":"string","internalType":"string"},{"name":"imageUri","type":"string","internalType":"string"},{"name":"creator","type":"address","internalType":"address"},{"name":"reserveBalance","type":"uint256","internalType":"uint256"},{"name":"tokensSold","type":"uint256","internalType":"uint256"},{"name":"tradingVolume","type":"uint256","internalType":"uint256"},{"name":"createdAt","type":"uint256","internalType":"uint256"},{"name":"graduatedAt","type":"uint256","internalType":"uint256"},{"name":"status","type":"uint8","internalType":"enum PumpFud.TokenStatus"},{"name":"holderCount","type":"uint256","internalType":"uint256"},{"name":"tradeCount","type":"uint256","internalType":"uint256"}]}],"stateMutability":"view"},{"type":"function","name":"getTokenStats","inputs":[{"name":"tokenId","type":"uint256","internalType":"uint256"}],"outputs":[{"name":"price","type":"uint256","internalType":"uint256"},{"name":"marketCap","type":"uint256","internalType":"uint256"},{"name":"reserveBalance","type":"uint256","internalType":"uint256"},{"name":"tokensSold","type":"uint256","internalType":"uint256"},{"name":"progress","type":"uint256","internalType":"uint256"},{"name":"status","type":"uint8","internalType":"enum PumpFud.TokenStatus"}],"stateMutability":"view"},{"type":"function","name":"graduationThreshold","inputs":[],"outputs":[{"name":"","type":"uint256","internalType":"uint256"}],"stateMutability":"view"},{"type":"function","name":"launchFee","inputs":[],"outputs":[{"name":"","type":"uint256","internalType":"uint256"}],"stateMutability":"view"},{"type":"function","name":"launchToken","inputs":[{"name":"name","type":"string","internalType":"string"},{"name":"symbol","type":"string","internalType":"string"},{"name":"description","type":"string","internalType":"string"},{"name":"imageUri","type":"string","internalType":"string"}],"outputs":[{"name":"tokenId","type":"uint256","internalType":"uint256"},{"name":"tokenAddress","type":"address","internalType":"address"}],"stateMutability":"payable"},{"type":"function","name":"lpRecipient","inputs":[],"outputs":[{"name":"","type":"address","internalType":"address"}],"stateMutability":"view"},{"type":"function","name":"maxSupply","inputs":[],"outputs":[{"name":"","type":"uint256","internalType":"uint256"}],"stateMutability":"view"},{"type":"function","name":"owner","inputs":[],"outputs":[{"name":"","type":"address","internalType":"address"}],"stateMutability":"view"},{"type":"function","name":"paisleyFactory","inputs":[],"outputs":[{"name":"","type":"address","internalType":"address"}],"stateMutability":"view"},{"type":"function","name":"paisleyLpBps","inputs":[],"outputs":[{"name":"","type":"uint256","internalType":"uint256"}],"stateMutability":"view"},{"type":"function","name":"paisleyRouter","inputs":[],"outputs":[{"name":"","type":"address","internalType":"address"}],"stateMutability":"view"},{"type":"function","name":"paused","inputs":[],"outputs":[{"name":"","type":"bool","internalType":"bool"}],"stateMutability":"view"},{"type":"function","name":"platformFeeBps","inputs":[],"outputs":[{"name":"","type":"uint256","internalType":"uint256"}],"stateMutability":"view"},{"type":"function","name":"pulseXFactory","inputs":[],"outputs":[{"name":"","type":"address","internalType":"address"}],"stateMutability":"view"},{"type":"function","name":"pulseXLpBps","inputs":[],"outputs":[{"name":"","type":"uint256","internalType":"uint256"}],"stateMutability":"view"},{"type":"function","name":"pulseXRouter","inputs":[],"outputs":[{"name":"","type":"address","internalType":"address"}],"stateMutability":"view"},{"type":"function","name":"renounceOwnership","inputs":[],"outputs":[],"stateMutability":"nonpayable"},{"type":"function","name":"sellFeeBps","inputs":[],"outputs":[{"name":"","type":"uint256","internalType":"uint256"}],"stateMutability":"view"},{"type":"function","name":"sellTokens","inputs":[{"name":"tokenId","type":"uint256","internalType":"uint256"},{"name":"tokensIn","type":"uint256","internalType":"uint256"},{"name":"minPlsOut","type":"uint256","internalType":"uint256"}],"outputs":[{"name":"plsOut","type":"uint256","internalType":"uint256"}],"stateMutability":"nonpayable"},{"type":"function","name":"setBurnBps","inputs":[{"name":"_burnBps","type":"uint256","internalType":"uint256"}],"outputs":[],"stateMutability":"nonpayable"},{"type":"function","name":"setBuyFee","inputs":[{"name":"_buyFeeBps","type":"uint256","internalType":"uint256"}],"outputs":[],"stateMutability":"nonpayable"},{"type":"function","name":"setDeadAddress","inputs":[{"name":"_deadAddress","type":"address","internalType":"address"}],"outputs":[],"stateMutability":"nonpayable"},{"type":"function","name":"setFeeWhitelist","inputs":[{"name":"account","type":"address","internalType":"address"},{"name":"whitelisted","type":"bool","internalType":"bool"}],"outputs":[],"stateMutability":"nonpayable"},{"type":"function","name":"setGraduationThreshold","inputs":[{"name":"_threshold","type":"uint256","internalType":"uint256"}],"outputs":[],"stateMutability":"nonpayable"},{"type":"function","name":"setLaunchFee","inputs":[{"name":"_launchFee","type":"uint256","internalType":"uint256"}],"outputs":[],"stateMutability":"nonpayable"},{"type":"function","name":"setLpRecipient","inputs":[{"name":"_lpRecipient","type":"address","internalType":"address"}],"outputs":[],"stateMutability":"nonpayable"},{"type":"function","name":"setMaxSupply","inputs":[{"name":"_maxSupply","type":"uint256","internalType":"uint256"}],"outputs":[],"stateMutability":"nonpayable"},{"type":"function","name":"setPaisleyFactory","inputs":[{"name":"_factory","type":"address","internalType":"address"}],"outputs":[],"stateMutability":"nonpayable"},{"type":"function","name":"setPaisleyLpBps","inputs":[{"name":"_lpBps","type":"uint256","internalType":"uint256"}],"outputs":[],"stateMutability":"nonpayable"},{"type":"function","name":"setPaisleyRouter","inputs":[{"name":"_router","type":"address","internalType":"address"}],"outputs":[],"stateMutability":"nonpayable"},{"type":"function","name":"setPaused","inputs":[{"name":"_paused","type":"bool","internalType":"bool"}],"outputs":[],"stateMutability":"nonpayable"},{"type":"function","name":"setPlatformFeeBps","inputs":[{"name":"_feeBps","type":"uint256","internalType":"uint256"}],"outputs":[],"stateMutability":"nonpayable"},{"type":"function","name":"setPulseXFactory","inputs":[{"name":"_factory","type":"address","internalType":"address"}],"outputs":[],"stateMutability":"nonpayable"},{"type":"function","name":"setPulseXLpBps","inputs":[{"name":"_lpBps","type":"uint256","internalType":"uint256"}],"outputs":[],"stateMutability":"nonpayable"},{"type":"function","name":"setPulseXRouter","inputs":[{"name":"_router","type":"address","internalType":"address"}],"outputs":[],"stateMutability":"nonpayable"},{"type":"function","name":"setSellFee","inputs":[{"name":"_sellFeeBps","type":"uint256","internalType":"uint256"}],"outputs":[],"stateMutability":"nonpayable"},{"type":"function","name":"setSuccessRewardBps","inputs":[{"name":"_rewardBps","type":"uint256","internalType":"uint256"}],"outputs":[],"stateMutability":"nonpayable"},{"type":"function","name":"setTradingFee","inputs":[{"name":"_tradingFeeBps","type":"uint256","internalType":"uint256"}],"outputs":[],"stateMutability":"nonpayable"},{"type":"function","name":"setTreasury","inputs":[{"name":"_treasury","type":"address","internalType":"address"}],"outputs":[],"stateMutability":"nonpayable"},{"type":"function","name":"setVirtualReserves","inputs":[{"name":"_virtualPls","type":"uint256","internalType":"uint256"},{"name":"_virtualTokens","type":"uint256","internalType":"uint256"}],"outputs":[],"stateMutability":"nonpayable"},{"type":"function","name":"setWpls","inputs":[{"name":"_wpls","type":"address","internalType":"address"}],"outputs":[],"stateMutability":"nonpayable"},{"type":"function","name":"successRewardBps","inputs":[],"outputs":[{"name":"","type":"uint256","internalType":"uint256"}],"stateMutability":"view"},{"type":"function","name":"tokenCount","inputs":[],"outputs":[{"name":"","type":"uint256","internalType":"uint256"}],"stateMutability":"view"},{"type":"function","name":"tokenHolderCount","inputs":[{"name":"","type":"address","internalType":"address"}],"outputs":[{"name":"","type":"uint256","internalType":"uint256"}],"stateMutability":"view"},{"type":"function","name":"tokenToId","inputs":[{"name":"","type":"address","internalType":"address"}],"outputs":[{"name":"","type":"uint256","internalType":"uint256"}],"stateMutability":"view"},{"type":"function","name":"tokens","inputs":[{"name":"","type":"uint256","internalType":"uint256"}],"outputs":[{"name":"id","type":"uint256","internalType":"uint256"},{"name":"tokenAddress","type":"address","internalType":"address"},{"name":"name","type":"string","internalType":"string"},{"name":"symbol","type":"string","internalType":"string"},{"name":"description","type":"string","internalType":"string"},{"name":"imageUri","type":"string","internalType":"string"},{"name":"creator","type":"address","internalType":"address"},{"name":"reserveBalance","type":"uint256","internalType":"uint256"},{"name":"tokensSold","type":"uint256","internalType":"uint256"},{"name":"tradingVolume","type":"uint256","internalType":"uint256"},{"name":"createdAt","type":"uint256","internalType":"uint256"},{"name":"graduatedAt","type":"uint256","internalType":"uint256"},{"name":"status","type":"uint8","internalType":"enum PumpFud.TokenStatus"},{"name":"holderCount","type":"uint256","internalType":"uint256"},{"name":"tradeCount","type":"uint256","internalType":"uint256"}],"stateMutability":"view"},{"type":"function","name":"tradingFeeBps","inputs":[],"outputs":[{"name":"","type":"uint256","internalType":"uint256"}],"stateMutability":"view"},{"type":"function","name":"transferOwnership","inputs":[{"name":"newOwner","type":"address","internalType":"address"}],"outputs":[],"stateMutability":"nonpayable"},{"type":"function","name":"treasury","inputs":[],"outputs":[{"name":"","type":"address","internalType":"address"}],"stateMutability":"view"},{"type":"function","name":"userHoldings","inputs":[{"name":"","type":"address","internalType":"address"},{"name":"","type":"address","internalType":"address"}],"outputs":[{"name":"","type":"uint256","internalType":"uint256"}],"stateMutability":"view"},{"type":"function","name":"virtualPlsReserves","inputs":[],"outputs":[{"name":"","type":"uint256","internalType":"uint256"}],"stateMutability":"view"},{"type":"function","name":"virtualTokenReserves","inputs":[],"outputs":[{"name":"","type":"uint256","internalType":"uint256"}],"stateMutability":"view"},{"type":"function","name":"wpls","inputs":[],"outputs":[{"name":"","type":"address","internalType":"address"}],"stateMutability":"view"},{"type":"event","name":"FeesCollected","inputs":[{"name":"token","type":"address","indexed":true,"internalType":"address"},{"name":"amount","type":"uint256","indexed":false,"internalType":"uint256"},{"name":"treasury","type":"address","indexed":true,"internalType":"address"}],"anonymous":false},{"type":"event","name":"OwnershipTransferred","inputs":[{"name":"previousOwner","type":"address","indexed":true,"internalType":"address"},{"name":"newOwner","type":"address","indexed":true,"internalType":"address"}],"anonymous":false},{"type":"event","name":"TokenBought","inputs":[{"name":"tokenId","type":"uint256","indexed":true,"internalType":"uint256"},{"name":"buyer","type":"address","indexed":true,"internalType":"address"},{"name":"plsIn","type":"uint256","indexed":false,"internalType":"uint256"},{"name":"tokensOut","type":"uint256","indexed":false,"internalType":"uint256"},{"name":"newPrice","type":"uint256","indexed":false,"internalType":"uint256"},{"name":"timestamp","type":"uint256","indexed":false,"internalType":"uint256"}],"anonymous":false},{"type":"event","name":"TokenDelisted","inputs":[{"name":"tokenId","type":"uint256","indexed":true,"internalType":"uint256"},{"name":"tokenAddress","type":"address","indexed":true,"internalType":"address"},{"name":"reason","type":"string","indexed":false,"internalType":"string"},{"name":"timestamp","type":"uint256","indexed":false,"internalType":"uint256"}],"anonymous":false},{"type":"event","name":"TokenGraduated","inputs":[{"name":"tokenId","type":"uint256","indexed":true,"internalType":"uint256"},{"name":"tokenAddress","type":"address","indexed":true,"internalType":"address"},{"name":"lpPair","type":"address","indexed":true,"internalType":"address"},{"name":"plsLiquidity","type":"uint256","indexed":false,"internalType":"uint256"},{"name":"tokenLiquidity","type":"uint256","indexed":false,"internalType":"uint256"},{"name":"lpBurned","type":"uint256","indexed":false,"internalType":"uint256"},{"name":"tokensBurnedToDead","type":"uint256","indexed":false,"internalType":"uint256"},{"name":"creatorReward","type":"uint256","indexed":false,"internalType":"uint256"},{"name":"timestamp","type":"uint256","indexed":false,"internalType":"uint256"}],"anonymous":false},{"type":"event","name":"TokenLaunched","inputs":[{"name":"tokenId","type":"uint256","indexed":true,"internalType":"uint256"},{"name":"tokenAddress","type":"address","indexed":true,"internalType":"address"},{"name":"creator","type":"address","indexed":true,"internalType":"address"},{"name":"name","type":"string","indexed":false,"internalType":"string"},{"name":"symbol","type":"string","indexed":false,"internalType":"string"},{"name":"timestamp","type":"uint256","indexed":false,"internalType":"uint256"}],"anonymous":false},{"type":"event","name":"TokenSold","inputs":[{"name":"tokenId","type":"uint256","indexed":true,"internalType":"uint256"},{"name":"seller","type":"address","indexed":true,"internalType":"address"},{"name":"tokensIn","type":"uint256","indexed":false,"internalType":"uint256"},{"name":"plsOut","type":"uint256","indexed":false,"internalType":"uint256"},{"name":"newPrice","type":"uint256","indexed":false,"internalType":"uint256"},{"name":"timestamp","type":"uint256","indexed":false,"internalType":"uint256"}],"anonymous":false},{"type":"event","name":"TreasuryUpdated","inputs":[{"name":"oldTreasury","type":"address","indexed":true,"internalType":"address"},{"name":"newTreasury","type":"address","indexed":true,"internalType":"address"}],"anonymous":false},{"type":"error","name":"InsufficientPayment","inputs":[]},{"type":"error","name":"InsufficientTokens","inputs":[]},{"type":"error","name":"InvalidToken","inputs":[]},{"type":"error","name":"OwnableInvalidOwner","inputs":[{"name":"owner","type":"address","internalType":"address"}]},{"type":"error","name":"OwnableUnauthorizedAccount","inputs":[{"name":"account","type":"address","internalType":"address"}]},{"type":"error","name":"Paused","inputs":[]},{"type":"error","name":"ReentrancyGuardReentrantCall","inputs":[]},{"type":"error","name":"SlippageExceeded","inputs":[]},{"type":"error","name":"TokenAlreadyGraduated","inputs":[]},{"type":"error","name":"TokenNotLive","inputs":[]},{"type":"error","name":"TransferFailed","inputs":[]},{"type":"error","name":"ZeroAmount","inputs":[]}],"bytecode":{"object":"0x608034620001f857601f62004eda38819003918201601f19168301916001600160401b03831184841017620001fc57808492602094604052833981010312620001f857516001600160a01b0380821691829003620001f85760017f9b779b17422d0df92223018b32b4d1fa46e071723d6817e2486d003becc55f00553315620001e0575f549060018060a01b03199133838216175f55604051913391167f8be0079c531659141344cd1fd0a4f28419497f9722a3daafe3b4186f6b6457e05f80a361dead82600354161760035573a1077a294dde1b09bb078844df40758a5d0f9a2782600454161760045573165c3410fc91ef562c50559f7d2289febed552d98260055416176005557329ea7545def87022badc76323f373ea1e707c5238260065416176006556acecb8f27f4200f3a000000806009556a295be96e64066972000000600a556a0c685fa11e01ec6f000000600b55600c556107d0600d556103e8600e555f600f556101f4601055606460115560646014556064601555606e6016558215620001ab5750818160015416176001556002541617600255604051614cc99081620002118239f35b62461bcd60e51b815260206004820152601060248201526f496e76616c696420747265617375727960801b6044820152606490fd5b604051631e4fbdf760e01b81525f6004820152602490fd5b5f80fd5b634e487b7160e01b5f52604160045260245ffdfe60808060405260043610156200001e575b5036156200001c575f80fd5b005b5f905f3560e01c90816303e9faea1462002e6c5750806303ff40fb1462002e4e5780630576453c1462002cbe5780630c8f38f61462002c895780630cc835a31462002c545780631655bc621462002c3557806316c38b3c1462002bf857806322dcd13e1462002bd957806323cbe1f31462002bba5780632596eeba1462002a7457806327c8f8351462002a4a578063283c9c311462002a285780632d7711d914620029d2578063325b6a5714620029b3578063452e68dd1462002989578063487dee3314620029405780634f01a3a714620029165780634f64b2be14620027cb57806352f5b3ef14620027665780635313be2c146200274157806353deb3d614620027225780635c975abb14620026fe5780635fc6762c1462001e2f5780636115f90b1462001e1057806361d027b31462001de65780636f8b44b01462001d84578063709ef2311462001a1a578063715018a614620019bd57806377975e0b146200193857806377d2300e14620019185780637975ce281462000f125780637e5cd6011462000e8e5780638b0bc5011462000e6e5780638b4cee081462000e375780638da5cb5b1462000e0e57806391ded8fa1462000db7578063924cca9a1462000d97578063927ef7fa1462000d6c57806395a3b2971462000d35578063975767861462000cd75780639a0438321462000cb65780639f181b5e1462000c96578063a2d163d41462000c36578063aa347dfb1462000c08578063aaf5eb681462000be3578063addc831e1462000bac578063aec9b6f41462000b81578063b0d54bcf1462000b4a578063b99b3b021462000ad2578063b9e05c6a1462000a48578063c55d0f561462000a25578063c580c94214620009c6578063c5829514146200090e578063c6c095e114620008e3578063ca82a01414620008a6578063cecb62ba1462000860578063cf3cf5731462000840578063d05521f41462000820578063d408f65714620007dd578063d5abeb0114620007bd578063db2e21bc1462000767578063e1203ecc146200072a578063e1a45218146200070b578063e3632a301462000686578063e4b50cb81462000632578063ea2e9cad14620005b0578063ebff160b1462000589578063ece900221462000569578063f0f4426014620004b9578063f2fde38b146200042a5763f31cd8a6036200001057346200042757604036600319011262000427576004356001600160401b0381116200042357620003af90369060040162002ea8565b620003b962002f0b565b90620003c4620039d8565b835b818110620003d2578480f35b620003df818386620032fc565b356001600160a01b03811691908290036200041f57600191865260186020526200041884604088209060ff801983541691151516179055565b01620003c6565b8580fd5b5080fd5b80fd5b50346200042757602036600319011262000427576200044862002f1b565b62000452620039d8565b6001600160a01b03908116908115620004a0575f54826001600160601b0360a01b8216175f55167f8be0079c531659141344cd1fd0a4f28419497f9722a3daafe3b4186f6b6457e05f80a380f35b604051631e4fbdf760e01b815260048101849052602490fd5b5034620004275760203660031901126200042757620004d762002f1b565b620004e1620039d8565b6001600160a01b039081169081156200053157600154826001600160601b0360a01b821617600155167f4ab5be82436d353e61ca18726e984e561f5c1cc7c6d38b29d2553c790434705a8380a380f35b60405162461bcd60e51b815260206004820152601060248201526f496e76616c696420747265617375727960801b6044820152606490fd5b503462000427578060031936011262000427576020600f54604051908152f35b503462000427576020620005a8620005a13662002e91565b9062003954565b604051908152f35b5034620004275760203660031901126200042757620005ce62002f1b565b620005d8620039d8565b6001600160a01b03168015620005fe576001600160601b0360a01b600454161760045580f35b60405162461bcd60e51b815260206004820152600c60248201526b496e76616c69642057504c5360a01b6044820152606490fd5b50346200042757602036600319011262000427576200066d604062000682926200065b62003481565b506004358152601960205220620034f3565b604051918291602083526020830190620030bc565b0390f35b5034620004275760203660031901126200042757620006a462002f1b565b620006ae620039d8565b6001600160a01b03168015620006d4576001600160601b0360a01b600654161760065580f35b60405162461bcd60e51b815260206004820152600f60248201526e496e76616c696420666163746f727960881b6044820152606490fd5b5034620004275780600319360112620004275760206040516127108152f35b50346200042757602036600319011262000427576020906040906001600160a01b036200075662002f1b565b168152601c83522054604051908152f35b5034620004275780600319360112620004275762000784620039d8565b8080808060018060a01b036001541647905af1620007a16200333d565b5015620007ab5780f35b6040516312171d8360e31b8152600490fd5b503462000427578060031936011262000427576020600954604051908152f35b503462000427576020366003190112620004275760209060ff906040906001600160a01b036200080c62002f1b565b168152601884522054166040519015158152f35b503462000427578060031936011262000427576020600b54604051908152f35b503462000427578060031936011262000427576020601354604051908152f35b50346200042757602036600319011262000427576200087e62002f1b565b62000888620039d8565b60018060a01b03166001600160601b0360a01b600854161760085580f35b50346200042757602036600319011262000427576020906040906001600160a01b03620008d262002f1b565b168152601a83522054604051908152f35b503462000427578060031936011262000427576007546040516001600160a01b039091168152602090f35b5034620004275760203660031901126200042757600435808252601960205260408220620009476200094083620038e0565b9262003402565b92600782015460088301549161271090818302918383041483151715620009b2575091620009b0939160ff600c6200098660c09996600a54906200323e565b9401541693604051968752602087015260408601526060850152608084015260a0830190620030ae565bf35b634e487b7160e01b81526011600452602490fd5b5034620004275760203660031901126200042757600435620009e7620039d8565b6101f48111620009f75760115580f35b60405162461bcd60e51b81526020600482015260066024820152654d617820352560d01b6044820152606490fd5b50346200042757602036600319011262000427576020620005a8600435620038e0565b503462000427576020366003190112620004275762000a6662002f1b565b62000a70620039d8565b6001600160a01b0316801562000a96576001600160601b0360a01b600254161760025580f35b60405162461bcd60e51b8152602060048201526014602482015273125b9d985b1a59081314081c9958da5c1a595b9d60621b6044820152606490fd5b5034620004275762000ae43662002e91565b9062000aef620039d8565b8015158062000b40575b1562000b0857600b55600c5580f35b60405162461bcd60e51b815260206004820152601060248201526f496e76616c696420726573657276657360801b6044820152606490fd5b5081151562000af9565b503462000427576020366003190112620004275760043562000b6b620039d8565b62000b7b6101f4821115620033c8565b60145580f35b503462000427578060031936011262000427576005546040516001600160a01b039091168152602090f35b503462000427576020366003190112620004275760043562000bcd620039d8565b62000bdd61138882111562003391565b600d5580f35b503462000427578060031936011262000427576020604051670de0b6b3a76400008152f35b503462000427576200068262000c2962000c223662002e91565b906200373e565b60405191829182620031a7565b503462000427576020366003190112620004275760043562000c57620039d8565b6107d0811162000c675760105580f35b60405162461bcd60e51b81526020600482015260076024820152664d61782032302560c81b6044820152606490fd5b503462000427578060031936011262000427576020601254604051908152f35b503462000427576200068262000c2962000cd03662002e91565b9062003686565b503462000427576040366003190112620004275762000d3262000cf962002f1b565b62000d0362002f0b565b9062000d0e620039d8565b60018060a01b031683526018602052604083209060ff801983541691151516179055565b80f35b503462000427576020366003190112620004275760043562000d56620039d8565b62000d6661138882111562003391565b600e5580f35b503462000427578060031936011262000427576004546040516001600160a01b039091168152602090f35b503462000427578060031936011262000427576020601454604051908152f35b50346200042757602036600319011262000427576200066d6040620006829262000de062002f1b565b62000dea62003481565b506001600160a01b03168152601a60209081528282205482526019905220620034f3565b50346200042757806003193601126200042757546040516001600160a01b039091168152602090f35b503462000427576020366003190112620004275760043562000e58620039d8565b62000e686101f4821115620033c8565b60165580f35b503462000427578060031936011262000427576020600a54604051908152f35b503462000427576020366003190112620004275762000eac62002f1b565b62000eb6620039d8565b6001600160a01b0316801562000edc576001600160601b0360a01b600554161760055580f35b60405162461bcd60e51b815260206004820152600e60248201526d24b73b30b634b2103937baba32b960911b6044820152606490fd5b5062000f1e3662002e91565b909162000f2a62003a04565b60ff60175416620019065734156200189157828152601960205260408120600181018054909491906001600160a01b03168015620018f45760ff600c830154166004811015620018e057620018ce573384526018602052604084205460ff1615620018b55783905b62000f9e82346200321c565b9262000fab84866200325d565b968710620018a3578615620018915762000fcb600782019485546200320e565b84556008810162000fde8882546200320e565b90556009810162000ff13482546200320e565b9055600e810162001003815462003437565b9055818652601b60205260408620335f5260205260405f20541562001879575b508452601b60205260408420335f5260205260405f20620010468682546200320e565b905585546001600160a01b031695863b156200186a576040516340c10f1960e01b808252336004830152602482018890529786908290604490829084905af180156200186e5790869162001852575b505081620017e8575b5050620010ab82620038e0565b827f4689c69f82cdf5b000bb00a84dd3258356c9997272fd94a9153e9d13a5b7c29a60405180620010f8339542908b34859094939260609260808301968352602083015260408201520152565b0390a354600a54111562001124575b60208360015f8051602062004c7483398151915255604051908152f35b80825260196020526040822090600c8201805460ff81166004811015620017d457620017c25760019060ff191617905542600b83015560018060a01b03600183015416926007830154906008840154612710948562001186600d54846200322a565b0492600e549987620011998c866200322a565b049a620011d4620011cc8a620011b3600f5480996200322a565b049a620011c36010548b6200322a565b0480996200321c565b95826200320e565b908115620017b357620011ff91620011f1620011f792886200322a565b6200323e565b80956200321c565b6003549091906001600160a01b03168a3b15620016f3576040518281526001600160a01b03919091166004820152602481018790528381604481838f5af18015620015155790849162001797575b50506200125b898d6200320e565b908a3b15620016f35760405190815230600482015260248101919091528281604481838e5af180156200178c5790839162001774575b5050819782998395849d600e541515806200175f575b62001535575b5050600f5415158062001520575b62001367575b5050508462001334575b509260c092602099927f3a5782ce12d354956baf524d170388ba14490cb2fc6cf272f82d65299416f4cc956001808060a01b039101541697604051998a528b8a01526040890152606088015260808701524260a087015260018060a01b031694a45f8062001107565b80808087600180989e9799969860a01b03600154165af1620013556200333d565b5015620007ab57929097915f620012cb565b60075460405163095ea7b360e01b81526001600160a01b03909116600482015260248101839052906020908290604490829088905af180156200151557620014df575b5060075460018501546001600160a01b0390811693911691908115605f808402849004141715620014cb5780605f810204605f1481151715620014cb576002546001600160a01b03169142610258810110620014b75760405163f305d71960e01b81526001600160a01b039586166004820152602481018290526064605f928302819004604483015291830282900491810191909152919093166084820152610258420160a482015291606091839160c4918391905af18015620014ac5762001476575b8080620012c1565b6200149c9060603d606011620014a4575b62001493818362002f9e565b81019062003a4f565b50506200146e565b503d62001487565b6040513d84823e3d90fd5b634e487b7160e01b86526011600452602486fd5b634e487b7160e01b85526011600452602485fd5b620015059060203d6020116200150d575b620014fc818362002f9e565b81019062003a35565b505f620013aa565b503d620014f0565b6040513d86823e3d90fd5b506007546001600160a01b03161515620012bb565b60055460405163095ea7b360e01b81526001600160a01b03909116600482015260248101829052929e50939b5091995093945091926020818d8187816044810103925af1801562001515576200173b575b5060055460018501546001600160a01b0390811693911691908115605f808402849004141715620014cb5780605f810204605f1481151715620014cb576002546001600160a01b03169142610258810110620014b75760405163f305d71960e01b81526001600160a01b039586166004820152602481018290526064605f928302819004604483015291830282900491810191909152919093166084820152426102580160a4820152939291606091859160c4918391905af19788156200172e5781988294839162001700575b5060065460018501546004805460405163e6a4390560e01b81526001600160a01b039384169281019290925282166024820152969b9a92969160209183916044918391165afa90811562001515578491620016b3575b509b5f80620012ad565b90506020813d602011620016f7575b81620016d16020938362002f9e565b81010312620016f357516001600160a01b0381168103620016f3575f620016a9565b8380fd5b3d9150620016c2565b919950506200172291935060603d606011620014a45762001493818362002f9e565b93919890935f62001653565b50604051903d90823e3d90fd5b620017579060203d6020116200150d57620014fc818362002f9e565b505f62001586565b506005546001600160a01b03161515620012a7565b6200177f9062002f8a565b6200042357815f62001291565b6040513d85823e3d90fd5b620017a29062002f8a565b620017af57825f6200124d565b8280fd5b5050620011ff8480956200321c565b60405163e2b861a160e01b8152600490fd5b634e487b7160e01b86526021600452602486fd5b848080808560018060a01b03600154165af1620018046200333d565b5015620007ab57546001546040519283526001600160a01b03908116929116907fbb64cfa7f75512208a9b73fb4034b028a5972cba07a53b641e16ba38571f133190602090a35f806200109e565b6200185d9062002f8a565b6200186a57845f62001095565b8480fd5b6040513d88823e3d90fd5b600d0162001888815462003437565b90555f62001023565b604051631f2a200560e01b8152600490fd5b604051638199f5f360e01b8152600490fd5b612710620018c6601554346200322a565b049062000f92565b60405163c0d2241560e01b8152600490fd5b634e487b7160e01b85526021600452602485fd5b60405163c1ab6dc160e01b8152600490fd5b6040516313d0ff5960e31b8152600490fd5b503462000427578060031936011262000427576020601554604051908152f35b50346200042757602036600319011262000427576200195662002f1b565b62001960620039d8565b6001600160a01b0316801562001986576001600160601b0360a01b600354161760035580f35b60405162461bcd60e51b815260206004820152600f60248201526e496e76616c6964206164647265737360881b6044820152606490fd5b50346200042757806003193601126200042757620019da620039d8565b5f80546001600160a01b0319811682556001600160a01b03167f8be0079c531659141344cd1fd0a4f28419497f9722a3daafe3b4186f6b6457e08280a380f35b503462001cde57606036600319011262001cde576004359060243562001a3f62003a04565b60ff60175416620019065780156200189157825f526020926019845260405f2092600184019360018060a01b0380865416958615620018f45760ff600c84015416600481101562001d7057620018ce576040516370a0823160e01b815233600482015288816024818b5afa801562001cd35787915f9162001d39575b501062001d275762001ace868662003954565b96335f526018895260ff60405f2054165f1462001d0e575f935b62001af4858a6200321c565b986044358a10620018a357891562001891576007820162001b178282546200321c565b90556008820162001b2a8a82546200321c565b905562001b3d600983019182546200320e565b9055600e810162001b4f815462003437565b9055815f52601b8a5260405f20335f528a5260405f2062001b728982546200321c565b9055838354165f52601b8a5260405f20335f528a5260405f20541562001ce2575b50803b1562001cde57604051632770a7eb60e21b815233600482015260248101889052905f908290604490829084905af1801562001cd35762001cbd575b508262001c64575b50505080808086335af162001bed6200333d565b5015620007ab577fb322b718fa78c3bbf5454f91fc6dd9e9bdde69d249756c3e6a1a4cac09c1f86e62001c4762001c2483620038e0565b604080519586526020860187905285015242606085015233939081906080820190565b0390a360015f8051602062004c7483398151915255604051908152f35b838080808686600154165af162001c7a6200333d565b5015620007ab5787827fbb64cfa7f75512208a9b73fb4034b028a5972cba07a53b641e16ba38571f1331925416926001541693604051908152a35f808062001bd9565b62001cca91945062002f8a565b5f925f62001bd1565b6040513d5f823e3d90fd5b5f80fd5b600d018054801562001cfa575f190190555f62001b93565b634e487b7160e01b5f52601160045260245ffd5b61271062001d1f6016548a6200322a565b049362001ae8565b6040516378dbf0af60e11b8152600490fd5b8092508a8092503d831162001d68575b62001d55818362002f9e565b8101031262001cde578690515f62001abb565b503d62001d49565b634e487b7160e01b5f52602160045260245ffd5b3462001cde57602036600319011262001cde5760043562001da4620039d8565b801562001db057600955005b60405162461bcd60e51b815260206004820152600e60248201526d496e76616c696420737570706c7960901b6044820152606490fd5b3462001cde575f36600319011262001cde576001546040516001600160a01b039091168152602090f35b3462001cde575f36600319011262001cde576020601054604051908152f35b608036600319011262001cde576004356001600160401b03811162001cde5762001e5e90369060040162002edb565b906024356001600160401b03811162001cde5762001e8190369060040162002edb565b926044356001600160401b03811162001cde5762001ea490369060040162002edb565b9290936064356001600160401b03811162001cde5762001ec990369060040162002edb565b62001ed695919562003a04565b60ff601754166200190657601354803410620026ec5780620026be575b5060405161120881818101106001600160401b0382840111176200242e5780829162003a6c833960808183015262001f6262001f4e62001f3a6080848601018b8a62003371565b8385018103602085870101528d8a62003371565b828401810360408486010152858b62003371565b90606033918401015203905ff095861562001cd35762001fec9162001fdf62001f8d60125462003437565b998a6012556040519562001fa18762002f6d565b8b87526001600160a01b038b16602088015262001fc0368b8a62003446565b604088015262001fd2368e8b62003446565b6060880152369162003446565b6080850152369162003446565b60a08201523360c08201525f60e08201525f6101008201525f610120820152426101408201525f6101608201525f6101808201525f6101a08201525f6101c0820152855f52601960205260405f2090805182556001820160018060a01b036020830151166001600160601b0360a01b82541617905560408101518051906001600160401b0382116200242e57819062002089600286015462002f32565b601f811162002669575b50602090601f8311600114620025f6575f92620025ea575b50508160011b915f199060031b1c19161760028301555b60608101518051906001600160401b0382116200242e578190620020ea600386015462002f32565b601f811162002595575b50602090601f831160011462002522575f9262002516575b50508160011b915f199060031b1c19161760038301555b60808101518051906001600160401b0382116200242e5781906200214b600486015462002f32565b601f8111620024c1575b50602090601f83116001146200244e575f9262002442575b50508160011b915f199060031b1c19161760048301555b60a08101518051906001600160401b0382116200242e578190620021ac600586015462002f32565b601f8111620023d9575b50602090601f831160011462002366575f926200235a575b50508160011b915f199060031b1c19161760058301555b60c08101516006830180546001600160a01b0319166001600160a01b039290921691909117905560e0810151600783015561010081015160088301556101208101516009830155610140810151600a830155610160810151600b830155610180810151600c830191600482101562001d7057600e926101c09260ff801983541691161790556101a0810151600d850155015191015560018060a01b0384165f52601a6020528460405f20556200229e601354346200321c565b8062002336575b5090604095620022c5620022d49388519560608752606087019162003371565b91848303602086015262003371565b428286015233916001600160a01b0384169185917f4d489902cb58125178940d9999449ef9dcb2d5a62606b2849104bf9f9adffad49181900390a460015f8051602062004c748339815191525582519182526001600160a01b03166020820152f35b5f80808093959495335af16200234b6200333d565b5015620007ab579086620022a5565b015190508a80620021ce565b9250600585015f5260205f20905f935b601f1984168510620023bd576001945083601f19811610620023a4575b505050811b016005830155620021e5565b01515f1960f88460031b161c191690558a808062002393565b8181015183556020948501946001909301929091019062002376565b909150600585015f5260205f20601f840160051c81016020851062002426575b90849392915b601f830160051c8201811062002417575050620021b6565b5f8155859450600101620023ff565b5080620023f9565b634e487b7160e01b5f52604160045260245ffd5b015190508a806200216d565b9250600485015f5260205f20905f935b601f1984168510620024a5576001945083601f198116106200248c575b505050811b01600483015562002184565b01515f1960f88460031b161c191690558a80806200247b565b818101518355602094850194600190930192909101906200245e565b909150600485015f5260205f20601f840160051c8101602085106200250e575b90849392915b601f830160051c82018110620024ff57505062002155565b5f8155859450600101620024e7565b5080620024e1565b015190508a806200210c565b9250600385015f5260205f20905f935b601f198416851062002579576001945083601f1981161062002560575b505050811b01600383015562002123565b01515f1960f88460031b161c191690558a80806200254f565b8181015183556020948501946001909301929091019062002532565b909150600385015f5260205f20601f840160051c810160208510620025e2575b90849392915b601f830160051c82018110620025d3575050620020f4565b5f8155859450600101620025bb565b5080620025b5565b015190508a80620020ab565b9250600285015f5260205f20905f935b601f19841685106200264d576001945083601f1981161062002634575b505050811b016002830155620020c2565b01515f1960f88460031b161c191690558a808062002623565b8181015183556020948501946001909301929091019062002606565b909150600285015f5260205f20601f840160051c810160208510620026b6575b90849392915b601f830160051c82018110620026a757505062002093565b5f81558594506001016200268f565b508062002689565b6001545f918291829182916001600160a01b03165af1620026de6200333d565b5015620007ab578862001ef3565b60405163cd1c886760e01b8152600490fd5b3462001cde575f36600319011262001cde57602060ff601754166040519015158152f35b3462001cde575f36600319011262001cde576020600d54604051908152f35b3462001cde57602036600319011262001cde576200275e620039d8565b600435601355005b3462001cde57602036600319011262001cde5760043562002786620039d8565b80156200279257600a55005b60405162461bcd60e51b8152602060048201526011602482015270125b9d985b1a59081d1a1c995cda1bdb19607a1b6044820152606490fd5b3462001cde57602036600319011262001cde576004355f9081526019602052604090208054600182015490916001600160a01b039182169190620028126002820162002fc0565b90620028216003820162002fc0565b6200282f6004830162002fc0565b6200283d6005840162002fc0565b946006840154169460078401546008850154600986015491600a87015493600b88015495600c89015460ff1697600d8a015499600e01549a6040519e8f9e8f906101e09282526020820152816040820152016200289a916200306e565b8d810360608f0152620028ad916200306e565b8c810360808e0152620028c0916200306e565b8b810360a08d0152620028d3916200306e565b9860c08b015260e08a015261010089015261012088015261014087015261016086015261018085016200290691620030ae565b6101a08401526101c08301520390f35b3462001cde575f36600319011262001cde576006546040516001600160a01b039091168152602090f35b3462001cde57602036600319011262001cde576200295d62002f1b565b62002967620039d8565b600780546001600160a01b0319166001600160a01b0392909216919091179055005b3462001cde575f36600319011262001cde576002546040516001600160a01b039091168152602090f35b3462001cde575f36600319011262001cde576020600e54604051908152f35b3462001cde57604036600319011262001cde57620029ef62002f1b565b6001600160a01b03602435818116929083900362001cde57165f52601b60205260405f20905f52602052602060405f2054604051908152f35b3462001cde57602036600319011262001cde576020620005a860043562003402565b3462001cde575f36600319011262001cde576003546040516001600160a01b039091168152602090f35b3462001cde57604036600319011262001cde576004356024356001600160401b03811162001cde5762002aac90369060040162002edb565b919062002ab8620039d8565b5f8281526019602052604090206001810180549092916001600160a01b0391821615620018f457600c81019081549160ff8316600481101562001d705762002b8457600360079360ff1916179055018054908162002b5c575b50507ff74a47d89e84c2b28bdb4075073b40eaf57125e411cc91d8e631ab8f0835a26b9254169362002b5160405192839260408452604084019162003371565b4260208301520390a3005b5f8080938180945585600154165af162002b756200333d565b5015620007ab57858062002b11565b60405162461bcd60e51b815260206004820152600e60248201526d546f6b656e206e6f74206c69766560901b6044820152606490fd5b3462001cde575f36600319011262001cde576020601654604051908152f35b3462001cde575f36600319011262001cde576020601154604051908152f35b3462001cde57602036600319011262001cde5760043580151580910362001cde5762002c23620039d8565b60ff8019601754169116176017555f80f35b3462001cde575f36600319011262001cde576020600c54604051908152f35b3462001cde57602036600319011262001cde5760043562002c74620039d8565b62002c846101f4821115620033c8565b601555005b3462001cde57602036600319011262001cde5760043562002ca9620039d8565b62002cb961138882111562003391565b600f55005b3462001cde57604036600319011262001cde576001600160401b0360043581811162001cde5762002cf490369060040162002ea8565b9160249060243590811162001cde5762002d1390369060040162002edb565b929062002d1f620039d8565b5f5b85811062002d2b57005b62002d38818785620032fc565b355f526020906019825260405f209160018084019060018060a01b03948583541615158062002e21575b62002d77575b50505050600191500162002d21565b600c8101805460ff19166003179055600701805491908262002df9575b5050507ff74a47d89e84c2b28bdb4075073b40eaf57125e411cc91d8e631ab8f0835a26b60019462002dc8858c8a620032fc565b359254169260405180916040825262002de6604083018d8b62003371565b9042908301520390a38780808062002d68565b5f80938882948380955554165af162002e116200333d565b5015620007ab5789808062002d94565b5060ff600c82015416600481101562002e3b571562002d62565b89634e487b7160e01b5f5260216004525ffd5b3462001cde576020620005a862002e653662002e91565b906200325d565b3462001cde575f36600319011262001cde576008546001600160a01b03168152602090f35b604090600319011262001cde576004359060243590565b9181601f8401121562001cde578235916001600160401b03831162001cde576020808501948460051b01011162001cde57565b9181601f8401121562001cde578235916001600160401b03831162001cde576020838186019501011162001cde57565b60243590811515820362001cde57565b600435906001600160a01b038216820362001cde57565b90600182811c9216801562002f62575b602083101462002f4e57565b634e487b7160e01b5f52602260045260245ffd5b91607f169162002f42565b6101e081019081106001600160401b038211176200242e57604052565b6001600160401b0381116200242e57604052565b90601f801991011681019081106001600160401b038211176200242e57604052565b9060405191825f825462002fd48162002f32565b908184526020946001916001811690815f146200304a575060011462003008575b505050620030069250038362002f9e565b565b5f90815285812095935091905b818310620030315750506200300693508201015f808062002ff5565b8554888401850152948501948794509183019162003015565b925050506200300694925060ff191682840152151560051b8201015f808062002ff5565b91908251928382525f5b84811062003099575050825f602080949584010152601f8019910116010190565b60208183018101518483018201520162003078565b90600482101562001d705752565b906101e09180518252620031386200312562003112620030ff60208501519660018060a01b0380981660208801526040860151908060408901528701906200306e565b606085015186820360608801526200306e565b608084015185820360808701526200306e565b60a083015184820360a08601526200306e565b9260c08201511660c083015260e081015160e083015261010080820151908301526101208082015190830152610140808201519083015261016080820151908301526200318f6101808083015190840190620030ae565b6101a080820151908301526101c08091015191015290565b6020808201906020835283518092526040830192602060408460051b8301019501935f915b848310620031dd5750505050505090565b9091929394958480620031fd600193603f198682030187528a51620030bc565b9801930193019194939290620031cc565b9190820180921162001cfa57565b9190820391821162001cfa57565b8181029291811591840414171562001cfa57565b811562003249570490565b634e487b7160e01b5f52601260045260245ffd5b9190915f52601960205260405f209160ff600c84015416600481101562001d7057620032f657620032dd620032e791620032d6620032a3600b546007880154906200320e565b620032cf620032bb6008600c5499015480996200321c565b93620032c885846200322a565b926200320e565b906200323e565b906200321c565b926009546200321c565b808311620032f25750565b9150565b505f9150565b91908110156200330d5760051b0190565b634e487b7160e01b5f52603260045260245ffd5b6001600160401b0381116200242e57601f01601f191660200190565b3d156200336c573d90620033518262003321565b9162003361604051938462002f9e565b82523d5f602084013e565b606090565b908060209392818452848401375f828201840152601f01601f1916010190565b156200339957565b60405162461bcd60e51b81526020600482015260076024820152664d61782035302560c81b6044820152606490fd5b15620033d057565b60405162461bcd60e51b815260206004820152600a6024820152694d61782035252066656560b01b6044820152606490fd5b62003433670de0b6b3a764000091805f52601960205260086200342960405f2092620038e0565b910154906200322a565b0490565b5f19811462001cfa5760010190565b929192620034548262003321565b9162003464604051938462002f9e565b82948184528183011162001cde578281602093845f960137010152565b60405190620034908262002f6d565b5f6101c0838281528260208201526060604082015260608082015260606080820152606060a08201528260c08201528260e08201528261010082015282610120820152826101408201528261016082015282610180820152826101a08201520152565b90604051620035028162002f6d565b8254815260018301546001600160a01b039081166020830152909283916200352d6002830162002fc0565b6040840152620035406003830162002fc0565b6060840152620035536004830162002fc0565b6080840152620035666005830162002fc0565b60a084015260068201541660c0830152600781015460e083015260088101546101008301526009810154610120830152600a810154610140830152600b81015461016083015260ff600c82015416600481101562001d70576101c091600e91610180850152600d8101546101a08501520154910152565b6001600160401b0381116200242e5760051b60200190565b604051602081018181106001600160401b038211176200242e576040525f815290565b906200362482620035dd565b62003633604051918262002f9e565b828152809262003646601f1991620035dd565b01905f5b8281106200365757505050565b6020906200366462003481565b828285010152016200364a565b80518210156200330d5760209160051b010190565b919060125490818410156200372d57620036a190846200320e565b9080821162003724575b50620036c2620036bc84836200321c565b62003618565b92805b828110620036d257505050565b600181019081811162001cfa576001915f5260196020526200371c60405f20620037086200370186856200321c565b91620034f3565b62003714828a62003671565b528762003671565b5001620036c5565b90505f620036ab565b505090506200373b620035f5565b90565b60125491925f60015b84811115620038905750808310156200388157806200376786856200320e565b116200386a575b506200377a8462003618565b935f915f9160015b868111158062003860575b156200385757805f52601960209080825260409160ff600c845f2001541660048082101562003844575015620037d2575b505050620037cc9062003437565b62003782565b888894981015620037fa575b505050620037f0620037cc9162003437565b94905f80620037be565b956200381b620037f0936200383b93620037cc96998b5f52525f20620034f3565b62003827828d62003671565b5262003834818c62003671565b5062003437565b94915f620037de565b602190634e487b7160e01b5f525260245ffd5b50509350505050565b508184106200378d565b6200387991945082906200321c565b925f6200376e565b50925050506200373b620035f5565b805f52601960205260ff600c60405f2001541660048082101562003844575015620038c7575b620038c19062003437565b62003747565b90620038d7620038c19162003437565b919050620038b6565b5f52601960205260405f2060ff600c82015416600481101562001d70576200394f576200392962003919600b546007840154906200320e565b916008600c54910154906200321c565b670de0b6b3a76400009182810292818404149015171562001cfa576200373b916200323e565b505f90565b9190915f52601960205260405f209160ff600c84015416600481101562001d7057620032f657600883015490818111620039d15790620032d6620039c592620032cf620039b8620039ae6007600b5499015480996200320e565b94600c546200321c565b91620032c883866200322a565b91808311620032f25750565b505f925050565b5f546001600160a01b03163303620039ec57565b60405163118cdaa760e01b8152336004820152602490fd5b5f8051602062004c74833981519152600281541462003a235760029055565b604051633ee5aeb560e01b8152600490fd5b9081602091031262001cde5751801515810362001cde5790565b9081606091031262001cde57805191604060208301519201519056fe60e060405234620007225762001208803803806200001d8162000726565b928339810190608081830312620007225780516001600160401b039190828111620007225783620000509183016200074c565b602093848301518481116200072257816200006d9185016200074c565b90604084015185811162000722576060916200008b9186016200074c565b930151946001600160a01b038616860362000722578251958587116200063a576003948554946001988987811c9716801562000717575b858810146200070357601f96878111620006bb575b5080858882116001146200065a575f916200064e575b505f19828a1b1c1916908a1b1787555b8451928884116200063a5760049384548b81811c911680156200062f575b878210146200055257888111620005e7575b5080868982116001146200057c575f9162000570575b505f19828b1b1c1916908b1b1784555b3360805260a0528151888111620004765760059283548b81811c9116801562000565575b87821014620005525790818984931162000501575b50869089831160011462000495575f9262000489575b50505f19828a1b1c1916908a1b1782555b4260c05280519088821162000476576006548a81811c911680156200046b575b86821014620004585790818884931162000406575b508590888311600114620003a1575f9262000395575b50505f1982891b1c191690891b176006555b83519687116200038257600754918883811c9316801562000377575b848410146200036457508482116200031d575b505080928511600114620002b157509383949184925f95620002a5575b50501b925f19911b1c1916176007555b604051610a4b9081620007bd823960805181818161015f015281816101e80152610448015260a05181610899015260c051816101280152f35b015193505f806200025c565b92919084601f19811660075f52855f20955f905b89838310620003025750505010620002e8575b50505050811b016007556200026c565b01519060f8845f19921b161c191690555f808080620002d8565b858701518955909701969485019488935090810190620002c5565b60075f52825f209085808901821c830193858a106200035a575b01901c019087905b8281106200034e57506200023f565b5f81550187906200033f565b9350829362000337565b602290634e487b7160e01b5f525260245ffd5b92607f16926200022c565b604182634e487b7160e01b5f525260245ffd5b015190505f80620001fe565b908b9350601f1983169160065f52875f20925f5b89828210620003ef5750508411620003d7575b505050811b0160065562000210565b01515f19838b1b60f8161c191690555f8080620003c8565b8385015186558f97909501949384019301620003b5565b90915060065f52855f2088808501861c8201928886106200044e575b918d918695949301871c01915b8281106200043f575050620001e8565b5f81558594508d91016200042f565b9250819262000422565b602285634e487b7160e01b5f525260245ffd5b90607f1690620001d3565b604184634e487b7160e01b5f525260245ffd5b015190505f80620001a2565b908c9350601f19831691865f52885f20925f5b8a828210620004e15750508411620004c9575b505050811b018255620001b3565b01515f19838c1b60f8161c191690555f8080620004bb565b91929395968291958786015181550195019301908e9594939291620004a8565b909150845f52865f2089808501871c82019289861062000548575b918e918695949301881c01915b828110620005395750506200018c565b5f81558594508e910162000529565b925081926200051c565b602286634e487b7160e01b5f525260245ffd5b90607f169062000177565b90508701515f62000143565b8c9250601f19821690875f52885f20915f5b8a8c838310620005c8575050508311620005b0575b5050811b01845562000153565b8901515f19838d1b60f8161c191690555f80620005a3565b94848294959798929396015181550194019201908e949392916200058e565b855f52865f208980840160051c82019289851062000625575b0160051c01908c905b828110620006195750506200012d565b5f8155018c9062000609565b9250819262000600565b90607f16906200011b565b634e487b7160e01b5f52604160045260245ffd5b90508201515f620000ed565b8b9250601f198216908a5f52875f20915f5b89828210620006a457505083116200068c575b5050811b018755620000fd565b8401515f19838c1b60f8161c191690555f806200067f565b8388015185558f969094019392830192016200066c565b885f52855f208880840160051c820192888510620006f9575b0160051c01908b905b828110620006ed575050620000d7565b5f8155018b90620006dd565b92508192620006d4565b634e487b7160e01b5f52602260045260245ffd5b96607f1696620000c2565b5f80fd5b6040519190601f01601f191682016001600160401b038111838210176200063a57604052565b919080601f84011215620007225782516001600160401b0381116200063a5760209062000782601f8201601f1916830162000726565b9281845282828701011162000722575f5b818110620007a85750825f9394955001015290565b85810183015184820184015282016200079356fe6080604090808252600480361015610015575f80fd5b5f3560e01c91826302d05d3f146108875750816306fdde03146107ac578163095ea7b3146107045781630bf82da41461062957816318160ddd1461060b57816323b872dd14610519578163313ce567146104fe57816340c10f191461041f57816370a08231146103e957816395d89b41146102c75781639dc29fac146101be57508063a9059cbb1461018e578063c45a01551461014b578063cf09e0d0146101115763dd62ed3e146100c5575f80fd5b3461010d578060031936011261010d576020906100e061090f565b6100e8610925565b9060018060a01b038091165f5260018452825f2091165f528252805f20549051908152f35b5f80fd5b503461010d575f36600319011261010d57602090517f00000000000000000000000000000000000000000000000000000000000000008152f35b503461010d575f36600319011261010d57517f00000000000000000000000000000000000000000000000000000000000000006001600160a01b03168152602090f35b503461010d578060031936011261010d576020906101b76101ad61090f565b602435903361093b565b5160018152f35b823461010d578060031936011261010d576101d761090f565b602435929091906001600160a01b037f0000000000000000000000000000000000000000000000000000000000000000811633036102b85783169283156102a257835f525f602052825f20549185831061026e575f857fddf252ad1be2c89b69c2b068fc378daa952ba7f163c4a11628f55a4df523b3ef6020898881898688528785520381872055816002540360025551908152a3005b835163391434e360e21b81526001600160a01b03909216908201908152602081018390526040810186905281906060010390fd5b505f6024925191634b637e8f60e11b8352820152fd5b509051630636a15760e11b8152fd5b823461010d575f36600319011261010d578051905f60075460018160011c90600183169283156103df575b60209384841081146103cc578388529081156103b0575060011461035a575b505050829003601f01601f191682019267ffffffffffffffff84118385101761034757508291826103439252826108c8565b0390f35b604190634e487b7160e01b5f525260245ffd5b60075f908152929350837fa66cc928b5edb82af9bd49922954155ab7b0942694bea4ce44661d9a8736c6885b83851061039c5750505050830101848080610311565b805488860183015293019284908201610386565b60ff1916878501525050151560051b8401019050848080610311565b602289634e487b7160e01b5f525260245ffd5b91607f16916102f2565b823461010d57602036600319011261010d576020906001600160a01b0361040e61090f565b165f525f8252805f20549051908152f35b823461010d578060031936011261010d5761043861090f565b60243591906001600160a01b03907f0000000000000000000000000000000000000000000000000000000000000000821633036104ee57169283156104d957600254908382018092116104c657505f927fddf252ad1be2c89b69c2b068fc378daa952ba7f163c4a11628f55a4df523b3ef9260209260025585855284835280852082815401905551908152a3005b601190634e487b7160e01b5f525260245ffd5b5f602492519163ec442f0560e01b8352820152fd5b8251630636a15760e11b81528590fd5b823461010d575f36600319011261010d576020905160128152f35b90503461010d57606036600319011261010d5761053461090f565b61053c610925565b906044359260018060a01b038216805f526001602052855f20335f52602052855f2054915f198310610577575b6020876101b788888861093b565b8583106105df5781156105c95733156105b357505f908152600160209081528682203383528152908690209185900390915582906101b7610569565b6024905f885191634a1406b160e11b8352820152fd5b6024905f88519163e602df0560e01b8352820152fd5b8651637dc7a0d960e11b8152339181019182526020820193909352604081018690528291506060010390fd5b823461010d575f36600319011261010d576020906002549051908152f35b823461010d575f36600319011261010d578051905f60055460018160011c90600183169283156106fa575b60209384841081146103cc578388529081156103b057506001146106a457505050829003601f01601f191682019267ffffffffffffffff84118385101761034757508291826103439252826108c8565b60055f908152929350837f036b6384b5eca791c62761152d0c79bb0604c104a5fb6f4eb0703f3154bb3db05b8385106106e65750505050830101848080610311565b8054888601830152930192849082016106d0565b91607f1691610654565b823461010d578060031936011261010d5761071d61090f565b602435903315610796576001600160a01b03169081156107805760209350335f5260018452825f20825f52845280835f205582519081527f8c5be1e5ebec7d5bd14f71427d1e84f3dd0314c0f7b2291e5b200ac8c7c3b925843392a35160018152f35b8251634a1406b160e11b81525f81860152602490fd5b825163e602df0560e01b81525f81860152602490fd5b823461010d575f36600319011261010d578051905f60065460018160011c906001831692831561087d575b60209384841081146103cc578388529081156103b0575060011461082757505050829003601f01601f191682019267ffffffffffffffff84118385101761034757508291826103439252826108c8565b60065f908152929350837ff652222313e28459528d920b65115c16c04f3efc82aaedc97be59f3f377c0d3f5b8385106108695750505050830101848080610311565b805488860183015293019284908201610853565b91607f16916107d7565b3461010d575f36600319011261010d577f00000000000000000000000000000000000000000000000000000000000000006001600160a01b03168152602090f35b602080825282518183018190529093925f5b8281106108fb57505060409293505f838284010152601f8019910116010190565b8181018601518482016040015285016108da565b600435906001600160a01b038216820361010d57565b602435906001600160a01b038216820361010d57565b916001600160a01b038084169283156109fd57169283156109e557825f525f60205260405f2054908282106109b35750817fddf252ad1be2c89b69c2b068fc378daa952ba7f163c4a11628f55a4df523b3ef92602092855f525f84520360405f2055845f5260405f20818154019055604051908152a3565b60405163391434e360e21b81526001600160a01b03919091166004820152602481019190915260448101829052606490fd5b60405163ec442f0560e01b81525f6004820152602490fd5b604051634b637e8f60e11b81525f6004820152602490fdfea2646970667358221220651555d6067d4d1611616e2df992710b20b7b4034946fef89b317f8d47f0b5e664736f6c634300081800339b779b17422d0df92223018b32b4d1fa46e071723d6817e2486d003becc55f00a2646970667358221220bdd190bc4f527653eb3265b793d882dc751071f44119c69cbc99fafdde44ff1464736f6c63430008180033","linkReferences":{}},"methodIdentifiers":{"BPS_DENOMINATOR()":"e1a45218","PRECISION()":"aaf5eb68","batchDelistTokens(uint256[],string)":"0576453c","batchSetFeeWhitelist(address[],bool)":"f31cd8a6","burnBps()":"53deb3d6","buyFeeBps()":"77d2300e","buyTokens(uint256,uint256)":"7975ce28","calculateBuyAmount(uint256,uint256)":"03ff40fb","calculateSellAmount(uint256,uint256)":"ebff160b","deadAddress()":"27c8f835","delistToken(uint256,string)":"2596eeba","emergencyWithdraw()":"db2e21bc","feeWhitelist(address)":"d408f657","getAllTokens(uint256,uint256)":"9a043832","getCurrentPrice(uint256)":"c55d0f56","getLiveTokens(uint256,uint256)":"aa347dfb","getMarketCap(uint256)":"283c9c31","getToken(uint256)":"e4b50cb8","getTokenByAddress(address)":"91ded8fa","getTokenStats(uint256)":"c5829514","graduationThreshold()":"8b0bc501","launchFee()":"cf3cf573","launchToken(string,string,string,string)":"5fc6762c","lpRecipient()":"452e68dd","maxSupply()":"d5abeb01","owner()":"8da5cb5b","paisleyFactory()":"03e9faea","paisleyLpBps()":"ece90022","paisleyRouter()":"c6c095e1","paused()":"5c975abb","platformFeeBps()":"22dcd13e","pulseXFactory()":"4f01a3a7","pulseXLpBps()":"325b6a57","pulseXRouter()":"aec9b6f4","renounceOwnership()":"715018a6","sellFeeBps()":"23cbe1f3","sellTokens(uint256,uint256,uint256)":"709ef231","setBurnBps(uint256)":"addc831e","setBuyFee(uint256)":"0cc835a3","setDeadAddress(address)":"77975e0b","setFeeWhitelist(address,bool)":"97576786","setGraduationThreshold(uint256)":"52f5b3ef","setLaunchFee(uint256)":"5313be2c","setLpRecipient(address)":"b9e05c6a","setMaxSupply(uint256)":"6f8b44b0","setPaisleyFactory(address)":"cecb62ba","setPaisleyLpBps(uint256)":"0c8f38f6","setPaisleyRouter(address)":"487dee33","setPaused(bool)":"16c38b3c","setPlatformFeeBps(uint256)":"c580c942","setPulseXFactory(address)":"e3632a30","setPulseXLpBps(uint256)":"95a3b297","setPulseXRouter(address)":"7e5cd601","setSellFee(uint256)":"8b4cee08","setSuccessRewardBps(uint256)":"a2d163d4","setTradingFee(uint256)":"b0d54bcf","setTreasury(address)":"f0f44260","setVirtualReserves(uint256,uint256)":"b99b3b02","setWpls(address)":"ea2e9cad","successRewardBps()":"6115f90b","tokenCount()":"9f181b5e","tokenHolderCount(address)":"e1203ecc","tokenToId(address)":"ca82a014","tokens(uint256)":"4f64b2be","tradingFeeBps()":"924cca9a","transferOwnership(address)":"f2fde38b","treasury()":"61d027b3","userHoldings(address,address)":"2d7711d9","virtualPlsReserves()":"d05521f4","virtualTokenReserves()":"1655bc62","wpls()":"927ef7fa"},"id":38}